{
  "contracts/LoanManager.sol": {
    "LoanManager": {
      "abi": [
        {
          "inputs": [
            {
              "internalType": "contract IERC20",
              "name": "_linkToken",
              "type": "address"
            },
            {
              "internalType": "contract AggregatorV3Interface",
              "name": "_priceFeed",
              "type": "address"
            }
          ],
          "stateMutability": "nonpayable",
          "type": "constructor"
        },
        {
          "inputs": [],
          "name": "EnforcedPause",
          "type": "error"
        },
        {
          "inputs": [],
          "name": "ExpectedPause",
          "type": "error"
        },
        {
          "inputs": [],
          "name": "ReentrancyGuardReentrantCall",
          "type": "error"
        },
        {
          "anonymous": false,
          "inputs": [
            {
              "indexed": true,
              "internalType": "uint256",
              "name": "loanId",
              "type": "uint256"
            },
            {
              "indexed": true,
              "internalType": "address",
              "name": "lender",
              "type": "address"
            },
            {
              "indexed": true,
              "internalType": "address",
              "name": "borrower",
              "type": "address"
            }
          ],
          "name": "AutomaticMatch",
          "type": "event"
        },
        {
          "anonymous": false,
          "inputs": [
            {
              "indexed": true,
              "internalType": "address",
              "name": "token",
              "type": "address"
            },
            {
              "indexed": false,
              "internalType": "uint256",
              "name": "maxLTV",
              "type": "uint256"
            }
          ],
          "name": "CollateralAdded",
          "type": "event"
        },
        {
          "anonymous": false,
          "inputs": [
            {
              "indexed": true,
              "internalType": "uint256",
              "name": "loanId",
              "type": "uint256"
            },
            {
              "indexed": false,
              "internalType": "uint256",
              "name": "amount",
              "type": "uint256"
            }
          ],
          "name": "InterestAccrued",
          "type": "event"
        },
        {
          "anonymous": false,
          "inputs": [
            {
              "indexed": true,
              "internalType": "uint256",
              "name": "loanId",
              "type": "uint256"
            },
            {
              "indexed": true,
              "internalType": "address",
              "name": "borrower",
              "type": "address"
            },
            {
              "indexed": false,
              "internalType": "uint256",
              "name": "loanAmount",
              "type": "uint256"
            }
          ],
          "name": "LoanDisbursed",
          "type": "event"
        },
        {
          "anonymous": false,
          "inputs": [
            {
              "indexed": true,
              "internalType": "uint256",
              "name": "loanId",
              "type": "uint256"
            },
            {
              "indexed": true,
              "internalType": "address",
              "name": "lender",
              "type": "address"
            }
          ],
          "name": "LoanFunded",
          "type": "event"
        },
        {
          "anonymous": false,
          "inputs": [
            {
              "indexed": true,
              "internalType": "uint256",
              "name": "loanId",
              "type": "uint256"
            },
            {
              "indexed": true,
              "internalType": "address",
              "name": "liquidator",
              "type": "address"
            }
          ],
          "name": "LoanLiquidated",
          "type": "event"
        },
        {
          "anonymous": false,
          "inputs": [
            {
              "indexed": true,
              "internalType": "uint256",
              "name": "loanId",
              "type": "uint256"
            },
            {
              "indexed": true,
              "internalType": "address",
              "name": "lender",
              "type": "address"
            },
            {
              "indexed": false,
              "internalType": "uint256",
              "name": "loanAmount",
              "type": "uint256"
            }
          ],
          "name": "LoanLiquidated",
          "type": "event"
        },
        {
          "anonymous": false,
          "inputs": [
            {
              "indexed": true,
              "internalType": "uint256",
              "name": "loanId",
              "type": "uint256"
            },
            {
              "indexed": true,
              "internalType": "address",
              "name": "borrower",
              "type": "address"
            },
            {
              "indexed": false,
              "internalType": "uint256",
              "name": "amount",
              "type": "uint256"
            }
          ],
          "name": "LoanRepaid",
          "type": "event"
        },
        {
          "anonymous": false,
          "inputs": [
            {
              "indexed": true,
              "internalType": "uint256",
              "name": "loanId",
              "type": "uint256"
            },
            {
              "indexed": true,
              "internalType": "address",
              "name": "borrower",
              "type": "address"
            },
            {
              "indexed": false,
              "internalType": "uint256",
              "name": "amount",
              "type": "uint256"
            },
            {
              "indexed": false,
              "internalType": "uint256",
              "name": "collateral",
              "type": "uint256"
            }
          ],
          "name": "LoanRequested",
          "type": "event"
        },
        {
          "anonymous": false,
          "inputs": [
            {
              "indexed": true,
              "internalType": "uint256",
              "name": "loanId",
              "type": "uint256"
            },
            {
              "indexed": true,
              "internalType": "address",
              "name": "borrower",
              "type": "address"
            },
            {
              "indexed": false,
              "internalType": "uint256",
              "name": "amount",
              "type": "uint256"
            }
          ],
          "name": "PartialRepayment",
          "type": "event"
        },
        {
          "anonymous": false,
          "inputs": [
            {
              "indexed": false,
              "internalType": "address",
              "name": "account",
              "type": "address"
            }
          ],
          "name": "Paused",
          "type": "event"
        },
        {
          "anonymous": false,
          "inputs": [
            {
              "indexed": true,
              "internalType": "uint256",
              "name": "loanId",
              "type": "uint256"
            },
            {
              "indexed": false,
              "internalType": "uint256",
              "name": "reward",
              "type": "uint256"
            }
          ],
          "name": "RewardCollected",
          "type": "event"
        },
        {
          "anonymous": false,
          "inputs": [
            {
              "indexed": false,
              "internalType": "address",
              "name": "owner",
              "type": "address"
            },
            {
              "indexed": false,
              "internalType": "uint256",
              "name": "contractBalance",
              "type": "uint256"
            }
          ],
          "name": "RewardsWithdrawn",
          "type": "event"
        },
        {
          "anonymous": false,
          "inputs": [
            {
              "indexed": false,
              "internalType": "address",
              "name": "account",
              "type": "address"
            }
          ],
          "name": "Unpaused",
          "type": "event"
        },
        {
          "inputs": [],
          "name": "allowanceCaller",
          "outputs": [
            {
              "internalType": "uint256",
              "name": "",
              "type": "uint256"
            }
          ],
          "stateMutability": "view",
          "type": "function"
        },
        {
          "inputs": [
            {
              "internalType": "address",
              "name": "",
              "type": "address"
            },
            {
              "internalType": "uint256",
              "name": "",
              "type": "uint256"
            }
          ],
          "name": "borrowerLoans",
          "outputs": [
            {
              "internalType": "uint256",
              "name": "",
              "type": "uint256"
            }
          ],
          "stateMutability": "view",
          "type": "function"
        },
        {
          "inputs": [],
          "name": "collateralizationRatio",
          "outputs": [
            {
              "internalType": "uint256",
              "name": "",
              "type": "uint256"
            }
          ],
          "stateMutability": "view",
          "type": "function"
        },
        {
          "inputs": [
            {
              "internalType": "uint256",
              "name": "loanId",
              "type": "uint256"
            }
          ],
          "name": "fundLoan",
          "outputs": [],
          "stateMutability": "nonpayable",
          "type": "function"
        },
        {
          "inputs": [],
          "name": "getAllLoanRequests",
          "outputs": [
            {
              "components": [
                {
                  "internalType": "uint256",
                  "name": "loanId",
                  "type": "uint256"
                },
                {
                  "internalType": "address",
                  "name": "borrower",
                  "type": "address"
                },
                {
                  "internalType": "uint256",
                  "name": "amount",
                  "type": "uint256"
                },
                {
                  "internalType": "uint256",
                  "name": "maxInterestRate",
                  "type": "uint256"
                },
                {
                  "internalType": "uint256",
                  "name": "dueDate",
                  "type": "uint256"
                },
                {
                  "internalType": "uint256",
                  "name": "duration",
                  "type": "uint256"
                },
                {
                  "internalType": "bool",
                  "name": "matched",
                  "type": "bool"
                },
                {
                  "internalType": "uint256",
                  "name": "collateralAmount",
                  "type": "uint256"
                },
                {
                  "internalType": "bool",
                  "name": "isActive",
                  "type": "bool"
                }
              ],
              "internalType": "struct LoanStorage.LoanRequestDetail[]",
              "name": "",
              "type": "tuple[]"
            }
          ],
          "stateMutability": "view",
          "type": "function"
        },
        {
          "inputs": [],
          "name": "getETHPrice",
          "outputs": [
            {
              "internalType": "uint256",
              "name": "",
              "type": "uint256"
            }
          ],
          "stateMutability": "view",
          "type": "function"
        },
        {
          "inputs": [
            {
              "internalType": "address",
              "name": "user",
              "type": "address"
            }
          ],
          "name": "getUserLoanRequests",
          "outputs": [
            {
              "components": [
                {
                  "internalType": "uint256",
                  "name": "loanId",
                  "type": "uint256"
                },
                {
                  "internalType": "address",
                  "name": "borrower",
                  "type": "address"
                },
                {
                  "internalType": "uint256",
                  "name": "amount",
                  "type": "uint256"
                },
                {
                  "internalType": "uint256",
                  "name": "maxInterestRate",
                  "type": "uint256"
                },
                {
                  "internalType": "uint256",
                  "name": "dueDate",
                  "type": "uint256"
                },
                {
                  "internalType": "uint256",
                  "name": "duration",
                  "type": "uint256"
                },
                {
                  "internalType": "bool",
                  "name": "matched",
                  "type": "bool"
                },
                {
                  "internalType": "uint256",
                  "name": "collateralAmount",
                  "type": "uint256"
                },
                {
                  "internalType": "bool",
                  "name": "isActive",
                  "type": "bool"
                }
              ],
              "internalType": "struct LoanStorage.LoanRequestDetail[]",
              "name": "",
              "type": "tuple[]"
            }
          ],
          "stateMutability": "view",
          "type": "function"
        },
        {
          "inputs": [
            {
              "internalType": "address",
              "name": "",
              "type": "address"
            }
          ],
          "name": "lenderAvailableFunds",
          "outputs": [
            {
              "internalType": "uint256",
              "name": "",
              "type": "uint256"
            }
          ],
          "stateMutability": "view",
          "type": "function"
        },
        {
          "inputs": [
            {
              "internalType": "address",
              "name": "",
              "type": "address"
            },
            {
              "internalType": "uint256",
              "name": "",
              "type": "uint256"
            }
          ],
          "name": "lenderLoans",
          "outputs": [
            {
              "internalType": "uint256",
              "name": "",
              "type": "uint256"
            }
          ],
          "stateMutability": "view",
          "type": "function"
        },
        {
          "inputs": [],
          "name": "linkToken",
          "outputs": [
            {
              "internalType": "contract IERC20",
              "name": "",
              "type": "address"
            }
          ],
          "stateMutability": "view",
          "type": "function"
        },
        {
          "inputs": [
            {
              "internalType": "uint256",
              "name": "loanId",
              "type": "uint256"
            }
          ],
          "name": "liquidateOverdueLoan",
          "outputs": [],
          "stateMutability": "nonpayable",
          "type": "function"
        },
        {
          "inputs": [],
          "name": "liquidationThreshold",
          "outputs": [
            {
              "internalType": "uint256",
              "name": "",
              "type": "uint256"
            }
          ],
          "stateMutability": "view",
          "type": "function"
        },
        {
          "inputs": [],
          "name": "loanCounter",
          "outputs": [
            {
              "internalType": "uint256",
              "name": "",
              "type": "uint256"
            }
          ],
          "stateMutability": "view",
          "type": "function"
        },
        {
          "inputs": [
            {
              "internalType": "uint256",
              "name": "",
              "type": "uint256"
            }
          ],
          "name": "loanRequests",
          "outputs": [
            {
              "internalType": "uint256",
              "name": "amount",
              "type": "uint256"
            },
            {
              "internalType": "uint256",
              "name": "maxInterestRate",
              "type": "uint256"
            },
            {
              "internalType": "uint256",
              "name": "dueDate",
              "type": "uint256"
            },
            {
              "internalType": "uint256",
              "name": "duration",
              "type": "uint256"
            },
            {
              "internalType": "bool",
              "name": "matched",
              "type": "bool"
            }
          ],
          "stateMutability": "view",
          "type": "function"
        },
        {
          "inputs": [
            {
              "internalType": "uint256",
              "name": "",
              "type": "uint256"
            },
            {
              "internalType": "address",
              "name": "",
              "type": "address"
            }
          ],
          "name": "loansCollateral",
          "outputs": [
            {
              "internalType": "uint256",
              "name": "",
              "type": "uint256"
            }
          ],
          "stateMutability": "view",
          "type": "function"
        },
        {
          "inputs": [
            {
              "internalType": "uint256",
              "name": "",
              "type": "uint256"
            }
          ],
          "name": "loansCore",
          "outputs": [
            {
              "internalType": "address",
              "name": "borrower",
              "type": "address"
            },
            {
              "internalType": "address",
              "name": "lender",
              "type": "address"
            },
            {
              "internalType": "uint256",
              "name": "amount",
              "type": "uint256"
            },
            {
              "internalType": "uint256",
              "name": "collateral",
              "type": "uint256"
            },
            {
              "internalType": "uint256",
              "name": "interestRate",
              "type": "uint256"
            },
            {
              "internalType": "enum ILoanManager.InterestRateType",
              "name": "rateType",
              "type": "uint8"
            },
            {
              "internalType": "uint256",
              "name": "duration",
              "type": "uint256"
            }
          ],
          "stateMutability": "view",
          "type": "function"
        },
        {
          "inputs": [
            {
              "internalType": "uint256",
              "name": "",
              "type": "uint256"
            }
          ],
          "name": "loansInterest",
          "outputs": [
            {
              "internalType": "uint256",
              "name": "lastInterestAccrualTimestamp",
              "type": "uint256"
            },
            {
              "internalType": "uint256",
              "name": "accruedInterest",
              "type": "uint256"
            }
          ],
          "stateMutability": "view",
          "type": "function"
        },
        {
          "inputs": [
            {
              "internalType": "uint256",
              "name": "",
              "type": "uint256"
            }
          ],
          "name": "loansStatus",
          "outputs": [
            {
              "internalType": "uint256",
              "name": "startTime",
              "type": "uint256"
            },
            {
              "internalType": "bool",
              "name": "active",
              "type": "bool"
            },
            {
              "internalType": "bool",
              "name": "repaid",
              "type": "bool"
            },
            {
              "internalType": "bool",
              "name": "defaulted",
              "type": "bool"
            },
            {
              "internalType": "uint256",
              "name": "repaidAmount",
              "type": "uint256"
            }
          ],
          "stateMutability": "view",
          "type": "function"
        },
        {
          "inputs": [
            {
              "internalType": "uint256",
              "name": "loanId",
              "type": "uint256"
            },
            {
              "internalType": "uint256",
              "name": "amount",
              "type": "uint256"
            }
          ],
          "name": "makePartialRepayment",
          "outputs": [],
          "stateMutability": "nonpayable",
          "type": "function"
        },
        {
          "inputs": [],
          "name": "maxLoanAmount",
          "outputs": [
            {
              "internalType": "uint256",
              "name": "",
              "type": "uint256"
            }
          ],
          "stateMutability": "view",
          "type": "function"
        },
        {
          "inputs": [],
          "name": "minLoanAmount",
          "outputs": [
            {
              "internalType": "uint256",
              "name": "",
              "type": "uint256"
            }
          ],
          "stateMutability": "view",
          "type": "function"
        },
        {
          "inputs": [],
          "name": "owner",
          "outputs": [
            {
              "internalType": "address",
              "name": "",
              "type": "address"
            }
          ],
          "stateMutability": "view",
          "type": "function"
        },
        {
          "inputs": [],
          "name": "paused",
          "outputs": [
            {
              "internalType": "bool",
              "name": "",
              "type": "bool"
            }
          ],
          "stateMutability": "view",
          "type": "function"
        },
        {
          "inputs": [],
          "name": "priceFeed",
          "outputs": [
            {
              "internalType": "contract AggregatorV3Interface",
              "name": "",
              "type": "address"
            }
          ],
          "stateMutability": "view",
          "type": "function"
        },
        {
          "inputs": [
            {
              "internalType": "uint256",
              "name": "loanId",
              "type": "uint256"
            }
          ],
          "name": "repayLoanWithReward",
          "outputs": [],
          "stateMutability": "nonpayable",
          "type": "function"
        },
        {
          "inputs": [
            {
              "internalType": "uint256",
              "name": "amount",
              "type": "uint256"
            },
            {
              "internalType": "uint256",
              "name": "maxInterestRate",
              "type": "uint256"
            },
            {
              "internalType": "uint256",
              "name": "duration",
              "type": "uint256"
            }
          ],
          "name": "requestLoan",
          "outputs": [],
          "stateMutability": "payable",
          "type": "function"
        },
        {
          "inputs": [
            {
              "internalType": "uint256",
              "name": "_minLoanAmount",
              "type": "uint256"
            },
            {
              "internalType": "uint256",
              "name": "_maxLoanAmount",
              "type": "uint256"
            }
          ],
          "name": "setLoanLimits",
          "outputs": [],
          "stateMutability": "nonpayable",
          "type": "function"
        },
        {
          "inputs": [
            {
              "internalType": "address",
              "name": "",
              "type": "address"
            }
          ],
          "name": "supportedCollaterals",
          "outputs": [
            {
              "internalType": "address",
              "name": "priceOracle",
              "type": "address"
            },
            {
              "internalType": "uint256",
              "name": "maxLTV",
              "type": "uint256"
            },
            {
              "internalType": "bool",
              "name": "isActive",
              "type": "bool"
            }
          ],
          "stateMutability": "view",
          "type": "function"
        },
        {
          "inputs": [
            {
              "internalType": "uint256",
              "name": "newRatio",
              "type": "uint256"
            }
          ],
          "name": "updateCollateralizationRatio",
          "outputs": [],
          "stateMutability": "nonpayable",
          "type": "function"
        },
        {
          "inputs": [
            {
              "internalType": "uint256",
              "name": "newThreshold",
              "type": "uint256"
            }
          ],
          "name": "updateLiquidationThreshold",
          "outputs": [],
          "stateMutability": "nonpayable",
          "type": "function"
        },
        {
          "inputs": [
            {
              "internalType": "address",
              "name": "_owner",
              "type": "address"
            }
          ],
          "name": "withdrawRewards",
          "outputs": [],
          "stateMutability": "nonpayable",
          "type": "function"
        }
      ],
      "evm": {
        "bytecode": {
          "linkReferences": {},
          "object": "60806040526078600e55606e600f553480156200001b57600080fd5b50604051620057f2380380620057f28339818101604052810190620000419190620001f2565b6001600a819055506000600b60006101000a81548160ff02191690831515021790555081600b60016101000a81548173ffffffffffffffffffffffffffffffffffffffff021916908373ffffffffffffffffffffffffffffffffffffffff16021790555080600c60006101000a81548173ffffffffffffffffffffffffffffffffffffffff021916908373ffffffffffffffffffffffffffffffffffffffff16021790555033600d60006101000a81548173ffffffffffffffffffffffffffffffffffffffff021916908373ffffffffffffffffffffffffffffffffffffffff160217905550505062000239565b600080fd5b600073ffffffffffffffffffffffffffffffffffffffff82169050919050565b6000620001618262000134565b9050919050565b6000620001758262000154565b9050919050565b620001878162000168565b81146200019357600080fd5b50565b600081519050620001a7816200017c565b92915050565b6000620001ba8262000154565b9050919050565b620001cc81620001ad565b8114620001d857600080fd5b50565b600081519050620001ec81620001c1565b92915050565b600080604083850312156200020c576200020b6200012f565b5b60006200021c8582860162000196565b92505060206200022f85828601620001db565b9150509250929050565b6155a980620002496000396000f3fe6080604052600436106101d85760003560e01c806388ae545c11610102578063d1b332f411610095578063e16ffcdc11610064578063e16ffcdc146106f1578063e3ed19021461071c578063e91349d714610759578063edadbbfe1461079c576101d8565b8063d1b332f414610631578063d3b5be1a14610672578063dcaf9c441461069b578063e06a9138146106c6576101d8565b8063aaea7009116100d1578063aaea70091461054a578063b29504e914610589578063b4580a66146105b2578063cc826646146105f3576101d8565b806388ae545c1461048e5780638da5cb5b146104cb57806397a146c0146104f6578063a607a8d91461051f576101d8565b806342d866931161017a57806372f943651161014957806372f94365146103e6578063741bef1a146104115780637c6fe2701461043c578063846b909a14610465576101d8565b806342d866931461033e57806357970e93146103675780635c975abb1461039257806361851d65146103bd576101d8565b8063197428bf116101b6578063197428bf1461026e57806334d9289e146102ab5780633cdb72f1146102d65780634031234c14610313576101d8565b80630607ec70146101dd5780630c9babc31461020657806317d960e014610231575b600080fd5b3480156101e957600080fd5b5061020460048036038101906101ff91906139c5565b6107b8565b005b34801561021257600080fd5b5061021b610896565b6040516102289190613bc4565b60405180910390f35b34801561023d57600080fd5b5061025860048036038101906102539190613c12565b610c98565b6040516102659190613c61565b60405180910390f35b34801561027a57600080fd5b5061029560048036038101906102909190613c7c565b610cbd565b6040516102a29190613c61565b60405180910390f35b3480156102b757600080fd5b506102c0610cd5565b6040516102cd9190613c61565b60405180910390f35b3480156102e257600080fd5b506102fd60048036038101906102f89190613ca9565b610cdb565b60405161030a9190613c61565b60405180910390f35b34801561031f57600080fd5b50610328610d0c565b6040516103359190613c61565b60405180910390f35b34801561034a57600080fd5b5061036560048036038101906103609190613c7c565b610d12565b005b34801561037357600080fd5b5061037c610fb1565b6040516103899190613d48565b60405180910390f35b34801561039e57600080fd5b506103a7610fd7565b6040516103b49190613d72565b60405180910390f35b3480156103c957600080fd5b506103e460048036038101906103df91906139c5565b610fee565b005b3480156103f257600080fd5b506103fb6111db565b6040516104089190613c61565b60405180910390f35b34801561041d57600080fd5b506104266111e1565b6040516104339190613dae565b60405180910390f35b34801561044857600080fd5b50610463600480360381019061045e91906139c5565b611207565b005b34801561047157600080fd5b5061048c600480360381019061048791906139c5565b611782565b005b34801561049a57600080fd5b506104b560048036038101906104b09190613c7c565b611dbe565b6040516104c29190613bc4565b60405180910390f35b3480156104d757600080fd5b506104e0612281565b6040516104ed9190613dd8565b60405180910390f35b34801561050257600080fd5b5061051d60048036038101906105189190613df3565b6122a7565b005b34801561052b57600080fd5b506105346123ce565b6040516105419190613c61565b60405180910390f35b34801561055657600080fd5b50610571600480360381019061056c9190613c7c565b6124b2565b60405161058093929190613e33565b60405180910390f35b34801561059557600080fd5b506105b060048036038101906105ab9190613df3565b612509565b005b3480156105be57600080fd5b506105d960048036038101906105d491906139c5565b612887565b6040516105ea959493929190613e6a565b60405180910390f35b3480156105ff57600080fd5b5061061a600480360381019061061591906139c5565b6128e4565b604051610628929190613ebd565b60405180910390f35b34801561063d57600080fd5b50610658600480360381019061065391906139c5565b612908565b604051610669959493929190613ee6565b60405180910390f35b34801561067e57600080fd5b50610699600480360381019061069491906139c5565b61294b565b005b3480156106a757600080fd5b506106b0612a29565b6040516106bd9190613c61565b60405180910390f35b3480156106d257600080fd5b506106db612a2f565b6040516106e89190613c61565b60405180910390f35b3480156106fd57600080fd5b50610706612a35565b6040516107139190613c61565b60405180910390f35b34801561072857600080fd5b50610743600480360381019061073e9190613ca9565b612adf565b6040516107509190613c61565b60405180910390f35b34801561076557600080fd5b50610780600480360381019061077b91906139c5565b612b10565b6040516107939796959493929190613fb0565b60405180910390f35b6107b660048036038101906107b1919061401f565b612b9f565b005b600d60009054906101000a900473ffffffffffffffffffffffffffffffffffffffff1673ffffffffffffffffffffffffffffffffffffffff163373ffffffffffffffffffffffffffffffffffffffff1614610848576040517f08c379a000000000000000000000000000000000000000000000000000000000815260040161083f906140cf565b60405180910390fd5b606481101561088c576040517f08c379a00000000000000000000000000000000000000000000000000000000081526004016108839061413b565b60405180910390fd5b80600e8190555050565b6060600080600190505b601054811161093e576000600660008381526020019081526020016000206040518060a0016040529081600082015481526020016001820154815260200160028201548152602001600382015481526020016004820160009054906101000a900460ff161515151581525050905060008160000151111561092a5782806109269061418a565b9350505b5080806109369061418a565b9150506108a0565b5060008167ffffffffffffffff81111561095b5761095a6141d2565b5b60405190808252806020026020018201604052801561099457816020015b610981613924565b8152602001906001900390816109795790505b509050600080600190505b6010548111610c8e576000600660008381526020019081526020016000206040518060a0016040529081600082015481526020016001820154815260200160028201548152602001600382015481526020016004820160009054906101000a900460ff16151515158152505090506000600160008481526020019081526020016000206040518060a0016040529081600082015481526020016001820160009054906101000a900460ff161515151581526020016001820160019054906101000a900460ff161515151581526020016001820160029054906101000a900460ff16151515158152602001600282015481525050905060008060008581526020019081526020016000206040518060e00160405290816000820160009054906101000a900473ffffffffffffffffffffffffffffffffffffffff1673ffffffffffffffffffffffffffffffffffffffff1673ffffffffffffffffffffffffffffffffffffffff1681526020016001820160009054906101000a900473ffffffffffffffffffffffffffffffffffffffff1673ffffffffffffffffffffffffffffffffffffffff1673ffffffffffffffffffffffffffffffffffffffff1681526020016002820154815260200160038201548152602001600482015481526020016005820160009054906101000a900460ff166001811115610ba257610ba1613f39565b5b6001811115610bb457610bb3613f39565b5b81526020016006820154815250509050600083600001511115610c7857604051806101200160405280858152602001826000015173ffffffffffffffffffffffffffffffffffffffff168152602001846000015181526020018460200151815260200184604001518152602001846060015181526020018460800151151581526020018260600151815260200183602001511515815250868681518110610c5e57610c5d614201565b5b60200260200101819052508480610c749061418a565b9550505b5050508080610c869061418a565b91505061099f565b5081935050505090565b6003602052816000526040600020602052806000526040600020600091509150505481565b60076020528060005260406000206000915090505481565b60105481565b60056020528160005260406000208181548110610cf757600080fd5b90600052602060002001600091509150505481565b600f5481565b600d60009054906101000a900473ffffffffffffffffffffffffffffffffffffffff1673ffffffffffffffffffffffffffffffffffffffff163373ffffffffffffffffffffffffffffffffffffffff1614610da2576040517f08c379a0000000000000000000000000000000000000000000000000000000008152600401610d99906140cf565b60405180910390fd5b610daa612fdf565b6000600b60019054906101000a900473ffffffffffffffffffffffffffffffffffffffff1673ffffffffffffffffffffffffffffffffffffffff166370a08231306040518263ffffffff1660e01b8152600401610e079190613dd8565b602060405180830381865afa158015610e24573d6000803e3d6000fd5b505050506040513d601f19601f82011682018060405250810190610e489190614245565b905060008111610e8d576040517f08c379a0000000000000000000000000000000000000000000000000000000008152600401610e84906142be565b60405180910390fd5b600b60019054906101000a900473ffffffffffffffffffffffffffffffffffffffff1673ffffffffffffffffffffffffffffffffffffffff1663a9059cbb83836040518363ffffffff1660e01b8152600401610eea9291906142de565b6020604051808303816000875af1158015610f09573d6000803e3d6000fd5b505050506040513d601f19601f82011682018060405250810190610f2d9190614333565b610f6c576040517f08c379a0000000000000000000000000000000000000000000000000000000008152600401610f63906143ac565b60405180910390fd5b7f8a43c4352486ec339f487f64af78ca5cbf06cd47833f073d3baf3a193e5031618282604051610f9d9291906142de565b60405180910390a150610fae613025565b50565b600b60019054906101000a900473ffffffffffffffffffffffffffffffffffffffff1681565b6000600b60009054906101000a900460ff16905090565b610ff661302f565b610ffe612fdf565b6000806000838152602001908152602001600020905060006001600084815260200190815260200160002090508060010160009054906101000a900460ff1661107c576040517f08c379a000000000000000000000000000000000000000000000000000000000815260040161107390614418565b60405180910390fd5b816006015442116110c2576040517f08c379a00000000000000000000000000000000000000000000000000000000081526004016110b990614484565b60405180910390fd5b8060010160019054906101000a900460ff1615611114576040517f08c379a000000000000000000000000000000000000000000000000000000000815260040161110b906144f0565b60405180910390fd5b61111d83613070565b60008160010160006101000a81548160ff02191690831515021790555060018160010160026101000a81548160ff0219169083151502179055508160010160009054906101000a900473ffffffffffffffffffffffffffffffffffffffff1673ffffffffffffffffffffffffffffffffffffffff16837f0256bdf47e9aff5784070d6cab332d79f81fc6b8c8ed875565982a423a389e3a84600201546040516111c69190613c61565b60405180910390a350506111d8613025565b50565b60125481565b600c60009054906101000a900473ffffffffffffffffffffffffffffffffffffffff1681565b61120f61302f565b611217612fdf565b60008060008381526020019081526020016000209050600060016000848152602001908152602001600020905060006002600085815260200190815260200160002090508160010160009054906101000a900460ff166112ac576040517f08c379a00000000000000000000000000000000000000000000000000000000081526004016112a390614418565b60405180910390fd5b8260000160009054906101000a900473ffffffffffffffffffffffffffffffffffffffff1673ffffffffffffffffffffffffffffffffffffffff163373ffffffffffffffffffffffffffffffffffffffff161461133e576040517f08c379a00000000000000000000000000000000000000000000000000000000081526004016113359061455c565b60405180910390fd5b611347846131ac565b60008160010154905060008111611393576040517f08c379a000000000000000000000000000000000000000000000000000000000815260040161138a906145c8565b60405180910390fd5b600060646014836113a491906145e8565b6113ae9190614659565b9050600081836113be919061468a565b9050428460000181905550600085600201548488600201546113e091906146be565b6113ea919061468a565b905086600201548111611432576040517f08c379a00000000000000000000000000000000000000000000000000000000081526004016114299061473e565b60405180910390fd5b60008311611475576040517f08c379a000000000000000000000000000000000000000000000000000000000815260040161146c906147aa565b60405180910390fd5b600b60019054906101000a900473ffffffffffffffffffffffffffffffffffffffff1673ffffffffffffffffffffffffffffffffffffffff166323b872dd3330846040518463ffffffff1660e01b81526004016114d4939291906147ca565b6020604051808303816000875af11580156114f3573d6000803e3d6000fd5b505050506040513d601f19601f820116820180604052508101906115179190614333565b611556576040517f08c379a000000000000000000000000000000000000000000000000000000000815260040161154d9061484d565b60405180910390fd5b600082886002015461156891906146be565b9050600b60019054906101000a900473ffffffffffffffffffffffffffffffffffffffff1673ffffffffffffffffffffffffffffffffffffffff1663a9059cbb8960010160009054906101000a900473ffffffffffffffffffffffffffffffffffffffff16836040518363ffffffff1660e01b81526004016115eb9291906142de565b6020604051808303816000875af115801561160a573d6000803e3d6000fd5b505050506040513d601f19601f8201168201806040525081019061162e9190614333565b61166d576040517f08c379a0000000000000000000000000000000000000000000000000000000008152600401611664906148b9565b60405180910390fd5b8187600201600082825461168191906146be565b9250508190555060008760010160006101000a81548160ff02191690831515021790555060018760010160016101000a81548160ff02191690831515021790555060008760010160026101000a81548160ff0219169083151502179055506116e88961332b565b3373ffffffffffffffffffffffffffffffffffffffff16897f512d3e65b3e58c2187bb1872aa435dba5bd09c1c03823ba56ab70aac411e4a218460405161172f9190613c61565b60405180910390a3887f04e1ead5246a36f9da4a7f8ba0922ebab097b2349377e0b60b228a5e9d8ee587856040516117679190613c61565b60405180910390a2505050505050505061177f613025565b50565b61178a61302f565b611792612fdf565b6000806000838152602001908152602001600020905060006001600084815260200190815260200160002090508060010160009054906101000a900460ff1615611811576040517f08c379a000000000000000000000000000000000000000000000000000000000815260040161180890614925565b60405180910390fd5b600073ffffffffffffffffffffffffffffffffffffffff168260010160009054906101000a900473ffffffffffffffffffffffffffffffffffffffff1673ffffffffffffffffffffffffffffffffffffffff16146118a4576040517f08c379a000000000000000000000000000000000000000000000000000000000815260040161189b90614991565b60405180910390fd5b8160020154600b60019054906101000a900473ffffffffffffffffffffffffffffffffffffffff1673ffffffffffffffffffffffffffffffffffffffff1663dd62ed3e33306040518363ffffffff1660e01b81526004016119069291906149b1565b602060405180830381865afa158015611923573d6000803e3d6000fd5b505050506040513d601f19601f820116820180604052508101906119479190614245565b1015611988576040517f08c379a000000000000000000000000000000000000000000000000000000000815260040161197f90614a4c565b60405180910390fd5b600b60019054906101000a900473ffffffffffffffffffffffffffffffffffffffff1673ffffffffffffffffffffffffffffffffffffffff166323b872dd333085600201546040518463ffffffff1660e01b81526004016119eb939291906147ca565b6020604051808303816000875af1158015611a0a573d6000803e3d6000fd5b505050506040513d601f19601f82011682018060405250810190611a2e9190614333565b611a6d576040517f08c379a0000000000000000000000000000000000000000000000000000000008152600401611a649061484d565b60405180910390fd5b338260010160006101000a81548173ffffffffffffffffffffffffffffffffffffffff021916908373ffffffffffffffffffffffffffffffffffffffff16021790555042816000018190555060018160010160006101000a81548160ff021916908315150217905550600b60019054906101000a900473ffffffffffffffffffffffffffffffffffffffff1673ffffffffffffffffffffffffffffffffffffffff1663a9059cbb8360000160009054906101000a900473ffffffffffffffffffffffffffffffffffffffff1684600201546040518363ffffffff1660e01b8152600401611b5b9291906142de565b6020604051808303816000875af1158015611b7a573d6000803e3d6000fd5b505050506040513d601f19601f82011682018060405250810190611b9e9190614333565b611bdd576040517f08c379a0000000000000000000000000000000000000000000000000000000008152600401611bd490614ab8565b60405180910390fd5b600560003373ffffffffffffffffffffffffffffffffffffffff1673ffffffffffffffffffffffffffffffffffffffff168152602001908152602001600020839080600181540180825580915050600190039060005260206000200160009091909190915055600460008360000160009054906101000a900473ffffffffffffffffffffffffffffffffffffffff1673ffffffffffffffffffffffffffffffffffffffff1673ffffffffffffffffffffffffffffffffffffffff16815260200190815260200160002083908060018154018082558091505060019003906000526020600020016000909190919091505560098390806001815401808255809150506001900390600052602060002001600090919091909150553373ffffffffffffffffffffffffffffffffffffffff16837f15feab5d3eb17171632762cf769709a315dd15f487a556c0dfb8a259c8f186cc60405160405180910390a38160000160009054906101000a900473ffffffffffffffffffffffffffffffffffffffff1673ffffffffffffffffffffffffffffffffffffffff16837f0ceeb4503a2fe0b51298a0af21358f3d89e7eab3f65ae2a7835859c3e2c516048460020154604051611da99190613c61565b60405180910390a35050611dbb613025565b50565b60606000600460008473ffffffffffffffffffffffffffffffffffffffff1673ffffffffffffffffffffffffffffffffffffffff168152602001908152602001600020805480602002602001604051908101604052809291908181526020018280548015611e4b57602002820191906000526020600020905b815481526020019060010190808311611e37575b505050505090506000805b8251811015611f0e576000838281518110611e7457611e73614201565b5b602002602001015190506000600660008381526020019081526020016000206040518060a0016040529081600082015481526020016001820154815260200160028201548152602001600382015481526020016004820160009054906101000a900460ff1615151515815250509050600081600001511115611eff578380611efb9061418a565b9450505b50508080600101915050611e56565b5060008167ffffffffffffffff811115611f2b57611f2a6141d2565b5b604051908082528060200260200182016040528015611f6457816020015b611f51613924565b815260200190600190039081611f495790505b5090506000805b8451811015612274576000858281518110611f8957611f88614201565b5b602002602001015190506000600660008381526020019081526020016000206040518060a0016040529081600082015481526020016001820154815260200160028201548152602001600382015481526020016004820160009054906101000a900460ff16151515158152505090506000600160008481526020019081526020016000206040518060a0016040529081600082015481526020016001820160009054906101000a900460ff161515151581526020016001820160019054906101000a900460ff161515151581526020016001820160029054906101000a900460ff16151515158152602001600282015481525050905060008060008581526020019081526020016000206040518060e00160405290816000820160009054906101000a900473ffffffffffffffffffffffffffffffffffffffff1673ffffffffffffffffffffffffffffffffffffffff1673ffffffffffffffffffffffffffffffffffffffff1681526020016001820160009054906101000a900473ffffffffffffffffffffffffffffffffffffffff1673ffffffffffffffffffffffffffffffffffffffff1673ffffffffffffffffffffffffffffffffffffffff1681526020016002820154815260200160038201548152602001600482015481526020016005820160009054906101000a900460ff16600181111561218d5761218c613f39565b5b600181111561219f5761219e613f39565b5b8152602001600682015481525050905060008360000151111561226357604051806101200160405280858152602001826000015173ffffffffffffffffffffffffffffffffffffffff16815260200184600001518152602001846020015181526020018460400151815260200184606001518152602001846080015115158152602001826060015181526020018360200151151581525087878151811061224957612248614201565b5b6020026020010181905250858061225f9061418a565b9650505b505050508080600101915050611f6b565b5081945050505050919050565b600d60009054906101000a900473ffffffffffffffffffffffffffffffffffffffff1681565b600d60009054906101000a900473ffffffffffffffffffffffffffffffffffffffff1673ffffffffffffffffffffffffffffffffffffffff163373ffffffffffffffffffffffffffffffffffffffff1614612337576040517f08c379a000000000000000000000000000000000000000000000000000000000815260040161232e906140cf565b60405180910390fd5b6000821161237a576040517f08c379a000000000000000000000000000000000000000000000000000000000815260040161237190614b4a565b60405180910390fd5b8181116123bc576040517f08c379a00000000000000000000000000000000000000000000000000000000081526004016123b390614bdc565b60405180910390fd5b81601181905550806012819055505050565b600080600c60009054906101000a900473ffffffffffffffffffffffffffffffffffffffff1673ffffffffffffffffffffffffffffffffffffffff1663feaf968c6040518163ffffffff1660e01b815260040160a060405180830381865afa15801561243e573d6000803e3d6000fd5b505050506040513d601f19601f820116820180604052508101906124629190614c74565b505050915050600081136124ab576040517f08c379a00000000000000000000000000000000000000000000000000000000081526004016124a290614d3b565b60405180910390fd5b8091505090565b60086020528060005260406000206000915090508060000160009054906101000a900473ffffffffffffffffffffffffffffffffffffffff16908060010154908060020160009054906101000a900460ff16905083565b61251161302f565b612519612fdf565b60008060008481526020019081526020016000209050600060016000858152602001908152602001600020905060006002600086815260200190815260200160002090508160010160009054906101000a900460ff166125ae576040517f08c379a00000000000000000000000000000000000000000000000000000000081526004016125a590614418565b60405180910390fd5b8260000160009054906101000a900473ffffffffffffffffffffffffffffffffffffffff1673ffffffffffffffffffffffffffffffffffffffff163373ffffffffffffffffffffffffffffffffffffffff1614612640576040517f08c379a00000000000000000000000000000000000000000000000000000000081526004016126379061455c565b60405180910390fd5b612649856131ac565b6000816001015490506000836002015482866002015461266991906146be565b612673919061468a565b9050808611156126b8576040517f08c379a00000000000000000000000000000000000000000000000000000000081526004016126af90614da7565b60405180910390fd5b600b60019054906101000a900473ffffffffffffffffffffffffffffffffffffffff1673ffffffffffffffffffffffffffffffffffffffff166323b872dd338760010160009054906101000a900473ffffffffffffffffffffffffffffffffffffffff16896040518463ffffffff1660e01b815260040161273b939291906147ca565b6020604051808303816000875af115801561275a573d6000803e3d6000fd5b505050506040513d601f19601f8201168201806040525081019061277e9190614333565b6127bd576040517f08c379a00000000000000000000000000000000000000000000000000000000081526004016127b490614e13565b60405180910390fd5b858460020160008282546127d191906146be565b92505081905550808460020154106128275760018460010160016101000a81548160ff02191690831515021790555060008460010160006101000a81548160ff0219169083151502179055506128268761332b565b5b3373ffffffffffffffffffffffffffffffffffffffff16877fb7b6ae626e0094aba4b69388b656d4b64f27860c5101c42c10a2e53fd6b0ce358860405161286e9190613c61565b60405180910390a35050505050612883613025565b5050565b60016020528060005260406000206000915090508060000154908060010160009054906101000a900460ff16908060010160019054906101000a900460ff16908060010160029054906101000a900460ff16908060020154905085565b60026020528060005260406000206000915090508060000154908060010154905082565b60066020528060005260406000206000915090508060000154908060010154908060020154908060030154908060040160009054906101000a900460ff16905085565b600d60009054906101000a900473ffffffffffffffffffffffffffffffffffffffff1673ffffffffffffffffffffffffffffffffffffffff163373ffffffffffffffffffffffffffffffffffffffff16146129db576040517f08c379a00000000000000000000000000000000000000000000000000000000081526004016129d2906140cf565b60405180910390fd5b6064811015612a1f576040517f08c379a0000000000000000000000000000000000000000000000000000000008152600401612a1690614e7f565b60405180910390fd5b80600f8190555050565b600e5481565b60115481565b600080600b60019054906101000a900473ffffffffffffffffffffffffffffffffffffffff1673ffffffffffffffffffffffffffffffffffffffff1663dd62ed3e33306040518363ffffffff1660e01b8152600401612a959291906149b1565b602060405180830381865afa158015612ab2573d6000803e3d6000fd5b505050506040513d601f19601f82011682018060405250810190612ad69190614245565b90508091505090565b60046020528160005260406000208181548110612afb57600080fd5b90600052602060002001600091509150505481565b60006020528060005260406000206000915090508060000160009054906101000a900473ffffffffffffffffffffffffffffffffffffffff16908060010160009054906101000a900473ffffffffffffffffffffffffffffffffffffffff16908060020154908060030154908060040154908060050160009054906101000a900460ff16908060060154905087565b612ba761302f565b612baf612fdf565b6011548310158015612bc357506012548311155b612c02576040517f08c379a0000000000000000000000000000000000000000000000000000000008152600401612bf990614eeb565b60405180910390fd5b60006064600e5485612c1491906145e8565b612c1e9190614659565b90506000612c2a6123ce565b90506000612cd682600c60009054906101000a900473ffffffffffffffffffffffffffffffffffffffff1673ffffffffffffffffffffffffffffffffffffffff1663313ce5676040518163ffffffff1660e01b8152600401602060405180830381865afa158015612c9f573d6000803e3d6000fd5b505050506040513d601f19601f82011682018060405250810190612cc39190614f44565b60ff16346134349092919063ffffffff16565b905082811015612d1b576040517f08c379a0000000000000000000000000000000000000000000000000000000008152600401612d1290614fbd565b60405180910390fd5b60106000815480929190612d2e9061418a565b9190505550600060066000601054815260200190815260200160002090508681600001819055508581600101819055508481600301819055508442612d7391906146be565b816002018190555060008160040160006101000a81548160ff0219169083151502179055506040518060e001604052803373ffffffffffffffffffffffffffffffffffffffff168152602001600073ffffffffffffffffffffffffffffffffffffffff16815260200188815260200134815260200187815260200160006001811115612e0257612e01613f39565b5b815260200186815250600080601054815260200190815260200160002060008201518160000160006101000a81548173ffffffffffffffffffffffffffffffffffffffff021916908373ffffffffffffffffffffffffffffffffffffffff16021790555060208201518160010160006101000a81548173ffffffffffffffffffffffffffffffffffffffff021916908373ffffffffffffffffffffffffffffffffffffffff16021790555060408201518160020155606082015181600301556080820151816004015560a08201518160050160006101000a81548160ff02191690836001811115612ef657612ef5613f39565b5b021790555060c08201518160060155905050600460003373ffffffffffffffffffffffffffffffffffffffff1673ffffffffffffffffffffffffffffffffffffffff1681526020019081526020016000206010549080600181540180825580915050600190039060005260206000200160009091909190915055612f7b601054613462565b3373ffffffffffffffffffffffffffffffffffffffff166010547f68595dbe887ae7f496f2c88735019a8918919a1decfdee6bdb460480ab87decb8934604051612fc6929190613ebd565b60405180910390a350505050612fda613025565b505050565b6002600a540361301b576040517f3ee5aeb500000000000000000000000000000000000000000000000000000000815260040160405180910390fd5b6002600a81905550565b6001600a81905550565b613037610fd7565b1561306e576040517fd93c066500000000000000000000000000000000000000000000000000000000815260040160405180910390fd5b565b6000806000838152602001908152602001600020905080600301544710156130cd576040517f08c379a00000000000000000000000000000000000000000000000000000000081526004016130c490615029565b60405180910390fd5b60008160010160009054906101000a900473ffffffffffffffffffffffffffffffffffffffff16905060008173ffffffffffffffffffffffffffffffffffffffff1683600301546040516131209061507a565b60006040518083038185875af1925050503d806000811461315d576040519150601f19603f3d011682016040523d82523d6000602084013e613162565b606091505b50509050806131a6576040517f08c379a000000000000000000000000000000000000000000000000000000000815260040161319d906150db565b60405180910390fd5b50505050565b60008060008381526020019081526020016000209050600060026000848152602001908152602001600020905060006001600085815260200190815260200160002090508060010160009054906101000a900460ff16613241576040517f08c379a000000000000000000000000000000000000000000000000000000000815260040161323890614418565b60405180910390fd5b60008083600001540361325a578360060154905061326d565b82600001544261326a919061468a565b90505b600081116132b0576040517f08c379a00000000000000000000000000000000000000000000000000000000081526004016132a79061516d565b60405180910390fd5b60006132c585600201548660040154846135a4565b9050808460010160008282546132db91906146be565b92505081905550428460000181905550857f3d8708181c6452c5711a2b4c6ed3f12149f6ea35f78549aba00a89d041e766ca8260405161331b9190613c61565b60405180910390a2505050505050565b60008060008381526020019081526020016000209050600081600301549050600081111561342f576000826003018190555060008260000160009054906101000a900473ffffffffffffffffffffffffffffffffffffffff1673ffffffffffffffffffffffffffffffffffffffff16826040516133a79061507a565b60006040518083038185875af1925050503d80600081146133e4576040519150601f19603f3d011682016040523d82523d6000602084013e6133e9565b606091505b505090508061342d576040517f08c379a0000000000000000000000000000000000000000000000000000000008152600401613424906150db565b60405180910390fd5b505b505050565b600081600a61344391906152c0565b838561344f9190614659565b61345991906145e8565b90509392505050565b60006006600083815260200190815260200160002090506000807fffffffffffffffffffffffffffffffffffffffffffffffffffffffffffffffff905060005b60098054905081101561355d576000600982815481106134c5576134c4614201565b5b906000526020600020015490508460000154600760008373ffffffffffffffffffffffffffffffffffffffff1673ffffffffffffffffffffffffffffffffffffffff168152602001908152602001600020541061354f57600061352c828760000154613712565b90508560010154811115801561354157508381105b1561354d578194508093505b505b5080806001019150506134a2565b50600073ffffffffffffffffffffffffffffffffffffffff168273ffffffffffffffffffffffffffffffffffffffff161461359e5761359d84838361380e565b5b50505050565b60008084116135e8576040517f08c379a00000000000000000000000000000000000000000000000000000000081526004016135df90615357565b60405180910390fd5b6000831161362b576040517f08c379a0000000000000000000000000000000000000000000000000000000008152600401613622906153e9565b60405180910390fd5b6000821161366e576040517f08c379a00000000000000000000000000000000000000000000000000000000081526004016136659061547b565b60405180910390fd5b600063bbf81e00670de0b6b3a76400008561368991906145e8565b6136939190614659565b9050600081116136d8576040517f08c379a00000000000000000000000000000000000000000000000000000000081526004016136cf906154e7565b60405180910390fd5b6000670de0b6b3a76400008483886136f091906145e8565b6136fa91906145e8565b6137049190614659565b905080925050509392505050565b600080600760008573ffffffffffffffffffffffffffffffffffffffff1673ffffffffffffffffffffffffffffffffffffffff1681526020019081526020016000205490508281101561379a576040517f08c379a000000000000000000000000000000000000000000000000000000000815260040161379190615553565b60405180910390fd5b6000816064856137aa91906145e8565b6137b49190614659565b90506000600290506000601490506000606483836137d2919061468a565b856137dd91906145e8565b6137e79190614659565b836137f291906146be565b905081811115613800578190505b809550505050505092915050565b60008060008581526020019081526020016000209050828160010160006101000a81548173ffffffffffffffffffffffffffffffffffffffff021916908373ffffffffffffffffffffffffffffffffffffffff16021790555081816004018190555060016006600086815260200190815260200160002060040160006101000a81548160ff0219169083151502179055508060000160009054906101000a900473ffffffffffffffffffffffffffffffffffffffff1673ffffffffffffffffffffffffffffffffffffffff168373ffffffffffffffffffffffffffffffffffffffff16857f132aeb8d030dcc11adfc3ead0730a22aa3c0bf449b3532210c732b9a25e83c2060405160405180910390a450505050565b60405180610120016040528060008152602001600073ffffffffffffffffffffffffffffffffffffffff16815260200160008152602001600081526020016000815260200160008152602001600015158152602001600081526020016000151581525090565b600080fd5b6000819050919050565b6139a28161398f565b81146139ad57600080fd5b50565b6000813590506139bf81613999565b92915050565b6000602082840312156139db576139da61398a565b5b60006139e9848285016139b0565b91505092915050565b600081519050919050565b600082825260208201905092915050565b6000819050602082019050919050565b613a278161398f565b82525050565b600073ffffffffffffffffffffffffffffffffffffffff82169050919050565b6000613a5882613a2d565b9050919050565b613a6881613a4d565b82525050565b60008115159050919050565b613a8381613a6e565b82525050565b61012082016000820151613aa06000850182613a1e565b506020820151613ab36020850182613a5f565b506040820151613ac66040850182613a1e565b506060820151613ad96060850182613a1e565b506080820151613aec6080850182613a1e565b5060a0820151613aff60a0850182613a1e565b5060c0820151613b1260c0850182613a7a565b5060e0820151613b2560e0850182613a1e565b50610100820151613b3a610100850182613a7a565b50505050565b6000613b4c8383613a89565b6101208301905092915050565b6000602082019050919050565b6000613b71826139f2565b613b7b81856139fd565b9350613b8683613a0e565b8060005b83811015613bb7578151613b9e8882613b40565b9750613ba983613b59565b925050600181019050613b8a565b5085935050505092915050565b60006020820190508181036000830152613bde8184613b66565b905092915050565b613bef81613a4d565b8114613bfa57600080fd5b50565b600081359050613c0c81613be6565b92915050565b60008060408385031215613c2957613c2861398a565b5b6000613c37858286016139b0565b9250506020613c4885828601613bfd565b9150509250929050565b613c5b8161398f565b82525050565b6000602082019050613c766000830184613c52565b92915050565b600060208284031215613c9257613c9161398a565b5b6000613ca084828501613bfd565b91505092915050565b60008060408385031215613cc057613cbf61398a565b5b6000613cce85828601613bfd565b9250506020613cdf858286016139b0565b9150509250929050565b6000819050919050565b6000613d0e613d09613d0484613a2d565b613ce9565b613a2d565b9050919050565b6000613d2082613cf3565b9050919050565b6000613d3282613d15565b9050919050565b613d4281613d27565b82525050565b6000602082019050613d5d6000830184613d39565b92915050565b613d6c81613a6e565b82525050565b6000602082019050613d876000830184613d63565b92915050565b6000613d9882613d15565b9050919050565b613da881613d8d565b82525050565b6000602082019050613dc36000830184613d9f565b92915050565b613dd281613a4d565b82525050565b6000602082019050613ded6000830184613dc9565b92915050565b60008060408385031215613e0a57613e0961398a565b5b6000613e18858286016139b0565b9250506020613e29858286016139b0565b9150509250929050565b6000606082019050613e486000830186613dc9565b613e556020830185613c52565b613e626040830184613d63565b949350505050565b600060a082019050613e7f6000830188613c52565b613e8c6020830187613d63565b613e996040830186613d63565b613ea66060830185613d63565b613eb36080830184613c52565b9695505050505050565b6000604082019050613ed26000830185613c52565b613edf6020830184613c52565b9392505050565b600060a082019050613efb6000830188613c52565b613f086020830187613c52565b613f156040830186613c52565b613f226060830185613c52565b613f2f6080830184613d63565b9695505050505050565b7f4e487b7100000000000000000000000000000000000000000000000000000000600052602160045260246000fd5b60028110613f7957613f78613f39565b5b50565b6000819050613f8a82613f68565b919050565b6000613f9a82613f7c565b9050919050565b613faa81613f8f565b82525050565b600060e082019050613fc5600083018a613dc9565b613fd26020830189613dc9565b613fdf6040830188613c52565b613fec6060830187613c52565b613ff96080830186613c52565b61400660a0830185613fa1565b61401360c0830184613c52565b98975050505050505050565b6000806000606084860312156140385761403761398a565b5b6000614046868287016139b0565b9350506020614057868287016139b0565b9250506040614068868287016139b0565b9150509250925092565b600082825260208201905092915050565b7f4f6e6c79206f776e657200000000000000000000000000000000000000000000600082015250565b60006140b9600a83614072565b91506140c482614083565b602082019050919050565b600060208201905081810360008301526140e8816140ac565b9050919050565b7f526174696f20746f6f206c6f7700000000000000000000000000000000000000600082015250565b6000614125600d83614072565b9150614130826140ef565b602082019050919050565b6000602082019050818103600083015261415481614118565b9050919050565b7f4e487b7100000000000000000000000000000000000000000000000000000000600052601160045260246000fd5b60006141958261398f565b91507fffffffffffffffffffffffffffffffffffffffffffffffffffffffffffffffff82036141c7576141c661415b565b5b600182019050919050565b7f4e487b7100000000000000000000000000000000000000000000000000000000600052604160045260246000fd5b7f4e487b7100000000000000000000000000000000000000000000000000000000600052603260045260246000fd5b60008151905061423f81613999565b92915050565b60006020828403121561425b5761425a61398a565b5b600061426984828501614230565b91505092915050565b7f4e6f207265776172647320746f20776974686472617700000000000000000000600082015250565b60006142a8601683614072565b91506142b382614272565b602082019050919050565b600060208201905081810360008301526142d78161429b565b9050919050565b60006040820190506142f36000830185613dc9565b6143006020830184613c52565b9392505050565b61431081613a6e565b811461431b57600080fd5b50565b60008151905061432d81614307565b92915050565b6000602082840312156143495761434861398a565b5b60006143578482850161431e565b91505092915050565b7f526577617264207769746864726177616c206661696c65640000000000000000600082015250565b6000614396601883614072565b91506143a182614360565b602082019050919050565b600060208201905081810360008301526143c581614389565b9050919050565b7f4c6f616e206e6f74206163746976650000000000000000000000000000000000600082015250565b6000614402600f83614072565b915061440d826143cc565b602082019050919050565b60006020820190508181036000830152614431816143f5565b9050919050565b7f4c6f616e206e6f74206f76657264756500000000000000000000000000000000600082015250565b600061446e601083614072565b915061447982614438565b602082019050919050565b6000602082019050818103600083015261449d81614461565b9050919050565b7f4c6f616e20616c72656164792072657061696400000000000000000000000000600082015250565b60006144da601383614072565b91506144e5826144a4565b602082019050919050565b60006020820190508181036000830152614509816144cd565b9050919050565b7f4e6f7420626f72726f7765720000000000000000000000000000000000000000600082015250565b6000614546600c83614072565b915061455182614510565b602082019050919050565b6000602082019050818103600083015261457581614539565b9050919050565b7f6e6f20696e746572657374206163637275656421000000000000000000000000600082015250565b60006145b2601483614072565b91506145bd8261457c565b602082019050919050565b600060208201905081810360008301526145e1816145a5565b9050919050565b60006145f38261398f565b91506145fe8361398f565b925082820261460c8161398f565b915082820484148315176146235761462261415b565b5b5092915050565b7f4e487b7100000000000000000000000000000000000000000000000000000000600052601260045260246000fd5b60006146648261398f565b915061466f8361398f565b92508261467f5761467e61462a565b5b828204905092915050565b60006146958261398f565b91506146a08361398f565b92508282039050818111156146b8576146b761415b565b5b92915050565b60006146c98261398f565b91506146d48361398f565b92508282019050808211156146ec576146eb61415b565b5b92915050565b7f496e746572657374206e6f742063616c63756c61746564000000000000000000600082015250565b6000614728601783614072565b9150614733826146f2565b602082019050919050565b600060208201905081810360008301526147578161471b565b9050919050565b7f4e6f207265776172642063616c63756c61746564000000000000000000000000600082015250565b6000614794601483614072565b915061479f8261475e565b602082019050919050565b600060208201905081810360008301526147c381614787565b9050919050565b60006060820190506147df6000830186613dc9565b6147ec6020830185613dc9565b6147f96040830184613c52565b949350505050565b7f5472616e73666572206661696c65640000000000000000000000000000000000600082015250565b6000614837600f83614072565b915061484282614801565b602082019050919050565b600060208201905081810360008301526148668161482a565b9050919050565b7f5472616e7366657220746f206c656e646572206661696c656400000000000000600082015250565b60006148a3601983614072565b91506148ae8261486d565b602082019050919050565b600060208201905081810360008301526148d281614896565b9050919050565b7f4c6f616e20616c72656164792061637469766500000000000000000000000000600082015250565b600061490f601383614072565b915061491a826148d9565b602082019050919050565b6000602082019050818103600083015261493e81614902565b9050919050565b7f4c6f616e20616c72656164792066756e64656400000000000000000000000000600082015250565b600061497b601383614072565b915061498682614945565b602082019050919050565b600060208201905081810360008301526149aa8161496e565b9050919050565b60006040820190506149c66000830185613dc9565b6149d36020830184613dc9565b9392505050565b7f496e73756666696369656e7420616c6c6f77616e636520666f7220746869732060008201527f7573657200000000000000000000000000000000000000000000000000000000602082015250565b6000614a36602483614072565b9150614a41826149da565b604082019050919050565b60006020820190508181036000830152614a6581614a29565b9050919050565b7f4c6f616e2064697362757273656d656e74206661696c65640000000000000000600082015250565b6000614aa2601883614072565b9150614aad82614a6c565b602082019050919050565b60006020820190508181036000830152614ad181614a95565b9050919050565b7f4d696e696d756d206c6f616e20616d6f756e74206d757374206265206772656160008201527f746572207468616e203000000000000000000000000000000000000000000000602082015250565b6000614b34602a83614072565b9150614b3f82614ad8565b604082019050919050565b60006020820190508181036000830152614b6381614b27565b9050919050565b7f4d6178696d756d206c6f616e20616d6f756e74206d757374206265206772656160008201527f746572207468616e206d696e696d756d206c6f616e20616d6f756e7400000000602082015250565b6000614bc6603c83614072565b9150614bd182614b6a565b604082019050919050565b60006020820190508181036000830152614bf581614bb9565b9050919050565b600069ffffffffffffffffffff82169050919050565b614c1b81614bfc565b8114614c2657600080fd5b50565b600081519050614c3881614c12565b92915050565b6000819050919050565b614c5181614c3e565b8114614c5c57600080fd5b50565b600081519050614c6e81614c48565b92915050565b600080600080600060a08688031215614c9057614c8f61398a565b5b6000614c9e88828901614c29565b9550506020614caf88828901614c5f565b9450506040614cc088828901614230565b9350506060614cd188828901614230565b9250506080614ce288828901614c29565b9150509295509295909350565b7f496e76616c696420707269636500000000000000000000000000000000000000600082015250565b6000614d25600d83614072565b9150614d3082614cef565b602082019050919050565b60006020820190508181036000830152614d5481614d18565b9050919050565b7f52657061796d656e742065786365656473206f77656420616d6f756e74000000600082015250565b6000614d91601d83614072565b9150614d9c82614d5b565b602082019050919050565b60006020820190508181036000830152614dc081614d84565b9050919050565b7f5061727469616c2072657061796d656e74206661696c65640000000000000000600082015250565b6000614dfd601883614072565b9150614e0882614dc7565b602082019050919050565b60006020820190508181036000830152614e2c81614df0565b9050919050565b7f5468726573686f6c6420746f6f206c6f77000000000000000000000000000000600082015250565b6000614e69601183614072565b9150614e7482614e33565b602082019050919050565b60006020820190508181036000830152614e9881614e5c565b9050919050565b7f496e76616c6964206c6f616e20616d6f756e7400000000000000000000000000600082015250565b6000614ed5601383614072565b9150614ee082614e9f565b602082019050919050565b60006020820190508181036000830152614f0481614ec8565b9050919050565b600060ff82169050919050565b614f2181614f0b565b8114614f2c57600080fd5b50565b600081519050614f3e81614f18565b92915050565b600060208284031215614f5a57614f5961398a565b5b6000614f6884828501614f2f565b91505092915050565b7f496e73756666696369656e7420636f6c6c61746572616c000000000000000000600082015250565b6000614fa7601783614072565b9150614fb282614f71565b602082019050919050565b60006020820190508181036000830152614fd681614f9a565b9050919050565b7f496e73756666696369656e7420636f6c6c61746572616c2062616c616e636500600082015250565b6000615013601f83614072565b915061501e82614fdd565b602082019050919050565b6000602082019050818103600083015261504281615006565b9050919050565b600081905092915050565b50565b6000615064600083615049565b915061506f82615054565b600082019050919050565b600061508582615057565b9150819050919050565b7f436f6c6c61746572616c207472616e73666572206661696c6564000000000000600082015250565b60006150c5601a83614072565b91506150d08261508f565b602082019050919050565b600060208201905081810360008301526150f4816150b8565b9050919050565b7f4e6f2074696d6520656c617073656420666f7220696e7465726573742061636360008201527f7275616c00000000000000000000000000000000000000000000000000000000602082015250565b6000615157602483614072565b9150615162826150fb565b604082019050919050565b600060208201905081810360008301526151868161514a565b9050919050565b60008160011c9050919050565b6000808291508390505b60018511156151e4578086048111156151c0576151bf61415b565b5b60018516156151cf5780820291505b80810290506151dd8561518d565b94506151a4565b94509492505050565b6000826151fd57600190506152b9565b8161520b57600090506152b9565b8160018114615221576002811461522b5761525a565b60019150506152b9565b60ff84111561523d5761523c61415b565b5b8360020a9150848211156152545761525361415b565b5b506152b9565b5060208310610133831016604e8410600b841016171561528f5782820a90508381111561528a5761528961415b565b5b6152b9565b61529c848484600161519a565b925090508184048111156152b3576152b261415b565b5b81810290505b9392505050565b60006152cb8261398f565b91506152d68361398f565b92506153037fffffffffffffffffffffffffffffffffffffffffffffffffffffffffffffffff84846151ed565b905092915050565b7f5072696e636970616c206d7573742062652067726561746572207468616e2030600082015250565b6000615341602083614072565b915061534c8261530b565b602082019050919050565b6000602082019050818103600083015261537081615334565b9050919050565b7f416e6e75616c2072617465206d7573742062652067726561746572207468616e60008201527f2030000000000000000000000000000000000000000000000000000000000000602082015250565b60006153d3602283614072565b91506153de82615377565b604082019050919050565b60006020820190508181036000830152615402816153c6565b9050919050565b7f54696d6520656c6170736564206d75737420626520677265617465722074686160008201527f6e20300000000000000000000000000000000000000000000000000000000000602082015250565b6000615465602383614072565b915061547082615409565b604082019050919050565b6000602082019050818103600083015261549481615458565b9050919050565b7f5261746520706572207365636f6e6420697320696e76616c6964000000000000600082015250565b60006154d1601a83614072565b91506154dc8261549b565b602082019050919050565b60006020820190508181036000830152615500816154c4565b9050919050565b7f496e73756666696369656e74206c656e6465722066756e647300000000000000600082015250565b600061553d601983614072565b915061554882615507565b602082019050919050565b6000602082019050818103600083015261556c81615530565b905091905056fea2646970667358221220fd2a7c1998df399cfa315b74c8fd99cc3cb3a884b97a86fcf6ace04c5cb6855d64736f6c63430008180033",
          "opcodes": "PUSH1 0x80 PUSH1 0x40 MSTORE PUSH1 0x78 PUSH1 0xE SSTORE PUSH1 0x6E PUSH1 0xF SSTORE CALLVALUE DUP1 ISZERO PUSH3 0x1B JUMPI PUSH1 0x0 DUP1 REVERT JUMPDEST POP PUSH1 0x40 MLOAD PUSH3 0x57F2 CODESIZE SUB DUP1 PUSH3 0x57F2 DUP4 CODECOPY DUP2 DUP2 ADD PUSH1 0x40 MSTORE DUP2 ADD SWAP1 PUSH3 0x41 SWAP2 SWAP1 PUSH3 0x1F2 JUMP JUMPDEST PUSH1 0x1 PUSH1 0xA DUP2 SWAP1 SSTORE POP PUSH1 0x0 PUSH1 0xB PUSH1 0x0 PUSH2 0x100 EXP DUP2 SLOAD DUP2 PUSH1 0xFF MUL NOT AND SWAP1 DUP4 ISZERO ISZERO MUL OR SWAP1 SSTORE POP DUP2 PUSH1 0xB PUSH1 0x1 PUSH2 0x100 EXP DUP2 SLOAD DUP2 PUSH20 0xFFFFFFFFFFFFFFFFFFFFFFFFFFFFFFFFFFFFFFFF MUL NOT AND SWAP1 DUP4 PUSH20 0xFFFFFFFFFFFFFFFFFFFFFFFFFFFFFFFFFFFFFFFF AND MUL OR SWAP1 SSTORE POP DUP1 PUSH1 0xC PUSH1 0x0 PUSH2 0x100 EXP DUP2 SLOAD DUP2 PUSH20 0xFFFFFFFFFFFFFFFFFFFFFFFFFFFFFFFFFFFFFFFF MUL NOT AND SWAP1 DUP4 PUSH20 0xFFFFFFFFFFFFFFFFFFFFFFFFFFFFFFFFFFFFFFFF AND MUL OR SWAP1 SSTORE POP CALLER PUSH1 0xD PUSH1 0x0 PUSH2 0x100 EXP DUP2 SLOAD DUP2 PUSH20 0xFFFFFFFFFFFFFFFFFFFFFFFFFFFFFFFFFFFFFFFF MUL NOT AND SWAP1 DUP4 PUSH20 0xFFFFFFFFFFFFFFFFFFFFFFFFFFFFFFFFFFFFFFFF AND MUL OR SWAP1 SSTORE POP POP POP PUSH3 0x239 JUMP JUMPDEST PUSH1 0x0 DUP1 REVERT JUMPDEST PUSH1 0x0 PUSH20 0xFFFFFFFFFFFFFFFFFFFFFFFFFFFFFFFFFFFFFFFF DUP3 AND SWAP1 POP SWAP2 SWAP1 POP JUMP JUMPDEST PUSH1 0x0 PUSH3 0x161 DUP3 PUSH3 0x134 JUMP JUMPDEST SWAP1 POP SWAP2 SWAP1 POP JUMP JUMPDEST PUSH1 0x0 PUSH3 0x175 DUP3 PUSH3 0x154 JUMP JUMPDEST SWAP1 POP SWAP2 SWAP1 POP JUMP JUMPDEST PUSH3 0x187 DUP2 PUSH3 0x168 JUMP JUMPDEST DUP2 EQ PUSH3 0x193 JUMPI PUSH1 0x0 DUP1 REVERT JUMPDEST POP JUMP JUMPDEST PUSH1 0x0 DUP2 MLOAD SWAP1 POP PUSH3 0x1A7 DUP2 PUSH3 0x17C JUMP JUMPDEST SWAP3 SWAP2 POP POP JUMP JUMPDEST PUSH1 0x0 PUSH3 0x1BA DUP3 PUSH3 0x154 JUMP JUMPDEST SWAP1 POP SWAP2 SWAP1 POP JUMP JUMPDEST PUSH3 0x1CC DUP2 PUSH3 0x1AD JUMP JUMPDEST DUP2 EQ PUSH3 0x1D8 JUMPI PUSH1 0x0 DUP1 REVERT JUMPDEST POP JUMP JUMPDEST PUSH1 0x0 DUP2 MLOAD SWAP1 POP PUSH3 0x1EC DUP2 PUSH3 0x1C1 JUMP JUMPDEST SWAP3 SWAP2 POP POP JUMP JUMPDEST PUSH1 0x0 DUP1 PUSH1 0x40 DUP4 DUP6 SUB SLT ISZERO PUSH3 0x20C JUMPI PUSH3 0x20B PUSH3 0x12F JUMP JUMPDEST JUMPDEST PUSH1 0x0 PUSH3 0x21C DUP6 DUP3 DUP7 ADD PUSH3 0x196 JUMP JUMPDEST SWAP3 POP POP PUSH1 0x20 PUSH3 0x22F DUP6 DUP3 DUP7 ADD PUSH3 0x1DB JUMP JUMPDEST SWAP2 POP POP SWAP3 POP SWAP3 SWAP1 POP JUMP JUMPDEST PUSH2 0x55A9 DUP1 PUSH3 0x249 PUSH1 0x0 CODECOPY PUSH1 0x0 RETURN INVALID PUSH1 0x80 PUSH1 0x40 MSTORE PUSH1 0x4 CALLDATASIZE LT PUSH2 0x1D8 JUMPI PUSH1 0x0 CALLDATALOAD PUSH1 0xE0 SHR DUP1 PUSH4 0x88AE545C GT PUSH2 0x102 JUMPI DUP1 PUSH4 0xD1B332F4 GT PUSH2 0x95 JUMPI DUP1 PUSH4 0xE16FFCDC GT PUSH2 0x64 JUMPI DUP1 PUSH4 0xE16FFCDC EQ PUSH2 0x6F1 JUMPI DUP1 PUSH4 0xE3ED1902 EQ PUSH2 0x71C JUMPI DUP1 PUSH4 0xE91349D7 EQ PUSH2 0x759 JUMPI DUP1 PUSH4 0xEDADBBFE EQ PUSH2 0x79C JUMPI PUSH2 0x1D8 JUMP JUMPDEST DUP1 PUSH4 0xD1B332F4 EQ PUSH2 0x631 JUMPI DUP1 PUSH4 0xD3B5BE1A EQ PUSH2 0x672 JUMPI DUP1 PUSH4 0xDCAF9C44 EQ PUSH2 0x69B JUMPI DUP1 PUSH4 0xE06A9138 EQ PUSH2 0x6C6 JUMPI PUSH2 0x1D8 JUMP JUMPDEST DUP1 PUSH4 0xAAEA7009 GT PUSH2 0xD1 JUMPI DUP1 PUSH4 0xAAEA7009 EQ PUSH2 0x54A JUMPI DUP1 PUSH4 0xB29504E9 EQ PUSH2 0x589 JUMPI DUP1 PUSH4 0xB4580A66 EQ PUSH2 0x5B2 JUMPI DUP1 PUSH4 0xCC826646 EQ PUSH2 0x5F3 JUMPI PUSH2 0x1D8 JUMP JUMPDEST DUP1 PUSH4 0x88AE545C EQ PUSH2 0x48E JUMPI DUP1 PUSH4 0x8DA5CB5B EQ PUSH2 0x4CB JUMPI DUP1 PUSH4 0x97A146C0 EQ PUSH2 0x4F6 JUMPI DUP1 PUSH4 0xA607A8D9 EQ PUSH2 0x51F JUMPI PUSH2 0x1D8 JUMP JUMPDEST DUP1 PUSH4 0x42D86693 GT PUSH2 0x17A JUMPI DUP1 PUSH4 0x72F94365 GT PUSH2 0x149 JUMPI DUP1 PUSH4 0x72F94365 EQ PUSH2 0x3E6 JUMPI DUP1 PUSH4 0x741BEF1A EQ PUSH2 0x411 JUMPI DUP1 PUSH4 0x7C6FE270 EQ PUSH2 0x43C JUMPI DUP1 PUSH4 0x846B909A EQ PUSH2 0x465 JUMPI PUSH2 0x1D8 JUMP JUMPDEST DUP1 PUSH4 0x42D86693 EQ PUSH2 0x33E JUMPI DUP1 PUSH4 0x57970E93 EQ PUSH2 0x367 JUMPI DUP1 PUSH4 0x5C975ABB EQ PUSH2 0x392 JUMPI DUP1 PUSH4 0x61851D65 EQ PUSH2 0x3BD JUMPI PUSH2 0x1D8 JUMP JUMPDEST DUP1 PUSH4 0x197428BF GT PUSH2 0x1B6 JUMPI DUP1 PUSH4 0x197428BF EQ PUSH2 0x26E JUMPI DUP1 PUSH4 0x34D9289E EQ PUSH2 0x2AB JUMPI DUP1 PUSH4 0x3CDB72F1 EQ PUSH2 0x2D6 JUMPI DUP1 PUSH4 0x4031234C EQ PUSH2 0x313 JUMPI PUSH2 0x1D8 JUMP JUMPDEST DUP1 PUSH4 0x607EC70 EQ PUSH2 0x1DD JUMPI DUP1 PUSH4 0xC9BABC3 EQ PUSH2 0x206 JUMPI DUP1 PUSH4 0x17D960E0 EQ PUSH2 0x231 JUMPI JUMPDEST PUSH1 0x0 DUP1 REVERT JUMPDEST CALLVALUE DUP1 ISZERO PUSH2 0x1E9 JUMPI PUSH1 0x0 DUP1 REVERT JUMPDEST POP PUSH2 0x204 PUSH1 0x4 DUP1 CALLDATASIZE SUB DUP2 ADD SWAP1 PUSH2 0x1FF SWAP2 SWAP1 PUSH2 0x39C5 JUMP JUMPDEST PUSH2 0x7B8 JUMP JUMPDEST STOP JUMPDEST CALLVALUE DUP1 ISZERO PUSH2 0x212 JUMPI PUSH1 0x0 DUP1 REVERT JUMPDEST POP PUSH2 0x21B PUSH2 0x896 JUMP JUMPDEST PUSH1 0x40 MLOAD PUSH2 0x228 SWAP2 SWAP1 PUSH2 0x3BC4 JUMP JUMPDEST PUSH1 0x40 MLOAD DUP1 SWAP2 SUB SWAP1 RETURN JUMPDEST CALLVALUE DUP1 ISZERO PUSH2 0x23D JUMPI PUSH1 0x0 DUP1 REVERT JUMPDEST POP PUSH2 0x258 PUSH1 0x4 DUP1 CALLDATASIZE SUB DUP2 ADD SWAP1 PUSH2 0x253 SWAP2 SWAP1 PUSH2 0x3C12 JUMP JUMPDEST PUSH2 0xC98 JUMP JUMPDEST PUSH1 0x40 MLOAD PUSH2 0x265 SWAP2 SWAP1 PUSH2 0x3C61 JUMP JUMPDEST PUSH1 0x40 MLOAD DUP1 SWAP2 SUB SWAP1 RETURN JUMPDEST CALLVALUE DUP1 ISZERO PUSH2 0x27A JUMPI PUSH1 0x0 DUP1 REVERT JUMPDEST POP PUSH2 0x295 PUSH1 0x4 DUP1 CALLDATASIZE SUB DUP2 ADD SWAP1 PUSH2 0x290 SWAP2 SWAP1 PUSH2 0x3C7C JUMP JUMPDEST PUSH2 0xCBD JUMP JUMPDEST PUSH1 0x40 MLOAD PUSH2 0x2A2 SWAP2 SWAP1 PUSH2 0x3C61 JUMP JUMPDEST PUSH1 0x40 MLOAD DUP1 SWAP2 SUB SWAP1 RETURN JUMPDEST CALLVALUE DUP1 ISZERO PUSH2 0x2B7 JUMPI PUSH1 0x0 DUP1 REVERT JUMPDEST POP PUSH2 0x2C0 PUSH2 0xCD5 JUMP JUMPDEST PUSH1 0x40 MLOAD PUSH2 0x2CD SWAP2 SWAP1 PUSH2 0x3C61 JUMP JUMPDEST PUSH1 0x40 MLOAD DUP1 SWAP2 SUB SWAP1 RETURN JUMPDEST CALLVALUE DUP1 ISZERO PUSH2 0x2E2 JUMPI PUSH1 0x0 DUP1 REVERT JUMPDEST POP PUSH2 0x2FD PUSH1 0x4 DUP1 CALLDATASIZE SUB DUP2 ADD SWAP1 PUSH2 0x2F8 SWAP2 SWAP1 PUSH2 0x3CA9 JUMP JUMPDEST PUSH2 0xCDB JUMP JUMPDEST PUSH1 0x40 MLOAD PUSH2 0x30A SWAP2 SWAP1 PUSH2 0x3C61 JUMP JUMPDEST PUSH1 0x40 MLOAD DUP1 SWAP2 SUB SWAP1 RETURN JUMPDEST CALLVALUE DUP1 ISZERO PUSH2 0x31F JUMPI PUSH1 0x0 DUP1 REVERT JUMPDEST POP PUSH2 0x328 PUSH2 0xD0C JUMP JUMPDEST PUSH1 0x40 MLOAD PUSH2 0x335 SWAP2 SWAP1 PUSH2 0x3C61 JUMP JUMPDEST PUSH1 0x40 MLOAD DUP1 SWAP2 SUB SWAP1 RETURN JUMPDEST CALLVALUE DUP1 ISZERO PUSH2 0x34A JUMPI PUSH1 0x0 DUP1 REVERT JUMPDEST POP PUSH2 0x365 PUSH1 0x4 DUP1 CALLDATASIZE SUB DUP2 ADD SWAP1 PUSH2 0x360 SWAP2 SWAP1 PUSH2 0x3C7C JUMP JUMPDEST PUSH2 0xD12 JUMP JUMPDEST STOP JUMPDEST CALLVALUE DUP1 ISZERO PUSH2 0x373 JUMPI PUSH1 0x0 DUP1 REVERT JUMPDEST POP PUSH2 0x37C PUSH2 0xFB1 JUMP JUMPDEST PUSH1 0x40 MLOAD PUSH2 0x389 SWAP2 SWAP1 PUSH2 0x3D48 JUMP JUMPDEST PUSH1 0x40 MLOAD DUP1 SWAP2 SUB SWAP1 RETURN JUMPDEST CALLVALUE DUP1 ISZERO PUSH2 0x39E JUMPI PUSH1 0x0 DUP1 REVERT JUMPDEST POP PUSH2 0x3A7 PUSH2 0xFD7 JUMP JUMPDEST PUSH1 0x40 MLOAD PUSH2 0x3B4 SWAP2 SWAP1 PUSH2 0x3D72 JUMP JUMPDEST PUSH1 0x40 MLOAD DUP1 SWAP2 SUB SWAP1 RETURN JUMPDEST CALLVALUE DUP1 ISZERO PUSH2 0x3C9 JUMPI PUSH1 0x0 DUP1 REVERT JUMPDEST POP PUSH2 0x3E4 PUSH1 0x4 DUP1 CALLDATASIZE SUB DUP2 ADD SWAP1 PUSH2 0x3DF SWAP2 SWAP1 PUSH2 0x39C5 JUMP JUMPDEST PUSH2 0xFEE JUMP JUMPDEST STOP JUMPDEST CALLVALUE DUP1 ISZERO PUSH2 0x3F2 JUMPI PUSH1 0x0 DUP1 REVERT JUMPDEST POP PUSH2 0x3FB PUSH2 0x11DB JUMP JUMPDEST PUSH1 0x40 MLOAD PUSH2 0x408 SWAP2 SWAP1 PUSH2 0x3C61 JUMP JUMPDEST PUSH1 0x40 MLOAD DUP1 SWAP2 SUB SWAP1 RETURN JUMPDEST CALLVALUE DUP1 ISZERO PUSH2 0x41D JUMPI PUSH1 0x0 DUP1 REVERT JUMPDEST POP PUSH2 0x426 PUSH2 0x11E1 JUMP JUMPDEST PUSH1 0x40 MLOAD PUSH2 0x433 SWAP2 SWAP1 PUSH2 0x3DAE JUMP JUMPDEST PUSH1 0x40 MLOAD DUP1 SWAP2 SUB SWAP1 RETURN JUMPDEST CALLVALUE DUP1 ISZERO PUSH2 0x448 JUMPI PUSH1 0x0 DUP1 REVERT JUMPDEST POP PUSH2 0x463 PUSH1 0x4 DUP1 CALLDATASIZE SUB DUP2 ADD SWAP1 PUSH2 0x45E SWAP2 SWAP1 PUSH2 0x39C5 JUMP JUMPDEST PUSH2 0x1207 JUMP JUMPDEST STOP JUMPDEST CALLVALUE DUP1 ISZERO PUSH2 0x471 JUMPI PUSH1 0x0 DUP1 REVERT JUMPDEST POP PUSH2 0x48C PUSH1 0x4 DUP1 CALLDATASIZE SUB DUP2 ADD SWAP1 PUSH2 0x487 SWAP2 SWAP1 PUSH2 0x39C5 JUMP JUMPDEST PUSH2 0x1782 JUMP JUMPDEST STOP JUMPDEST CALLVALUE DUP1 ISZERO PUSH2 0x49A JUMPI PUSH1 0x0 DUP1 REVERT JUMPDEST POP PUSH2 0x4B5 PUSH1 0x4 DUP1 CALLDATASIZE SUB DUP2 ADD SWAP1 PUSH2 0x4B0 SWAP2 SWAP1 PUSH2 0x3C7C JUMP JUMPDEST PUSH2 0x1DBE JUMP JUMPDEST PUSH1 0x40 MLOAD PUSH2 0x4C2 SWAP2 SWAP1 PUSH2 0x3BC4 JUMP JUMPDEST PUSH1 0x40 MLOAD DUP1 SWAP2 SUB SWAP1 RETURN JUMPDEST CALLVALUE DUP1 ISZERO PUSH2 0x4D7 JUMPI PUSH1 0x0 DUP1 REVERT JUMPDEST POP PUSH2 0x4E0 PUSH2 0x2281 JUMP JUMPDEST PUSH1 0x40 MLOAD PUSH2 0x4ED SWAP2 SWAP1 PUSH2 0x3DD8 JUMP JUMPDEST PUSH1 0x40 MLOAD DUP1 SWAP2 SUB SWAP1 RETURN JUMPDEST CALLVALUE DUP1 ISZERO PUSH2 0x502 JUMPI PUSH1 0x0 DUP1 REVERT JUMPDEST POP PUSH2 0x51D PUSH1 0x4 DUP1 CALLDATASIZE SUB DUP2 ADD SWAP1 PUSH2 0x518 SWAP2 SWAP1 PUSH2 0x3DF3 JUMP JUMPDEST PUSH2 0x22A7 JUMP JUMPDEST STOP JUMPDEST CALLVALUE DUP1 ISZERO PUSH2 0x52B JUMPI PUSH1 0x0 DUP1 REVERT JUMPDEST POP PUSH2 0x534 PUSH2 0x23CE JUMP JUMPDEST PUSH1 0x40 MLOAD PUSH2 0x541 SWAP2 SWAP1 PUSH2 0x3C61 JUMP JUMPDEST PUSH1 0x40 MLOAD DUP1 SWAP2 SUB SWAP1 RETURN JUMPDEST CALLVALUE DUP1 ISZERO PUSH2 0x556 JUMPI PUSH1 0x0 DUP1 REVERT JUMPDEST POP PUSH2 0x571 PUSH1 0x4 DUP1 CALLDATASIZE SUB DUP2 ADD SWAP1 PUSH2 0x56C SWAP2 SWAP1 PUSH2 0x3C7C JUMP JUMPDEST PUSH2 0x24B2 JUMP JUMPDEST PUSH1 0x40 MLOAD PUSH2 0x580 SWAP4 SWAP3 SWAP2 SWAP1 PUSH2 0x3E33 JUMP JUMPDEST PUSH1 0x40 MLOAD DUP1 SWAP2 SUB SWAP1 RETURN JUMPDEST CALLVALUE DUP1 ISZERO PUSH2 0x595 JUMPI PUSH1 0x0 DUP1 REVERT JUMPDEST POP PUSH2 0x5B0 PUSH1 0x4 DUP1 CALLDATASIZE SUB DUP2 ADD SWAP1 PUSH2 0x5AB SWAP2 SWAP1 PUSH2 0x3DF3 JUMP JUMPDEST PUSH2 0x2509 JUMP JUMPDEST STOP JUMPDEST CALLVALUE DUP1 ISZERO PUSH2 0x5BE JUMPI PUSH1 0x0 DUP1 REVERT JUMPDEST POP PUSH2 0x5D9 PUSH1 0x4 DUP1 CALLDATASIZE SUB DUP2 ADD SWAP1 PUSH2 0x5D4 SWAP2 SWAP1 PUSH2 0x39C5 JUMP JUMPDEST PUSH2 0x2887 JUMP JUMPDEST PUSH1 0x40 MLOAD PUSH2 0x5EA SWAP6 SWAP5 SWAP4 SWAP3 SWAP2 SWAP1 PUSH2 0x3E6A JUMP JUMPDEST PUSH1 0x40 MLOAD DUP1 SWAP2 SUB SWAP1 RETURN JUMPDEST CALLVALUE DUP1 ISZERO PUSH2 0x5FF JUMPI PUSH1 0x0 DUP1 REVERT JUMPDEST POP PUSH2 0x61A PUSH1 0x4 DUP1 CALLDATASIZE SUB DUP2 ADD SWAP1 PUSH2 0x615 SWAP2 SWAP1 PUSH2 0x39C5 JUMP JUMPDEST PUSH2 0x28E4 JUMP JUMPDEST PUSH1 0x40 MLOAD PUSH2 0x628 SWAP3 SWAP2 SWAP1 PUSH2 0x3EBD JUMP JUMPDEST PUSH1 0x40 MLOAD DUP1 SWAP2 SUB SWAP1 RETURN JUMPDEST CALLVALUE DUP1 ISZERO PUSH2 0x63D JUMPI PUSH1 0x0 DUP1 REVERT JUMPDEST POP PUSH2 0x658 PUSH1 0x4 DUP1 CALLDATASIZE SUB DUP2 ADD SWAP1 PUSH2 0x653 SWAP2 SWAP1 PUSH2 0x39C5 JUMP JUMPDEST PUSH2 0x2908 JUMP JUMPDEST PUSH1 0x40 MLOAD PUSH2 0x669 SWAP6 SWAP5 SWAP4 SWAP3 SWAP2 SWAP1 PUSH2 0x3EE6 JUMP JUMPDEST PUSH1 0x40 MLOAD DUP1 SWAP2 SUB SWAP1 RETURN JUMPDEST CALLVALUE DUP1 ISZERO PUSH2 0x67E JUMPI PUSH1 0x0 DUP1 REVERT JUMPDEST POP PUSH2 0x699 PUSH1 0x4 DUP1 CALLDATASIZE SUB DUP2 ADD SWAP1 PUSH2 0x694 SWAP2 SWAP1 PUSH2 0x39C5 JUMP JUMPDEST PUSH2 0x294B JUMP JUMPDEST STOP JUMPDEST CALLVALUE DUP1 ISZERO PUSH2 0x6A7 JUMPI PUSH1 0x0 DUP1 REVERT JUMPDEST POP PUSH2 0x6B0 PUSH2 0x2A29 JUMP JUMPDEST PUSH1 0x40 MLOAD PUSH2 0x6BD SWAP2 SWAP1 PUSH2 0x3C61 JUMP JUMPDEST PUSH1 0x40 MLOAD DUP1 SWAP2 SUB SWAP1 RETURN JUMPDEST CALLVALUE DUP1 ISZERO PUSH2 0x6D2 JUMPI PUSH1 0x0 DUP1 REVERT JUMPDEST POP PUSH2 0x6DB PUSH2 0x2A2F JUMP JUMPDEST PUSH1 0x40 MLOAD PUSH2 0x6E8 SWAP2 SWAP1 PUSH2 0x3C61 JUMP JUMPDEST PUSH1 0x40 MLOAD DUP1 SWAP2 SUB SWAP1 RETURN JUMPDEST CALLVALUE DUP1 ISZERO PUSH2 0x6FD JUMPI PUSH1 0x0 DUP1 REVERT JUMPDEST POP PUSH2 0x706 PUSH2 0x2A35 JUMP JUMPDEST PUSH1 0x40 MLOAD PUSH2 0x713 SWAP2 SWAP1 PUSH2 0x3C61 JUMP JUMPDEST PUSH1 0x40 MLOAD DUP1 SWAP2 SUB SWAP1 RETURN JUMPDEST CALLVALUE DUP1 ISZERO PUSH2 0x728 JUMPI PUSH1 0x0 DUP1 REVERT JUMPDEST POP PUSH2 0x743 PUSH1 0x4 DUP1 CALLDATASIZE SUB DUP2 ADD SWAP1 PUSH2 0x73E SWAP2 SWAP1 PUSH2 0x3CA9 JUMP JUMPDEST PUSH2 0x2ADF JUMP JUMPDEST PUSH1 0x40 MLOAD PUSH2 0x750 SWAP2 SWAP1 PUSH2 0x3C61 JUMP JUMPDEST PUSH1 0x40 MLOAD DUP1 SWAP2 SUB SWAP1 RETURN JUMPDEST CALLVALUE DUP1 ISZERO PUSH2 0x765 JUMPI PUSH1 0x0 DUP1 REVERT JUMPDEST POP PUSH2 0x780 PUSH1 0x4 DUP1 CALLDATASIZE SUB DUP2 ADD SWAP1 PUSH2 0x77B SWAP2 SWAP1 PUSH2 0x39C5 JUMP JUMPDEST PUSH2 0x2B10 JUMP JUMPDEST PUSH1 0x40 MLOAD PUSH2 0x793 SWAP8 SWAP7 SWAP6 SWAP5 SWAP4 SWAP3 SWAP2 SWAP1 PUSH2 0x3FB0 JUMP JUMPDEST PUSH1 0x40 MLOAD DUP1 SWAP2 SUB SWAP1 RETURN JUMPDEST PUSH2 0x7B6 PUSH1 0x4 DUP1 CALLDATASIZE SUB DUP2 ADD SWAP1 PUSH2 0x7B1 SWAP2 SWAP1 PUSH2 0x401F JUMP JUMPDEST PUSH2 0x2B9F JUMP JUMPDEST STOP JUMPDEST PUSH1 0xD PUSH1 0x0 SWAP1 SLOAD SWAP1 PUSH2 0x100 EXP SWAP1 DIV PUSH20 0xFFFFFFFFFFFFFFFFFFFFFFFFFFFFFFFFFFFFFFFF AND PUSH20 0xFFFFFFFFFFFFFFFFFFFFFFFFFFFFFFFFFFFFFFFF AND CALLER PUSH20 0xFFFFFFFFFFFFFFFFFFFFFFFFFFFFFFFFFFFFFFFF AND EQ PUSH2 0x848 JUMPI PUSH1 0x40 MLOAD PUSH32 0x8C379A000000000000000000000000000000000000000000000000000000000 DUP2 MSTORE PUSH1 0x4 ADD PUSH2 0x83F SWAP1 PUSH2 0x40CF JUMP JUMPDEST PUSH1 0x40 MLOAD DUP1 SWAP2 SUB SWAP1 REVERT JUMPDEST PUSH1 0x64 DUP2 LT ISZERO PUSH2 0x88C JUMPI PUSH1 0x40 MLOAD PUSH32 0x8C379A000000000000000000000000000000000000000000000000000000000 DUP2 MSTORE PUSH1 0x4 ADD PUSH2 0x883 SWAP1 PUSH2 0x413B JUMP JUMPDEST PUSH1 0x40 MLOAD DUP1 SWAP2 SUB SWAP1 REVERT JUMPDEST DUP1 PUSH1 0xE DUP2 SWAP1 SSTORE POP POP JUMP JUMPDEST PUSH1 0x60 PUSH1 0x0 DUP1 PUSH1 0x1 SWAP1 POP JUMPDEST PUSH1 0x10 SLOAD DUP2 GT PUSH2 0x93E JUMPI PUSH1 0x0 PUSH1 0x6 PUSH1 0x0 DUP4 DUP2 MSTORE PUSH1 0x20 ADD SWAP1 DUP2 MSTORE PUSH1 0x20 ADD PUSH1 0x0 KECCAK256 PUSH1 0x40 MLOAD DUP1 PUSH1 0xA0 ADD PUSH1 0x40 MSTORE SWAP1 DUP2 PUSH1 0x0 DUP3 ADD SLOAD DUP2 MSTORE PUSH1 0x20 ADD PUSH1 0x1 DUP3 ADD SLOAD DUP2 MSTORE PUSH1 0x20 ADD PUSH1 0x2 DUP3 ADD SLOAD DUP2 MSTORE PUSH1 0x20 ADD PUSH1 0x3 DUP3 ADD SLOAD DUP2 MSTORE PUSH1 0x20 ADD PUSH1 0x4 DUP3 ADD PUSH1 0x0 SWAP1 SLOAD SWAP1 PUSH2 0x100 EXP SWAP1 DIV PUSH1 0xFF AND ISZERO ISZERO ISZERO ISZERO DUP2 MSTORE POP POP SWAP1 POP PUSH1 0x0 DUP2 PUSH1 0x0 ADD MLOAD GT ISZERO PUSH2 0x92A JUMPI DUP3 DUP1 PUSH2 0x926 SWAP1 PUSH2 0x418A JUMP JUMPDEST SWAP4 POP POP JUMPDEST POP DUP1 DUP1 PUSH2 0x936 SWAP1 PUSH2 0x418A JUMP JUMPDEST SWAP2 POP POP PUSH2 0x8A0 JUMP JUMPDEST POP PUSH1 0x0 DUP2 PUSH8 0xFFFFFFFFFFFFFFFF DUP2 GT ISZERO PUSH2 0x95B JUMPI PUSH2 0x95A PUSH2 0x41D2 JUMP JUMPDEST JUMPDEST PUSH1 0x40 MLOAD SWAP1 DUP1 DUP3 MSTORE DUP1 PUSH1 0x20 MUL PUSH1 0x20 ADD DUP3 ADD PUSH1 0x40 MSTORE DUP1 ISZERO PUSH2 0x994 JUMPI DUP2 PUSH1 0x20 ADD JUMPDEST PUSH2 0x981 PUSH2 0x3924 JUMP JUMPDEST DUP2 MSTORE PUSH1 0x20 ADD SWAP1 PUSH1 0x1 SWAP1 SUB SWAP1 DUP2 PUSH2 0x979 JUMPI SWAP1 POP JUMPDEST POP SWAP1 POP PUSH1 0x0 DUP1 PUSH1 0x1 SWAP1 POP JUMPDEST PUSH1 0x10 SLOAD DUP2 GT PUSH2 0xC8E JUMPI PUSH1 0x0 PUSH1 0x6 PUSH1 0x0 DUP4 DUP2 MSTORE PUSH1 0x20 ADD SWAP1 DUP2 MSTORE PUSH1 0x20 ADD PUSH1 0x0 KECCAK256 PUSH1 0x40 MLOAD DUP1 PUSH1 0xA0 ADD PUSH1 0x40 MSTORE SWAP1 DUP2 PUSH1 0x0 DUP3 ADD SLOAD DUP2 MSTORE PUSH1 0x20 ADD PUSH1 0x1 DUP3 ADD SLOAD DUP2 MSTORE PUSH1 0x20 ADD PUSH1 0x2 DUP3 ADD SLOAD DUP2 MSTORE PUSH1 0x20 ADD PUSH1 0x3 DUP3 ADD SLOAD DUP2 MSTORE PUSH1 0x20 ADD PUSH1 0x4 DUP3 ADD PUSH1 0x0 SWAP1 SLOAD SWAP1 PUSH2 0x100 EXP SWAP1 DIV PUSH1 0xFF AND ISZERO ISZERO ISZERO ISZERO DUP2 MSTORE POP POP SWAP1 POP PUSH1 0x0 PUSH1 0x1 PUSH1 0x0 DUP5 DUP2 MSTORE PUSH1 0x20 ADD SWAP1 DUP2 MSTORE PUSH1 0x20 ADD PUSH1 0x0 KECCAK256 PUSH1 0x40 MLOAD DUP1 PUSH1 0xA0 ADD PUSH1 0x40 MSTORE SWAP1 DUP2 PUSH1 0x0 DUP3 ADD SLOAD DUP2 MSTORE PUSH1 0x20 ADD PUSH1 0x1 DUP3 ADD PUSH1 0x0 SWAP1 SLOAD SWAP1 PUSH2 0x100 EXP SWAP1 DIV PUSH1 0xFF AND ISZERO ISZERO ISZERO ISZERO DUP2 MSTORE PUSH1 0x20 ADD PUSH1 0x1 DUP3 ADD PUSH1 0x1 SWAP1 SLOAD SWAP1 PUSH2 0x100 EXP SWAP1 DIV PUSH1 0xFF AND ISZERO ISZERO ISZERO ISZERO DUP2 MSTORE PUSH1 0x20 ADD PUSH1 0x1 DUP3 ADD PUSH1 0x2 SWAP1 SLOAD SWAP1 PUSH2 0x100 EXP SWAP1 DIV PUSH1 0xFF AND ISZERO ISZERO ISZERO ISZERO DUP2 MSTORE PUSH1 0x20 ADD PUSH1 0x2 DUP3 ADD SLOAD DUP2 MSTORE POP POP SWAP1 POP PUSH1 0x0 DUP1 PUSH1 0x0 DUP6 DUP2 MSTORE PUSH1 0x20 ADD SWAP1 DUP2 MSTORE PUSH1 0x20 ADD PUSH1 0x0 KECCAK256 PUSH1 0x40 MLOAD DUP1 PUSH1 0xE0 ADD PUSH1 0x40 MSTORE SWAP1 DUP2 PUSH1 0x0 DUP3 ADD PUSH1 0x0 SWAP1 SLOAD SWAP1 PUSH2 0x100 EXP SWAP1 DIV PUSH20 0xFFFFFFFFFFFFFFFFFFFFFFFFFFFFFFFFFFFFFFFF AND PUSH20 0xFFFFFFFFFFFFFFFFFFFFFFFFFFFFFFFFFFFFFFFF AND PUSH20 0xFFFFFFFFFFFFFFFFFFFFFFFFFFFFFFFFFFFFFFFF AND DUP2 MSTORE PUSH1 0x20 ADD PUSH1 0x1 DUP3 ADD PUSH1 0x0 SWAP1 SLOAD SWAP1 PUSH2 0x100 EXP SWAP1 DIV PUSH20 0xFFFFFFFFFFFFFFFFFFFFFFFFFFFFFFFFFFFFFFFF AND PUSH20 0xFFFFFFFFFFFFFFFFFFFFFFFFFFFFFFFFFFFFFFFF AND PUSH20 0xFFFFFFFFFFFFFFFFFFFFFFFFFFFFFFFFFFFFFFFF AND DUP2 MSTORE PUSH1 0x20 ADD PUSH1 0x2 DUP3 ADD SLOAD DUP2 MSTORE PUSH1 0x20 ADD PUSH1 0x3 DUP3 ADD SLOAD DUP2 MSTORE PUSH1 0x20 ADD PUSH1 0x4 DUP3 ADD SLOAD DUP2 MSTORE PUSH1 0x20 ADD PUSH1 0x5 DUP3 ADD PUSH1 0x0 SWAP1 SLOAD SWAP1 PUSH2 0x100 EXP SWAP1 DIV PUSH1 0xFF AND PUSH1 0x1 DUP2 GT ISZERO PUSH2 0xBA2 JUMPI PUSH2 0xBA1 PUSH2 0x3F39 JUMP JUMPDEST JUMPDEST PUSH1 0x1 DUP2 GT ISZERO PUSH2 0xBB4 JUMPI PUSH2 0xBB3 PUSH2 0x3F39 JUMP JUMPDEST JUMPDEST DUP2 MSTORE PUSH1 0x20 ADD PUSH1 0x6 DUP3 ADD SLOAD DUP2 MSTORE POP POP SWAP1 POP PUSH1 0x0 DUP4 PUSH1 0x0 ADD MLOAD GT ISZERO PUSH2 0xC78 JUMPI PUSH1 0x40 MLOAD DUP1 PUSH2 0x120 ADD PUSH1 0x40 MSTORE DUP1 DUP6 DUP2 MSTORE PUSH1 0x20 ADD DUP3 PUSH1 0x0 ADD MLOAD PUSH20 0xFFFFFFFFFFFFFFFFFFFFFFFFFFFFFFFFFFFFFFFF AND DUP2 MSTORE PUSH1 0x20 ADD DUP5 PUSH1 0x0 ADD MLOAD DUP2 MSTORE PUSH1 0x20 ADD DUP5 PUSH1 0x20 ADD MLOAD DUP2 MSTORE PUSH1 0x20 ADD DUP5 PUSH1 0x40 ADD MLOAD DUP2 MSTORE PUSH1 0x20 ADD DUP5 PUSH1 0x60 ADD MLOAD DUP2 MSTORE PUSH1 0x20 ADD DUP5 PUSH1 0x80 ADD MLOAD ISZERO ISZERO DUP2 MSTORE PUSH1 0x20 ADD DUP3 PUSH1 0x60 ADD MLOAD DUP2 MSTORE PUSH1 0x20 ADD DUP4 PUSH1 0x20 ADD MLOAD ISZERO ISZERO DUP2 MSTORE POP DUP7 DUP7 DUP2 MLOAD DUP2 LT PUSH2 0xC5E JUMPI PUSH2 0xC5D PUSH2 0x4201 JUMP JUMPDEST JUMPDEST PUSH1 0x20 MUL PUSH1 0x20 ADD ADD DUP2 SWAP1 MSTORE POP DUP5 DUP1 PUSH2 0xC74 SWAP1 PUSH2 0x418A JUMP JUMPDEST SWAP6 POP POP JUMPDEST POP POP POP DUP1 DUP1 PUSH2 0xC86 SWAP1 PUSH2 0x418A JUMP JUMPDEST SWAP2 POP POP PUSH2 0x99F JUMP JUMPDEST POP DUP2 SWAP4 POP POP POP POP SWAP1 JUMP JUMPDEST PUSH1 0x3 PUSH1 0x20 MSTORE DUP2 PUSH1 0x0 MSTORE PUSH1 0x40 PUSH1 0x0 KECCAK256 PUSH1 0x20 MSTORE DUP1 PUSH1 0x0 MSTORE PUSH1 0x40 PUSH1 0x0 KECCAK256 PUSH1 0x0 SWAP2 POP SWAP2 POP POP SLOAD DUP2 JUMP JUMPDEST PUSH1 0x7 PUSH1 0x20 MSTORE DUP1 PUSH1 0x0 MSTORE PUSH1 0x40 PUSH1 0x0 KECCAK256 PUSH1 0x0 SWAP2 POP SWAP1 POP SLOAD DUP2 JUMP JUMPDEST PUSH1 0x10 SLOAD DUP2 JUMP JUMPDEST PUSH1 0x5 PUSH1 0x20 MSTORE DUP2 PUSH1 0x0 MSTORE PUSH1 0x40 PUSH1 0x0 KECCAK256 DUP2 DUP2 SLOAD DUP2 LT PUSH2 0xCF7 JUMPI PUSH1 0x0 DUP1 REVERT JUMPDEST SWAP1 PUSH1 0x0 MSTORE PUSH1 0x20 PUSH1 0x0 KECCAK256 ADD PUSH1 0x0 SWAP2 POP SWAP2 POP POP SLOAD DUP2 JUMP JUMPDEST PUSH1 0xF SLOAD DUP2 JUMP JUMPDEST PUSH1 0xD PUSH1 0x0 SWAP1 SLOAD SWAP1 PUSH2 0x100 EXP SWAP1 DIV PUSH20 0xFFFFFFFFFFFFFFFFFFFFFFFFFFFFFFFFFFFFFFFF AND PUSH20 0xFFFFFFFFFFFFFFFFFFFFFFFFFFFFFFFFFFFFFFFF AND CALLER PUSH20 0xFFFFFFFFFFFFFFFFFFFFFFFFFFFFFFFFFFFFFFFF AND EQ PUSH2 0xDA2 JUMPI PUSH1 0x40 MLOAD PUSH32 0x8C379A000000000000000000000000000000000000000000000000000000000 DUP2 MSTORE PUSH1 0x4 ADD PUSH2 0xD99 SWAP1 PUSH2 0x40CF JUMP JUMPDEST PUSH1 0x40 MLOAD DUP1 SWAP2 SUB SWAP1 REVERT JUMPDEST PUSH2 0xDAA PUSH2 0x2FDF JUMP JUMPDEST PUSH1 0x0 PUSH1 0xB PUSH1 0x1 SWAP1 SLOAD SWAP1 PUSH2 0x100 EXP SWAP1 DIV PUSH20 0xFFFFFFFFFFFFFFFFFFFFFFFFFFFFFFFFFFFFFFFF AND PUSH20 0xFFFFFFFFFFFFFFFFFFFFFFFFFFFFFFFFFFFFFFFF AND PUSH4 0x70A08231 ADDRESS PUSH1 0x40 MLOAD DUP3 PUSH4 0xFFFFFFFF AND PUSH1 0xE0 SHL DUP2 MSTORE PUSH1 0x4 ADD PUSH2 0xE07 SWAP2 SWAP1 PUSH2 0x3DD8 JUMP JUMPDEST PUSH1 0x20 PUSH1 0x40 MLOAD DUP1 DUP4 SUB DUP2 DUP7 GAS STATICCALL ISZERO DUP1 ISZERO PUSH2 0xE24 JUMPI RETURNDATASIZE PUSH1 0x0 DUP1 RETURNDATACOPY RETURNDATASIZE PUSH1 0x0 REVERT JUMPDEST POP POP POP POP PUSH1 0x40 MLOAD RETURNDATASIZE PUSH1 0x1F NOT PUSH1 0x1F DUP3 ADD AND DUP3 ADD DUP1 PUSH1 0x40 MSTORE POP DUP2 ADD SWAP1 PUSH2 0xE48 SWAP2 SWAP1 PUSH2 0x4245 JUMP JUMPDEST SWAP1 POP PUSH1 0x0 DUP2 GT PUSH2 0xE8D JUMPI PUSH1 0x40 MLOAD PUSH32 0x8C379A000000000000000000000000000000000000000000000000000000000 DUP2 MSTORE PUSH1 0x4 ADD PUSH2 0xE84 SWAP1 PUSH2 0x42BE JUMP JUMPDEST PUSH1 0x40 MLOAD DUP1 SWAP2 SUB SWAP1 REVERT JUMPDEST PUSH1 0xB PUSH1 0x1 SWAP1 SLOAD SWAP1 PUSH2 0x100 EXP SWAP1 DIV PUSH20 0xFFFFFFFFFFFFFFFFFFFFFFFFFFFFFFFFFFFFFFFF AND PUSH20 0xFFFFFFFFFFFFFFFFFFFFFFFFFFFFFFFFFFFFFFFF AND PUSH4 0xA9059CBB DUP4 DUP4 PUSH1 0x40 MLOAD DUP4 PUSH4 0xFFFFFFFF AND PUSH1 0xE0 SHL DUP2 MSTORE PUSH1 0x4 ADD PUSH2 0xEEA SWAP3 SWAP2 SWAP1 PUSH2 0x42DE JUMP JUMPDEST PUSH1 0x20 PUSH1 0x40 MLOAD DUP1 DUP4 SUB DUP2 PUSH1 0x0 DUP8 GAS CALL ISZERO DUP1 ISZERO PUSH2 0xF09 JUMPI RETURNDATASIZE PUSH1 0x0 DUP1 RETURNDATACOPY RETURNDATASIZE PUSH1 0x0 REVERT JUMPDEST POP POP POP POP PUSH1 0x40 MLOAD RETURNDATASIZE PUSH1 0x1F NOT PUSH1 0x1F DUP3 ADD AND DUP3 ADD DUP1 PUSH1 0x40 MSTORE POP DUP2 ADD SWAP1 PUSH2 0xF2D SWAP2 SWAP1 PUSH2 0x4333 JUMP JUMPDEST PUSH2 0xF6C JUMPI PUSH1 0x40 MLOAD PUSH32 0x8C379A000000000000000000000000000000000000000000000000000000000 DUP2 MSTORE PUSH1 0x4 ADD PUSH2 0xF63 SWAP1 PUSH2 0x43AC JUMP JUMPDEST PUSH1 0x40 MLOAD DUP1 SWAP2 SUB SWAP1 REVERT JUMPDEST PUSH32 0x8A43C4352486EC339F487F64AF78CA5CBF06CD47833F073D3BAF3A193E503161 DUP3 DUP3 PUSH1 0x40 MLOAD PUSH2 0xF9D SWAP3 SWAP2 SWAP1 PUSH2 0x42DE JUMP JUMPDEST PUSH1 0x40 MLOAD DUP1 SWAP2 SUB SWAP1 LOG1 POP PUSH2 0xFAE PUSH2 0x3025 JUMP JUMPDEST POP JUMP JUMPDEST PUSH1 0xB PUSH1 0x1 SWAP1 SLOAD SWAP1 PUSH2 0x100 EXP SWAP1 DIV PUSH20 0xFFFFFFFFFFFFFFFFFFFFFFFFFFFFFFFFFFFFFFFF AND DUP2 JUMP JUMPDEST PUSH1 0x0 PUSH1 0xB PUSH1 0x0 SWAP1 SLOAD SWAP1 PUSH2 0x100 EXP SWAP1 DIV PUSH1 0xFF AND SWAP1 POP SWAP1 JUMP JUMPDEST PUSH2 0xFF6 PUSH2 0x302F JUMP JUMPDEST PUSH2 0xFFE PUSH2 0x2FDF JUMP JUMPDEST PUSH1 0x0 DUP1 PUSH1 0x0 DUP4 DUP2 MSTORE PUSH1 0x20 ADD SWAP1 DUP2 MSTORE PUSH1 0x20 ADD PUSH1 0x0 KECCAK256 SWAP1 POP PUSH1 0x0 PUSH1 0x1 PUSH1 0x0 DUP5 DUP2 MSTORE PUSH1 0x20 ADD SWAP1 DUP2 MSTORE PUSH1 0x20 ADD PUSH1 0x0 KECCAK256 SWAP1 POP DUP1 PUSH1 0x1 ADD PUSH1 0x0 SWAP1 SLOAD SWAP1 PUSH2 0x100 EXP SWAP1 DIV PUSH1 0xFF AND PUSH2 0x107C JUMPI PUSH1 0x40 MLOAD PUSH32 0x8C379A000000000000000000000000000000000000000000000000000000000 DUP2 MSTORE PUSH1 0x4 ADD PUSH2 0x1073 SWAP1 PUSH2 0x4418 JUMP JUMPDEST PUSH1 0x40 MLOAD DUP1 SWAP2 SUB SWAP1 REVERT JUMPDEST DUP2 PUSH1 0x6 ADD SLOAD TIMESTAMP GT PUSH2 0x10C2 JUMPI PUSH1 0x40 MLOAD PUSH32 0x8C379A000000000000000000000000000000000000000000000000000000000 DUP2 MSTORE PUSH1 0x4 ADD PUSH2 0x10B9 SWAP1 PUSH2 0x4484 JUMP JUMPDEST PUSH1 0x40 MLOAD DUP1 SWAP2 SUB SWAP1 REVERT JUMPDEST DUP1 PUSH1 0x1 ADD PUSH1 0x1 SWAP1 SLOAD SWAP1 PUSH2 0x100 EXP SWAP1 DIV PUSH1 0xFF AND ISZERO PUSH2 0x1114 JUMPI PUSH1 0x40 MLOAD PUSH32 0x8C379A000000000000000000000000000000000000000000000000000000000 DUP2 MSTORE PUSH1 0x4 ADD PUSH2 0x110B SWAP1 PUSH2 0x44F0 JUMP JUMPDEST PUSH1 0x40 MLOAD DUP1 SWAP2 SUB SWAP1 REVERT JUMPDEST PUSH2 0x111D DUP4 PUSH2 0x3070 JUMP JUMPDEST PUSH1 0x0 DUP2 PUSH1 0x1 ADD PUSH1 0x0 PUSH2 0x100 EXP DUP2 SLOAD DUP2 PUSH1 0xFF MUL NOT AND SWAP1 DUP4 ISZERO ISZERO MUL OR SWAP1 SSTORE POP PUSH1 0x1 DUP2 PUSH1 0x1 ADD PUSH1 0x2 PUSH2 0x100 EXP DUP2 SLOAD DUP2 PUSH1 0xFF MUL NOT AND SWAP1 DUP4 ISZERO ISZERO MUL OR SWAP1 SSTORE POP DUP2 PUSH1 0x1 ADD PUSH1 0x0 SWAP1 SLOAD SWAP1 PUSH2 0x100 EXP SWAP1 DIV PUSH20 0xFFFFFFFFFFFFFFFFFFFFFFFFFFFFFFFFFFFFFFFF AND PUSH20 0xFFFFFFFFFFFFFFFFFFFFFFFFFFFFFFFFFFFFFFFF AND DUP4 PUSH32 0x256BDF47E9AFF5784070D6CAB332D79F81FC6B8C8ED875565982A423A389E3A DUP5 PUSH1 0x2 ADD SLOAD PUSH1 0x40 MLOAD PUSH2 0x11C6 SWAP2 SWAP1 PUSH2 0x3C61 JUMP JUMPDEST PUSH1 0x40 MLOAD DUP1 SWAP2 SUB SWAP1 LOG3 POP POP PUSH2 0x11D8 PUSH2 0x3025 JUMP JUMPDEST POP JUMP JUMPDEST PUSH1 0x12 SLOAD DUP2 JUMP JUMPDEST PUSH1 0xC PUSH1 0x0 SWAP1 SLOAD SWAP1 PUSH2 0x100 EXP SWAP1 DIV PUSH20 0xFFFFFFFFFFFFFFFFFFFFFFFFFFFFFFFFFFFFFFFF AND DUP2 JUMP JUMPDEST PUSH2 0x120F PUSH2 0x302F JUMP JUMPDEST PUSH2 0x1217 PUSH2 0x2FDF JUMP JUMPDEST PUSH1 0x0 DUP1 PUSH1 0x0 DUP4 DUP2 MSTORE PUSH1 0x20 ADD SWAP1 DUP2 MSTORE PUSH1 0x20 ADD PUSH1 0x0 KECCAK256 SWAP1 POP PUSH1 0x0 PUSH1 0x1 PUSH1 0x0 DUP5 DUP2 MSTORE PUSH1 0x20 ADD SWAP1 DUP2 MSTORE PUSH1 0x20 ADD PUSH1 0x0 KECCAK256 SWAP1 POP PUSH1 0x0 PUSH1 0x2 PUSH1 0x0 DUP6 DUP2 MSTORE PUSH1 0x20 ADD SWAP1 DUP2 MSTORE PUSH1 0x20 ADD PUSH1 0x0 KECCAK256 SWAP1 POP DUP2 PUSH1 0x1 ADD PUSH1 0x0 SWAP1 SLOAD SWAP1 PUSH2 0x100 EXP SWAP1 DIV PUSH1 0xFF AND PUSH2 0x12AC JUMPI PUSH1 0x40 MLOAD PUSH32 0x8C379A000000000000000000000000000000000000000000000000000000000 DUP2 MSTORE PUSH1 0x4 ADD PUSH2 0x12A3 SWAP1 PUSH2 0x4418 JUMP JUMPDEST PUSH1 0x40 MLOAD DUP1 SWAP2 SUB SWAP1 REVERT JUMPDEST DUP3 PUSH1 0x0 ADD PUSH1 0x0 SWAP1 SLOAD SWAP1 PUSH2 0x100 EXP SWAP1 DIV PUSH20 0xFFFFFFFFFFFFFFFFFFFFFFFFFFFFFFFFFFFFFFFF AND PUSH20 0xFFFFFFFFFFFFFFFFFFFFFFFFFFFFFFFFFFFFFFFF AND CALLER PUSH20 0xFFFFFFFFFFFFFFFFFFFFFFFFFFFFFFFFFFFFFFFF AND EQ PUSH2 0x133E JUMPI PUSH1 0x40 MLOAD PUSH32 0x8C379A000000000000000000000000000000000000000000000000000000000 DUP2 MSTORE PUSH1 0x4 ADD PUSH2 0x1335 SWAP1 PUSH2 0x455C JUMP JUMPDEST PUSH1 0x40 MLOAD DUP1 SWAP2 SUB SWAP1 REVERT JUMPDEST PUSH2 0x1347 DUP5 PUSH2 0x31AC JUMP JUMPDEST PUSH1 0x0 DUP2 PUSH1 0x1 ADD SLOAD SWAP1 POP PUSH1 0x0 DUP2 GT PUSH2 0x1393 JUMPI PUSH1 0x40 MLOAD PUSH32 0x8C379A000000000000000000000000000000000000000000000000000000000 DUP2 MSTORE PUSH1 0x4 ADD PUSH2 0x138A SWAP1 PUSH2 0x45C8 JUMP JUMPDEST PUSH1 0x40 MLOAD DUP1 SWAP2 SUB SWAP1 REVERT JUMPDEST PUSH1 0x0 PUSH1 0x64 PUSH1 0x14 DUP4 PUSH2 0x13A4 SWAP2 SWAP1 PUSH2 0x45E8 JUMP JUMPDEST PUSH2 0x13AE SWAP2 SWAP1 PUSH2 0x4659 JUMP JUMPDEST SWAP1 POP PUSH1 0x0 DUP2 DUP4 PUSH2 0x13BE SWAP2 SWAP1 PUSH2 0x468A JUMP JUMPDEST SWAP1 POP TIMESTAMP DUP5 PUSH1 0x0 ADD DUP2 SWAP1 SSTORE POP PUSH1 0x0 DUP6 PUSH1 0x2 ADD SLOAD DUP5 DUP9 PUSH1 0x2 ADD SLOAD PUSH2 0x13E0 SWAP2 SWAP1 PUSH2 0x46BE JUMP JUMPDEST PUSH2 0x13EA SWAP2 SWAP1 PUSH2 0x468A JUMP JUMPDEST SWAP1 POP DUP7 PUSH1 0x2 ADD SLOAD DUP2 GT PUSH2 0x1432 JUMPI PUSH1 0x40 MLOAD PUSH32 0x8C379A000000000000000000000000000000000000000000000000000000000 DUP2 MSTORE PUSH1 0x4 ADD PUSH2 0x1429 SWAP1 PUSH2 0x473E JUMP JUMPDEST PUSH1 0x40 MLOAD DUP1 SWAP2 SUB SWAP1 REVERT JUMPDEST PUSH1 0x0 DUP4 GT PUSH2 0x1475 JUMPI PUSH1 0x40 MLOAD PUSH32 0x8C379A000000000000000000000000000000000000000000000000000000000 DUP2 MSTORE PUSH1 0x4 ADD PUSH2 0x146C SWAP1 PUSH2 0x47AA JUMP JUMPDEST PUSH1 0x40 MLOAD DUP1 SWAP2 SUB SWAP1 REVERT JUMPDEST PUSH1 0xB PUSH1 0x1 SWAP1 SLOAD SWAP1 PUSH2 0x100 EXP SWAP1 DIV PUSH20 0xFFFFFFFFFFFFFFFFFFFFFFFFFFFFFFFFFFFFFFFF AND PUSH20 0xFFFFFFFFFFFFFFFFFFFFFFFFFFFFFFFFFFFFFFFF AND PUSH4 0x23B872DD CALLER ADDRESS DUP5 PUSH1 0x40 MLOAD DUP5 PUSH4 0xFFFFFFFF AND PUSH1 0xE0 SHL DUP2 MSTORE PUSH1 0x4 ADD PUSH2 0x14D4 SWAP4 SWAP3 SWAP2 SWAP1 PUSH2 0x47CA JUMP JUMPDEST PUSH1 0x20 PUSH1 0x40 MLOAD DUP1 DUP4 SUB DUP2 PUSH1 0x0 DUP8 GAS CALL ISZERO DUP1 ISZERO PUSH2 0x14F3 JUMPI RETURNDATASIZE PUSH1 0x0 DUP1 RETURNDATACOPY RETURNDATASIZE PUSH1 0x0 REVERT JUMPDEST POP POP POP POP PUSH1 0x40 MLOAD RETURNDATASIZE PUSH1 0x1F NOT PUSH1 0x1F DUP3 ADD AND DUP3 ADD DUP1 PUSH1 0x40 MSTORE POP DUP2 ADD SWAP1 PUSH2 0x1517 SWAP2 SWAP1 PUSH2 0x4333 JUMP JUMPDEST PUSH2 0x1556 JUMPI PUSH1 0x40 MLOAD PUSH32 0x8C379A000000000000000000000000000000000000000000000000000000000 DUP2 MSTORE PUSH1 0x4 ADD PUSH2 0x154D SWAP1 PUSH2 0x484D JUMP JUMPDEST PUSH1 0x40 MLOAD DUP1 SWAP2 SUB SWAP1 REVERT JUMPDEST PUSH1 0x0 DUP3 DUP9 PUSH1 0x2 ADD SLOAD PUSH2 0x1568 SWAP2 SWAP1 PUSH2 0x46BE JUMP JUMPDEST SWAP1 POP PUSH1 0xB PUSH1 0x1 SWAP1 SLOAD SWAP1 PUSH2 0x100 EXP SWAP1 DIV PUSH20 0xFFFFFFFFFFFFFFFFFFFFFFFFFFFFFFFFFFFFFFFF AND PUSH20 0xFFFFFFFFFFFFFFFFFFFFFFFFFFFFFFFFFFFFFFFF AND PUSH4 0xA9059CBB DUP10 PUSH1 0x1 ADD PUSH1 0x0 SWAP1 SLOAD SWAP1 PUSH2 0x100 EXP SWAP1 DIV PUSH20 0xFFFFFFFFFFFFFFFFFFFFFFFFFFFFFFFFFFFFFFFF AND DUP4 PUSH1 0x40 MLOAD DUP4 PUSH4 0xFFFFFFFF AND PUSH1 0xE0 SHL DUP2 MSTORE PUSH1 0x4 ADD PUSH2 0x15EB SWAP3 SWAP2 SWAP1 PUSH2 0x42DE JUMP JUMPDEST PUSH1 0x20 PUSH1 0x40 MLOAD DUP1 DUP4 SUB DUP2 PUSH1 0x0 DUP8 GAS CALL ISZERO DUP1 ISZERO PUSH2 0x160A JUMPI RETURNDATASIZE PUSH1 0x0 DUP1 RETURNDATACOPY RETURNDATASIZE PUSH1 0x0 REVERT JUMPDEST POP POP POP POP PUSH1 0x40 MLOAD RETURNDATASIZE PUSH1 0x1F NOT PUSH1 0x1F DUP3 ADD AND DUP3 ADD DUP1 PUSH1 0x40 MSTORE POP DUP2 ADD SWAP1 PUSH2 0x162E SWAP2 SWAP1 PUSH2 0x4333 JUMP JUMPDEST PUSH2 0x166D JUMPI PUSH1 0x40 MLOAD PUSH32 0x8C379A000000000000000000000000000000000000000000000000000000000 DUP2 MSTORE PUSH1 0x4 ADD PUSH2 0x1664 SWAP1 PUSH2 0x48B9 JUMP JUMPDEST PUSH1 0x40 MLOAD DUP1 SWAP2 SUB SWAP1 REVERT JUMPDEST DUP2 DUP8 PUSH1 0x2 ADD PUSH1 0x0 DUP3 DUP3 SLOAD PUSH2 0x1681 SWAP2 SWAP1 PUSH2 0x46BE JUMP JUMPDEST SWAP3 POP POP DUP2 SWAP1 SSTORE POP PUSH1 0x0 DUP8 PUSH1 0x1 ADD PUSH1 0x0 PUSH2 0x100 EXP DUP2 SLOAD DUP2 PUSH1 0xFF MUL NOT AND SWAP1 DUP4 ISZERO ISZERO MUL OR SWAP1 SSTORE POP PUSH1 0x1 DUP8 PUSH1 0x1 ADD PUSH1 0x1 PUSH2 0x100 EXP DUP2 SLOAD DUP2 PUSH1 0xFF MUL NOT AND SWAP1 DUP4 ISZERO ISZERO MUL OR SWAP1 SSTORE POP PUSH1 0x0 DUP8 PUSH1 0x1 ADD PUSH1 0x2 PUSH2 0x100 EXP DUP2 SLOAD DUP2 PUSH1 0xFF MUL NOT AND SWAP1 DUP4 ISZERO ISZERO MUL OR SWAP1 SSTORE POP PUSH2 0x16E8 DUP10 PUSH2 0x332B JUMP JUMPDEST CALLER PUSH20 0xFFFFFFFFFFFFFFFFFFFFFFFFFFFFFFFFFFFFFFFF AND DUP10 PUSH32 0x512D3E65B3E58C2187BB1872AA435DBA5BD09C1C03823BA56AB70AAC411E4A21 DUP5 PUSH1 0x40 MLOAD PUSH2 0x172F SWAP2 SWAP1 PUSH2 0x3C61 JUMP JUMPDEST PUSH1 0x40 MLOAD DUP1 SWAP2 SUB SWAP1 LOG3 DUP9 PUSH32 0x4E1EAD5246A36F9DA4A7F8BA0922EBAB097B2349377E0B60B228A5E9D8EE587 DUP6 PUSH1 0x40 MLOAD PUSH2 0x1767 SWAP2 SWAP1 PUSH2 0x3C61 JUMP JUMPDEST PUSH1 0x40 MLOAD DUP1 SWAP2 SUB SWAP1 LOG2 POP POP POP POP POP POP POP POP PUSH2 0x177F PUSH2 0x3025 JUMP JUMPDEST POP JUMP JUMPDEST PUSH2 0x178A PUSH2 0x302F JUMP JUMPDEST PUSH2 0x1792 PUSH2 0x2FDF JUMP JUMPDEST PUSH1 0x0 DUP1 PUSH1 0x0 DUP4 DUP2 MSTORE PUSH1 0x20 ADD SWAP1 DUP2 MSTORE PUSH1 0x20 ADD PUSH1 0x0 KECCAK256 SWAP1 POP PUSH1 0x0 PUSH1 0x1 PUSH1 0x0 DUP5 DUP2 MSTORE PUSH1 0x20 ADD SWAP1 DUP2 MSTORE PUSH1 0x20 ADD PUSH1 0x0 KECCAK256 SWAP1 POP DUP1 PUSH1 0x1 ADD PUSH1 0x0 SWAP1 SLOAD SWAP1 PUSH2 0x100 EXP SWAP1 DIV PUSH1 0xFF AND ISZERO PUSH2 0x1811 JUMPI PUSH1 0x40 MLOAD PUSH32 0x8C379A000000000000000000000000000000000000000000000000000000000 DUP2 MSTORE PUSH1 0x4 ADD PUSH2 0x1808 SWAP1 PUSH2 0x4925 JUMP JUMPDEST PUSH1 0x40 MLOAD DUP1 SWAP2 SUB SWAP1 REVERT JUMPDEST PUSH1 0x0 PUSH20 0xFFFFFFFFFFFFFFFFFFFFFFFFFFFFFFFFFFFFFFFF AND DUP3 PUSH1 0x1 ADD PUSH1 0x0 SWAP1 SLOAD SWAP1 PUSH2 0x100 EXP SWAP1 DIV PUSH20 0xFFFFFFFFFFFFFFFFFFFFFFFFFFFFFFFFFFFFFFFF AND PUSH20 0xFFFFFFFFFFFFFFFFFFFFFFFFFFFFFFFFFFFFFFFF AND EQ PUSH2 0x18A4 JUMPI PUSH1 0x40 MLOAD PUSH32 0x8C379A000000000000000000000000000000000000000000000000000000000 DUP2 MSTORE PUSH1 0x4 ADD PUSH2 0x189B SWAP1 PUSH2 0x4991 JUMP JUMPDEST PUSH1 0x40 MLOAD DUP1 SWAP2 SUB SWAP1 REVERT JUMPDEST DUP2 PUSH1 0x2 ADD SLOAD PUSH1 0xB PUSH1 0x1 SWAP1 SLOAD SWAP1 PUSH2 0x100 EXP SWAP1 DIV PUSH20 0xFFFFFFFFFFFFFFFFFFFFFFFFFFFFFFFFFFFFFFFF AND PUSH20 0xFFFFFFFFFFFFFFFFFFFFFFFFFFFFFFFFFFFFFFFF AND PUSH4 0xDD62ED3E CALLER ADDRESS PUSH1 0x40 MLOAD DUP4 PUSH4 0xFFFFFFFF AND PUSH1 0xE0 SHL DUP2 MSTORE PUSH1 0x4 ADD PUSH2 0x1906 SWAP3 SWAP2 SWAP1 PUSH2 0x49B1 JUMP JUMPDEST PUSH1 0x20 PUSH1 0x40 MLOAD DUP1 DUP4 SUB DUP2 DUP7 GAS STATICCALL ISZERO DUP1 ISZERO PUSH2 0x1923 JUMPI RETURNDATASIZE PUSH1 0x0 DUP1 RETURNDATACOPY RETURNDATASIZE PUSH1 0x0 REVERT JUMPDEST POP POP POP POP PUSH1 0x40 MLOAD RETURNDATASIZE PUSH1 0x1F NOT PUSH1 0x1F DUP3 ADD AND DUP3 ADD DUP1 PUSH1 0x40 MSTORE POP DUP2 ADD SWAP1 PUSH2 0x1947 SWAP2 SWAP1 PUSH2 0x4245 JUMP JUMPDEST LT ISZERO PUSH2 0x1988 JUMPI PUSH1 0x40 MLOAD PUSH32 0x8C379A000000000000000000000000000000000000000000000000000000000 DUP2 MSTORE PUSH1 0x4 ADD PUSH2 0x197F SWAP1 PUSH2 0x4A4C JUMP JUMPDEST PUSH1 0x40 MLOAD DUP1 SWAP2 SUB SWAP1 REVERT JUMPDEST PUSH1 0xB PUSH1 0x1 SWAP1 SLOAD SWAP1 PUSH2 0x100 EXP SWAP1 DIV PUSH20 0xFFFFFFFFFFFFFFFFFFFFFFFFFFFFFFFFFFFFFFFF AND PUSH20 0xFFFFFFFFFFFFFFFFFFFFFFFFFFFFFFFFFFFFFFFF AND PUSH4 0x23B872DD CALLER ADDRESS DUP6 PUSH1 0x2 ADD SLOAD PUSH1 0x40 MLOAD DUP5 PUSH4 0xFFFFFFFF AND PUSH1 0xE0 SHL DUP2 MSTORE PUSH1 0x4 ADD PUSH2 0x19EB SWAP4 SWAP3 SWAP2 SWAP1 PUSH2 0x47CA JUMP JUMPDEST PUSH1 0x20 PUSH1 0x40 MLOAD DUP1 DUP4 SUB DUP2 PUSH1 0x0 DUP8 GAS CALL ISZERO DUP1 ISZERO PUSH2 0x1A0A JUMPI RETURNDATASIZE PUSH1 0x0 DUP1 RETURNDATACOPY RETURNDATASIZE PUSH1 0x0 REVERT JUMPDEST POP POP POP POP PUSH1 0x40 MLOAD RETURNDATASIZE PUSH1 0x1F NOT PUSH1 0x1F DUP3 ADD AND DUP3 ADD DUP1 PUSH1 0x40 MSTORE POP DUP2 ADD SWAP1 PUSH2 0x1A2E SWAP2 SWAP1 PUSH2 0x4333 JUMP JUMPDEST PUSH2 0x1A6D JUMPI PUSH1 0x40 MLOAD PUSH32 0x8C379A000000000000000000000000000000000000000000000000000000000 DUP2 MSTORE PUSH1 0x4 ADD PUSH2 0x1A64 SWAP1 PUSH2 0x484D JUMP JUMPDEST PUSH1 0x40 MLOAD DUP1 SWAP2 SUB SWAP1 REVERT JUMPDEST CALLER DUP3 PUSH1 0x1 ADD PUSH1 0x0 PUSH2 0x100 EXP DUP2 SLOAD DUP2 PUSH20 0xFFFFFFFFFFFFFFFFFFFFFFFFFFFFFFFFFFFFFFFF MUL NOT AND SWAP1 DUP4 PUSH20 0xFFFFFFFFFFFFFFFFFFFFFFFFFFFFFFFFFFFFFFFF AND MUL OR SWAP1 SSTORE POP TIMESTAMP DUP2 PUSH1 0x0 ADD DUP2 SWAP1 SSTORE POP PUSH1 0x1 DUP2 PUSH1 0x1 ADD PUSH1 0x0 PUSH2 0x100 EXP DUP2 SLOAD DUP2 PUSH1 0xFF MUL NOT AND SWAP1 DUP4 ISZERO ISZERO MUL OR SWAP1 SSTORE POP PUSH1 0xB PUSH1 0x1 SWAP1 SLOAD SWAP1 PUSH2 0x100 EXP SWAP1 DIV PUSH20 0xFFFFFFFFFFFFFFFFFFFFFFFFFFFFFFFFFFFFFFFF AND PUSH20 0xFFFFFFFFFFFFFFFFFFFFFFFFFFFFFFFFFFFFFFFF AND PUSH4 0xA9059CBB DUP4 PUSH1 0x0 ADD PUSH1 0x0 SWAP1 SLOAD SWAP1 PUSH2 0x100 EXP SWAP1 DIV PUSH20 0xFFFFFFFFFFFFFFFFFFFFFFFFFFFFFFFFFFFFFFFF AND DUP5 PUSH1 0x2 ADD SLOAD PUSH1 0x40 MLOAD DUP4 PUSH4 0xFFFFFFFF AND PUSH1 0xE0 SHL DUP2 MSTORE PUSH1 0x4 ADD PUSH2 0x1B5B SWAP3 SWAP2 SWAP1 PUSH2 0x42DE JUMP JUMPDEST PUSH1 0x20 PUSH1 0x40 MLOAD DUP1 DUP4 SUB DUP2 PUSH1 0x0 DUP8 GAS CALL ISZERO DUP1 ISZERO PUSH2 0x1B7A JUMPI RETURNDATASIZE PUSH1 0x0 DUP1 RETURNDATACOPY RETURNDATASIZE PUSH1 0x0 REVERT JUMPDEST POP POP POP POP PUSH1 0x40 MLOAD RETURNDATASIZE PUSH1 0x1F NOT PUSH1 0x1F DUP3 ADD AND DUP3 ADD DUP1 PUSH1 0x40 MSTORE POP DUP2 ADD SWAP1 PUSH2 0x1B9E SWAP2 SWAP1 PUSH2 0x4333 JUMP JUMPDEST PUSH2 0x1BDD JUMPI PUSH1 0x40 MLOAD PUSH32 0x8C379A000000000000000000000000000000000000000000000000000000000 DUP2 MSTORE PUSH1 0x4 ADD PUSH2 0x1BD4 SWAP1 PUSH2 0x4AB8 JUMP JUMPDEST PUSH1 0x40 MLOAD DUP1 SWAP2 SUB SWAP1 REVERT JUMPDEST PUSH1 0x5 PUSH1 0x0 CALLER PUSH20 0xFFFFFFFFFFFFFFFFFFFFFFFFFFFFFFFFFFFFFFFF AND PUSH20 0xFFFFFFFFFFFFFFFFFFFFFFFFFFFFFFFFFFFFFFFF AND DUP2 MSTORE PUSH1 0x20 ADD SWAP1 DUP2 MSTORE PUSH1 0x20 ADD PUSH1 0x0 KECCAK256 DUP4 SWAP1 DUP1 PUSH1 0x1 DUP2 SLOAD ADD DUP1 DUP3 SSTORE DUP1 SWAP2 POP POP PUSH1 0x1 SWAP1 SUB SWAP1 PUSH1 0x0 MSTORE PUSH1 0x20 PUSH1 0x0 KECCAK256 ADD PUSH1 0x0 SWAP1 SWAP2 SWAP1 SWAP2 SWAP1 SWAP2 POP SSTORE PUSH1 0x4 PUSH1 0x0 DUP4 PUSH1 0x0 ADD PUSH1 0x0 SWAP1 SLOAD SWAP1 PUSH2 0x100 EXP SWAP1 DIV PUSH20 0xFFFFFFFFFFFFFFFFFFFFFFFFFFFFFFFFFFFFFFFF AND PUSH20 0xFFFFFFFFFFFFFFFFFFFFFFFFFFFFFFFFFFFFFFFF AND PUSH20 0xFFFFFFFFFFFFFFFFFFFFFFFFFFFFFFFFFFFFFFFF AND DUP2 MSTORE PUSH1 0x20 ADD SWAP1 DUP2 MSTORE PUSH1 0x20 ADD PUSH1 0x0 KECCAK256 DUP4 SWAP1 DUP1 PUSH1 0x1 DUP2 SLOAD ADD DUP1 DUP3 SSTORE DUP1 SWAP2 POP POP PUSH1 0x1 SWAP1 SUB SWAP1 PUSH1 0x0 MSTORE PUSH1 0x20 PUSH1 0x0 KECCAK256 ADD PUSH1 0x0 SWAP1 SWAP2 SWAP1 SWAP2 SWAP1 SWAP2 POP SSTORE PUSH1 0x9 DUP4 SWAP1 DUP1 PUSH1 0x1 DUP2 SLOAD ADD DUP1 DUP3 SSTORE DUP1 SWAP2 POP POP PUSH1 0x1 SWAP1 SUB SWAP1 PUSH1 0x0 MSTORE PUSH1 0x20 PUSH1 0x0 KECCAK256 ADD PUSH1 0x0 SWAP1 SWAP2 SWAP1 SWAP2 SWAP1 SWAP2 POP SSTORE CALLER PUSH20 0xFFFFFFFFFFFFFFFFFFFFFFFFFFFFFFFFFFFFFFFF AND DUP4 PUSH32 0x15FEAB5D3EB17171632762CF769709A315DD15F487A556C0DFB8A259C8F186CC PUSH1 0x40 MLOAD PUSH1 0x40 MLOAD DUP1 SWAP2 SUB SWAP1 LOG3 DUP2 PUSH1 0x0 ADD PUSH1 0x0 SWAP1 SLOAD SWAP1 PUSH2 0x100 EXP SWAP1 DIV PUSH20 0xFFFFFFFFFFFFFFFFFFFFFFFFFFFFFFFFFFFFFFFF AND PUSH20 0xFFFFFFFFFFFFFFFFFFFFFFFFFFFFFFFFFFFFFFFF AND DUP4 PUSH32 0xCEEB4503A2FE0B51298A0AF21358F3D89E7EAB3F65AE2A7835859C3E2C51604 DUP5 PUSH1 0x2 ADD SLOAD PUSH1 0x40 MLOAD PUSH2 0x1DA9 SWAP2 SWAP1 PUSH2 0x3C61 JUMP JUMPDEST PUSH1 0x40 MLOAD DUP1 SWAP2 SUB SWAP1 LOG3 POP POP PUSH2 0x1DBB PUSH2 0x3025 JUMP JUMPDEST POP JUMP JUMPDEST PUSH1 0x60 PUSH1 0x0 PUSH1 0x4 PUSH1 0x0 DUP5 PUSH20 0xFFFFFFFFFFFFFFFFFFFFFFFFFFFFFFFFFFFFFFFF AND PUSH20 0xFFFFFFFFFFFFFFFFFFFFFFFFFFFFFFFFFFFFFFFF AND DUP2 MSTORE PUSH1 0x20 ADD SWAP1 DUP2 MSTORE PUSH1 0x20 ADD PUSH1 0x0 KECCAK256 DUP1 SLOAD DUP1 PUSH1 0x20 MUL PUSH1 0x20 ADD PUSH1 0x40 MLOAD SWAP1 DUP2 ADD PUSH1 0x40 MSTORE DUP1 SWAP3 SWAP2 SWAP1 DUP2 DUP2 MSTORE PUSH1 0x20 ADD DUP3 DUP1 SLOAD DUP1 ISZERO PUSH2 0x1E4B JUMPI PUSH1 0x20 MUL DUP3 ADD SWAP2 SWAP1 PUSH1 0x0 MSTORE PUSH1 0x20 PUSH1 0x0 KECCAK256 SWAP1 JUMPDEST DUP2 SLOAD DUP2 MSTORE PUSH1 0x20 ADD SWAP1 PUSH1 0x1 ADD SWAP1 DUP1 DUP4 GT PUSH2 0x1E37 JUMPI JUMPDEST POP POP POP POP POP SWAP1 POP PUSH1 0x0 DUP1 JUMPDEST DUP3 MLOAD DUP2 LT ISZERO PUSH2 0x1F0E JUMPI PUSH1 0x0 DUP4 DUP3 DUP2 MLOAD DUP2 LT PUSH2 0x1E74 JUMPI PUSH2 0x1E73 PUSH2 0x4201 JUMP JUMPDEST JUMPDEST PUSH1 0x20 MUL PUSH1 0x20 ADD ADD MLOAD SWAP1 POP PUSH1 0x0 PUSH1 0x6 PUSH1 0x0 DUP4 DUP2 MSTORE PUSH1 0x20 ADD SWAP1 DUP2 MSTORE PUSH1 0x20 ADD PUSH1 0x0 KECCAK256 PUSH1 0x40 MLOAD DUP1 PUSH1 0xA0 ADD PUSH1 0x40 MSTORE SWAP1 DUP2 PUSH1 0x0 DUP3 ADD SLOAD DUP2 MSTORE PUSH1 0x20 ADD PUSH1 0x1 DUP3 ADD SLOAD DUP2 MSTORE PUSH1 0x20 ADD PUSH1 0x2 DUP3 ADD SLOAD DUP2 MSTORE PUSH1 0x20 ADD PUSH1 0x3 DUP3 ADD SLOAD DUP2 MSTORE PUSH1 0x20 ADD PUSH1 0x4 DUP3 ADD PUSH1 0x0 SWAP1 SLOAD SWAP1 PUSH2 0x100 EXP SWAP1 DIV PUSH1 0xFF AND ISZERO ISZERO ISZERO ISZERO DUP2 MSTORE POP POP SWAP1 POP PUSH1 0x0 DUP2 PUSH1 0x0 ADD MLOAD GT ISZERO PUSH2 0x1EFF JUMPI DUP4 DUP1 PUSH2 0x1EFB SWAP1 PUSH2 0x418A JUMP JUMPDEST SWAP5 POP POP JUMPDEST POP POP DUP1 DUP1 PUSH1 0x1 ADD SWAP2 POP POP PUSH2 0x1E56 JUMP JUMPDEST POP PUSH1 0x0 DUP2 PUSH8 0xFFFFFFFFFFFFFFFF DUP2 GT ISZERO PUSH2 0x1F2B JUMPI PUSH2 0x1F2A PUSH2 0x41D2 JUMP JUMPDEST JUMPDEST PUSH1 0x40 MLOAD SWAP1 DUP1 DUP3 MSTORE DUP1 PUSH1 0x20 MUL PUSH1 0x20 ADD DUP3 ADD PUSH1 0x40 MSTORE DUP1 ISZERO PUSH2 0x1F64 JUMPI DUP2 PUSH1 0x20 ADD JUMPDEST PUSH2 0x1F51 PUSH2 0x3924 JUMP JUMPDEST DUP2 MSTORE PUSH1 0x20 ADD SWAP1 PUSH1 0x1 SWAP1 SUB SWAP1 DUP2 PUSH2 0x1F49 JUMPI SWAP1 POP JUMPDEST POP SWAP1 POP PUSH1 0x0 DUP1 JUMPDEST DUP5 MLOAD DUP2 LT ISZERO PUSH2 0x2274 JUMPI PUSH1 0x0 DUP6 DUP3 DUP2 MLOAD DUP2 LT PUSH2 0x1F89 JUMPI PUSH2 0x1F88 PUSH2 0x4201 JUMP JUMPDEST JUMPDEST PUSH1 0x20 MUL PUSH1 0x20 ADD ADD MLOAD SWAP1 POP PUSH1 0x0 PUSH1 0x6 PUSH1 0x0 DUP4 DUP2 MSTORE PUSH1 0x20 ADD SWAP1 DUP2 MSTORE PUSH1 0x20 ADD PUSH1 0x0 KECCAK256 PUSH1 0x40 MLOAD DUP1 PUSH1 0xA0 ADD PUSH1 0x40 MSTORE SWAP1 DUP2 PUSH1 0x0 DUP3 ADD SLOAD DUP2 MSTORE PUSH1 0x20 ADD PUSH1 0x1 DUP3 ADD SLOAD DUP2 MSTORE PUSH1 0x20 ADD PUSH1 0x2 DUP3 ADD SLOAD DUP2 MSTORE PUSH1 0x20 ADD PUSH1 0x3 DUP3 ADD SLOAD DUP2 MSTORE PUSH1 0x20 ADD PUSH1 0x4 DUP3 ADD PUSH1 0x0 SWAP1 SLOAD SWAP1 PUSH2 0x100 EXP SWAP1 DIV PUSH1 0xFF AND ISZERO ISZERO ISZERO ISZERO DUP2 MSTORE POP POP SWAP1 POP PUSH1 0x0 PUSH1 0x1 PUSH1 0x0 DUP5 DUP2 MSTORE PUSH1 0x20 ADD SWAP1 DUP2 MSTORE PUSH1 0x20 ADD PUSH1 0x0 KECCAK256 PUSH1 0x40 MLOAD DUP1 PUSH1 0xA0 ADD PUSH1 0x40 MSTORE SWAP1 DUP2 PUSH1 0x0 DUP3 ADD SLOAD DUP2 MSTORE PUSH1 0x20 ADD PUSH1 0x1 DUP3 ADD PUSH1 0x0 SWAP1 SLOAD SWAP1 PUSH2 0x100 EXP SWAP1 DIV PUSH1 0xFF AND ISZERO ISZERO ISZERO ISZERO DUP2 MSTORE PUSH1 0x20 ADD PUSH1 0x1 DUP3 ADD PUSH1 0x1 SWAP1 SLOAD SWAP1 PUSH2 0x100 EXP SWAP1 DIV PUSH1 0xFF AND ISZERO ISZERO ISZERO ISZERO DUP2 MSTORE PUSH1 0x20 ADD PUSH1 0x1 DUP3 ADD PUSH1 0x2 SWAP1 SLOAD SWAP1 PUSH2 0x100 EXP SWAP1 DIV PUSH1 0xFF AND ISZERO ISZERO ISZERO ISZERO DUP2 MSTORE PUSH1 0x20 ADD PUSH1 0x2 DUP3 ADD SLOAD DUP2 MSTORE POP POP SWAP1 POP PUSH1 0x0 DUP1 PUSH1 0x0 DUP6 DUP2 MSTORE PUSH1 0x20 ADD SWAP1 DUP2 MSTORE PUSH1 0x20 ADD PUSH1 0x0 KECCAK256 PUSH1 0x40 MLOAD DUP1 PUSH1 0xE0 ADD PUSH1 0x40 MSTORE SWAP1 DUP2 PUSH1 0x0 DUP3 ADD PUSH1 0x0 SWAP1 SLOAD SWAP1 PUSH2 0x100 EXP SWAP1 DIV PUSH20 0xFFFFFFFFFFFFFFFFFFFFFFFFFFFFFFFFFFFFFFFF AND PUSH20 0xFFFFFFFFFFFFFFFFFFFFFFFFFFFFFFFFFFFFFFFF AND PUSH20 0xFFFFFFFFFFFFFFFFFFFFFFFFFFFFFFFFFFFFFFFF AND DUP2 MSTORE PUSH1 0x20 ADD PUSH1 0x1 DUP3 ADD PUSH1 0x0 SWAP1 SLOAD SWAP1 PUSH2 0x100 EXP SWAP1 DIV PUSH20 0xFFFFFFFFFFFFFFFFFFFFFFFFFFFFFFFFFFFFFFFF AND PUSH20 0xFFFFFFFFFFFFFFFFFFFFFFFFFFFFFFFFFFFFFFFF AND PUSH20 0xFFFFFFFFFFFFFFFFFFFFFFFFFFFFFFFFFFFFFFFF AND DUP2 MSTORE PUSH1 0x20 ADD PUSH1 0x2 DUP3 ADD SLOAD DUP2 MSTORE PUSH1 0x20 ADD PUSH1 0x3 DUP3 ADD SLOAD DUP2 MSTORE PUSH1 0x20 ADD PUSH1 0x4 DUP3 ADD SLOAD DUP2 MSTORE PUSH1 0x20 ADD PUSH1 0x5 DUP3 ADD PUSH1 0x0 SWAP1 SLOAD SWAP1 PUSH2 0x100 EXP SWAP1 DIV PUSH1 0xFF AND PUSH1 0x1 DUP2 GT ISZERO PUSH2 0x218D JUMPI PUSH2 0x218C PUSH2 0x3F39 JUMP JUMPDEST JUMPDEST PUSH1 0x1 DUP2 GT ISZERO PUSH2 0x219F JUMPI PUSH2 0x219E PUSH2 0x3F39 JUMP JUMPDEST JUMPDEST DUP2 MSTORE PUSH1 0x20 ADD PUSH1 0x6 DUP3 ADD SLOAD DUP2 MSTORE POP POP SWAP1 POP PUSH1 0x0 DUP4 PUSH1 0x0 ADD MLOAD GT ISZERO PUSH2 0x2263 JUMPI PUSH1 0x40 MLOAD DUP1 PUSH2 0x120 ADD PUSH1 0x40 MSTORE DUP1 DUP6 DUP2 MSTORE PUSH1 0x20 ADD DUP3 PUSH1 0x0 ADD MLOAD PUSH20 0xFFFFFFFFFFFFFFFFFFFFFFFFFFFFFFFFFFFFFFFF AND DUP2 MSTORE PUSH1 0x20 ADD DUP5 PUSH1 0x0 ADD MLOAD DUP2 MSTORE PUSH1 0x20 ADD DUP5 PUSH1 0x20 ADD MLOAD DUP2 MSTORE PUSH1 0x20 ADD DUP5 PUSH1 0x40 ADD MLOAD DUP2 MSTORE PUSH1 0x20 ADD DUP5 PUSH1 0x60 ADD MLOAD DUP2 MSTORE PUSH1 0x20 ADD DUP5 PUSH1 0x80 ADD MLOAD ISZERO ISZERO DUP2 MSTORE PUSH1 0x20 ADD DUP3 PUSH1 0x60 ADD MLOAD DUP2 MSTORE PUSH1 0x20 ADD DUP4 PUSH1 0x20 ADD MLOAD ISZERO ISZERO DUP2 MSTORE POP DUP8 DUP8 DUP2 MLOAD DUP2 LT PUSH2 0x2249 JUMPI PUSH2 0x2248 PUSH2 0x4201 JUMP JUMPDEST JUMPDEST PUSH1 0x20 MUL PUSH1 0x20 ADD ADD DUP2 SWAP1 MSTORE POP DUP6 DUP1 PUSH2 0x225F SWAP1 PUSH2 0x418A JUMP JUMPDEST SWAP7 POP POP JUMPDEST POP POP POP POP DUP1 DUP1 PUSH1 0x1 ADD SWAP2 POP POP PUSH2 0x1F6B JUMP JUMPDEST POP DUP2 SWAP5 POP POP POP POP POP SWAP2 SWAP1 POP JUMP JUMPDEST PUSH1 0xD PUSH1 0x0 SWAP1 SLOAD SWAP1 PUSH2 0x100 EXP SWAP1 DIV PUSH20 0xFFFFFFFFFFFFFFFFFFFFFFFFFFFFFFFFFFFFFFFF AND DUP2 JUMP JUMPDEST PUSH1 0xD PUSH1 0x0 SWAP1 SLOAD SWAP1 PUSH2 0x100 EXP SWAP1 DIV PUSH20 0xFFFFFFFFFFFFFFFFFFFFFFFFFFFFFFFFFFFFFFFF AND PUSH20 0xFFFFFFFFFFFFFFFFFFFFFFFFFFFFFFFFFFFFFFFF AND CALLER PUSH20 0xFFFFFFFFFFFFFFFFFFFFFFFFFFFFFFFFFFFFFFFF AND EQ PUSH2 0x2337 JUMPI PUSH1 0x40 MLOAD PUSH32 0x8C379A000000000000000000000000000000000000000000000000000000000 DUP2 MSTORE PUSH1 0x4 ADD PUSH2 0x232E SWAP1 PUSH2 0x40CF JUMP JUMPDEST PUSH1 0x40 MLOAD DUP1 SWAP2 SUB SWAP1 REVERT JUMPDEST PUSH1 0x0 DUP3 GT PUSH2 0x237A JUMPI PUSH1 0x40 MLOAD PUSH32 0x8C379A000000000000000000000000000000000000000000000000000000000 DUP2 MSTORE PUSH1 0x4 ADD PUSH2 0x2371 SWAP1 PUSH2 0x4B4A JUMP JUMPDEST PUSH1 0x40 MLOAD DUP1 SWAP2 SUB SWAP1 REVERT JUMPDEST DUP2 DUP2 GT PUSH2 0x23BC JUMPI PUSH1 0x40 MLOAD PUSH32 0x8C379A000000000000000000000000000000000000000000000000000000000 DUP2 MSTORE PUSH1 0x4 ADD PUSH2 0x23B3 SWAP1 PUSH2 0x4BDC JUMP JUMPDEST PUSH1 0x40 MLOAD DUP1 SWAP2 SUB SWAP1 REVERT JUMPDEST DUP2 PUSH1 0x11 DUP2 SWAP1 SSTORE POP DUP1 PUSH1 0x12 DUP2 SWAP1 SSTORE POP POP POP JUMP JUMPDEST PUSH1 0x0 DUP1 PUSH1 0xC PUSH1 0x0 SWAP1 SLOAD SWAP1 PUSH2 0x100 EXP SWAP1 DIV PUSH20 0xFFFFFFFFFFFFFFFFFFFFFFFFFFFFFFFFFFFFFFFF AND PUSH20 0xFFFFFFFFFFFFFFFFFFFFFFFFFFFFFFFFFFFFFFFF AND PUSH4 0xFEAF968C PUSH1 0x40 MLOAD DUP2 PUSH4 0xFFFFFFFF AND PUSH1 0xE0 SHL DUP2 MSTORE PUSH1 0x4 ADD PUSH1 0xA0 PUSH1 0x40 MLOAD DUP1 DUP4 SUB DUP2 DUP7 GAS STATICCALL ISZERO DUP1 ISZERO PUSH2 0x243E JUMPI RETURNDATASIZE PUSH1 0x0 DUP1 RETURNDATACOPY RETURNDATASIZE PUSH1 0x0 REVERT JUMPDEST POP POP POP POP PUSH1 0x40 MLOAD RETURNDATASIZE PUSH1 0x1F NOT PUSH1 0x1F DUP3 ADD AND DUP3 ADD DUP1 PUSH1 0x40 MSTORE POP DUP2 ADD SWAP1 PUSH2 0x2462 SWAP2 SWAP1 PUSH2 0x4C74 JUMP JUMPDEST POP POP POP SWAP2 POP POP PUSH1 0x0 DUP2 SGT PUSH2 0x24AB JUMPI PUSH1 0x40 MLOAD PUSH32 0x8C379A000000000000000000000000000000000000000000000000000000000 DUP2 MSTORE PUSH1 0x4 ADD PUSH2 0x24A2 SWAP1 PUSH2 0x4D3B JUMP JUMPDEST PUSH1 0x40 MLOAD DUP1 SWAP2 SUB SWAP1 REVERT JUMPDEST DUP1 SWAP2 POP POP SWAP1 JUMP JUMPDEST PUSH1 0x8 PUSH1 0x20 MSTORE DUP1 PUSH1 0x0 MSTORE PUSH1 0x40 PUSH1 0x0 KECCAK256 PUSH1 0x0 SWAP2 POP SWAP1 POP DUP1 PUSH1 0x0 ADD PUSH1 0x0 SWAP1 SLOAD SWAP1 PUSH2 0x100 EXP SWAP1 DIV PUSH20 0xFFFFFFFFFFFFFFFFFFFFFFFFFFFFFFFFFFFFFFFF AND SWAP1 DUP1 PUSH1 0x1 ADD SLOAD SWAP1 DUP1 PUSH1 0x2 ADD PUSH1 0x0 SWAP1 SLOAD SWAP1 PUSH2 0x100 EXP SWAP1 DIV PUSH1 0xFF AND SWAP1 POP DUP4 JUMP JUMPDEST PUSH2 0x2511 PUSH2 0x302F JUMP JUMPDEST PUSH2 0x2519 PUSH2 0x2FDF JUMP JUMPDEST PUSH1 0x0 DUP1 PUSH1 0x0 DUP5 DUP2 MSTORE PUSH1 0x20 ADD SWAP1 DUP2 MSTORE PUSH1 0x20 ADD PUSH1 0x0 KECCAK256 SWAP1 POP PUSH1 0x0 PUSH1 0x1 PUSH1 0x0 DUP6 DUP2 MSTORE PUSH1 0x20 ADD SWAP1 DUP2 MSTORE PUSH1 0x20 ADD PUSH1 0x0 KECCAK256 SWAP1 POP PUSH1 0x0 PUSH1 0x2 PUSH1 0x0 DUP7 DUP2 MSTORE PUSH1 0x20 ADD SWAP1 DUP2 MSTORE PUSH1 0x20 ADD PUSH1 0x0 KECCAK256 SWAP1 POP DUP2 PUSH1 0x1 ADD PUSH1 0x0 SWAP1 SLOAD SWAP1 PUSH2 0x100 EXP SWAP1 DIV PUSH1 0xFF AND PUSH2 0x25AE JUMPI PUSH1 0x40 MLOAD PUSH32 0x8C379A000000000000000000000000000000000000000000000000000000000 DUP2 MSTORE PUSH1 0x4 ADD PUSH2 0x25A5 SWAP1 PUSH2 0x4418 JUMP JUMPDEST PUSH1 0x40 MLOAD DUP1 SWAP2 SUB SWAP1 REVERT JUMPDEST DUP3 PUSH1 0x0 ADD PUSH1 0x0 SWAP1 SLOAD SWAP1 PUSH2 0x100 EXP SWAP1 DIV PUSH20 0xFFFFFFFFFFFFFFFFFFFFFFFFFFFFFFFFFFFFFFFF AND PUSH20 0xFFFFFFFFFFFFFFFFFFFFFFFFFFFFFFFFFFFFFFFF AND CALLER PUSH20 0xFFFFFFFFFFFFFFFFFFFFFFFFFFFFFFFFFFFFFFFF AND EQ PUSH2 0x2640 JUMPI PUSH1 0x40 MLOAD PUSH32 0x8C379A000000000000000000000000000000000000000000000000000000000 DUP2 MSTORE PUSH1 0x4 ADD PUSH2 0x2637 SWAP1 PUSH2 0x455C JUMP JUMPDEST PUSH1 0x40 MLOAD DUP1 SWAP2 SUB SWAP1 REVERT JUMPDEST PUSH2 0x2649 DUP6 PUSH2 0x31AC JUMP JUMPDEST PUSH1 0x0 DUP2 PUSH1 0x1 ADD SLOAD SWAP1 POP PUSH1 0x0 DUP4 PUSH1 0x2 ADD SLOAD DUP3 DUP7 PUSH1 0x2 ADD SLOAD PUSH2 0x2669 SWAP2 SWAP1 PUSH2 0x46BE JUMP JUMPDEST PUSH2 0x2673 SWAP2 SWAP1 PUSH2 0x468A JUMP JUMPDEST SWAP1 POP DUP1 DUP7 GT ISZERO PUSH2 0x26B8 JUMPI PUSH1 0x40 MLOAD PUSH32 0x8C379A000000000000000000000000000000000000000000000000000000000 DUP2 MSTORE PUSH1 0x4 ADD PUSH2 0x26AF SWAP1 PUSH2 0x4DA7 JUMP JUMPDEST PUSH1 0x40 MLOAD DUP1 SWAP2 SUB SWAP1 REVERT JUMPDEST PUSH1 0xB PUSH1 0x1 SWAP1 SLOAD SWAP1 PUSH2 0x100 EXP SWAP1 DIV PUSH20 0xFFFFFFFFFFFFFFFFFFFFFFFFFFFFFFFFFFFFFFFF AND PUSH20 0xFFFFFFFFFFFFFFFFFFFFFFFFFFFFFFFFFFFFFFFF AND PUSH4 0x23B872DD CALLER DUP8 PUSH1 0x1 ADD PUSH1 0x0 SWAP1 SLOAD SWAP1 PUSH2 0x100 EXP SWAP1 DIV PUSH20 0xFFFFFFFFFFFFFFFFFFFFFFFFFFFFFFFFFFFFFFFF AND DUP10 PUSH1 0x40 MLOAD DUP5 PUSH4 0xFFFFFFFF AND PUSH1 0xE0 SHL DUP2 MSTORE PUSH1 0x4 ADD PUSH2 0x273B SWAP4 SWAP3 SWAP2 SWAP1 PUSH2 0x47CA JUMP JUMPDEST PUSH1 0x20 PUSH1 0x40 MLOAD DUP1 DUP4 SUB DUP2 PUSH1 0x0 DUP8 GAS CALL ISZERO DUP1 ISZERO PUSH2 0x275A JUMPI RETURNDATASIZE PUSH1 0x0 DUP1 RETURNDATACOPY RETURNDATASIZE PUSH1 0x0 REVERT JUMPDEST POP POP POP POP PUSH1 0x40 MLOAD RETURNDATASIZE PUSH1 0x1F NOT PUSH1 0x1F DUP3 ADD AND DUP3 ADD DUP1 PUSH1 0x40 MSTORE POP DUP2 ADD SWAP1 PUSH2 0x277E SWAP2 SWAP1 PUSH2 0x4333 JUMP JUMPDEST PUSH2 0x27BD JUMPI PUSH1 0x40 MLOAD PUSH32 0x8C379A000000000000000000000000000000000000000000000000000000000 DUP2 MSTORE PUSH1 0x4 ADD PUSH2 0x27B4 SWAP1 PUSH2 0x4E13 JUMP JUMPDEST PUSH1 0x40 MLOAD DUP1 SWAP2 SUB SWAP1 REVERT JUMPDEST DUP6 DUP5 PUSH1 0x2 ADD PUSH1 0x0 DUP3 DUP3 SLOAD PUSH2 0x27D1 SWAP2 SWAP1 PUSH2 0x46BE JUMP JUMPDEST SWAP3 POP POP DUP2 SWAP1 SSTORE POP DUP1 DUP5 PUSH1 0x2 ADD SLOAD LT PUSH2 0x2827 JUMPI PUSH1 0x1 DUP5 PUSH1 0x1 ADD PUSH1 0x1 PUSH2 0x100 EXP DUP2 SLOAD DUP2 PUSH1 0xFF MUL NOT AND SWAP1 DUP4 ISZERO ISZERO MUL OR SWAP1 SSTORE POP PUSH1 0x0 DUP5 PUSH1 0x1 ADD PUSH1 0x0 PUSH2 0x100 EXP DUP2 SLOAD DUP2 PUSH1 0xFF MUL NOT AND SWAP1 DUP4 ISZERO ISZERO MUL OR SWAP1 SSTORE POP PUSH2 0x2826 DUP8 PUSH2 0x332B JUMP JUMPDEST JUMPDEST CALLER PUSH20 0xFFFFFFFFFFFFFFFFFFFFFFFFFFFFFFFFFFFFFFFF AND DUP8 PUSH32 0xB7B6AE626E0094ABA4B69388B656D4B64F27860C5101C42C10A2E53FD6B0CE35 DUP9 PUSH1 0x40 MLOAD PUSH2 0x286E SWAP2 SWAP1 PUSH2 0x3C61 JUMP JUMPDEST PUSH1 0x40 MLOAD DUP1 SWAP2 SUB SWAP1 LOG3 POP POP POP POP POP PUSH2 0x2883 PUSH2 0x3025 JUMP JUMPDEST POP POP JUMP JUMPDEST PUSH1 0x1 PUSH1 0x20 MSTORE DUP1 PUSH1 0x0 MSTORE PUSH1 0x40 PUSH1 0x0 KECCAK256 PUSH1 0x0 SWAP2 POP SWAP1 POP DUP1 PUSH1 0x0 ADD SLOAD SWAP1 DUP1 PUSH1 0x1 ADD PUSH1 0x0 SWAP1 SLOAD SWAP1 PUSH2 0x100 EXP SWAP1 DIV PUSH1 0xFF AND SWAP1 DUP1 PUSH1 0x1 ADD PUSH1 0x1 SWAP1 SLOAD SWAP1 PUSH2 0x100 EXP SWAP1 DIV PUSH1 0xFF AND SWAP1 DUP1 PUSH1 0x1 ADD PUSH1 0x2 SWAP1 SLOAD SWAP1 PUSH2 0x100 EXP SWAP1 DIV PUSH1 0xFF AND SWAP1 DUP1 PUSH1 0x2 ADD SLOAD SWAP1 POP DUP6 JUMP JUMPDEST PUSH1 0x2 PUSH1 0x20 MSTORE DUP1 PUSH1 0x0 MSTORE PUSH1 0x40 PUSH1 0x0 KECCAK256 PUSH1 0x0 SWAP2 POP SWAP1 POP DUP1 PUSH1 0x0 ADD SLOAD SWAP1 DUP1 PUSH1 0x1 ADD SLOAD SWAP1 POP DUP3 JUMP JUMPDEST PUSH1 0x6 PUSH1 0x20 MSTORE DUP1 PUSH1 0x0 MSTORE PUSH1 0x40 PUSH1 0x0 KECCAK256 PUSH1 0x0 SWAP2 POP SWAP1 POP DUP1 PUSH1 0x0 ADD SLOAD SWAP1 DUP1 PUSH1 0x1 ADD SLOAD SWAP1 DUP1 PUSH1 0x2 ADD SLOAD SWAP1 DUP1 PUSH1 0x3 ADD SLOAD SWAP1 DUP1 PUSH1 0x4 ADD PUSH1 0x0 SWAP1 SLOAD SWAP1 PUSH2 0x100 EXP SWAP1 DIV PUSH1 0xFF AND SWAP1 POP DUP6 JUMP JUMPDEST PUSH1 0xD PUSH1 0x0 SWAP1 SLOAD SWAP1 PUSH2 0x100 EXP SWAP1 DIV PUSH20 0xFFFFFFFFFFFFFFFFFFFFFFFFFFFFFFFFFFFFFFFF AND PUSH20 0xFFFFFFFFFFFFFFFFFFFFFFFFFFFFFFFFFFFFFFFF AND CALLER PUSH20 0xFFFFFFFFFFFFFFFFFFFFFFFFFFFFFFFFFFFFFFFF AND EQ PUSH2 0x29DB JUMPI PUSH1 0x40 MLOAD PUSH32 0x8C379A000000000000000000000000000000000000000000000000000000000 DUP2 MSTORE PUSH1 0x4 ADD PUSH2 0x29D2 SWAP1 PUSH2 0x40CF JUMP JUMPDEST PUSH1 0x40 MLOAD DUP1 SWAP2 SUB SWAP1 REVERT JUMPDEST PUSH1 0x64 DUP2 LT ISZERO PUSH2 0x2A1F JUMPI PUSH1 0x40 MLOAD PUSH32 0x8C379A000000000000000000000000000000000000000000000000000000000 DUP2 MSTORE PUSH1 0x4 ADD PUSH2 0x2A16 SWAP1 PUSH2 0x4E7F JUMP JUMPDEST PUSH1 0x40 MLOAD DUP1 SWAP2 SUB SWAP1 REVERT JUMPDEST DUP1 PUSH1 0xF DUP2 SWAP1 SSTORE POP POP JUMP JUMPDEST PUSH1 0xE SLOAD DUP2 JUMP JUMPDEST PUSH1 0x11 SLOAD DUP2 JUMP JUMPDEST PUSH1 0x0 DUP1 PUSH1 0xB PUSH1 0x1 SWAP1 SLOAD SWAP1 PUSH2 0x100 EXP SWAP1 DIV PUSH20 0xFFFFFFFFFFFFFFFFFFFFFFFFFFFFFFFFFFFFFFFF AND PUSH20 0xFFFFFFFFFFFFFFFFFFFFFFFFFFFFFFFFFFFFFFFF AND PUSH4 0xDD62ED3E CALLER ADDRESS PUSH1 0x40 MLOAD DUP4 PUSH4 0xFFFFFFFF AND PUSH1 0xE0 SHL DUP2 MSTORE PUSH1 0x4 ADD PUSH2 0x2A95 SWAP3 SWAP2 SWAP1 PUSH2 0x49B1 JUMP JUMPDEST PUSH1 0x20 PUSH1 0x40 MLOAD DUP1 DUP4 SUB DUP2 DUP7 GAS STATICCALL ISZERO DUP1 ISZERO PUSH2 0x2AB2 JUMPI RETURNDATASIZE PUSH1 0x0 DUP1 RETURNDATACOPY RETURNDATASIZE PUSH1 0x0 REVERT JUMPDEST POP POP POP POP PUSH1 0x40 MLOAD RETURNDATASIZE PUSH1 0x1F NOT PUSH1 0x1F DUP3 ADD AND DUP3 ADD DUP1 PUSH1 0x40 MSTORE POP DUP2 ADD SWAP1 PUSH2 0x2AD6 SWAP2 SWAP1 PUSH2 0x4245 JUMP JUMPDEST SWAP1 POP DUP1 SWAP2 POP POP SWAP1 JUMP JUMPDEST PUSH1 0x4 PUSH1 0x20 MSTORE DUP2 PUSH1 0x0 MSTORE PUSH1 0x40 PUSH1 0x0 KECCAK256 DUP2 DUP2 SLOAD DUP2 LT PUSH2 0x2AFB JUMPI PUSH1 0x0 DUP1 REVERT JUMPDEST SWAP1 PUSH1 0x0 MSTORE PUSH1 0x20 PUSH1 0x0 KECCAK256 ADD PUSH1 0x0 SWAP2 POP SWAP2 POP POP SLOAD DUP2 JUMP JUMPDEST PUSH1 0x0 PUSH1 0x20 MSTORE DUP1 PUSH1 0x0 MSTORE PUSH1 0x40 PUSH1 0x0 KECCAK256 PUSH1 0x0 SWAP2 POP SWAP1 POP DUP1 PUSH1 0x0 ADD PUSH1 0x0 SWAP1 SLOAD SWAP1 PUSH2 0x100 EXP SWAP1 DIV PUSH20 0xFFFFFFFFFFFFFFFFFFFFFFFFFFFFFFFFFFFFFFFF AND SWAP1 DUP1 PUSH1 0x1 ADD PUSH1 0x0 SWAP1 SLOAD SWAP1 PUSH2 0x100 EXP SWAP1 DIV PUSH20 0xFFFFFFFFFFFFFFFFFFFFFFFFFFFFFFFFFFFFFFFF AND SWAP1 DUP1 PUSH1 0x2 ADD SLOAD SWAP1 DUP1 PUSH1 0x3 ADD SLOAD SWAP1 DUP1 PUSH1 0x4 ADD SLOAD SWAP1 DUP1 PUSH1 0x5 ADD PUSH1 0x0 SWAP1 SLOAD SWAP1 PUSH2 0x100 EXP SWAP1 DIV PUSH1 0xFF AND SWAP1 DUP1 PUSH1 0x6 ADD SLOAD SWAP1 POP DUP8 JUMP JUMPDEST PUSH2 0x2BA7 PUSH2 0x302F JUMP JUMPDEST PUSH2 0x2BAF PUSH2 0x2FDF JUMP JUMPDEST PUSH1 0x11 SLOAD DUP4 LT ISZERO DUP1 ISZERO PUSH2 0x2BC3 JUMPI POP PUSH1 0x12 SLOAD DUP4 GT ISZERO JUMPDEST PUSH2 0x2C02 JUMPI PUSH1 0x40 MLOAD PUSH32 0x8C379A000000000000000000000000000000000000000000000000000000000 DUP2 MSTORE PUSH1 0x4 ADD PUSH2 0x2BF9 SWAP1 PUSH2 0x4EEB JUMP JUMPDEST PUSH1 0x40 MLOAD DUP1 SWAP2 SUB SWAP1 REVERT JUMPDEST PUSH1 0x0 PUSH1 0x64 PUSH1 0xE SLOAD DUP6 PUSH2 0x2C14 SWAP2 SWAP1 PUSH2 0x45E8 JUMP JUMPDEST PUSH2 0x2C1E SWAP2 SWAP1 PUSH2 0x4659 JUMP JUMPDEST SWAP1 POP PUSH1 0x0 PUSH2 0x2C2A PUSH2 0x23CE JUMP JUMPDEST SWAP1 POP PUSH1 0x0 PUSH2 0x2CD6 DUP3 PUSH1 0xC PUSH1 0x0 SWAP1 SLOAD SWAP1 PUSH2 0x100 EXP SWAP1 DIV PUSH20 0xFFFFFFFFFFFFFFFFFFFFFFFFFFFFFFFFFFFFFFFF AND PUSH20 0xFFFFFFFFFFFFFFFFFFFFFFFFFFFFFFFFFFFFFFFF AND PUSH4 0x313CE567 PUSH1 0x40 MLOAD DUP2 PUSH4 0xFFFFFFFF AND PUSH1 0xE0 SHL DUP2 MSTORE PUSH1 0x4 ADD PUSH1 0x20 PUSH1 0x40 MLOAD DUP1 DUP4 SUB DUP2 DUP7 GAS STATICCALL ISZERO DUP1 ISZERO PUSH2 0x2C9F JUMPI RETURNDATASIZE PUSH1 0x0 DUP1 RETURNDATACOPY RETURNDATASIZE PUSH1 0x0 REVERT JUMPDEST POP POP POP POP PUSH1 0x40 MLOAD RETURNDATASIZE PUSH1 0x1F NOT PUSH1 0x1F DUP3 ADD AND DUP3 ADD DUP1 PUSH1 0x40 MSTORE POP DUP2 ADD SWAP1 PUSH2 0x2CC3 SWAP2 SWAP1 PUSH2 0x4F44 JUMP JUMPDEST PUSH1 0xFF AND CALLVALUE PUSH2 0x3434 SWAP1 SWAP3 SWAP2 SWAP1 PUSH4 0xFFFFFFFF AND JUMP JUMPDEST SWAP1 POP DUP3 DUP2 LT ISZERO PUSH2 0x2D1B JUMPI PUSH1 0x40 MLOAD PUSH32 0x8C379A000000000000000000000000000000000000000000000000000000000 DUP2 MSTORE PUSH1 0x4 ADD PUSH2 0x2D12 SWAP1 PUSH2 0x4FBD JUMP JUMPDEST PUSH1 0x40 MLOAD DUP1 SWAP2 SUB SWAP1 REVERT JUMPDEST PUSH1 0x10 PUSH1 0x0 DUP2 SLOAD DUP1 SWAP3 SWAP2 SWAP1 PUSH2 0x2D2E SWAP1 PUSH2 0x418A JUMP JUMPDEST SWAP2 SWAP1 POP SSTORE POP PUSH1 0x0 PUSH1 0x6 PUSH1 0x0 PUSH1 0x10 SLOAD DUP2 MSTORE PUSH1 0x20 ADD SWAP1 DUP2 MSTORE PUSH1 0x20 ADD PUSH1 0x0 KECCAK256 SWAP1 POP DUP7 DUP2 PUSH1 0x0 ADD DUP2 SWAP1 SSTORE POP DUP6 DUP2 PUSH1 0x1 ADD DUP2 SWAP1 SSTORE POP DUP5 DUP2 PUSH1 0x3 ADD DUP2 SWAP1 SSTORE POP DUP5 TIMESTAMP PUSH2 0x2D73 SWAP2 SWAP1 PUSH2 0x46BE JUMP JUMPDEST DUP2 PUSH1 0x2 ADD DUP2 SWAP1 SSTORE POP PUSH1 0x0 DUP2 PUSH1 0x4 ADD PUSH1 0x0 PUSH2 0x100 EXP DUP2 SLOAD DUP2 PUSH1 0xFF MUL NOT AND SWAP1 DUP4 ISZERO ISZERO MUL OR SWAP1 SSTORE POP PUSH1 0x40 MLOAD DUP1 PUSH1 0xE0 ADD PUSH1 0x40 MSTORE DUP1 CALLER PUSH20 0xFFFFFFFFFFFFFFFFFFFFFFFFFFFFFFFFFFFFFFFF AND DUP2 MSTORE PUSH1 0x20 ADD PUSH1 0x0 PUSH20 0xFFFFFFFFFFFFFFFFFFFFFFFFFFFFFFFFFFFFFFFF AND DUP2 MSTORE PUSH1 0x20 ADD DUP9 DUP2 MSTORE PUSH1 0x20 ADD CALLVALUE DUP2 MSTORE PUSH1 0x20 ADD DUP8 DUP2 MSTORE PUSH1 0x20 ADD PUSH1 0x0 PUSH1 0x1 DUP2 GT ISZERO PUSH2 0x2E02 JUMPI PUSH2 0x2E01 PUSH2 0x3F39 JUMP JUMPDEST JUMPDEST DUP2 MSTORE PUSH1 0x20 ADD DUP7 DUP2 MSTORE POP PUSH1 0x0 DUP1 PUSH1 0x10 SLOAD DUP2 MSTORE PUSH1 0x20 ADD SWAP1 DUP2 MSTORE PUSH1 0x20 ADD PUSH1 0x0 KECCAK256 PUSH1 0x0 DUP3 ADD MLOAD DUP2 PUSH1 0x0 ADD PUSH1 0x0 PUSH2 0x100 EXP DUP2 SLOAD DUP2 PUSH20 0xFFFFFFFFFFFFFFFFFFFFFFFFFFFFFFFFFFFFFFFF MUL NOT AND SWAP1 DUP4 PUSH20 0xFFFFFFFFFFFFFFFFFFFFFFFFFFFFFFFFFFFFFFFF AND MUL OR SWAP1 SSTORE POP PUSH1 0x20 DUP3 ADD MLOAD DUP2 PUSH1 0x1 ADD PUSH1 0x0 PUSH2 0x100 EXP DUP2 SLOAD DUP2 PUSH20 0xFFFFFFFFFFFFFFFFFFFFFFFFFFFFFFFFFFFFFFFF MUL NOT AND SWAP1 DUP4 PUSH20 0xFFFFFFFFFFFFFFFFFFFFFFFFFFFFFFFFFFFFFFFF AND MUL OR SWAP1 SSTORE POP PUSH1 0x40 DUP3 ADD MLOAD DUP2 PUSH1 0x2 ADD SSTORE PUSH1 0x60 DUP3 ADD MLOAD DUP2 PUSH1 0x3 ADD SSTORE PUSH1 0x80 DUP3 ADD MLOAD DUP2 PUSH1 0x4 ADD SSTORE PUSH1 0xA0 DUP3 ADD MLOAD DUP2 PUSH1 0x5 ADD PUSH1 0x0 PUSH2 0x100 EXP DUP2 SLOAD DUP2 PUSH1 0xFF MUL NOT AND SWAP1 DUP4 PUSH1 0x1 DUP2 GT ISZERO PUSH2 0x2EF6 JUMPI PUSH2 0x2EF5 PUSH2 0x3F39 JUMP JUMPDEST JUMPDEST MUL OR SWAP1 SSTORE POP PUSH1 0xC0 DUP3 ADD MLOAD DUP2 PUSH1 0x6 ADD SSTORE SWAP1 POP POP PUSH1 0x4 PUSH1 0x0 CALLER PUSH20 0xFFFFFFFFFFFFFFFFFFFFFFFFFFFFFFFFFFFFFFFF AND PUSH20 0xFFFFFFFFFFFFFFFFFFFFFFFFFFFFFFFFFFFFFFFF AND DUP2 MSTORE PUSH1 0x20 ADD SWAP1 DUP2 MSTORE PUSH1 0x20 ADD PUSH1 0x0 KECCAK256 PUSH1 0x10 SLOAD SWAP1 DUP1 PUSH1 0x1 DUP2 SLOAD ADD DUP1 DUP3 SSTORE DUP1 SWAP2 POP POP PUSH1 0x1 SWAP1 SUB SWAP1 PUSH1 0x0 MSTORE PUSH1 0x20 PUSH1 0x0 KECCAK256 ADD PUSH1 0x0 SWAP1 SWAP2 SWAP1 SWAP2 SWAP1 SWAP2 POP SSTORE PUSH2 0x2F7B PUSH1 0x10 SLOAD PUSH2 0x3462 JUMP JUMPDEST CALLER PUSH20 0xFFFFFFFFFFFFFFFFFFFFFFFFFFFFFFFFFFFFFFFF AND PUSH1 0x10 SLOAD PUSH32 0x68595DBE887AE7F496F2C88735019A8918919A1DECFDEE6BDB460480AB87DECB DUP10 CALLVALUE PUSH1 0x40 MLOAD PUSH2 0x2FC6 SWAP3 SWAP2 SWAP1 PUSH2 0x3EBD JUMP JUMPDEST PUSH1 0x40 MLOAD DUP1 SWAP2 SUB SWAP1 LOG3 POP POP POP POP PUSH2 0x2FDA PUSH2 0x3025 JUMP JUMPDEST POP POP POP JUMP JUMPDEST PUSH1 0x2 PUSH1 0xA SLOAD SUB PUSH2 0x301B JUMPI PUSH1 0x40 MLOAD PUSH32 0x3EE5AEB500000000000000000000000000000000000000000000000000000000 DUP2 MSTORE PUSH1 0x4 ADD PUSH1 0x40 MLOAD DUP1 SWAP2 SUB SWAP1 REVERT JUMPDEST PUSH1 0x2 PUSH1 0xA DUP2 SWAP1 SSTORE POP JUMP JUMPDEST PUSH1 0x1 PUSH1 0xA DUP2 SWAP1 SSTORE POP JUMP JUMPDEST PUSH2 0x3037 PUSH2 0xFD7 JUMP JUMPDEST ISZERO PUSH2 0x306E JUMPI PUSH1 0x40 MLOAD PUSH32 0xD93C066500000000000000000000000000000000000000000000000000000000 DUP2 MSTORE PUSH1 0x4 ADD PUSH1 0x40 MLOAD DUP1 SWAP2 SUB SWAP1 REVERT JUMPDEST JUMP JUMPDEST PUSH1 0x0 DUP1 PUSH1 0x0 DUP4 DUP2 MSTORE PUSH1 0x20 ADD SWAP1 DUP2 MSTORE PUSH1 0x20 ADD PUSH1 0x0 KECCAK256 SWAP1 POP DUP1 PUSH1 0x3 ADD SLOAD SELFBALANCE LT ISZERO PUSH2 0x30CD JUMPI PUSH1 0x40 MLOAD PUSH32 0x8C379A000000000000000000000000000000000000000000000000000000000 DUP2 MSTORE PUSH1 0x4 ADD PUSH2 0x30C4 SWAP1 PUSH2 0x5029 JUMP JUMPDEST PUSH1 0x40 MLOAD DUP1 SWAP2 SUB SWAP1 REVERT JUMPDEST PUSH1 0x0 DUP2 PUSH1 0x1 ADD PUSH1 0x0 SWAP1 SLOAD SWAP1 PUSH2 0x100 EXP SWAP1 DIV PUSH20 0xFFFFFFFFFFFFFFFFFFFFFFFFFFFFFFFFFFFFFFFF AND SWAP1 POP PUSH1 0x0 DUP2 PUSH20 0xFFFFFFFFFFFFFFFFFFFFFFFFFFFFFFFFFFFFFFFF AND DUP4 PUSH1 0x3 ADD SLOAD PUSH1 0x40 MLOAD PUSH2 0x3120 SWAP1 PUSH2 0x507A JUMP JUMPDEST PUSH1 0x0 PUSH1 0x40 MLOAD DUP1 DUP4 SUB DUP2 DUP6 DUP8 GAS CALL SWAP3 POP POP POP RETURNDATASIZE DUP1 PUSH1 0x0 DUP2 EQ PUSH2 0x315D JUMPI PUSH1 0x40 MLOAD SWAP2 POP PUSH1 0x1F NOT PUSH1 0x3F RETURNDATASIZE ADD AND DUP3 ADD PUSH1 0x40 MSTORE RETURNDATASIZE DUP3 MSTORE RETURNDATASIZE PUSH1 0x0 PUSH1 0x20 DUP5 ADD RETURNDATACOPY PUSH2 0x3162 JUMP JUMPDEST PUSH1 0x60 SWAP2 POP JUMPDEST POP POP SWAP1 POP DUP1 PUSH2 0x31A6 JUMPI PUSH1 0x40 MLOAD PUSH32 0x8C379A000000000000000000000000000000000000000000000000000000000 DUP2 MSTORE PUSH1 0x4 ADD PUSH2 0x319D SWAP1 PUSH2 0x50DB JUMP JUMPDEST PUSH1 0x40 MLOAD DUP1 SWAP2 SUB SWAP1 REVERT JUMPDEST POP POP POP POP JUMP JUMPDEST PUSH1 0x0 DUP1 PUSH1 0x0 DUP4 DUP2 MSTORE PUSH1 0x20 ADD SWAP1 DUP2 MSTORE PUSH1 0x20 ADD PUSH1 0x0 KECCAK256 SWAP1 POP PUSH1 0x0 PUSH1 0x2 PUSH1 0x0 DUP5 DUP2 MSTORE PUSH1 0x20 ADD SWAP1 DUP2 MSTORE PUSH1 0x20 ADD PUSH1 0x0 KECCAK256 SWAP1 POP PUSH1 0x0 PUSH1 0x1 PUSH1 0x0 DUP6 DUP2 MSTORE PUSH1 0x20 ADD SWAP1 DUP2 MSTORE PUSH1 0x20 ADD PUSH1 0x0 KECCAK256 SWAP1 POP DUP1 PUSH1 0x1 ADD PUSH1 0x0 SWAP1 SLOAD SWAP1 PUSH2 0x100 EXP SWAP1 DIV PUSH1 0xFF AND PUSH2 0x3241 JUMPI PUSH1 0x40 MLOAD PUSH32 0x8C379A000000000000000000000000000000000000000000000000000000000 DUP2 MSTORE PUSH1 0x4 ADD PUSH2 0x3238 SWAP1 PUSH2 0x4418 JUMP JUMPDEST PUSH1 0x40 MLOAD DUP1 SWAP2 SUB SWAP1 REVERT JUMPDEST PUSH1 0x0 DUP1 DUP4 PUSH1 0x0 ADD SLOAD SUB PUSH2 0x325A JUMPI DUP4 PUSH1 0x6 ADD SLOAD SWAP1 POP PUSH2 0x326D JUMP JUMPDEST DUP3 PUSH1 0x0 ADD SLOAD TIMESTAMP PUSH2 0x326A SWAP2 SWAP1 PUSH2 0x468A JUMP JUMPDEST SWAP1 POP JUMPDEST PUSH1 0x0 DUP2 GT PUSH2 0x32B0 JUMPI PUSH1 0x40 MLOAD PUSH32 0x8C379A000000000000000000000000000000000000000000000000000000000 DUP2 MSTORE PUSH1 0x4 ADD PUSH2 0x32A7 SWAP1 PUSH2 0x516D JUMP JUMPDEST PUSH1 0x40 MLOAD DUP1 SWAP2 SUB SWAP1 REVERT JUMPDEST PUSH1 0x0 PUSH2 0x32C5 DUP6 PUSH1 0x2 ADD SLOAD DUP7 PUSH1 0x4 ADD SLOAD DUP5 PUSH2 0x35A4 JUMP JUMPDEST SWAP1 POP DUP1 DUP5 PUSH1 0x1 ADD PUSH1 0x0 DUP3 DUP3 SLOAD PUSH2 0x32DB SWAP2 SWAP1 PUSH2 0x46BE JUMP JUMPDEST SWAP3 POP POP DUP2 SWAP1 SSTORE POP TIMESTAMP DUP5 PUSH1 0x0 ADD DUP2 SWAP1 SSTORE POP DUP6 PUSH32 0x3D8708181C6452C5711A2B4C6ED3F12149F6EA35F78549ABA00A89D041E766CA DUP3 PUSH1 0x40 MLOAD PUSH2 0x331B SWAP2 SWAP1 PUSH2 0x3C61 JUMP JUMPDEST PUSH1 0x40 MLOAD DUP1 SWAP2 SUB SWAP1 LOG2 POP POP POP POP POP POP JUMP JUMPDEST PUSH1 0x0 DUP1 PUSH1 0x0 DUP4 DUP2 MSTORE PUSH1 0x20 ADD SWAP1 DUP2 MSTORE PUSH1 0x20 ADD PUSH1 0x0 KECCAK256 SWAP1 POP PUSH1 0x0 DUP2 PUSH1 0x3 ADD SLOAD SWAP1 POP PUSH1 0x0 DUP2 GT ISZERO PUSH2 0x342F JUMPI PUSH1 0x0 DUP3 PUSH1 0x3 ADD DUP2 SWAP1 SSTORE POP PUSH1 0x0 DUP3 PUSH1 0x0 ADD PUSH1 0x0 SWAP1 SLOAD SWAP1 PUSH2 0x100 EXP SWAP1 DIV PUSH20 0xFFFFFFFFFFFFFFFFFFFFFFFFFFFFFFFFFFFFFFFF AND PUSH20 0xFFFFFFFFFFFFFFFFFFFFFFFFFFFFFFFFFFFFFFFF AND DUP3 PUSH1 0x40 MLOAD PUSH2 0x33A7 SWAP1 PUSH2 0x507A JUMP JUMPDEST PUSH1 0x0 PUSH1 0x40 MLOAD DUP1 DUP4 SUB DUP2 DUP6 DUP8 GAS CALL SWAP3 POP POP POP RETURNDATASIZE DUP1 PUSH1 0x0 DUP2 EQ PUSH2 0x33E4 JUMPI PUSH1 0x40 MLOAD SWAP2 POP PUSH1 0x1F NOT PUSH1 0x3F RETURNDATASIZE ADD AND DUP3 ADD PUSH1 0x40 MSTORE RETURNDATASIZE DUP3 MSTORE RETURNDATASIZE PUSH1 0x0 PUSH1 0x20 DUP5 ADD RETURNDATACOPY PUSH2 0x33E9 JUMP JUMPDEST PUSH1 0x60 SWAP2 POP JUMPDEST POP POP SWAP1 POP DUP1 PUSH2 0x342D JUMPI PUSH1 0x40 MLOAD PUSH32 0x8C379A000000000000000000000000000000000000000000000000000000000 DUP2 MSTORE PUSH1 0x4 ADD PUSH2 0x3424 SWAP1 PUSH2 0x50DB JUMP JUMPDEST PUSH1 0x40 MLOAD DUP1 SWAP2 SUB SWAP1 REVERT JUMPDEST POP JUMPDEST POP POP POP JUMP JUMPDEST PUSH1 0x0 DUP2 PUSH1 0xA PUSH2 0x3443 SWAP2 SWAP1 PUSH2 0x52C0 JUMP JUMPDEST DUP4 DUP6 PUSH2 0x344F SWAP2 SWAP1 PUSH2 0x4659 JUMP JUMPDEST PUSH2 0x3459 SWAP2 SWAP1 PUSH2 0x45E8 JUMP JUMPDEST SWAP1 POP SWAP4 SWAP3 POP POP POP JUMP JUMPDEST PUSH1 0x0 PUSH1 0x6 PUSH1 0x0 DUP4 DUP2 MSTORE PUSH1 0x20 ADD SWAP1 DUP2 MSTORE PUSH1 0x20 ADD PUSH1 0x0 KECCAK256 SWAP1 POP PUSH1 0x0 DUP1 PUSH32 0xFFFFFFFFFFFFFFFFFFFFFFFFFFFFFFFFFFFFFFFFFFFFFFFFFFFFFFFFFFFFFFFF SWAP1 POP PUSH1 0x0 JUMPDEST PUSH1 0x9 DUP1 SLOAD SWAP1 POP DUP2 LT ISZERO PUSH2 0x355D JUMPI PUSH1 0x0 PUSH1 0x9 DUP3 DUP2 SLOAD DUP2 LT PUSH2 0x34C5 JUMPI PUSH2 0x34C4 PUSH2 0x4201 JUMP JUMPDEST JUMPDEST SWAP1 PUSH1 0x0 MSTORE PUSH1 0x20 PUSH1 0x0 KECCAK256 ADD SLOAD SWAP1 POP DUP5 PUSH1 0x0 ADD SLOAD PUSH1 0x7 PUSH1 0x0 DUP4 PUSH20 0xFFFFFFFFFFFFFFFFFFFFFFFFFFFFFFFFFFFFFFFF AND PUSH20 0xFFFFFFFFFFFFFFFFFFFFFFFFFFFFFFFFFFFFFFFF AND DUP2 MSTORE PUSH1 0x20 ADD SWAP1 DUP2 MSTORE PUSH1 0x20 ADD PUSH1 0x0 KECCAK256 SLOAD LT PUSH2 0x354F JUMPI PUSH1 0x0 PUSH2 0x352C DUP3 DUP8 PUSH1 0x0 ADD SLOAD PUSH2 0x3712 JUMP JUMPDEST SWAP1 POP DUP6 PUSH1 0x1 ADD SLOAD DUP2 GT ISZERO DUP1 ISZERO PUSH2 0x3541 JUMPI POP DUP4 DUP2 LT JUMPDEST ISZERO PUSH2 0x354D JUMPI DUP2 SWAP5 POP DUP1 SWAP4 POP JUMPDEST POP JUMPDEST POP DUP1 DUP1 PUSH1 0x1 ADD SWAP2 POP POP PUSH2 0x34A2 JUMP JUMPDEST POP PUSH1 0x0 PUSH20 0xFFFFFFFFFFFFFFFFFFFFFFFFFFFFFFFFFFFFFFFF AND DUP3 PUSH20 0xFFFFFFFFFFFFFFFFFFFFFFFFFFFFFFFFFFFFFFFF AND EQ PUSH2 0x359E JUMPI PUSH2 0x359D DUP5 DUP4 DUP4 PUSH2 0x380E JUMP JUMPDEST JUMPDEST POP POP POP POP JUMP JUMPDEST PUSH1 0x0 DUP1 DUP5 GT PUSH2 0x35E8 JUMPI PUSH1 0x40 MLOAD PUSH32 0x8C379A000000000000000000000000000000000000000000000000000000000 DUP2 MSTORE PUSH1 0x4 ADD PUSH2 0x35DF SWAP1 PUSH2 0x5357 JUMP JUMPDEST PUSH1 0x40 MLOAD DUP1 SWAP2 SUB SWAP1 REVERT JUMPDEST PUSH1 0x0 DUP4 GT PUSH2 0x362B JUMPI PUSH1 0x40 MLOAD PUSH32 0x8C379A000000000000000000000000000000000000000000000000000000000 DUP2 MSTORE PUSH1 0x4 ADD PUSH2 0x3622 SWAP1 PUSH2 0x53E9 JUMP JUMPDEST PUSH1 0x40 MLOAD DUP1 SWAP2 SUB SWAP1 REVERT JUMPDEST PUSH1 0x0 DUP3 GT PUSH2 0x366E JUMPI PUSH1 0x40 MLOAD PUSH32 0x8C379A000000000000000000000000000000000000000000000000000000000 DUP2 MSTORE PUSH1 0x4 ADD PUSH2 0x3665 SWAP1 PUSH2 0x547B JUMP JUMPDEST PUSH1 0x40 MLOAD DUP1 SWAP2 SUB SWAP1 REVERT JUMPDEST PUSH1 0x0 PUSH4 0xBBF81E00 PUSH8 0xDE0B6B3A7640000 DUP6 PUSH2 0x3689 SWAP2 SWAP1 PUSH2 0x45E8 JUMP JUMPDEST PUSH2 0x3693 SWAP2 SWAP1 PUSH2 0x4659 JUMP JUMPDEST SWAP1 POP PUSH1 0x0 DUP2 GT PUSH2 0x36D8 JUMPI PUSH1 0x40 MLOAD PUSH32 0x8C379A000000000000000000000000000000000000000000000000000000000 DUP2 MSTORE PUSH1 0x4 ADD PUSH2 0x36CF SWAP1 PUSH2 0x54E7 JUMP JUMPDEST PUSH1 0x40 MLOAD DUP1 SWAP2 SUB SWAP1 REVERT JUMPDEST PUSH1 0x0 PUSH8 0xDE0B6B3A7640000 DUP5 DUP4 DUP9 PUSH2 0x36F0 SWAP2 SWAP1 PUSH2 0x45E8 JUMP JUMPDEST PUSH2 0x36FA SWAP2 SWAP1 PUSH2 0x45E8 JUMP JUMPDEST PUSH2 0x3704 SWAP2 SWAP1 PUSH2 0x4659 JUMP JUMPDEST SWAP1 POP DUP1 SWAP3 POP POP POP SWAP4 SWAP3 POP POP POP JUMP JUMPDEST PUSH1 0x0 DUP1 PUSH1 0x7 PUSH1 0x0 DUP6 PUSH20 0xFFFFFFFFFFFFFFFFFFFFFFFFFFFFFFFFFFFFFFFF AND PUSH20 0xFFFFFFFFFFFFFFFFFFFFFFFFFFFFFFFFFFFFFFFF AND DUP2 MSTORE PUSH1 0x20 ADD SWAP1 DUP2 MSTORE PUSH1 0x20 ADD PUSH1 0x0 KECCAK256 SLOAD SWAP1 POP DUP3 DUP2 LT ISZERO PUSH2 0x379A JUMPI PUSH1 0x40 MLOAD PUSH32 0x8C379A000000000000000000000000000000000000000000000000000000000 DUP2 MSTORE PUSH1 0x4 ADD PUSH2 0x3791 SWAP1 PUSH2 0x5553 JUMP JUMPDEST PUSH1 0x40 MLOAD DUP1 SWAP2 SUB SWAP1 REVERT JUMPDEST PUSH1 0x0 DUP2 PUSH1 0x64 DUP6 PUSH2 0x37AA SWAP2 SWAP1 PUSH2 0x45E8 JUMP JUMPDEST PUSH2 0x37B4 SWAP2 SWAP1 PUSH2 0x4659 JUMP JUMPDEST SWAP1 POP PUSH1 0x0 PUSH1 0x2 SWAP1 POP PUSH1 0x0 PUSH1 0x14 SWAP1 POP PUSH1 0x0 PUSH1 0x64 DUP4 DUP4 PUSH2 0x37D2 SWAP2 SWAP1 PUSH2 0x468A JUMP JUMPDEST DUP6 PUSH2 0x37DD SWAP2 SWAP1 PUSH2 0x45E8 JUMP JUMPDEST PUSH2 0x37E7 SWAP2 SWAP1 PUSH2 0x4659 JUMP JUMPDEST DUP4 PUSH2 0x37F2 SWAP2 SWAP1 PUSH2 0x46BE JUMP JUMPDEST SWAP1 POP DUP2 DUP2 GT ISZERO PUSH2 0x3800 JUMPI DUP2 SWAP1 POP JUMPDEST DUP1 SWAP6 POP POP POP POP POP POP SWAP3 SWAP2 POP POP JUMP JUMPDEST PUSH1 0x0 DUP1 PUSH1 0x0 DUP6 DUP2 MSTORE PUSH1 0x20 ADD SWAP1 DUP2 MSTORE PUSH1 0x20 ADD PUSH1 0x0 KECCAK256 SWAP1 POP DUP3 DUP2 PUSH1 0x1 ADD PUSH1 0x0 PUSH2 0x100 EXP DUP2 SLOAD DUP2 PUSH20 0xFFFFFFFFFFFFFFFFFFFFFFFFFFFFFFFFFFFFFFFF MUL NOT AND SWAP1 DUP4 PUSH20 0xFFFFFFFFFFFFFFFFFFFFFFFFFFFFFFFFFFFFFFFF AND MUL OR SWAP1 SSTORE POP DUP2 DUP2 PUSH1 0x4 ADD DUP2 SWAP1 SSTORE POP PUSH1 0x1 PUSH1 0x6 PUSH1 0x0 DUP7 DUP2 MSTORE PUSH1 0x20 ADD SWAP1 DUP2 MSTORE PUSH1 0x20 ADD PUSH1 0x0 KECCAK256 PUSH1 0x4 ADD PUSH1 0x0 PUSH2 0x100 EXP DUP2 SLOAD DUP2 PUSH1 0xFF MUL NOT AND SWAP1 DUP4 ISZERO ISZERO MUL OR SWAP1 SSTORE POP DUP1 PUSH1 0x0 ADD PUSH1 0x0 SWAP1 SLOAD SWAP1 PUSH2 0x100 EXP SWAP1 DIV PUSH20 0xFFFFFFFFFFFFFFFFFFFFFFFFFFFFFFFFFFFFFFFF AND PUSH20 0xFFFFFFFFFFFFFFFFFFFFFFFFFFFFFFFFFFFFFFFF AND DUP4 PUSH20 0xFFFFFFFFFFFFFFFFFFFFFFFFFFFFFFFFFFFFFFFF AND DUP6 PUSH32 0x132AEB8D030DCC11ADFC3EAD0730A22AA3C0BF449B3532210C732B9A25E83C20 PUSH1 0x40 MLOAD PUSH1 0x40 MLOAD DUP1 SWAP2 SUB SWAP1 LOG4 POP POP POP POP JUMP JUMPDEST PUSH1 0x40 MLOAD DUP1 PUSH2 0x120 ADD PUSH1 0x40 MSTORE DUP1 PUSH1 0x0 DUP2 MSTORE PUSH1 0x20 ADD PUSH1 0x0 PUSH20 0xFFFFFFFFFFFFFFFFFFFFFFFFFFFFFFFFFFFFFFFF AND DUP2 MSTORE PUSH1 0x20 ADD PUSH1 0x0 DUP2 MSTORE PUSH1 0x20 ADD PUSH1 0x0 DUP2 MSTORE PUSH1 0x20 ADD PUSH1 0x0 DUP2 MSTORE PUSH1 0x20 ADD PUSH1 0x0 DUP2 MSTORE PUSH1 0x20 ADD PUSH1 0x0 ISZERO ISZERO DUP2 MSTORE PUSH1 0x20 ADD PUSH1 0x0 DUP2 MSTORE PUSH1 0x20 ADD PUSH1 0x0 ISZERO ISZERO DUP2 MSTORE POP SWAP1 JUMP JUMPDEST PUSH1 0x0 DUP1 REVERT JUMPDEST PUSH1 0x0 DUP2 SWAP1 POP SWAP2 SWAP1 POP JUMP JUMPDEST PUSH2 0x39A2 DUP2 PUSH2 0x398F JUMP JUMPDEST DUP2 EQ PUSH2 0x39AD JUMPI PUSH1 0x0 DUP1 REVERT JUMPDEST POP JUMP JUMPDEST PUSH1 0x0 DUP2 CALLDATALOAD SWAP1 POP PUSH2 0x39BF DUP2 PUSH2 0x3999 JUMP JUMPDEST SWAP3 SWAP2 POP POP JUMP JUMPDEST PUSH1 0x0 PUSH1 0x20 DUP3 DUP5 SUB SLT ISZERO PUSH2 0x39DB JUMPI PUSH2 0x39DA PUSH2 0x398A JUMP JUMPDEST JUMPDEST PUSH1 0x0 PUSH2 0x39E9 DUP5 DUP3 DUP6 ADD PUSH2 0x39B0 JUMP JUMPDEST SWAP2 POP POP SWAP3 SWAP2 POP POP JUMP JUMPDEST PUSH1 0x0 DUP2 MLOAD SWAP1 POP SWAP2 SWAP1 POP JUMP JUMPDEST PUSH1 0x0 DUP3 DUP3 MSTORE PUSH1 0x20 DUP3 ADD SWAP1 POP SWAP3 SWAP2 POP POP JUMP JUMPDEST PUSH1 0x0 DUP2 SWAP1 POP PUSH1 0x20 DUP3 ADD SWAP1 POP SWAP2 SWAP1 POP JUMP JUMPDEST PUSH2 0x3A27 DUP2 PUSH2 0x398F JUMP JUMPDEST DUP3 MSTORE POP POP JUMP JUMPDEST PUSH1 0x0 PUSH20 0xFFFFFFFFFFFFFFFFFFFFFFFFFFFFFFFFFFFFFFFF DUP3 AND SWAP1 POP SWAP2 SWAP1 POP JUMP JUMPDEST PUSH1 0x0 PUSH2 0x3A58 DUP3 PUSH2 0x3A2D JUMP JUMPDEST SWAP1 POP SWAP2 SWAP1 POP JUMP JUMPDEST PUSH2 0x3A68 DUP2 PUSH2 0x3A4D JUMP JUMPDEST DUP3 MSTORE POP POP JUMP JUMPDEST PUSH1 0x0 DUP2 ISZERO ISZERO SWAP1 POP SWAP2 SWAP1 POP JUMP JUMPDEST PUSH2 0x3A83 DUP2 PUSH2 0x3A6E JUMP JUMPDEST DUP3 MSTORE POP POP JUMP JUMPDEST PUSH2 0x120 DUP3 ADD PUSH1 0x0 DUP3 ADD MLOAD PUSH2 0x3AA0 PUSH1 0x0 DUP6 ADD DUP3 PUSH2 0x3A1E JUMP JUMPDEST POP PUSH1 0x20 DUP3 ADD MLOAD PUSH2 0x3AB3 PUSH1 0x20 DUP6 ADD DUP3 PUSH2 0x3A5F JUMP JUMPDEST POP PUSH1 0x40 DUP3 ADD MLOAD PUSH2 0x3AC6 PUSH1 0x40 DUP6 ADD DUP3 PUSH2 0x3A1E JUMP JUMPDEST POP PUSH1 0x60 DUP3 ADD MLOAD PUSH2 0x3AD9 PUSH1 0x60 DUP6 ADD DUP3 PUSH2 0x3A1E JUMP JUMPDEST POP PUSH1 0x80 DUP3 ADD MLOAD PUSH2 0x3AEC PUSH1 0x80 DUP6 ADD DUP3 PUSH2 0x3A1E JUMP JUMPDEST POP PUSH1 0xA0 DUP3 ADD MLOAD PUSH2 0x3AFF PUSH1 0xA0 DUP6 ADD DUP3 PUSH2 0x3A1E JUMP JUMPDEST POP PUSH1 0xC0 DUP3 ADD MLOAD PUSH2 0x3B12 PUSH1 0xC0 DUP6 ADD DUP3 PUSH2 0x3A7A JUMP JUMPDEST POP PUSH1 0xE0 DUP3 ADD MLOAD PUSH2 0x3B25 PUSH1 0xE0 DUP6 ADD DUP3 PUSH2 0x3A1E JUMP JUMPDEST POP PUSH2 0x100 DUP3 ADD MLOAD PUSH2 0x3B3A PUSH2 0x100 DUP6 ADD DUP3 PUSH2 0x3A7A JUMP JUMPDEST POP POP POP POP JUMP JUMPDEST PUSH1 0x0 PUSH2 0x3B4C DUP4 DUP4 PUSH2 0x3A89 JUMP JUMPDEST PUSH2 0x120 DUP4 ADD SWAP1 POP SWAP3 SWAP2 POP POP JUMP JUMPDEST PUSH1 0x0 PUSH1 0x20 DUP3 ADD SWAP1 POP SWAP2 SWAP1 POP JUMP JUMPDEST PUSH1 0x0 PUSH2 0x3B71 DUP3 PUSH2 0x39F2 JUMP JUMPDEST PUSH2 0x3B7B DUP2 DUP6 PUSH2 0x39FD JUMP JUMPDEST SWAP4 POP PUSH2 0x3B86 DUP4 PUSH2 0x3A0E JUMP JUMPDEST DUP1 PUSH1 0x0 JUMPDEST DUP4 DUP2 LT ISZERO PUSH2 0x3BB7 JUMPI DUP2 MLOAD PUSH2 0x3B9E DUP9 DUP3 PUSH2 0x3B40 JUMP JUMPDEST SWAP8 POP PUSH2 0x3BA9 DUP4 PUSH2 0x3B59 JUMP JUMPDEST SWAP3 POP POP PUSH1 0x1 DUP2 ADD SWAP1 POP PUSH2 0x3B8A JUMP JUMPDEST POP DUP6 SWAP4 POP POP POP POP SWAP3 SWAP2 POP POP JUMP JUMPDEST PUSH1 0x0 PUSH1 0x20 DUP3 ADD SWAP1 POP DUP2 DUP2 SUB PUSH1 0x0 DUP4 ADD MSTORE PUSH2 0x3BDE DUP2 DUP5 PUSH2 0x3B66 JUMP JUMPDEST SWAP1 POP SWAP3 SWAP2 POP POP JUMP JUMPDEST PUSH2 0x3BEF DUP2 PUSH2 0x3A4D JUMP JUMPDEST DUP2 EQ PUSH2 0x3BFA JUMPI PUSH1 0x0 DUP1 REVERT JUMPDEST POP JUMP JUMPDEST PUSH1 0x0 DUP2 CALLDATALOAD SWAP1 POP PUSH2 0x3C0C DUP2 PUSH2 0x3BE6 JUMP JUMPDEST SWAP3 SWAP2 POP POP JUMP JUMPDEST PUSH1 0x0 DUP1 PUSH1 0x40 DUP4 DUP6 SUB SLT ISZERO PUSH2 0x3C29 JUMPI PUSH2 0x3C28 PUSH2 0x398A JUMP JUMPDEST JUMPDEST PUSH1 0x0 PUSH2 0x3C37 DUP6 DUP3 DUP7 ADD PUSH2 0x39B0 JUMP JUMPDEST SWAP3 POP POP PUSH1 0x20 PUSH2 0x3C48 DUP6 DUP3 DUP7 ADD PUSH2 0x3BFD JUMP JUMPDEST SWAP2 POP POP SWAP3 POP SWAP3 SWAP1 POP JUMP JUMPDEST PUSH2 0x3C5B DUP2 PUSH2 0x398F JUMP JUMPDEST DUP3 MSTORE POP POP JUMP JUMPDEST PUSH1 0x0 PUSH1 0x20 DUP3 ADD SWAP1 POP PUSH2 0x3C76 PUSH1 0x0 DUP4 ADD DUP5 PUSH2 0x3C52 JUMP JUMPDEST SWAP3 SWAP2 POP POP JUMP JUMPDEST PUSH1 0x0 PUSH1 0x20 DUP3 DUP5 SUB SLT ISZERO PUSH2 0x3C92 JUMPI PUSH2 0x3C91 PUSH2 0x398A JUMP JUMPDEST JUMPDEST PUSH1 0x0 PUSH2 0x3CA0 DUP5 DUP3 DUP6 ADD PUSH2 0x3BFD JUMP JUMPDEST SWAP2 POP POP SWAP3 SWAP2 POP POP JUMP JUMPDEST PUSH1 0x0 DUP1 PUSH1 0x40 DUP4 DUP6 SUB SLT ISZERO PUSH2 0x3CC0 JUMPI PUSH2 0x3CBF PUSH2 0x398A JUMP JUMPDEST JUMPDEST PUSH1 0x0 PUSH2 0x3CCE DUP6 DUP3 DUP7 ADD PUSH2 0x3BFD JUMP JUMPDEST SWAP3 POP POP PUSH1 0x20 PUSH2 0x3CDF DUP6 DUP3 DUP7 ADD PUSH2 0x39B0 JUMP JUMPDEST SWAP2 POP POP SWAP3 POP SWAP3 SWAP1 POP JUMP JUMPDEST PUSH1 0x0 DUP2 SWAP1 POP SWAP2 SWAP1 POP JUMP JUMPDEST PUSH1 0x0 PUSH2 0x3D0E PUSH2 0x3D09 PUSH2 0x3D04 DUP5 PUSH2 0x3A2D JUMP JUMPDEST PUSH2 0x3CE9 JUMP JUMPDEST PUSH2 0x3A2D JUMP JUMPDEST SWAP1 POP SWAP2 SWAP1 POP JUMP JUMPDEST PUSH1 0x0 PUSH2 0x3D20 DUP3 PUSH2 0x3CF3 JUMP JUMPDEST SWAP1 POP SWAP2 SWAP1 POP JUMP JUMPDEST PUSH1 0x0 PUSH2 0x3D32 DUP3 PUSH2 0x3D15 JUMP JUMPDEST SWAP1 POP SWAP2 SWAP1 POP JUMP JUMPDEST PUSH2 0x3D42 DUP2 PUSH2 0x3D27 JUMP JUMPDEST DUP3 MSTORE POP POP JUMP JUMPDEST PUSH1 0x0 PUSH1 0x20 DUP3 ADD SWAP1 POP PUSH2 0x3D5D PUSH1 0x0 DUP4 ADD DUP5 PUSH2 0x3D39 JUMP JUMPDEST SWAP3 SWAP2 POP POP JUMP JUMPDEST PUSH2 0x3D6C DUP2 PUSH2 0x3A6E JUMP JUMPDEST DUP3 MSTORE POP POP JUMP JUMPDEST PUSH1 0x0 PUSH1 0x20 DUP3 ADD SWAP1 POP PUSH2 0x3D87 PUSH1 0x0 DUP4 ADD DUP5 PUSH2 0x3D63 JUMP JUMPDEST SWAP3 SWAP2 POP POP JUMP JUMPDEST PUSH1 0x0 PUSH2 0x3D98 DUP3 PUSH2 0x3D15 JUMP JUMPDEST SWAP1 POP SWAP2 SWAP1 POP JUMP JUMPDEST PUSH2 0x3DA8 DUP2 PUSH2 0x3D8D JUMP JUMPDEST DUP3 MSTORE POP POP JUMP JUMPDEST PUSH1 0x0 PUSH1 0x20 DUP3 ADD SWAP1 POP PUSH2 0x3DC3 PUSH1 0x0 DUP4 ADD DUP5 PUSH2 0x3D9F JUMP JUMPDEST SWAP3 SWAP2 POP POP JUMP JUMPDEST PUSH2 0x3DD2 DUP2 PUSH2 0x3A4D JUMP JUMPDEST DUP3 MSTORE POP POP JUMP JUMPDEST PUSH1 0x0 PUSH1 0x20 DUP3 ADD SWAP1 POP PUSH2 0x3DED PUSH1 0x0 DUP4 ADD DUP5 PUSH2 0x3DC9 JUMP JUMPDEST SWAP3 SWAP2 POP POP JUMP JUMPDEST PUSH1 0x0 DUP1 PUSH1 0x40 DUP4 DUP6 SUB SLT ISZERO PUSH2 0x3E0A JUMPI PUSH2 0x3E09 PUSH2 0x398A JUMP JUMPDEST JUMPDEST PUSH1 0x0 PUSH2 0x3E18 DUP6 DUP3 DUP7 ADD PUSH2 0x39B0 JUMP JUMPDEST SWAP3 POP POP PUSH1 0x20 PUSH2 0x3E29 DUP6 DUP3 DUP7 ADD PUSH2 0x39B0 JUMP JUMPDEST SWAP2 POP POP SWAP3 POP SWAP3 SWAP1 POP JUMP JUMPDEST PUSH1 0x0 PUSH1 0x60 DUP3 ADD SWAP1 POP PUSH2 0x3E48 PUSH1 0x0 DUP4 ADD DUP7 PUSH2 0x3DC9 JUMP JUMPDEST PUSH2 0x3E55 PUSH1 0x20 DUP4 ADD DUP6 PUSH2 0x3C52 JUMP JUMPDEST PUSH2 0x3E62 PUSH1 0x40 DUP4 ADD DUP5 PUSH2 0x3D63 JUMP JUMPDEST SWAP5 SWAP4 POP POP POP POP JUMP JUMPDEST PUSH1 0x0 PUSH1 0xA0 DUP3 ADD SWAP1 POP PUSH2 0x3E7F PUSH1 0x0 DUP4 ADD DUP9 PUSH2 0x3C52 JUMP JUMPDEST PUSH2 0x3E8C PUSH1 0x20 DUP4 ADD DUP8 PUSH2 0x3D63 JUMP JUMPDEST PUSH2 0x3E99 PUSH1 0x40 DUP4 ADD DUP7 PUSH2 0x3D63 JUMP JUMPDEST PUSH2 0x3EA6 PUSH1 0x60 DUP4 ADD DUP6 PUSH2 0x3D63 JUMP JUMPDEST PUSH2 0x3EB3 PUSH1 0x80 DUP4 ADD DUP5 PUSH2 0x3C52 JUMP JUMPDEST SWAP7 SWAP6 POP POP POP POP POP POP JUMP JUMPDEST PUSH1 0x0 PUSH1 0x40 DUP3 ADD SWAP1 POP PUSH2 0x3ED2 PUSH1 0x0 DUP4 ADD DUP6 PUSH2 0x3C52 JUMP JUMPDEST PUSH2 0x3EDF PUSH1 0x20 DUP4 ADD DUP5 PUSH2 0x3C52 JUMP JUMPDEST SWAP4 SWAP3 POP POP POP JUMP JUMPDEST PUSH1 0x0 PUSH1 0xA0 DUP3 ADD SWAP1 POP PUSH2 0x3EFB PUSH1 0x0 DUP4 ADD DUP9 PUSH2 0x3C52 JUMP JUMPDEST PUSH2 0x3F08 PUSH1 0x20 DUP4 ADD DUP8 PUSH2 0x3C52 JUMP JUMPDEST PUSH2 0x3F15 PUSH1 0x40 DUP4 ADD DUP7 PUSH2 0x3C52 JUMP JUMPDEST PUSH2 0x3F22 PUSH1 0x60 DUP4 ADD DUP6 PUSH2 0x3C52 JUMP JUMPDEST PUSH2 0x3F2F PUSH1 0x80 DUP4 ADD DUP5 PUSH2 0x3D63 JUMP JUMPDEST SWAP7 SWAP6 POP POP POP POP POP POP JUMP JUMPDEST PUSH32 0x4E487B7100000000000000000000000000000000000000000000000000000000 PUSH1 0x0 MSTORE PUSH1 0x21 PUSH1 0x4 MSTORE PUSH1 0x24 PUSH1 0x0 REVERT JUMPDEST PUSH1 0x2 DUP2 LT PUSH2 0x3F79 JUMPI PUSH2 0x3F78 PUSH2 0x3F39 JUMP JUMPDEST JUMPDEST POP JUMP JUMPDEST PUSH1 0x0 DUP2 SWAP1 POP PUSH2 0x3F8A DUP3 PUSH2 0x3F68 JUMP JUMPDEST SWAP2 SWAP1 POP JUMP JUMPDEST PUSH1 0x0 PUSH2 0x3F9A DUP3 PUSH2 0x3F7C JUMP JUMPDEST SWAP1 POP SWAP2 SWAP1 POP JUMP JUMPDEST PUSH2 0x3FAA DUP2 PUSH2 0x3F8F JUMP JUMPDEST DUP3 MSTORE POP POP JUMP JUMPDEST PUSH1 0x0 PUSH1 0xE0 DUP3 ADD SWAP1 POP PUSH2 0x3FC5 PUSH1 0x0 DUP4 ADD DUP11 PUSH2 0x3DC9 JUMP JUMPDEST PUSH2 0x3FD2 PUSH1 0x20 DUP4 ADD DUP10 PUSH2 0x3DC9 JUMP JUMPDEST PUSH2 0x3FDF PUSH1 0x40 DUP4 ADD DUP9 PUSH2 0x3C52 JUMP JUMPDEST PUSH2 0x3FEC PUSH1 0x60 DUP4 ADD DUP8 PUSH2 0x3C52 JUMP JUMPDEST PUSH2 0x3FF9 PUSH1 0x80 DUP4 ADD DUP7 PUSH2 0x3C52 JUMP JUMPDEST PUSH2 0x4006 PUSH1 0xA0 DUP4 ADD DUP6 PUSH2 0x3FA1 JUMP JUMPDEST PUSH2 0x4013 PUSH1 0xC0 DUP4 ADD DUP5 PUSH2 0x3C52 JUMP JUMPDEST SWAP9 SWAP8 POP POP POP POP POP POP POP POP JUMP JUMPDEST PUSH1 0x0 DUP1 PUSH1 0x0 PUSH1 0x60 DUP5 DUP7 SUB SLT ISZERO PUSH2 0x4038 JUMPI PUSH2 0x4037 PUSH2 0x398A JUMP JUMPDEST JUMPDEST PUSH1 0x0 PUSH2 0x4046 DUP7 DUP3 DUP8 ADD PUSH2 0x39B0 JUMP JUMPDEST SWAP4 POP POP PUSH1 0x20 PUSH2 0x4057 DUP7 DUP3 DUP8 ADD PUSH2 0x39B0 JUMP JUMPDEST SWAP3 POP POP PUSH1 0x40 PUSH2 0x4068 DUP7 DUP3 DUP8 ADD PUSH2 0x39B0 JUMP JUMPDEST SWAP2 POP POP SWAP3 POP SWAP3 POP SWAP3 JUMP JUMPDEST PUSH1 0x0 DUP3 DUP3 MSTORE PUSH1 0x20 DUP3 ADD SWAP1 POP SWAP3 SWAP2 POP POP JUMP JUMPDEST PUSH32 0x4F6E6C79206F776E657200000000000000000000000000000000000000000000 PUSH1 0x0 DUP3 ADD MSTORE POP JUMP JUMPDEST PUSH1 0x0 PUSH2 0x40B9 PUSH1 0xA DUP4 PUSH2 0x4072 JUMP JUMPDEST SWAP2 POP PUSH2 0x40C4 DUP3 PUSH2 0x4083 JUMP JUMPDEST PUSH1 0x20 DUP3 ADD SWAP1 POP SWAP2 SWAP1 POP JUMP JUMPDEST PUSH1 0x0 PUSH1 0x20 DUP3 ADD SWAP1 POP DUP2 DUP2 SUB PUSH1 0x0 DUP4 ADD MSTORE PUSH2 0x40E8 DUP2 PUSH2 0x40AC JUMP JUMPDEST SWAP1 POP SWAP2 SWAP1 POP JUMP JUMPDEST PUSH32 0x526174696F20746F6F206C6F7700000000000000000000000000000000000000 PUSH1 0x0 DUP3 ADD MSTORE POP JUMP JUMPDEST PUSH1 0x0 PUSH2 0x4125 PUSH1 0xD DUP4 PUSH2 0x4072 JUMP JUMPDEST SWAP2 POP PUSH2 0x4130 DUP3 PUSH2 0x40EF JUMP JUMPDEST PUSH1 0x20 DUP3 ADD SWAP1 POP SWAP2 SWAP1 POP JUMP JUMPDEST PUSH1 0x0 PUSH1 0x20 DUP3 ADD SWAP1 POP DUP2 DUP2 SUB PUSH1 0x0 DUP4 ADD MSTORE PUSH2 0x4154 DUP2 PUSH2 0x4118 JUMP JUMPDEST SWAP1 POP SWAP2 SWAP1 POP JUMP JUMPDEST PUSH32 0x4E487B7100000000000000000000000000000000000000000000000000000000 PUSH1 0x0 MSTORE PUSH1 0x11 PUSH1 0x4 MSTORE PUSH1 0x24 PUSH1 0x0 REVERT JUMPDEST PUSH1 0x0 PUSH2 0x4195 DUP3 PUSH2 0x398F JUMP JUMPDEST SWAP2 POP PUSH32 0xFFFFFFFFFFFFFFFFFFFFFFFFFFFFFFFFFFFFFFFFFFFFFFFFFFFFFFFFFFFFFFFF DUP3 SUB PUSH2 0x41C7 JUMPI PUSH2 0x41C6 PUSH2 0x415B JUMP JUMPDEST JUMPDEST PUSH1 0x1 DUP3 ADD SWAP1 POP SWAP2 SWAP1 POP JUMP JUMPDEST PUSH32 0x4E487B7100000000000000000000000000000000000000000000000000000000 PUSH1 0x0 MSTORE PUSH1 0x41 PUSH1 0x4 MSTORE PUSH1 0x24 PUSH1 0x0 REVERT JUMPDEST PUSH32 0x4E487B7100000000000000000000000000000000000000000000000000000000 PUSH1 0x0 MSTORE PUSH1 0x32 PUSH1 0x4 MSTORE PUSH1 0x24 PUSH1 0x0 REVERT JUMPDEST PUSH1 0x0 DUP2 MLOAD SWAP1 POP PUSH2 0x423F DUP2 PUSH2 0x3999 JUMP JUMPDEST SWAP3 SWAP2 POP POP JUMP JUMPDEST PUSH1 0x0 PUSH1 0x20 DUP3 DUP5 SUB SLT ISZERO PUSH2 0x425B JUMPI PUSH2 0x425A PUSH2 0x398A JUMP JUMPDEST JUMPDEST PUSH1 0x0 PUSH2 0x4269 DUP5 DUP3 DUP6 ADD PUSH2 0x4230 JUMP JUMPDEST SWAP2 POP POP SWAP3 SWAP2 POP POP JUMP JUMPDEST PUSH32 0x4E6F207265776172647320746F20776974686472617700000000000000000000 PUSH1 0x0 DUP3 ADD MSTORE POP JUMP JUMPDEST PUSH1 0x0 PUSH2 0x42A8 PUSH1 0x16 DUP4 PUSH2 0x4072 JUMP JUMPDEST SWAP2 POP PUSH2 0x42B3 DUP3 PUSH2 0x4272 JUMP JUMPDEST PUSH1 0x20 DUP3 ADD SWAP1 POP SWAP2 SWAP1 POP JUMP JUMPDEST PUSH1 0x0 PUSH1 0x20 DUP3 ADD SWAP1 POP DUP2 DUP2 SUB PUSH1 0x0 DUP4 ADD MSTORE PUSH2 0x42D7 DUP2 PUSH2 0x429B JUMP JUMPDEST SWAP1 POP SWAP2 SWAP1 POP JUMP JUMPDEST PUSH1 0x0 PUSH1 0x40 DUP3 ADD SWAP1 POP PUSH2 0x42F3 PUSH1 0x0 DUP4 ADD DUP6 PUSH2 0x3DC9 JUMP JUMPDEST PUSH2 0x4300 PUSH1 0x20 DUP4 ADD DUP5 PUSH2 0x3C52 JUMP JUMPDEST SWAP4 SWAP3 POP POP POP JUMP JUMPDEST PUSH2 0x4310 DUP2 PUSH2 0x3A6E JUMP JUMPDEST DUP2 EQ PUSH2 0x431B JUMPI PUSH1 0x0 DUP1 REVERT JUMPDEST POP JUMP JUMPDEST PUSH1 0x0 DUP2 MLOAD SWAP1 POP PUSH2 0x432D DUP2 PUSH2 0x4307 JUMP JUMPDEST SWAP3 SWAP2 POP POP JUMP JUMPDEST PUSH1 0x0 PUSH1 0x20 DUP3 DUP5 SUB SLT ISZERO PUSH2 0x4349 JUMPI PUSH2 0x4348 PUSH2 0x398A JUMP JUMPDEST JUMPDEST PUSH1 0x0 PUSH2 0x4357 DUP5 DUP3 DUP6 ADD PUSH2 0x431E JUMP JUMPDEST SWAP2 POP POP SWAP3 SWAP2 POP POP JUMP JUMPDEST PUSH32 0x526577617264207769746864726177616C206661696C65640000000000000000 PUSH1 0x0 DUP3 ADD MSTORE POP JUMP JUMPDEST PUSH1 0x0 PUSH2 0x4396 PUSH1 0x18 DUP4 PUSH2 0x4072 JUMP JUMPDEST SWAP2 POP PUSH2 0x43A1 DUP3 PUSH2 0x4360 JUMP JUMPDEST PUSH1 0x20 DUP3 ADD SWAP1 POP SWAP2 SWAP1 POP JUMP JUMPDEST PUSH1 0x0 PUSH1 0x20 DUP3 ADD SWAP1 POP DUP2 DUP2 SUB PUSH1 0x0 DUP4 ADD MSTORE PUSH2 0x43C5 DUP2 PUSH2 0x4389 JUMP JUMPDEST SWAP1 POP SWAP2 SWAP1 POP JUMP JUMPDEST PUSH32 0x4C6F616E206E6F74206163746976650000000000000000000000000000000000 PUSH1 0x0 DUP3 ADD MSTORE POP JUMP JUMPDEST PUSH1 0x0 PUSH2 0x4402 PUSH1 0xF DUP4 PUSH2 0x4072 JUMP JUMPDEST SWAP2 POP PUSH2 0x440D DUP3 PUSH2 0x43CC JUMP JUMPDEST PUSH1 0x20 DUP3 ADD SWAP1 POP SWAP2 SWAP1 POP JUMP JUMPDEST PUSH1 0x0 PUSH1 0x20 DUP3 ADD SWAP1 POP DUP2 DUP2 SUB PUSH1 0x0 DUP4 ADD MSTORE PUSH2 0x4431 DUP2 PUSH2 0x43F5 JUMP JUMPDEST SWAP1 POP SWAP2 SWAP1 POP JUMP JUMPDEST PUSH32 0x4C6F616E206E6F74206F76657264756500000000000000000000000000000000 PUSH1 0x0 DUP3 ADD MSTORE POP JUMP JUMPDEST PUSH1 0x0 PUSH2 0x446E PUSH1 0x10 DUP4 PUSH2 0x4072 JUMP JUMPDEST SWAP2 POP PUSH2 0x4479 DUP3 PUSH2 0x4438 JUMP JUMPDEST PUSH1 0x20 DUP3 ADD SWAP1 POP SWAP2 SWAP1 POP JUMP JUMPDEST PUSH1 0x0 PUSH1 0x20 DUP3 ADD SWAP1 POP DUP2 DUP2 SUB PUSH1 0x0 DUP4 ADD MSTORE PUSH2 0x449D DUP2 PUSH2 0x4461 JUMP JUMPDEST SWAP1 POP SWAP2 SWAP1 POP JUMP JUMPDEST PUSH32 0x4C6F616E20616C72656164792072657061696400000000000000000000000000 PUSH1 0x0 DUP3 ADD MSTORE POP JUMP JUMPDEST PUSH1 0x0 PUSH2 0x44DA PUSH1 0x13 DUP4 PUSH2 0x4072 JUMP JUMPDEST SWAP2 POP PUSH2 0x44E5 DUP3 PUSH2 0x44A4 JUMP JUMPDEST PUSH1 0x20 DUP3 ADD SWAP1 POP SWAP2 SWAP1 POP JUMP JUMPDEST PUSH1 0x0 PUSH1 0x20 DUP3 ADD SWAP1 POP DUP2 DUP2 SUB PUSH1 0x0 DUP4 ADD MSTORE PUSH2 0x4509 DUP2 PUSH2 0x44CD JUMP JUMPDEST SWAP1 POP SWAP2 SWAP1 POP JUMP JUMPDEST PUSH32 0x4E6F7420626F72726F7765720000000000000000000000000000000000000000 PUSH1 0x0 DUP3 ADD MSTORE POP JUMP JUMPDEST PUSH1 0x0 PUSH2 0x4546 PUSH1 0xC DUP4 PUSH2 0x4072 JUMP JUMPDEST SWAP2 POP PUSH2 0x4551 DUP3 PUSH2 0x4510 JUMP JUMPDEST PUSH1 0x20 DUP3 ADD SWAP1 POP SWAP2 SWAP1 POP JUMP JUMPDEST PUSH1 0x0 PUSH1 0x20 DUP3 ADD SWAP1 POP DUP2 DUP2 SUB PUSH1 0x0 DUP4 ADD MSTORE PUSH2 0x4575 DUP2 PUSH2 0x4539 JUMP JUMPDEST SWAP1 POP SWAP2 SWAP1 POP JUMP JUMPDEST PUSH32 0x6E6F20696E746572657374206163637275656421000000000000000000000000 PUSH1 0x0 DUP3 ADD MSTORE POP JUMP JUMPDEST PUSH1 0x0 PUSH2 0x45B2 PUSH1 0x14 DUP4 PUSH2 0x4072 JUMP JUMPDEST SWAP2 POP PUSH2 0x45BD DUP3 PUSH2 0x457C JUMP JUMPDEST PUSH1 0x20 DUP3 ADD SWAP1 POP SWAP2 SWAP1 POP JUMP JUMPDEST PUSH1 0x0 PUSH1 0x20 DUP3 ADD SWAP1 POP DUP2 DUP2 SUB PUSH1 0x0 DUP4 ADD MSTORE PUSH2 0x45E1 DUP2 PUSH2 0x45A5 JUMP JUMPDEST SWAP1 POP SWAP2 SWAP1 POP JUMP JUMPDEST PUSH1 0x0 PUSH2 0x45F3 DUP3 PUSH2 0x398F JUMP JUMPDEST SWAP2 POP PUSH2 0x45FE DUP4 PUSH2 0x398F JUMP JUMPDEST SWAP3 POP DUP3 DUP3 MUL PUSH2 0x460C DUP2 PUSH2 0x398F JUMP JUMPDEST SWAP2 POP DUP3 DUP3 DIV DUP5 EQ DUP4 ISZERO OR PUSH2 0x4623 JUMPI PUSH2 0x4622 PUSH2 0x415B JUMP JUMPDEST JUMPDEST POP SWAP3 SWAP2 POP POP JUMP JUMPDEST PUSH32 0x4E487B7100000000000000000000000000000000000000000000000000000000 PUSH1 0x0 MSTORE PUSH1 0x12 PUSH1 0x4 MSTORE PUSH1 0x24 PUSH1 0x0 REVERT JUMPDEST PUSH1 0x0 PUSH2 0x4664 DUP3 PUSH2 0x398F JUMP JUMPDEST SWAP2 POP PUSH2 0x466F DUP4 PUSH2 0x398F JUMP JUMPDEST SWAP3 POP DUP3 PUSH2 0x467F JUMPI PUSH2 0x467E PUSH2 0x462A JUMP JUMPDEST JUMPDEST DUP3 DUP3 DIV SWAP1 POP SWAP3 SWAP2 POP POP JUMP JUMPDEST PUSH1 0x0 PUSH2 0x4695 DUP3 PUSH2 0x398F JUMP JUMPDEST SWAP2 POP PUSH2 0x46A0 DUP4 PUSH2 0x398F JUMP JUMPDEST SWAP3 POP DUP3 DUP3 SUB SWAP1 POP DUP2 DUP2 GT ISZERO PUSH2 0x46B8 JUMPI PUSH2 0x46B7 PUSH2 0x415B JUMP JUMPDEST JUMPDEST SWAP3 SWAP2 POP POP JUMP JUMPDEST PUSH1 0x0 PUSH2 0x46C9 DUP3 PUSH2 0x398F JUMP JUMPDEST SWAP2 POP PUSH2 0x46D4 DUP4 PUSH2 0x398F JUMP JUMPDEST SWAP3 POP DUP3 DUP3 ADD SWAP1 POP DUP1 DUP3 GT ISZERO PUSH2 0x46EC JUMPI PUSH2 0x46EB PUSH2 0x415B JUMP JUMPDEST JUMPDEST SWAP3 SWAP2 POP POP JUMP JUMPDEST PUSH32 0x496E746572657374206E6F742063616C63756C61746564000000000000000000 PUSH1 0x0 DUP3 ADD MSTORE POP JUMP JUMPDEST PUSH1 0x0 PUSH2 0x4728 PUSH1 0x17 DUP4 PUSH2 0x4072 JUMP JUMPDEST SWAP2 POP PUSH2 0x4733 DUP3 PUSH2 0x46F2 JUMP JUMPDEST PUSH1 0x20 DUP3 ADD SWAP1 POP SWAP2 SWAP1 POP JUMP JUMPDEST PUSH1 0x0 PUSH1 0x20 DUP3 ADD SWAP1 POP DUP2 DUP2 SUB PUSH1 0x0 DUP4 ADD MSTORE PUSH2 0x4757 DUP2 PUSH2 0x471B JUMP JUMPDEST SWAP1 POP SWAP2 SWAP1 POP JUMP JUMPDEST PUSH32 0x4E6F207265776172642063616C63756C61746564000000000000000000000000 PUSH1 0x0 DUP3 ADD MSTORE POP JUMP JUMPDEST PUSH1 0x0 PUSH2 0x4794 PUSH1 0x14 DUP4 PUSH2 0x4072 JUMP JUMPDEST SWAP2 POP PUSH2 0x479F DUP3 PUSH2 0x475E JUMP JUMPDEST PUSH1 0x20 DUP3 ADD SWAP1 POP SWAP2 SWAP1 POP JUMP JUMPDEST PUSH1 0x0 PUSH1 0x20 DUP3 ADD SWAP1 POP DUP2 DUP2 SUB PUSH1 0x0 DUP4 ADD MSTORE PUSH2 0x47C3 DUP2 PUSH2 0x4787 JUMP JUMPDEST SWAP1 POP SWAP2 SWAP1 POP JUMP JUMPDEST PUSH1 0x0 PUSH1 0x60 DUP3 ADD SWAP1 POP PUSH2 0x47DF PUSH1 0x0 DUP4 ADD DUP7 PUSH2 0x3DC9 JUMP JUMPDEST PUSH2 0x47EC PUSH1 0x20 DUP4 ADD DUP6 PUSH2 0x3DC9 JUMP JUMPDEST PUSH2 0x47F9 PUSH1 0x40 DUP4 ADD DUP5 PUSH2 0x3C52 JUMP JUMPDEST SWAP5 SWAP4 POP POP POP POP JUMP JUMPDEST PUSH32 0x5472616E73666572206661696C65640000000000000000000000000000000000 PUSH1 0x0 DUP3 ADD MSTORE POP JUMP JUMPDEST PUSH1 0x0 PUSH2 0x4837 PUSH1 0xF DUP4 PUSH2 0x4072 JUMP JUMPDEST SWAP2 POP PUSH2 0x4842 DUP3 PUSH2 0x4801 JUMP JUMPDEST PUSH1 0x20 DUP3 ADD SWAP1 POP SWAP2 SWAP1 POP JUMP JUMPDEST PUSH1 0x0 PUSH1 0x20 DUP3 ADD SWAP1 POP DUP2 DUP2 SUB PUSH1 0x0 DUP4 ADD MSTORE PUSH2 0x4866 DUP2 PUSH2 0x482A JUMP JUMPDEST SWAP1 POP SWAP2 SWAP1 POP JUMP JUMPDEST PUSH32 0x5472616E7366657220746F206C656E646572206661696C656400000000000000 PUSH1 0x0 DUP3 ADD MSTORE POP JUMP JUMPDEST PUSH1 0x0 PUSH2 0x48A3 PUSH1 0x19 DUP4 PUSH2 0x4072 JUMP JUMPDEST SWAP2 POP PUSH2 0x48AE DUP3 PUSH2 0x486D JUMP JUMPDEST PUSH1 0x20 DUP3 ADD SWAP1 POP SWAP2 SWAP1 POP JUMP JUMPDEST PUSH1 0x0 PUSH1 0x20 DUP3 ADD SWAP1 POP DUP2 DUP2 SUB PUSH1 0x0 DUP4 ADD MSTORE PUSH2 0x48D2 DUP2 PUSH2 0x4896 JUMP JUMPDEST SWAP1 POP SWAP2 SWAP1 POP JUMP JUMPDEST PUSH32 0x4C6F616E20616C72656164792061637469766500000000000000000000000000 PUSH1 0x0 DUP3 ADD MSTORE POP JUMP JUMPDEST PUSH1 0x0 PUSH2 0x490F PUSH1 0x13 DUP4 PUSH2 0x4072 JUMP JUMPDEST SWAP2 POP PUSH2 0x491A DUP3 PUSH2 0x48D9 JUMP JUMPDEST PUSH1 0x20 DUP3 ADD SWAP1 POP SWAP2 SWAP1 POP JUMP JUMPDEST PUSH1 0x0 PUSH1 0x20 DUP3 ADD SWAP1 POP DUP2 DUP2 SUB PUSH1 0x0 DUP4 ADD MSTORE PUSH2 0x493E DUP2 PUSH2 0x4902 JUMP JUMPDEST SWAP1 POP SWAP2 SWAP1 POP JUMP JUMPDEST PUSH32 0x4C6F616E20616C72656164792066756E64656400000000000000000000000000 PUSH1 0x0 DUP3 ADD MSTORE POP JUMP JUMPDEST PUSH1 0x0 PUSH2 0x497B PUSH1 0x13 DUP4 PUSH2 0x4072 JUMP JUMPDEST SWAP2 POP PUSH2 0x4986 DUP3 PUSH2 0x4945 JUMP JUMPDEST PUSH1 0x20 DUP3 ADD SWAP1 POP SWAP2 SWAP1 POP JUMP JUMPDEST PUSH1 0x0 PUSH1 0x20 DUP3 ADD SWAP1 POP DUP2 DUP2 SUB PUSH1 0x0 DUP4 ADD MSTORE PUSH2 0x49AA DUP2 PUSH2 0x496E JUMP JUMPDEST SWAP1 POP SWAP2 SWAP1 POP JUMP JUMPDEST PUSH1 0x0 PUSH1 0x40 DUP3 ADD SWAP1 POP PUSH2 0x49C6 PUSH1 0x0 DUP4 ADD DUP6 PUSH2 0x3DC9 JUMP JUMPDEST PUSH2 0x49D3 PUSH1 0x20 DUP4 ADD DUP5 PUSH2 0x3DC9 JUMP JUMPDEST SWAP4 SWAP3 POP POP POP JUMP JUMPDEST PUSH32 0x496E73756666696369656E7420616C6C6F77616E636520666F72207468697320 PUSH1 0x0 DUP3 ADD MSTORE PUSH32 0x7573657200000000000000000000000000000000000000000000000000000000 PUSH1 0x20 DUP3 ADD MSTORE POP JUMP JUMPDEST PUSH1 0x0 PUSH2 0x4A36 PUSH1 0x24 DUP4 PUSH2 0x4072 JUMP JUMPDEST SWAP2 POP PUSH2 0x4A41 DUP3 PUSH2 0x49DA JUMP JUMPDEST PUSH1 0x40 DUP3 ADD SWAP1 POP SWAP2 SWAP1 POP JUMP JUMPDEST PUSH1 0x0 PUSH1 0x20 DUP3 ADD SWAP1 POP DUP2 DUP2 SUB PUSH1 0x0 DUP4 ADD MSTORE PUSH2 0x4A65 DUP2 PUSH2 0x4A29 JUMP JUMPDEST SWAP1 POP SWAP2 SWAP1 POP JUMP JUMPDEST PUSH32 0x4C6F616E2064697362757273656D656E74206661696C65640000000000000000 PUSH1 0x0 DUP3 ADD MSTORE POP JUMP JUMPDEST PUSH1 0x0 PUSH2 0x4AA2 PUSH1 0x18 DUP4 PUSH2 0x4072 JUMP JUMPDEST SWAP2 POP PUSH2 0x4AAD DUP3 PUSH2 0x4A6C JUMP JUMPDEST PUSH1 0x20 DUP3 ADD SWAP1 POP SWAP2 SWAP1 POP JUMP JUMPDEST PUSH1 0x0 PUSH1 0x20 DUP3 ADD SWAP1 POP DUP2 DUP2 SUB PUSH1 0x0 DUP4 ADD MSTORE PUSH2 0x4AD1 DUP2 PUSH2 0x4A95 JUMP JUMPDEST SWAP1 POP SWAP2 SWAP1 POP JUMP JUMPDEST PUSH32 0x4D696E696D756D206C6F616E20616D6F756E74206D7573742062652067726561 PUSH1 0x0 DUP3 ADD MSTORE PUSH32 0x746572207468616E203000000000000000000000000000000000000000000000 PUSH1 0x20 DUP3 ADD MSTORE POP JUMP JUMPDEST PUSH1 0x0 PUSH2 0x4B34 PUSH1 0x2A DUP4 PUSH2 0x4072 JUMP JUMPDEST SWAP2 POP PUSH2 0x4B3F DUP3 PUSH2 0x4AD8 JUMP JUMPDEST PUSH1 0x40 DUP3 ADD SWAP1 POP SWAP2 SWAP1 POP JUMP JUMPDEST PUSH1 0x0 PUSH1 0x20 DUP3 ADD SWAP1 POP DUP2 DUP2 SUB PUSH1 0x0 DUP4 ADD MSTORE PUSH2 0x4B63 DUP2 PUSH2 0x4B27 JUMP JUMPDEST SWAP1 POP SWAP2 SWAP1 POP JUMP JUMPDEST PUSH32 0x4D6178696D756D206C6F616E20616D6F756E74206D7573742062652067726561 PUSH1 0x0 DUP3 ADD MSTORE PUSH32 0x746572207468616E206D696E696D756D206C6F616E20616D6F756E7400000000 PUSH1 0x20 DUP3 ADD MSTORE POP JUMP JUMPDEST PUSH1 0x0 PUSH2 0x4BC6 PUSH1 0x3C DUP4 PUSH2 0x4072 JUMP JUMPDEST SWAP2 POP PUSH2 0x4BD1 DUP3 PUSH2 0x4B6A JUMP JUMPDEST PUSH1 0x40 DUP3 ADD SWAP1 POP SWAP2 SWAP1 POP JUMP JUMPDEST PUSH1 0x0 PUSH1 0x20 DUP3 ADD SWAP1 POP DUP2 DUP2 SUB PUSH1 0x0 DUP4 ADD MSTORE PUSH2 0x4BF5 DUP2 PUSH2 0x4BB9 JUMP JUMPDEST SWAP1 POP SWAP2 SWAP1 POP JUMP JUMPDEST PUSH1 0x0 PUSH10 0xFFFFFFFFFFFFFFFFFFFF DUP3 AND SWAP1 POP SWAP2 SWAP1 POP JUMP JUMPDEST PUSH2 0x4C1B DUP2 PUSH2 0x4BFC JUMP JUMPDEST DUP2 EQ PUSH2 0x4C26 JUMPI PUSH1 0x0 DUP1 REVERT JUMPDEST POP JUMP JUMPDEST PUSH1 0x0 DUP2 MLOAD SWAP1 POP PUSH2 0x4C38 DUP2 PUSH2 0x4C12 JUMP JUMPDEST SWAP3 SWAP2 POP POP JUMP JUMPDEST PUSH1 0x0 DUP2 SWAP1 POP SWAP2 SWAP1 POP JUMP JUMPDEST PUSH2 0x4C51 DUP2 PUSH2 0x4C3E JUMP JUMPDEST DUP2 EQ PUSH2 0x4C5C JUMPI PUSH1 0x0 DUP1 REVERT JUMPDEST POP JUMP JUMPDEST PUSH1 0x0 DUP2 MLOAD SWAP1 POP PUSH2 0x4C6E DUP2 PUSH2 0x4C48 JUMP JUMPDEST SWAP3 SWAP2 POP POP JUMP JUMPDEST PUSH1 0x0 DUP1 PUSH1 0x0 DUP1 PUSH1 0x0 PUSH1 0xA0 DUP7 DUP9 SUB SLT ISZERO PUSH2 0x4C90 JUMPI PUSH2 0x4C8F PUSH2 0x398A JUMP JUMPDEST JUMPDEST PUSH1 0x0 PUSH2 0x4C9E DUP9 DUP3 DUP10 ADD PUSH2 0x4C29 JUMP JUMPDEST SWAP6 POP POP PUSH1 0x20 PUSH2 0x4CAF DUP9 DUP3 DUP10 ADD PUSH2 0x4C5F JUMP JUMPDEST SWAP5 POP POP PUSH1 0x40 PUSH2 0x4CC0 DUP9 DUP3 DUP10 ADD PUSH2 0x4230 JUMP JUMPDEST SWAP4 POP POP PUSH1 0x60 PUSH2 0x4CD1 DUP9 DUP3 DUP10 ADD PUSH2 0x4230 JUMP JUMPDEST SWAP3 POP POP PUSH1 0x80 PUSH2 0x4CE2 DUP9 DUP3 DUP10 ADD PUSH2 0x4C29 JUMP JUMPDEST SWAP2 POP POP SWAP3 SWAP6 POP SWAP3 SWAP6 SWAP1 SWAP4 POP JUMP JUMPDEST PUSH32 0x496E76616C696420707269636500000000000000000000000000000000000000 PUSH1 0x0 DUP3 ADD MSTORE POP JUMP JUMPDEST PUSH1 0x0 PUSH2 0x4D25 PUSH1 0xD DUP4 PUSH2 0x4072 JUMP JUMPDEST SWAP2 POP PUSH2 0x4D30 DUP3 PUSH2 0x4CEF JUMP JUMPDEST PUSH1 0x20 DUP3 ADD SWAP1 POP SWAP2 SWAP1 POP JUMP JUMPDEST PUSH1 0x0 PUSH1 0x20 DUP3 ADD SWAP1 POP DUP2 DUP2 SUB PUSH1 0x0 DUP4 ADD MSTORE PUSH2 0x4D54 DUP2 PUSH2 0x4D18 JUMP JUMPDEST SWAP1 POP SWAP2 SWAP1 POP JUMP JUMPDEST PUSH32 0x52657061796D656E742065786365656473206F77656420616D6F756E74000000 PUSH1 0x0 DUP3 ADD MSTORE POP JUMP JUMPDEST PUSH1 0x0 PUSH2 0x4D91 PUSH1 0x1D DUP4 PUSH2 0x4072 JUMP JUMPDEST SWAP2 POP PUSH2 0x4D9C DUP3 PUSH2 0x4D5B JUMP JUMPDEST PUSH1 0x20 DUP3 ADD SWAP1 POP SWAP2 SWAP1 POP JUMP JUMPDEST PUSH1 0x0 PUSH1 0x20 DUP3 ADD SWAP1 POP DUP2 DUP2 SUB PUSH1 0x0 DUP4 ADD MSTORE PUSH2 0x4DC0 DUP2 PUSH2 0x4D84 JUMP JUMPDEST SWAP1 POP SWAP2 SWAP1 POP JUMP JUMPDEST PUSH32 0x5061727469616C2072657061796D656E74206661696C65640000000000000000 PUSH1 0x0 DUP3 ADD MSTORE POP JUMP JUMPDEST PUSH1 0x0 PUSH2 0x4DFD PUSH1 0x18 DUP4 PUSH2 0x4072 JUMP JUMPDEST SWAP2 POP PUSH2 0x4E08 DUP3 PUSH2 0x4DC7 JUMP JUMPDEST PUSH1 0x20 DUP3 ADD SWAP1 POP SWAP2 SWAP1 POP JUMP JUMPDEST PUSH1 0x0 PUSH1 0x20 DUP3 ADD SWAP1 POP DUP2 DUP2 SUB PUSH1 0x0 DUP4 ADD MSTORE PUSH2 0x4E2C DUP2 PUSH2 0x4DF0 JUMP JUMPDEST SWAP1 POP SWAP2 SWAP1 POP JUMP JUMPDEST PUSH32 0x5468726573686F6C6420746F6F206C6F77000000000000000000000000000000 PUSH1 0x0 DUP3 ADD MSTORE POP JUMP JUMPDEST PUSH1 0x0 PUSH2 0x4E69 PUSH1 0x11 DUP4 PUSH2 0x4072 JUMP JUMPDEST SWAP2 POP PUSH2 0x4E74 DUP3 PUSH2 0x4E33 JUMP JUMPDEST PUSH1 0x20 DUP3 ADD SWAP1 POP SWAP2 SWAP1 POP JUMP JUMPDEST PUSH1 0x0 PUSH1 0x20 DUP3 ADD SWAP1 POP DUP2 DUP2 SUB PUSH1 0x0 DUP4 ADD MSTORE PUSH2 0x4E98 DUP2 PUSH2 0x4E5C JUMP JUMPDEST SWAP1 POP SWAP2 SWAP1 POP JUMP JUMPDEST PUSH32 0x496E76616C6964206C6F616E20616D6F756E7400000000000000000000000000 PUSH1 0x0 DUP3 ADD MSTORE POP JUMP JUMPDEST PUSH1 0x0 PUSH2 0x4ED5 PUSH1 0x13 DUP4 PUSH2 0x4072 JUMP JUMPDEST SWAP2 POP PUSH2 0x4EE0 DUP3 PUSH2 0x4E9F JUMP JUMPDEST PUSH1 0x20 DUP3 ADD SWAP1 POP SWAP2 SWAP1 POP JUMP JUMPDEST PUSH1 0x0 PUSH1 0x20 DUP3 ADD SWAP1 POP DUP2 DUP2 SUB PUSH1 0x0 DUP4 ADD MSTORE PUSH2 0x4F04 DUP2 PUSH2 0x4EC8 JUMP JUMPDEST SWAP1 POP SWAP2 SWAP1 POP JUMP JUMPDEST PUSH1 0x0 PUSH1 0xFF DUP3 AND SWAP1 POP SWAP2 SWAP1 POP JUMP JUMPDEST PUSH2 0x4F21 DUP2 PUSH2 0x4F0B JUMP JUMPDEST DUP2 EQ PUSH2 0x4F2C JUMPI PUSH1 0x0 DUP1 REVERT JUMPDEST POP JUMP JUMPDEST PUSH1 0x0 DUP2 MLOAD SWAP1 POP PUSH2 0x4F3E DUP2 PUSH2 0x4F18 JUMP JUMPDEST SWAP3 SWAP2 POP POP JUMP JUMPDEST PUSH1 0x0 PUSH1 0x20 DUP3 DUP5 SUB SLT ISZERO PUSH2 0x4F5A JUMPI PUSH2 0x4F59 PUSH2 0x398A JUMP JUMPDEST JUMPDEST PUSH1 0x0 PUSH2 0x4F68 DUP5 DUP3 DUP6 ADD PUSH2 0x4F2F JUMP JUMPDEST SWAP2 POP POP SWAP3 SWAP2 POP POP JUMP JUMPDEST PUSH32 0x496E73756666696369656E7420636F6C6C61746572616C000000000000000000 PUSH1 0x0 DUP3 ADD MSTORE POP JUMP JUMPDEST PUSH1 0x0 PUSH2 0x4FA7 PUSH1 0x17 DUP4 PUSH2 0x4072 JUMP JUMPDEST SWAP2 POP PUSH2 0x4FB2 DUP3 PUSH2 0x4F71 JUMP JUMPDEST PUSH1 0x20 DUP3 ADD SWAP1 POP SWAP2 SWAP1 POP JUMP JUMPDEST PUSH1 0x0 PUSH1 0x20 DUP3 ADD SWAP1 POP DUP2 DUP2 SUB PUSH1 0x0 DUP4 ADD MSTORE PUSH2 0x4FD6 DUP2 PUSH2 0x4F9A JUMP JUMPDEST SWAP1 POP SWAP2 SWAP1 POP JUMP JUMPDEST PUSH32 0x496E73756666696369656E7420636F6C6C61746572616C2062616C616E636500 PUSH1 0x0 DUP3 ADD MSTORE POP JUMP JUMPDEST PUSH1 0x0 PUSH2 0x5013 PUSH1 0x1F DUP4 PUSH2 0x4072 JUMP JUMPDEST SWAP2 POP PUSH2 0x501E DUP3 PUSH2 0x4FDD JUMP JUMPDEST PUSH1 0x20 DUP3 ADD SWAP1 POP SWAP2 SWAP1 POP JUMP JUMPDEST PUSH1 0x0 PUSH1 0x20 DUP3 ADD SWAP1 POP DUP2 DUP2 SUB PUSH1 0x0 DUP4 ADD MSTORE PUSH2 0x5042 DUP2 PUSH2 0x5006 JUMP JUMPDEST SWAP1 POP SWAP2 SWAP1 POP JUMP JUMPDEST PUSH1 0x0 DUP2 SWAP1 POP SWAP3 SWAP2 POP POP JUMP JUMPDEST POP JUMP JUMPDEST PUSH1 0x0 PUSH2 0x5064 PUSH1 0x0 DUP4 PUSH2 0x5049 JUMP JUMPDEST SWAP2 POP PUSH2 0x506F DUP3 PUSH2 0x5054 JUMP JUMPDEST PUSH1 0x0 DUP3 ADD SWAP1 POP SWAP2 SWAP1 POP JUMP JUMPDEST PUSH1 0x0 PUSH2 0x5085 DUP3 PUSH2 0x5057 JUMP JUMPDEST SWAP2 POP DUP2 SWAP1 POP SWAP2 SWAP1 POP JUMP JUMPDEST PUSH32 0x436F6C6C61746572616C207472616E73666572206661696C6564000000000000 PUSH1 0x0 DUP3 ADD MSTORE POP JUMP JUMPDEST PUSH1 0x0 PUSH2 0x50C5 PUSH1 0x1A DUP4 PUSH2 0x4072 JUMP JUMPDEST SWAP2 POP PUSH2 0x50D0 DUP3 PUSH2 0x508F JUMP JUMPDEST PUSH1 0x20 DUP3 ADD SWAP1 POP SWAP2 SWAP1 POP JUMP JUMPDEST PUSH1 0x0 PUSH1 0x20 DUP3 ADD SWAP1 POP DUP2 DUP2 SUB PUSH1 0x0 DUP4 ADD MSTORE PUSH2 0x50F4 DUP2 PUSH2 0x50B8 JUMP JUMPDEST SWAP1 POP SWAP2 SWAP1 POP JUMP JUMPDEST PUSH32 0x4E6F2074696D6520656C617073656420666F7220696E74657265737420616363 PUSH1 0x0 DUP3 ADD MSTORE PUSH32 0x7275616C00000000000000000000000000000000000000000000000000000000 PUSH1 0x20 DUP3 ADD MSTORE POP JUMP JUMPDEST PUSH1 0x0 PUSH2 0x5157 PUSH1 0x24 DUP4 PUSH2 0x4072 JUMP JUMPDEST SWAP2 POP PUSH2 0x5162 DUP3 PUSH2 0x50FB JUMP JUMPDEST PUSH1 0x40 DUP3 ADD SWAP1 POP SWAP2 SWAP1 POP JUMP JUMPDEST PUSH1 0x0 PUSH1 0x20 DUP3 ADD SWAP1 POP DUP2 DUP2 SUB PUSH1 0x0 DUP4 ADD MSTORE PUSH2 0x5186 DUP2 PUSH2 0x514A JUMP JUMPDEST SWAP1 POP SWAP2 SWAP1 POP JUMP JUMPDEST PUSH1 0x0 DUP2 PUSH1 0x1 SHR SWAP1 POP SWAP2 SWAP1 POP JUMP JUMPDEST PUSH1 0x0 DUP1 DUP3 SWAP2 POP DUP4 SWAP1 POP JUMPDEST PUSH1 0x1 DUP6 GT ISZERO PUSH2 0x51E4 JUMPI DUP1 DUP7 DIV DUP2 GT ISZERO PUSH2 0x51C0 JUMPI PUSH2 0x51BF PUSH2 0x415B JUMP JUMPDEST JUMPDEST PUSH1 0x1 DUP6 AND ISZERO PUSH2 0x51CF JUMPI DUP1 DUP3 MUL SWAP2 POP JUMPDEST DUP1 DUP2 MUL SWAP1 POP PUSH2 0x51DD DUP6 PUSH2 0x518D JUMP JUMPDEST SWAP5 POP PUSH2 0x51A4 JUMP JUMPDEST SWAP5 POP SWAP5 SWAP3 POP POP POP JUMP JUMPDEST PUSH1 0x0 DUP3 PUSH2 0x51FD JUMPI PUSH1 0x1 SWAP1 POP PUSH2 0x52B9 JUMP JUMPDEST DUP2 PUSH2 0x520B JUMPI PUSH1 0x0 SWAP1 POP PUSH2 0x52B9 JUMP JUMPDEST DUP2 PUSH1 0x1 DUP2 EQ PUSH2 0x5221 JUMPI PUSH1 0x2 DUP2 EQ PUSH2 0x522B JUMPI PUSH2 0x525A JUMP JUMPDEST PUSH1 0x1 SWAP2 POP POP PUSH2 0x52B9 JUMP JUMPDEST PUSH1 0xFF DUP5 GT ISZERO PUSH2 0x523D JUMPI PUSH2 0x523C PUSH2 0x415B JUMP JUMPDEST JUMPDEST DUP4 PUSH1 0x2 EXP SWAP2 POP DUP5 DUP3 GT ISZERO PUSH2 0x5254 JUMPI PUSH2 0x5253 PUSH2 0x415B JUMP JUMPDEST JUMPDEST POP PUSH2 0x52B9 JUMP JUMPDEST POP PUSH1 0x20 DUP4 LT PUSH2 0x133 DUP4 LT AND PUSH1 0x4E DUP5 LT PUSH1 0xB DUP5 LT AND OR ISZERO PUSH2 0x528F JUMPI DUP3 DUP3 EXP SWAP1 POP DUP4 DUP2 GT ISZERO PUSH2 0x528A JUMPI PUSH2 0x5289 PUSH2 0x415B JUMP JUMPDEST JUMPDEST PUSH2 0x52B9 JUMP JUMPDEST PUSH2 0x529C DUP5 DUP5 DUP5 PUSH1 0x1 PUSH2 0x519A JUMP JUMPDEST SWAP3 POP SWAP1 POP DUP2 DUP5 DIV DUP2 GT ISZERO PUSH2 0x52B3 JUMPI PUSH2 0x52B2 PUSH2 0x415B JUMP JUMPDEST JUMPDEST DUP2 DUP2 MUL SWAP1 POP JUMPDEST SWAP4 SWAP3 POP POP POP JUMP JUMPDEST PUSH1 0x0 PUSH2 0x52CB DUP3 PUSH2 0x398F JUMP JUMPDEST SWAP2 POP PUSH2 0x52D6 DUP4 PUSH2 0x398F JUMP JUMPDEST SWAP3 POP PUSH2 0x5303 PUSH32 0xFFFFFFFFFFFFFFFFFFFFFFFFFFFFFFFFFFFFFFFFFFFFFFFFFFFFFFFFFFFFFFFF DUP5 DUP5 PUSH2 0x51ED JUMP JUMPDEST SWAP1 POP SWAP3 SWAP2 POP POP JUMP JUMPDEST PUSH32 0x5072696E636970616C206D7573742062652067726561746572207468616E2030 PUSH1 0x0 DUP3 ADD MSTORE POP JUMP JUMPDEST PUSH1 0x0 PUSH2 0x5341 PUSH1 0x20 DUP4 PUSH2 0x4072 JUMP JUMPDEST SWAP2 POP PUSH2 0x534C DUP3 PUSH2 0x530B JUMP JUMPDEST PUSH1 0x20 DUP3 ADD SWAP1 POP SWAP2 SWAP1 POP JUMP JUMPDEST PUSH1 0x0 PUSH1 0x20 DUP3 ADD SWAP1 POP DUP2 DUP2 SUB PUSH1 0x0 DUP4 ADD MSTORE PUSH2 0x5370 DUP2 PUSH2 0x5334 JUMP JUMPDEST SWAP1 POP SWAP2 SWAP1 POP JUMP JUMPDEST PUSH32 0x416E6E75616C2072617465206D7573742062652067726561746572207468616E PUSH1 0x0 DUP3 ADD MSTORE PUSH32 0x2030000000000000000000000000000000000000000000000000000000000000 PUSH1 0x20 DUP3 ADD MSTORE POP JUMP JUMPDEST PUSH1 0x0 PUSH2 0x53D3 PUSH1 0x22 DUP4 PUSH2 0x4072 JUMP JUMPDEST SWAP2 POP PUSH2 0x53DE DUP3 PUSH2 0x5377 JUMP JUMPDEST PUSH1 0x40 DUP3 ADD SWAP1 POP SWAP2 SWAP1 POP JUMP JUMPDEST PUSH1 0x0 PUSH1 0x20 DUP3 ADD SWAP1 POP DUP2 DUP2 SUB PUSH1 0x0 DUP4 ADD MSTORE PUSH2 0x5402 DUP2 PUSH2 0x53C6 JUMP JUMPDEST SWAP1 POP SWAP2 SWAP1 POP JUMP JUMPDEST PUSH32 0x54696D6520656C6170736564206D757374206265206772656174657220746861 PUSH1 0x0 DUP3 ADD MSTORE PUSH32 0x6E20300000000000000000000000000000000000000000000000000000000000 PUSH1 0x20 DUP3 ADD MSTORE POP JUMP JUMPDEST PUSH1 0x0 PUSH2 0x5465 PUSH1 0x23 DUP4 PUSH2 0x4072 JUMP JUMPDEST SWAP2 POP PUSH2 0x5470 DUP3 PUSH2 0x5409 JUMP JUMPDEST PUSH1 0x40 DUP3 ADD SWAP1 POP SWAP2 SWAP1 POP JUMP JUMPDEST PUSH1 0x0 PUSH1 0x20 DUP3 ADD SWAP1 POP DUP2 DUP2 SUB PUSH1 0x0 DUP4 ADD MSTORE PUSH2 0x5494 DUP2 PUSH2 0x5458 JUMP JUMPDEST SWAP1 POP SWAP2 SWAP1 POP JUMP JUMPDEST PUSH32 0x5261746520706572207365636F6E6420697320696E76616C6964000000000000 PUSH1 0x0 DUP3 ADD MSTORE POP JUMP JUMPDEST PUSH1 0x0 PUSH2 0x54D1 PUSH1 0x1A DUP4 PUSH2 0x4072 JUMP JUMPDEST SWAP2 POP PUSH2 0x54DC DUP3 PUSH2 0x549B JUMP JUMPDEST PUSH1 0x20 DUP3 ADD SWAP1 POP SWAP2 SWAP1 POP JUMP JUMPDEST PUSH1 0x0 PUSH1 0x20 DUP3 ADD SWAP1 POP DUP2 DUP2 SUB PUSH1 0x0 DUP4 ADD MSTORE PUSH2 0x5500 DUP2 PUSH2 0x54C4 JUMP JUMPDEST SWAP1 POP SWAP2 SWAP1 POP JUMP JUMPDEST PUSH32 0x496E73756666696369656E74206C656E6465722066756E647300000000000000 PUSH1 0x0 DUP3 ADD MSTORE POP JUMP JUMPDEST PUSH1 0x0 PUSH2 0x553D PUSH1 0x19 DUP4 PUSH2 0x4072 JUMP JUMPDEST SWAP2 POP PUSH2 0x5548 DUP3 PUSH2 0x5507 JUMP JUMPDEST PUSH1 0x20 DUP3 ADD SWAP1 POP SWAP2 SWAP1 POP JUMP JUMPDEST PUSH1 0x0 PUSH1 0x20 DUP3 ADD SWAP1 POP DUP2 DUP2 SUB PUSH1 0x0 DUP4 ADD MSTORE PUSH2 0x556C DUP2 PUSH2 0x5530 JUMP JUMPDEST SWAP1 POP SWAP2 SWAP1 POP JUMP INVALID LOG2 PUSH5 0x6970667358 0x22 SLT KECCAK256 REVERT 0x2A PUSH29 0x1998DF399CFA315B74C8FD99CC3CB3A884B97A86FCF6ACE04C5CB6855D PUSH5 0x736F6C6343 STOP ADDMOD XOR STOP CALLER "
        },
        "methodIdentifiers": {
          "allowanceCaller()": "e16ffcdc",
          "borrowerLoans(address,uint256)": "e3ed1902",
          "collateralizationRatio()": "dcaf9c44",
          "fundLoan(uint256)": "846b909a",
          "getAllLoanRequests()": "0c9babc3",
          "getETHPrice()": "a607a8d9",
          "getUserLoanRequests(address)": "88ae545c",
          "lenderAvailableFunds(address)": "197428bf",
          "lenderLoans(address,uint256)": "3cdb72f1",
          "linkToken()": "57970e93",
          "liquidateOverdueLoan(uint256)": "61851d65",
          "liquidationThreshold()": "4031234c",
          "loanCounter()": "34d9289e",
          "loanRequests(uint256)": "d1b332f4",
          "loansCollateral(uint256,address)": "17d960e0",
          "loansCore(uint256)": "e91349d7",
          "loansInterest(uint256)": "cc826646",
          "loansStatus(uint256)": "b4580a66",
          "makePartialRepayment(uint256,uint256)": "b29504e9",
          "maxLoanAmount()": "72f94365",
          "minLoanAmount()": "e06a9138",
          "owner()": "8da5cb5b",
          "paused()": "5c975abb",
          "priceFeed()": "741bef1a",
          "repayLoanWithReward(uint256)": "7c6fe270",
          "requestLoan(uint256,uint256,uint256)": "edadbbfe",
          "setLoanLimits(uint256,uint256)": "97a146c0",
          "supportedCollaterals(address)": "aaea7009",
          "updateCollateralizationRatio(uint256)": "0607ec70",
          "updateLiquidationThreshold(uint256)": "d3b5be1a",
          "withdrawRewards(address)": "42d86693"
        }
      }
    }
  }
}