{
  "contracts/LoanManager.sol": {
    "LoanManager": {
      "abi": [
        {
          "inputs": [
            {
              "internalType": "contract IERC20",
              "name": "_linkToken",
              "type": "address"
            },
            {
              "internalType": "contract AggregatorV3Interface",
              "name": "_priceFeed",
              "type": "address"
            }
          ],
          "stateMutability": "nonpayable",
          "type": "constructor"
        },
        {
          "inputs": [],
          "name": "EnforcedPause",
          "type": "error"
        },
        {
          "inputs": [],
          "name": "ExpectedPause",
          "type": "error"
        },
        {
          "inputs": [],
          "name": "ReentrancyGuardReentrantCall",
          "type": "error"
        },
        {
          "anonymous": false,
          "inputs": [
            {
              "indexed": true,
              "internalType": "uint256",
              "name": "loanId",
              "type": "uint256"
            },
            {
              "indexed": true,
              "internalType": "address",
              "name": "lender",
              "type": "address"
            },
            {
              "indexed": true,
              "internalType": "address",
              "name": "borrower",
              "type": "address"
            }
          ],
          "name": "AutomaticMatch",
          "type": "event"
        },
        {
          "anonymous": false,
          "inputs": [
            {
              "indexed": true,
              "internalType": "address",
              "name": "token",
              "type": "address"
            },
            {
              "indexed": false,
              "internalType": "uint256",
              "name": "maxLTV",
              "type": "uint256"
            }
          ],
          "name": "CollateralAdded",
          "type": "event"
        },
        {
          "anonymous": false,
          "inputs": [
            {
              "indexed": true,
              "internalType": "uint256",
              "name": "loanId",
              "type": "uint256"
            },
            {
              "indexed": false,
              "internalType": "uint256",
              "name": "amount",
              "type": "uint256"
            }
          ],
          "name": "InterestAccrued",
          "type": "event"
        },
        {
          "anonymous": false,
          "inputs": [
            {
              "indexed": true,
              "internalType": "uint256",
              "name": "loanId",
              "type": "uint256"
            },
            {
              "indexed": true,
              "internalType": "address",
              "name": "borrower",
              "type": "address"
            },
            {
              "indexed": false,
              "internalType": "uint256",
              "name": "loanAmount",
              "type": "uint256"
            }
          ],
          "name": "LoanDisbursed",
          "type": "event"
        },
        {
          "anonymous": false,
          "inputs": [
            {
              "indexed": true,
              "internalType": "uint256",
              "name": "loanId",
              "type": "uint256"
            },
            {
              "indexed": true,
              "internalType": "address",
              "name": "lender",
              "type": "address"
            }
          ],
          "name": "LoanFunded",
          "type": "event"
        },
        {
          "anonymous": false,
          "inputs": [
            {
              "indexed": true,
              "internalType": "uint256",
              "name": "loanId",
              "type": "uint256"
            },
            {
              "indexed": true,
              "internalType": "address",
              "name": "liquidator",
              "type": "address"
            }
          ],
          "name": "LoanLiquidated",
          "type": "event"
        },
        {
          "anonymous": false,
          "inputs": [
            {
              "indexed": true,
              "internalType": "uint256",
              "name": "loanId",
              "type": "uint256"
            },
            {
              "indexed": true,
              "internalType": "address",
              "name": "lender",
              "type": "address"
            },
            {
              "indexed": false,
              "internalType": "uint256",
              "name": "loanAmount",
              "type": "uint256"
            }
          ],
          "name": "LoanLiquidated",
          "type": "event"
        },
        {
          "anonymous": false,
          "inputs": [
            {
              "indexed": true,
              "internalType": "uint256",
              "name": "loanId",
              "type": "uint256"
            },
            {
              "indexed": true,
              "internalType": "address",
              "name": "borrower",
              "type": "address"
            },
            {
              "indexed": false,
              "internalType": "uint256",
              "name": "amount",
              "type": "uint256"
            }
          ],
          "name": "LoanRepaid",
          "type": "event"
        },
        {
          "anonymous": false,
          "inputs": [
            {
              "indexed": true,
              "internalType": "uint256",
              "name": "loanId",
              "type": "uint256"
            },
            {
              "indexed": true,
              "internalType": "address",
              "name": "borrower",
              "type": "address"
            },
            {
              "indexed": false,
              "internalType": "uint256",
              "name": "amount",
              "type": "uint256"
            },
            {
              "indexed": false,
              "internalType": "uint256",
              "name": "collateral",
              "type": "uint256"
            }
          ],
          "name": "LoanRequested",
          "type": "event"
        },
        {
          "anonymous": false,
          "inputs": [
            {
              "indexed": true,
              "internalType": "uint256",
              "name": "loanId",
              "type": "uint256"
            },
            {
              "indexed": true,
              "internalType": "address",
              "name": "borrower",
              "type": "address"
            },
            {
              "indexed": false,
              "internalType": "uint256",
              "name": "amount",
              "type": "uint256"
            }
          ],
          "name": "PartialRepayment",
          "type": "event"
        },
        {
          "anonymous": false,
          "inputs": [
            {
              "indexed": false,
              "internalType": "address",
              "name": "account",
              "type": "address"
            }
          ],
          "name": "Paused",
          "type": "event"
        },
        {
          "anonymous": false,
          "inputs": [
            {
              "indexed": true,
              "internalType": "uint256",
              "name": "loanId",
              "type": "uint256"
            },
            {
              "indexed": false,
              "internalType": "uint256",
              "name": "reward",
              "type": "uint256"
            }
          ],
          "name": "RewardCollected",
          "type": "event"
        },
        {
          "anonymous": false,
          "inputs": [
            {
              "indexed": false,
              "internalType": "address",
              "name": "owner",
              "type": "address"
            },
            {
              "indexed": false,
              "internalType": "uint256",
              "name": "contractBalance",
              "type": "uint256"
            }
          ],
          "name": "RewardsWithdrawn",
          "type": "event"
        },
        {
          "anonymous": false,
          "inputs": [
            {
              "indexed": false,
              "internalType": "address",
              "name": "account",
              "type": "address"
            }
          ],
          "name": "Unpaused",
          "type": "event"
        },
        {
          "inputs": [],
          "name": "allowanceCaller",
          "outputs": [
            {
              "internalType": "uint256",
              "name": "",
              "type": "uint256"
            }
          ],
          "stateMutability": "view",
          "type": "function"
        },
        {
          "inputs": [
            {
              "internalType": "address",
              "name": "",
              "type": "address"
            },
            {
              "internalType": "uint256",
              "name": "",
              "type": "uint256"
            }
          ],
          "name": "borrowerLoans",
          "outputs": [
            {
              "internalType": "uint256",
              "name": "",
              "type": "uint256"
            }
          ],
          "stateMutability": "view",
          "type": "function"
        },
        {
          "inputs": [],
          "name": "collateralizationRatio",
          "outputs": [
            {
              "internalType": "uint256",
              "name": "",
              "type": "uint256"
            }
          ],
          "stateMutability": "view",
          "type": "function"
        },
        {
          "inputs": [
            {
              "internalType": "uint256",
              "name": "loanId",
              "type": "uint256"
            }
          ],
          "name": "fundLoan",
          "outputs": [],
          "stateMutability": "nonpayable",
          "type": "function"
        },
        {
          "inputs": [],
          "name": "getAllLoanRequests",
          "outputs": [
            {
              "components": [
                {
                  "internalType": "uint256",
                  "name": "loanId",
                  "type": "uint256"
                },
                {
                  "internalType": "address",
                  "name": "borrower",
                  "type": "address"
                },
                {
                  "internalType": "uint256",
                  "name": "amount",
                  "type": "uint256"
                },
                {
                  "internalType": "uint256",
                  "name": "maxInterestRate",
                  "type": "uint256"
                },
                {
                  "internalType": "uint256",
                  "name": "dueDate",
                  "type": "uint256"
                },
                {
                  "internalType": "uint256",
                  "name": "duration",
                  "type": "uint256"
                },
                {
                  "internalType": "bool",
                  "name": "matched",
                  "type": "bool"
                },
                {
                  "internalType": "uint256",
                  "name": "collateralAmount",
                  "type": "uint256"
                },
                {
                  "internalType": "bool",
                  "name": "isActive",
                  "type": "bool"
                }
              ],
              "internalType": "struct LoanStorage.LoanRequestDetail[]",
              "name": "",
              "type": "tuple[]"
            }
          ],
          "stateMutability": "view",
          "type": "function"
        },
        {
          "inputs": [],
          "name": "getETHPrice",
          "outputs": [
            {
              "internalType": "uint256",
              "name": "",
              "type": "uint256"
            }
          ],
          "stateMutability": "view",
          "type": "function"
        },
        {
          "inputs": [
            {
              "internalType": "address",
              "name": "user",
              "type": "address"
            }
          ],
          "name": "getUserLoanRequests",
          "outputs": [
            {
              "components": [
                {
                  "internalType": "uint256",
                  "name": "loanId",
                  "type": "uint256"
                },
                {
                  "internalType": "address",
                  "name": "borrower",
                  "type": "address"
                },
                {
                  "internalType": "uint256",
                  "name": "amount",
                  "type": "uint256"
                },
                {
                  "internalType": "uint256",
                  "name": "maxInterestRate",
                  "type": "uint256"
                },
                {
                  "internalType": "uint256",
                  "name": "dueDate",
                  "type": "uint256"
                },
                {
                  "internalType": "uint256",
                  "name": "duration",
                  "type": "uint256"
                },
                {
                  "internalType": "bool",
                  "name": "matched",
                  "type": "bool"
                },
                {
                  "internalType": "uint256",
                  "name": "collateralAmount",
                  "type": "uint256"
                },
                {
                  "internalType": "bool",
                  "name": "isActive",
                  "type": "bool"
                }
              ],
              "internalType": "struct LoanStorage.LoanRequestDetail[]",
              "name": "",
              "type": "tuple[]"
            }
          ],
          "stateMutability": "view",
          "type": "function"
        },
        {
          "inputs": [
            {
              "internalType": "uint256",
              "name": "loanAmount",
              "type": "uint256"
            }
          ],
          "name": "getrequiredCollateralAmount",
          "outputs": [
            {
              "internalType": "uint256",
              "name": "",
              "type": "uint256"
            }
          ],
          "stateMutability": "view",
          "type": "function"
        },
        {
          "inputs": [
            {
              "internalType": "address",
              "name": "",
              "type": "address"
            }
          ],
          "name": "lenderAvailableFunds",
          "outputs": [
            {
              "internalType": "uint256",
              "name": "",
              "type": "uint256"
            }
          ],
          "stateMutability": "view",
          "type": "function"
        },
        {
          "inputs": [
            {
              "internalType": "address",
              "name": "",
              "type": "address"
            },
            {
              "internalType": "uint256",
              "name": "",
              "type": "uint256"
            }
          ],
          "name": "lenderLoans",
          "outputs": [
            {
              "internalType": "uint256",
              "name": "",
              "type": "uint256"
            }
          ],
          "stateMutability": "view",
          "type": "function"
        },
        {
          "inputs": [],
          "name": "linkToken",
          "outputs": [
            {
              "internalType": "contract IERC20",
              "name": "",
              "type": "address"
            }
          ],
          "stateMutability": "view",
          "type": "function"
        },
        {
          "inputs": [
            {
              "internalType": "uint256",
              "name": "loanId",
              "type": "uint256"
            }
          ],
          "name": "liquidateOverdueLoan",
          "outputs": [],
          "stateMutability": "nonpayable",
          "type": "function"
        },
        {
          "inputs": [],
          "name": "liquidationThreshold",
          "outputs": [
            {
              "internalType": "uint256",
              "name": "",
              "type": "uint256"
            }
          ],
          "stateMutability": "view",
          "type": "function"
        },
        {
          "inputs": [],
          "name": "loanCounter",
          "outputs": [
            {
              "internalType": "uint256",
              "name": "",
              "type": "uint256"
            }
          ],
          "stateMutability": "view",
          "type": "function"
        },
        {
          "inputs": [
            {
              "internalType": "uint256",
              "name": "",
              "type": "uint256"
            }
          ],
          "name": "loanRequests",
          "outputs": [
            {
              "internalType": "uint256",
              "name": "amount",
              "type": "uint256"
            },
            {
              "internalType": "uint256",
              "name": "maxInterestRate",
              "type": "uint256"
            },
            {
              "internalType": "uint256",
              "name": "dueDate",
              "type": "uint256"
            },
            {
              "internalType": "uint256",
              "name": "duration",
              "type": "uint256"
            },
            {
              "internalType": "bool",
              "name": "matched",
              "type": "bool"
            }
          ],
          "stateMutability": "view",
          "type": "function"
        },
        {
          "inputs": [
            {
              "internalType": "uint256",
              "name": "",
              "type": "uint256"
            },
            {
              "internalType": "address",
              "name": "",
              "type": "address"
            }
          ],
          "name": "loansCollateral",
          "outputs": [
            {
              "internalType": "uint256",
              "name": "",
              "type": "uint256"
            }
          ],
          "stateMutability": "view",
          "type": "function"
        },
        {
          "inputs": [
            {
              "internalType": "uint256",
              "name": "",
              "type": "uint256"
            }
          ],
          "name": "loansCore",
          "outputs": [
            {
              "internalType": "address",
              "name": "borrower",
              "type": "address"
            },
            {
              "internalType": "address",
              "name": "lender",
              "type": "address"
            },
            {
              "internalType": "uint256",
              "name": "amount",
              "type": "uint256"
            },
            {
              "internalType": "uint256",
              "name": "collateral",
              "type": "uint256"
            },
            {
              "internalType": "uint256",
              "name": "interestRate",
              "type": "uint256"
            },
            {
              "internalType": "enum ILoanManager.InterestRateType",
              "name": "rateType",
              "type": "uint8"
            },
            {
              "internalType": "uint256",
              "name": "duration",
              "type": "uint256"
            }
          ],
          "stateMutability": "view",
          "type": "function"
        },
        {
          "inputs": [
            {
              "internalType": "uint256",
              "name": "",
              "type": "uint256"
            }
          ],
          "name": "loansInterest",
          "outputs": [
            {
              "internalType": "uint256",
              "name": "lastInterestAccrualTimestamp",
              "type": "uint256"
            },
            {
              "internalType": "uint256",
              "name": "accruedInterest",
              "type": "uint256"
            }
          ],
          "stateMutability": "view",
          "type": "function"
        },
        {
          "inputs": [
            {
              "internalType": "uint256",
              "name": "",
              "type": "uint256"
            }
          ],
          "name": "loansStatus",
          "outputs": [
            {
              "internalType": "uint256",
              "name": "startTime",
              "type": "uint256"
            },
            {
              "internalType": "bool",
              "name": "active",
              "type": "bool"
            },
            {
              "internalType": "bool",
              "name": "repaid",
              "type": "bool"
            },
            {
              "internalType": "bool",
              "name": "defaulted",
              "type": "bool"
            },
            {
              "internalType": "uint256",
              "name": "repaidAmount",
              "type": "uint256"
            }
          ],
          "stateMutability": "view",
          "type": "function"
        },
        {
          "inputs": [
            {
              "internalType": "uint256",
              "name": "loanId",
              "type": "uint256"
            },
            {
              "internalType": "uint256",
              "name": "amount",
              "type": "uint256"
            }
          ],
          "name": "makePartialRepayment",
          "outputs": [],
          "stateMutability": "nonpayable",
          "type": "function"
        },
        {
          "inputs": [],
          "name": "maxLoanAmount",
          "outputs": [
            {
              "internalType": "uint256",
              "name": "",
              "type": "uint256"
            }
          ],
          "stateMutability": "view",
          "type": "function"
        },
        {
          "inputs": [],
          "name": "minLoanAmount",
          "outputs": [
            {
              "internalType": "uint256",
              "name": "",
              "type": "uint256"
            }
          ],
          "stateMutability": "view",
          "type": "function"
        },
        {
          "inputs": [],
          "name": "owner",
          "outputs": [
            {
              "internalType": "address",
              "name": "",
              "type": "address"
            }
          ],
          "stateMutability": "view",
          "type": "function"
        },
        {
          "inputs": [],
          "name": "paused",
          "outputs": [
            {
              "internalType": "bool",
              "name": "",
              "type": "bool"
            }
          ],
          "stateMutability": "view",
          "type": "function"
        },
        {
          "inputs": [],
          "name": "priceFeed",
          "outputs": [
            {
              "internalType": "contract AggregatorV3Interface",
              "name": "",
              "type": "address"
            }
          ],
          "stateMutability": "view",
          "type": "function"
        },
        {
          "inputs": [
            {
              "internalType": "uint256",
              "name": "loanId",
              "type": "uint256"
            }
          ],
          "name": "repayLoanWithReward",
          "outputs": [],
          "stateMutability": "nonpayable",
          "type": "function"
        },
        {
          "inputs": [
            {
              "internalType": "uint256",
              "name": "amount",
              "type": "uint256"
            },
            {
              "internalType": "uint256",
              "name": "maxInterestRate",
              "type": "uint256"
            },
            {
              "internalType": "uint256",
              "name": "duration",
              "type": "uint256"
            }
          ],
          "name": "requestLoan",
          "outputs": [],
          "stateMutability": "payable",
          "type": "function"
        },
        {
          "inputs": [
            {
              "internalType": "uint256",
              "name": "_minLoanAmount",
              "type": "uint256"
            },
            {
              "internalType": "uint256",
              "name": "_maxLoanAmount",
              "type": "uint256"
            }
          ],
          "name": "setLoanLimits",
          "outputs": [],
          "stateMutability": "nonpayable",
          "type": "function"
        },
        {
          "inputs": [
            {
              "internalType": "address",
              "name": "",
              "type": "address"
            }
          ],
          "name": "supportedCollaterals",
          "outputs": [
            {
              "internalType": "address",
              "name": "priceOracle",
              "type": "address"
            },
            {
              "internalType": "uint256",
              "name": "maxLTV",
              "type": "uint256"
            },
            {
              "internalType": "bool",
              "name": "isActive",
              "type": "bool"
            }
          ],
          "stateMutability": "view",
          "type": "function"
        },
        {
          "inputs": [
            {
              "internalType": "uint256",
              "name": "newRatio",
              "type": "uint256"
            }
          ],
          "name": "updateCollateralizationRatio",
          "outputs": [],
          "stateMutability": "nonpayable",
          "type": "function"
        },
        {
          "inputs": [
            {
              "internalType": "uint256",
              "name": "newThreshold",
              "type": "uint256"
            }
          ],
          "name": "updateLiquidationThreshold",
          "outputs": [],
          "stateMutability": "nonpayable",
          "type": "function"
        },
        {
          "inputs": [
            {
              "internalType": "address",
              "name": "_owner",
              "type": "address"
            }
          ],
          "name": "withdrawRewards",
          "outputs": [],
          "stateMutability": "nonpayable",
          "type": "function"
        }
      ],
      "evm": {
        "bytecode": {
          "linkReferences": {},
          "object": "60806040526078600e55606e600f55670de0b6b3a764000060115569152d02c7e14af68000006012553480156200003557600080fd5b50604051620059123803806200591283398181016040528101906200005b91906200020c565b6001600a819055506000600b60006101000a81548160ff02191690831515021790555081600b60016101000a81548173ffffffffffffffffffffffffffffffffffffffff021916908373ffffffffffffffffffffffffffffffffffffffff16021790555080600c60006101000a81548173ffffffffffffffffffffffffffffffffffffffff021916908373ffffffffffffffffffffffffffffffffffffffff16021790555033600d60006101000a81548173ffffffffffffffffffffffffffffffffffffffff021916908373ffffffffffffffffffffffffffffffffffffffff160217905550505062000253565b600080fd5b600073ffffffffffffffffffffffffffffffffffffffff82169050919050565b60006200017b826200014e565b9050919050565b60006200018f826200016e565b9050919050565b620001a18162000182565b8114620001ad57600080fd5b50565b600081519050620001c18162000196565b92915050565b6000620001d4826200016e565b9050919050565b620001e681620001c7565b8114620001f257600080fd5b50565b6000815190506200020681620001db565b92915050565b6000806040838503121562000226576200022562000149565b5b60006200023685828601620001b0565b92505060206200024985828601620001f5565b9150509250929050565b6156af80620002636000396000f3fe6080604052600436106101e35760003560e01c806388ae545c11610102578063d1b332f411610095578063e16ffcdc11610064578063e16ffcdc14610739578063e3ed190214610764578063e91349d7146107a1578063edadbbfe146107e4576101e3565b8063d1b332f414610679578063d3b5be1a146106ba578063dcaf9c44146106e3578063e06a91381461070e576101e3565b8063aaea7009116100d1578063aaea700914610592578063b29504e9146105d1578063b4580a66146105fa578063cc8266461461063b576101e3565b806388ae545c146104d65780638da5cb5b1461051357806397a146c01461053e578063a607a8d914610567576101e3565b806357970e931161017a57806372f943651161014957806372f943651461042e578063741bef1a146104595780637c6fe27014610484578063846b909a146104ad576101e3565b806357970e93146103725780635c975abb1461039d57806361851d65146103c857806369549fdc146103f1576101e3565b806334d9289e116101b657806334d9289e146102b65780633cdb72f1146102e15780634031234c1461031e57806342d8669314610349576101e3565b80630607ec70146101e85780630c9babc31461021157806317d960e01461023c578063197428bf14610279575b600080fd5b3480156101f457600080fd5b5061020f600480360381019061020a9190613acb565b610800565b005b34801561021d57600080fd5b506102266108de565b6040516102339190613cca565b60405180910390f35b34801561024857600080fd5b50610263600480360381019061025e9190613d18565b610ce0565b6040516102709190613d67565b60405180910390f35b34801561028557600080fd5b506102a0600480360381019061029b9190613d82565b610d05565b6040516102ad9190613d67565b60405180910390f35b3480156102c257600080fd5b506102cb610d1d565b6040516102d89190613d67565b60405180910390f35b3480156102ed57600080fd5b5061030860048036038101906103039190613daf565b610d23565b6040516103159190613d67565b60405180910390f35b34801561032a57600080fd5b50610333610d54565b6040516103409190613d67565b60405180910390f35b34801561035557600080fd5b50610370600480360381019061036b9190613d82565b610d5a565b005b34801561037e57600080fd5b50610387610ff9565b6040516103949190613e4e565b60405180910390f35b3480156103a957600080fd5b506103b261101f565b6040516103bf9190613e78565b60405180910390f35b3480156103d457600080fd5b506103ef60048036038101906103ea9190613acb565b611036565b005b3480156103fd57600080fd5b5061041860048036038101906104139190613acb565b611223565b6040516104259190613d67565b60405180910390f35b34801561043a57600080fd5b506104436112e4565b6040516104509190613d67565b60405180910390f35b34801561046557600080fd5b5061046e6112ea565b60405161047b9190613eb4565b60405180910390f35b34801561049057600080fd5b506104ab60048036038101906104a69190613acb565b611310565b005b3480156104b957600080fd5b506104d460048036038101906104cf9190613acb565b61188b565b005b3480156104e257600080fd5b506104fd60048036038101906104f89190613d82565b611ec7565b60405161050a9190613cca565b60405180910390f35b34801561051f57600080fd5b5061052861238a565b6040516105359190613ede565b60405180910390f35b34801561054a57600080fd5b5061056560048036038101906105609190613ef9565b6123b0565b005b34801561057357600080fd5b5061057c6124d7565b6040516105899190613d67565b60405180910390f35b34801561059e57600080fd5b506105b960048036038101906105b49190613d82565b6125bb565b6040516105c893929190613f39565b60405180910390f35b3480156105dd57600080fd5b506105f860048036038101906105f39190613ef9565b612612565b005b34801561060657600080fd5b50610621600480360381019061061c9190613acb565b612990565b604051610632959493929190613f70565b60405180910390f35b34801561064757600080fd5b50610662600480360381019061065d9190613acb565b6129ed565b604051610670929190613fc3565b60405180910390f35b34801561068557600080fd5b506106a0600480360381019061069b9190613acb565b612a11565b6040516106b1959493929190613fec565b60405180910390f35b3480156106c657600080fd5b506106e160048036038101906106dc9190613acb565b612a54565b005b3480156106ef57600080fd5b506106f8612b32565b6040516107059190613d67565b60405180910390f35b34801561071a57600080fd5b50610723612b38565b6040516107309190613d67565b60405180910390f35b34801561074557600080fd5b5061074e612b3e565b60405161075b9190613d67565b60405180910390f35b34801561077057600080fd5b5061078b60048036038101906107869190613daf565b612be8565b6040516107989190613d67565b60405180910390f35b3480156107ad57600080fd5b506107c860048036038101906107c39190613acb565b612c19565b6040516107db97969594939291906140b6565b60405180910390f35b6107fe60048036038101906107f99190614125565b612ca8565b005b600d60009054906101000a900473ffffffffffffffffffffffffffffffffffffffff1673ffffffffffffffffffffffffffffffffffffffff163373ffffffffffffffffffffffffffffffffffffffff1614610890576040517f08c379a0000000000000000000000000000000000000000000000000000000008152600401610887906141d5565b60405180910390fd5b60648110156108d4576040517f08c379a00000000000000000000000000000000000000000000000000000000081526004016108cb90614241565b60405180910390fd5b80600e8190555050565b6060600080600190505b6010548111610986576000600660008381526020019081526020016000206040518060a0016040529081600082015481526020016001820154815260200160028201548152602001600382015481526020016004820160009054906101000a900460ff161515151581525050905060008160000151111561097257828061096e90614290565b9350505b50808061097e90614290565b9150506108e8565b5060008167ffffffffffffffff8111156109a3576109a26142d8565b5b6040519080825280602002602001820160405280156109dc57816020015b6109c9613a2a565b8152602001906001900390816109c15790505b509050600080600190505b6010548111610cd6576000600660008381526020019081526020016000206040518060a0016040529081600082015481526020016001820154815260200160028201548152602001600382015481526020016004820160009054906101000a900460ff16151515158152505090506000600160008481526020019081526020016000206040518060a0016040529081600082015481526020016001820160009054906101000a900460ff161515151581526020016001820160019054906101000a900460ff161515151581526020016001820160029054906101000a900460ff16151515158152602001600282015481525050905060008060008581526020019081526020016000206040518060e00160405290816000820160009054906101000a900473ffffffffffffffffffffffffffffffffffffffff1673ffffffffffffffffffffffffffffffffffffffff1673ffffffffffffffffffffffffffffffffffffffff1681526020016001820160009054906101000a900473ffffffffffffffffffffffffffffffffffffffff1673ffffffffffffffffffffffffffffffffffffffff1673ffffffffffffffffffffffffffffffffffffffff1681526020016002820154815260200160038201548152602001600482015481526020016005820160009054906101000a900460ff166001811115610bea57610be961403f565b5b6001811115610bfc57610bfb61403f565b5b81526020016006820154815250509050600083600001511115610cc057604051806101200160405280858152602001826000015173ffffffffffffffffffffffffffffffffffffffff168152602001846000015181526020018460200151815260200184604001518152602001846060015181526020018460800151151581526020018260600151815260200183602001511515815250868681518110610ca657610ca5614307565b5b60200260200101819052508480610cbc90614290565b9550505b5050508080610cce90614290565b9150506109e7565b5081935050505090565b6003602052816000526040600020602052806000526040600020600091509150505481565b60076020528060005260406000206000915090505481565b60105481565b60056020528160005260406000208181548110610d3f57600080fd5b90600052602060002001600091509150505481565b600f5481565b600d60009054906101000a900473ffffffffffffffffffffffffffffffffffffffff1673ffffffffffffffffffffffffffffffffffffffff163373ffffffffffffffffffffffffffffffffffffffff1614610dea576040517f08c379a0000000000000000000000000000000000000000000000000000000008152600401610de1906141d5565b60405180910390fd5b610df26130cd565b6000600b60019054906101000a900473ffffffffffffffffffffffffffffffffffffffff1673ffffffffffffffffffffffffffffffffffffffff166370a08231306040518263ffffffff1660e01b8152600401610e4f9190613ede565b602060405180830381865afa158015610e6c573d6000803e3d6000fd5b505050506040513d601f19601f82011682018060405250810190610e90919061434b565b905060008111610ed5576040517f08c379a0000000000000000000000000000000000000000000000000000000008152600401610ecc906143c4565b60405180910390fd5b600b60019054906101000a900473ffffffffffffffffffffffffffffffffffffffff1673ffffffffffffffffffffffffffffffffffffffff1663a9059cbb83836040518363ffffffff1660e01b8152600401610f329291906143e4565b6020604051808303816000875af1158015610f51573d6000803e3d6000fd5b505050506040513d601f19601f82011682018060405250810190610f759190614439565b610fb4576040517f08c379a0000000000000000000000000000000000000000000000000000000008152600401610fab906144b2565b60405180910390fd5b7f8a43c4352486ec339f487f64af78ca5cbf06cd47833f073d3baf3a193e5031618282604051610fe59291906143e4565b60405180910390a150610ff6613113565b50565b600b60019054906101000a900473ffffffffffffffffffffffffffffffffffffffff1681565b6000600b60009054906101000a900460ff16905090565b61103e61311d565b6110466130cd565b6000806000838152602001908152602001600020905060006001600084815260200190815260200160002090508060010160009054906101000a900460ff166110c4576040517f08c379a00000000000000000000000000000000000000000000000000000000081526004016110bb9061451e565b60405180910390fd5b8160060154421161110a576040517f08c379a00000000000000000000000000000000000000000000000000000000081526004016111019061458a565b60405180910390fd5b8060010160019054906101000a900460ff161561115c576040517f08c379a0000000000000000000000000000000000000000000000000000000008152600401611153906145f6565b60405180910390fd5b6111658361315e565b60008160010160006101000a81548160ff02191690831515021790555060018160010160026101000a81548160ff0219169083151502179055508160010160009054906101000a900473ffffffffffffffffffffffffffffffffffffffff1673ffffffffffffffffffffffffffffffffffffffff16837f0256bdf47e9aff5784070d6cab332d79f81fc6b8c8ed875565982a423a389e3a846002015460405161120e9190613d67565b60405180910390a35050611220613113565b50565b60008061122e6124d7565b90506112dc81600e54600c60009054906101000a900473ffffffffffffffffffffffffffffffffffffffff1673ffffffffffffffffffffffffffffffffffffffff1663313ce5676040518163ffffffff1660e01b8152600401602060405180830381865afa1580156112a4573d6000803e3d6000fd5b505050506040513d601f19601f820116820180604052508101906112c8919061464f565b60ff168661329a909392919063ffffffff16565b915050919050565b60125481565b600c60009054906101000a900473ffffffffffffffffffffffffffffffffffffffff1681565b61131861311d565b6113206130cd565b60008060008381526020019081526020016000209050600060016000848152602001908152602001600020905060006002600085815260200190815260200160002090508160010160009054906101000a900460ff166113b5576040517f08c379a00000000000000000000000000000000000000000000000000000000081526004016113ac9061451e565b60405180910390fd5b8260000160009054906101000a900473ffffffffffffffffffffffffffffffffffffffff1673ffffffffffffffffffffffffffffffffffffffff163373ffffffffffffffffffffffffffffffffffffffff1614611447576040517f08c379a000000000000000000000000000000000000000000000000000000000815260040161143e906146c8565b60405180910390fd5b611450846132e0565b6000816001015490506000811161149c576040517f08c379a000000000000000000000000000000000000000000000000000000000815260040161149390614734565b60405180910390fd5b600060646014836114ad9190614754565b6114b791906147c5565b9050600081836114c791906147f6565b9050428460000181905550600085600201548488600201546114e9919061482a565b6114f391906147f6565b90508660020154811161153b576040517f08c379a0000000000000000000000000000000000000000000000000000000008152600401611532906148aa565b60405180910390fd5b6000831161157e576040517f08c379a000000000000000000000000000000000000000000000000000000000815260040161157590614916565b60405180910390fd5b600b60019054906101000a900473ffffffffffffffffffffffffffffffffffffffff1673ffffffffffffffffffffffffffffffffffffffff166323b872dd3330846040518463ffffffff1660e01b81526004016115dd93929190614936565b6020604051808303816000875af11580156115fc573d6000803e3d6000fd5b505050506040513d601f19601f820116820180604052508101906116209190614439565b61165f576040517f08c379a0000000000000000000000000000000000000000000000000000000008152600401611656906149b9565b60405180910390fd5b6000828860020154611671919061482a565b9050600b60019054906101000a900473ffffffffffffffffffffffffffffffffffffffff1673ffffffffffffffffffffffffffffffffffffffff1663a9059cbb8960010160009054906101000a900473ffffffffffffffffffffffffffffffffffffffff16836040518363ffffffff1660e01b81526004016116f49291906143e4565b6020604051808303816000875af1158015611713573d6000803e3d6000fd5b505050506040513d601f19601f820116820180604052508101906117379190614439565b611776576040517f08c379a000000000000000000000000000000000000000000000000000000000815260040161176d90614a25565b60405180910390fd5b8187600201600082825461178a919061482a565b9250508190555060008760010160006101000a81548160ff02191690831515021790555060018760010160016101000a81548160ff02191690831515021790555060008760010160026101000a81548160ff0219169083151502179055506117f18961345f565b3373ffffffffffffffffffffffffffffffffffffffff16897f512d3e65b3e58c2187bb1872aa435dba5bd09c1c03823ba56ab70aac411e4a21846040516118389190613d67565b60405180910390a3887f04e1ead5246a36f9da4a7f8ba0922ebab097b2349377e0b60b228a5e9d8ee587856040516118709190613d67565b60405180910390a25050505050505050611888613113565b50565b61189361311d565b61189b6130cd565b6000806000838152602001908152602001600020905060006001600084815260200190815260200160002090508060010160009054906101000a900460ff161561191a576040517f08c379a000000000000000000000000000000000000000000000000000000000815260040161191190614a91565b60405180910390fd5b600073ffffffffffffffffffffffffffffffffffffffff168260010160009054906101000a900473ffffffffffffffffffffffffffffffffffffffff1673ffffffffffffffffffffffffffffffffffffffff16146119ad576040517f08c379a00000000000000000000000000000000000000000000000000000000081526004016119a490614afd565b60405180910390fd5b8160020154600b60019054906101000a900473ffffffffffffffffffffffffffffffffffffffff1673ffffffffffffffffffffffffffffffffffffffff1663dd62ed3e33306040518363ffffffff1660e01b8152600401611a0f929190614b1d565b602060405180830381865afa158015611a2c573d6000803e3d6000fd5b505050506040513d601f19601f82011682018060405250810190611a50919061434b565b1015611a91576040517f08c379a0000000000000000000000000000000000000000000000000000000008152600401611a8890614bb8565b60405180910390fd5b600b60019054906101000a900473ffffffffffffffffffffffffffffffffffffffff1673ffffffffffffffffffffffffffffffffffffffff166323b872dd333085600201546040518463ffffffff1660e01b8152600401611af493929190614936565b6020604051808303816000875af1158015611b13573d6000803e3d6000fd5b505050506040513d601f19601f82011682018060405250810190611b379190614439565b611b76576040517f08c379a0000000000000000000000000000000000000000000000000000000008152600401611b6d906149b9565b60405180910390fd5b338260010160006101000a81548173ffffffffffffffffffffffffffffffffffffffff021916908373ffffffffffffffffffffffffffffffffffffffff16021790555042816000018190555060018160010160006101000a81548160ff021916908315150217905550600b60019054906101000a900473ffffffffffffffffffffffffffffffffffffffff1673ffffffffffffffffffffffffffffffffffffffff1663a9059cbb8360000160009054906101000a900473ffffffffffffffffffffffffffffffffffffffff1684600201546040518363ffffffff1660e01b8152600401611c649291906143e4565b6020604051808303816000875af1158015611c83573d6000803e3d6000fd5b505050506040513d601f19601f82011682018060405250810190611ca79190614439565b611ce6576040517f08c379a0000000000000000000000000000000000000000000000000000000008152600401611cdd90614c24565b60405180910390fd5b600560003373ffffffffffffffffffffffffffffffffffffffff1673ffffffffffffffffffffffffffffffffffffffff168152602001908152602001600020839080600181540180825580915050600190039060005260206000200160009091909190915055600460008360000160009054906101000a900473ffffffffffffffffffffffffffffffffffffffff1673ffffffffffffffffffffffffffffffffffffffff1673ffffffffffffffffffffffffffffffffffffffff16815260200190815260200160002083908060018154018082558091505060019003906000526020600020016000909190919091505560098390806001815401808255809150506001900390600052602060002001600090919091909150553373ffffffffffffffffffffffffffffffffffffffff16837f15feab5d3eb17171632762cf769709a315dd15f487a556c0dfb8a259c8f186cc60405160405180910390a38160000160009054906101000a900473ffffffffffffffffffffffffffffffffffffffff1673ffffffffffffffffffffffffffffffffffffffff16837f0ceeb4503a2fe0b51298a0af21358f3d89e7eab3f65ae2a7835859c3e2c516048460020154604051611eb29190613d67565b60405180910390a35050611ec4613113565b50565b60606000600460008473ffffffffffffffffffffffffffffffffffffffff1673ffffffffffffffffffffffffffffffffffffffff168152602001908152602001600020805480602002602001604051908101604052809291908181526020018280548015611f5457602002820191906000526020600020905b815481526020019060010190808311611f40575b505050505090506000805b8251811015612017576000838281518110611f7d57611f7c614307565b5b602002602001015190506000600660008381526020019081526020016000206040518060a0016040529081600082015481526020016001820154815260200160028201548152602001600382015481526020016004820160009054906101000a900460ff161515151581525050905060008160000151111561200857838061200490614290565b9450505b50508080600101915050611f5f565b5060008167ffffffffffffffff811115612034576120336142d8565b5b60405190808252806020026020018201604052801561206d57816020015b61205a613a2a565b8152602001906001900390816120525790505b5090506000805b845181101561237d57600085828151811061209257612091614307565b5b602002602001015190506000600660008381526020019081526020016000206040518060a0016040529081600082015481526020016001820154815260200160028201548152602001600382015481526020016004820160009054906101000a900460ff16151515158152505090506000600160008481526020019081526020016000206040518060a0016040529081600082015481526020016001820160009054906101000a900460ff161515151581526020016001820160019054906101000a900460ff161515151581526020016001820160029054906101000a900460ff16151515158152602001600282015481525050905060008060008581526020019081526020016000206040518060e00160405290816000820160009054906101000a900473ffffffffffffffffffffffffffffffffffffffff1673ffffffffffffffffffffffffffffffffffffffff1673ffffffffffffffffffffffffffffffffffffffff1681526020016001820160009054906101000a900473ffffffffffffffffffffffffffffffffffffffff1673ffffffffffffffffffffffffffffffffffffffff1673ffffffffffffffffffffffffffffffffffffffff1681526020016002820154815260200160038201548152602001600482015481526020016005820160009054906101000a900460ff1660018111156122965761229561403f565b5b60018111156122a8576122a761403f565b5b8152602001600682015481525050905060008360000151111561236c57604051806101200160405280858152602001826000015173ffffffffffffffffffffffffffffffffffffffff16815260200184600001518152602001846020015181526020018460400151815260200184606001518152602001846080015115158152602001826060015181526020018360200151151581525087878151811061235257612351614307565b5b6020026020010181905250858061236890614290565b9650505b505050508080600101915050612074565b5081945050505050919050565b600d60009054906101000a900473ffffffffffffffffffffffffffffffffffffffff1681565b600d60009054906101000a900473ffffffffffffffffffffffffffffffffffffffff1673ffffffffffffffffffffffffffffffffffffffff163373ffffffffffffffffffffffffffffffffffffffff1614612440576040517f08c379a0000000000000000000000000000000000000000000000000000000008152600401612437906141d5565b60405180910390fd5b60008211612483576040517f08c379a000000000000000000000000000000000000000000000000000000000815260040161247a90614cb6565b60405180910390fd5b8181116124c5576040517f08c379a00000000000000000000000000000000000000000000000000000000081526004016124bc90614d48565b60405180910390fd5b81601181905550806012819055505050565b600080600c60009054906101000a900473ffffffffffffffffffffffffffffffffffffffff1673ffffffffffffffffffffffffffffffffffffffff1663feaf968c6040518163ffffffff1660e01b815260040160a060405180830381865afa158015612547573d6000803e3d6000fd5b505050506040513d601f19601f8201168201806040525081019061256b9190614de0565b505050915050600081136125b4576040517f08c379a00000000000000000000000000000000000000000000000000000000081526004016125ab90614ea7565b60405180910390fd5b8091505090565b60086020528060005260406000206000915090508060000160009054906101000a900473ffffffffffffffffffffffffffffffffffffffff16908060010154908060020160009054906101000a900460ff16905083565b61261a61311d565b6126226130cd565b60008060008481526020019081526020016000209050600060016000858152602001908152602001600020905060006002600086815260200190815260200160002090508160010160009054906101000a900460ff166126b7576040517f08c379a00000000000000000000000000000000000000000000000000000000081526004016126ae9061451e565b60405180910390fd5b8260000160009054906101000a900473ffffffffffffffffffffffffffffffffffffffff1673ffffffffffffffffffffffffffffffffffffffff163373ffffffffffffffffffffffffffffffffffffffff1614612749576040517f08c379a0000000000000000000000000000000000000000000000000000000008152600401612740906146c8565b60405180910390fd5b612752856132e0565b60008160010154905060008360020154828660020154612772919061482a565b61277c91906147f6565b9050808611156127c1576040517f08c379a00000000000000000000000000000000000000000000000000000000081526004016127b890614f13565b60405180910390fd5b600b60019054906101000a900473ffffffffffffffffffffffffffffffffffffffff1673ffffffffffffffffffffffffffffffffffffffff166323b872dd338760010160009054906101000a900473ffffffffffffffffffffffffffffffffffffffff16896040518463ffffffff1660e01b815260040161284493929190614936565b6020604051808303816000875af1158015612863573d6000803e3d6000fd5b505050506040513d601f19601f820116820180604052508101906128879190614439565b6128c6576040517f08c379a00000000000000000000000000000000000000000000000000000000081526004016128bd90614f7f565b60405180910390fd5b858460020160008282546128da919061482a565b92505081905550808460020154106129305760018460010160016101000a81548160ff02191690831515021790555060008460010160006101000a81548160ff02191690831515021790555061292f8761345f565b5b3373ffffffffffffffffffffffffffffffffffffffff16877fb7b6ae626e0094aba4b69388b656d4b64f27860c5101c42c10a2e53fd6b0ce35886040516129779190613d67565b60405180910390a3505050505061298c613113565b5050565b60016020528060005260406000206000915090508060000154908060010160009054906101000a900460ff16908060010160019054906101000a900460ff16908060010160029054906101000a900460ff16908060020154905085565b60026020528060005260406000206000915090508060000154908060010154905082565b60066020528060005260406000206000915090508060000154908060010154908060020154908060030154908060040160009054906101000a900460ff16905085565b600d60009054906101000a900473ffffffffffffffffffffffffffffffffffffffff1673ffffffffffffffffffffffffffffffffffffffff163373ffffffffffffffffffffffffffffffffffffffff1614612ae4576040517f08c379a0000000000000000000000000000000000000000000000000000000008152600401612adb906141d5565b60405180910390fd5b6064811015612b28576040517f08c379a0000000000000000000000000000000000000000000000000000000008152600401612b1f90614feb565b60405180910390fd5b80600f8190555050565b600e5481565b60115481565b600080600b60019054906101000a900473ffffffffffffffffffffffffffffffffffffffff1673ffffffffffffffffffffffffffffffffffffffff1663dd62ed3e33306040518363ffffffff1660e01b8152600401612b9e929190614b1d565b602060405180830381865afa158015612bbb573d6000803e3d6000fd5b505050506040513d601f19601f82011682018060405250810190612bdf919061434b565b90508091505090565b60046020528160005260406000208181548110612c0457600080fd5b90600052602060002001600091509150505481565b60006020528060005260406000206000915090508060000160009054906101000a900473ffffffffffffffffffffffffffffffffffffffff16908060010160009054906101000a900473ffffffffffffffffffffffffffffffffffffffff16908060020154908060030154908060040154908060050160009054906101000a900460ff16908060060154905087565b612cb061311d565b612cb86130cd565b6011548310158015612ccc57506012548311155b612d0b576040517f08c379a0000000000000000000000000000000000000000000000000000000008152600401612d0290615057565b60405180910390fd5b6000612d156124d7565b90506000612dc582600e54600c60009054906101000a900473ffffffffffffffffffffffffffffffffffffffff1673ffffffffffffffffffffffffffffffffffffffff1663313ce5676040518163ffffffff1660e01b8152600401602060405180830381865afa158015612d8d573d6000803e3d6000fd5b505050506040513d601f19601f82011682018060405250810190612db1919061464f565b60ff168861329a909392919063ffffffff16565b905080341015612e0a576040517f08c379a0000000000000000000000000000000000000000000000000000000008152600401612e01906150c3565b60405180910390fd5b60106000815480929190612e1d90614290565b9190505550600060066000601054815260200190815260200160002090508581600001819055508481600101819055508381600301819055508342612e62919061482a565b816002018190555060008160040160006101000a81548160ff0219169083151502179055506040518060e001604052803373ffffffffffffffffffffffffffffffffffffffff168152602001600073ffffffffffffffffffffffffffffffffffffffff16815260200187815260200134815260200186815260200160006001811115612ef157612ef061403f565b5b815260200185815250600080601054815260200190815260200160002060008201518160000160006101000a81548173ffffffffffffffffffffffffffffffffffffffff021916908373ffffffffffffffffffffffffffffffffffffffff16021790555060208201518160010160006101000a81548173ffffffffffffffffffffffffffffffffffffffff021916908373ffffffffffffffffffffffffffffffffffffffff16021790555060408201518160020155606082015181600301556080820151816004015560a08201518160050160006101000a81548160ff02191690836001811115612fe557612fe461403f565b5b021790555060c08201518160060155905050600460003373ffffffffffffffffffffffffffffffffffffffff1673ffffffffffffffffffffffffffffffffffffffff168152602001908152602001600020601054908060018154018082558091505060019003906000526020600020016000909190919091505561306a601054613568565b3373ffffffffffffffffffffffffffffffffffffffff166010547f68595dbe887ae7f496f2c88735019a8918919a1decfdee6bdb460480ab87decb88346040516130b5929190613fc3565b60405180910390a35050506130c8613113565b505050565b6002600a5403613109576040517f3ee5aeb500000000000000000000000000000000000000000000000000000000815260040160405180910390fd5b6002600a81905550565b6001600a81905550565b61312561101f565b1561315c576040517fd93c066500000000000000000000000000000000000000000000000000000000815260040160405180910390fd5b565b6000806000838152602001908152602001600020905080600301544710156131bb576040517f08c379a00000000000000000000000000000000000000000000000000000000081526004016131b29061512f565b60405180910390fd5b60008160010160009054906101000a900473ffffffffffffffffffffffffffffffffffffffff16905060008173ffffffffffffffffffffffffffffffffffffffff16836003015460405161320e90615180565b60006040518083038185875af1925050503d806000811461324b576040519150601f19603f3d011682016040523d82523d6000602084013e613250565b606091505b5050905080613294576040517f08c379a000000000000000000000000000000000000000000000000000000000815260040161328b906151e1565b60405180910390fd5b50505050565b600081600a6132a99190615334565b60646132b59190614754565b8385876132c29190614754565b6132cc9190614754565b6132d691906147c5565b9050949350505050565b60008060008381526020019081526020016000209050600060026000848152602001908152602001600020905060006001600085815260200190815260200160002090508060010160009054906101000a900460ff16613375576040517f08c379a000000000000000000000000000000000000000000000000000000000815260040161336c9061451e565b60405180910390fd5b60008083600001540361338e57836006015490506133a1565b82600001544261339e91906147f6565b90505b600081116133e4576040517f08c379a00000000000000000000000000000000000000000000000000000000081526004016133db906153f1565b60405180910390fd5b60006133f985600201548660040154846136aa565b90508084600101600082825461340f919061482a565b92505081905550428460000181905550857f3d8708181c6452c5711a2b4c6ed3f12149f6ea35f78549aba00a89d041e766ca8260405161344f9190613d67565b60405180910390a2505050505050565b600080600083815260200190815260200160002090506000816003015490506000811115613563576000826003018190555060008260000160009054906101000a900473ffffffffffffffffffffffffffffffffffffffff1673ffffffffffffffffffffffffffffffffffffffff16826040516134db90615180565b60006040518083038185875af1925050503d8060008114613518576040519150601f19603f3d011682016040523d82523d6000602084013e61351d565b606091505b5050905080613561576040517f08c379a0000000000000000000000000000000000000000000000000000000008152600401613558906151e1565b60405180910390fd5b505b505050565b60006006600083815260200190815260200160002090506000807fffffffffffffffffffffffffffffffffffffffffffffffffffffffffffffffff905060005b600980549050811015613663576000600982815481106135cb576135ca614307565b5b906000526020600020015490508460000154600760008373ffffffffffffffffffffffffffffffffffffffff1673ffffffffffffffffffffffffffffffffffffffff1681526020019081526020016000205410613655576000613632828760000154613818565b90508560010154811115801561364757508381105b15613653578194508093505b505b5080806001019150506135a8565b50600073ffffffffffffffffffffffffffffffffffffffff168273ffffffffffffffffffffffffffffffffffffffff16146136a4576136a3848383613914565b5b50505050565b60008084116136ee576040517f08c379a00000000000000000000000000000000000000000000000000000000081526004016136e59061545d565b60405180910390fd5b60008311613731576040517f08c379a0000000000000000000000000000000000000000000000000000000008152600401613728906154ef565b60405180910390fd5b60008211613774576040517f08c379a000000000000000000000000000000000000000000000000000000000815260040161376b90615581565b60405180910390fd5b600063bbf81e00670de0b6b3a76400008561378f9190614754565b61379991906147c5565b9050600081116137de576040517f08c379a00000000000000000000000000000000000000000000000000000000081526004016137d5906155ed565b60405180910390fd5b6000670de0b6b3a76400008483886137f69190614754565b6138009190614754565b61380a91906147c5565b905080925050509392505050565b600080600760008573ffffffffffffffffffffffffffffffffffffffff1673ffffffffffffffffffffffffffffffffffffffff168152602001908152602001600020549050828110156138a0576040517f08c379a000000000000000000000000000000000000000000000000000000000815260040161389790615659565b60405180910390fd5b6000816064856138b09190614754565b6138ba91906147c5565b90506000600290506000601490506000606483836138d891906147f6565b856138e39190614754565b6138ed91906147c5565b836138f8919061482a565b905081811115613906578190505b809550505050505092915050565b60008060008581526020019081526020016000209050828160010160006101000a81548173ffffffffffffffffffffffffffffffffffffffff021916908373ffffffffffffffffffffffffffffffffffffffff16021790555081816004018190555060016006600086815260200190815260200160002060040160006101000a81548160ff0219169083151502179055508060000160009054906101000a900473ffffffffffffffffffffffffffffffffffffffff1673ffffffffffffffffffffffffffffffffffffffff168373ffffffffffffffffffffffffffffffffffffffff16857f132aeb8d030dcc11adfc3ead0730a22aa3c0bf449b3532210c732b9a25e83c2060405160405180910390a450505050565b60405180610120016040528060008152602001600073ffffffffffffffffffffffffffffffffffffffff16815260200160008152602001600081526020016000815260200160008152602001600015158152602001600081526020016000151581525090565b600080fd5b6000819050919050565b613aa881613a95565b8114613ab357600080fd5b50565b600081359050613ac581613a9f565b92915050565b600060208284031215613ae157613ae0613a90565b5b6000613aef84828501613ab6565b91505092915050565b600081519050919050565b600082825260208201905092915050565b6000819050602082019050919050565b613b2d81613a95565b82525050565b600073ffffffffffffffffffffffffffffffffffffffff82169050919050565b6000613b5e82613b33565b9050919050565b613b6e81613b53565b82525050565b60008115159050919050565b613b8981613b74565b82525050565b61012082016000820151613ba66000850182613b24565b506020820151613bb96020850182613b65565b506040820151613bcc6040850182613b24565b506060820151613bdf6060850182613b24565b506080820151613bf26080850182613b24565b5060a0820151613c0560a0850182613b24565b5060c0820151613c1860c0850182613b80565b5060e0820151613c2b60e0850182613b24565b50610100820151613c40610100850182613b80565b50505050565b6000613c528383613b8f565b6101208301905092915050565b6000602082019050919050565b6000613c7782613af8565b613c818185613b03565b9350613c8c83613b14565b8060005b83811015613cbd578151613ca48882613c46565b9750613caf83613c5f565b925050600181019050613c90565b5085935050505092915050565b60006020820190508181036000830152613ce48184613c6c565b905092915050565b613cf581613b53565b8114613d0057600080fd5b50565b600081359050613d1281613cec565b92915050565b60008060408385031215613d2f57613d2e613a90565b5b6000613d3d85828601613ab6565b9250506020613d4e85828601613d03565b9150509250929050565b613d6181613a95565b82525050565b6000602082019050613d7c6000830184613d58565b92915050565b600060208284031215613d9857613d97613a90565b5b6000613da684828501613d03565b91505092915050565b60008060408385031215613dc657613dc5613a90565b5b6000613dd485828601613d03565b9250506020613de585828601613ab6565b9150509250929050565b6000819050919050565b6000613e14613e0f613e0a84613b33565b613def565b613b33565b9050919050565b6000613e2682613df9565b9050919050565b6000613e3882613e1b565b9050919050565b613e4881613e2d565b82525050565b6000602082019050613e636000830184613e3f565b92915050565b613e7281613b74565b82525050565b6000602082019050613e8d6000830184613e69565b92915050565b6000613e9e82613e1b565b9050919050565b613eae81613e93565b82525050565b6000602082019050613ec96000830184613ea5565b92915050565b613ed881613b53565b82525050565b6000602082019050613ef36000830184613ecf565b92915050565b60008060408385031215613f1057613f0f613a90565b5b6000613f1e85828601613ab6565b9250506020613f2f85828601613ab6565b9150509250929050565b6000606082019050613f4e6000830186613ecf565b613f5b6020830185613d58565b613f686040830184613e69565b949350505050565b600060a082019050613f856000830188613d58565b613f926020830187613e69565b613f9f6040830186613e69565b613fac6060830185613e69565b613fb96080830184613d58565b9695505050505050565b6000604082019050613fd86000830185613d58565b613fe56020830184613d58565b9392505050565b600060a0820190506140016000830188613d58565b61400e6020830187613d58565b61401b6040830186613d58565b6140286060830185613d58565b6140356080830184613e69565b9695505050505050565b7f4e487b7100000000000000000000000000000000000000000000000000000000600052602160045260246000fd5b6002811061407f5761407e61403f565b5b50565b60008190506140908261406e565b919050565b60006140a082614082565b9050919050565b6140b081614095565b82525050565b600060e0820190506140cb600083018a613ecf565b6140d86020830189613ecf565b6140e56040830188613d58565b6140f26060830187613d58565b6140ff6080830186613d58565b61410c60a08301856140a7565b61411960c0830184613d58565b98975050505050505050565b60008060006060848603121561413e5761413d613a90565b5b600061414c86828701613ab6565b935050602061415d86828701613ab6565b925050604061416e86828701613ab6565b9150509250925092565b600082825260208201905092915050565b7f4f6e6c79206f776e657200000000000000000000000000000000000000000000600082015250565b60006141bf600a83614178565b91506141ca82614189565b602082019050919050565b600060208201905081810360008301526141ee816141b2565b9050919050565b7f526174696f20746f6f206c6f7700000000000000000000000000000000000000600082015250565b600061422b600d83614178565b9150614236826141f5565b602082019050919050565b6000602082019050818103600083015261425a8161421e565b9050919050565b7f4e487b7100000000000000000000000000000000000000000000000000000000600052601160045260246000fd5b600061429b82613a95565b91507fffffffffffffffffffffffffffffffffffffffffffffffffffffffffffffffff82036142cd576142cc614261565b5b600182019050919050565b7f4e487b7100000000000000000000000000000000000000000000000000000000600052604160045260246000fd5b7f4e487b7100000000000000000000000000000000000000000000000000000000600052603260045260246000fd5b60008151905061434581613a9f565b92915050565b60006020828403121561436157614360613a90565b5b600061436f84828501614336565b91505092915050565b7f4e6f207265776172647320746f20776974686472617700000000000000000000600082015250565b60006143ae601683614178565b91506143b982614378565b602082019050919050565b600060208201905081810360008301526143dd816143a1565b9050919050565b60006040820190506143f96000830185613ecf565b6144066020830184613d58565b9392505050565b61441681613b74565b811461442157600080fd5b50565b6000815190506144338161440d565b92915050565b60006020828403121561444f5761444e613a90565b5b600061445d84828501614424565b91505092915050565b7f526577617264207769746864726177616c206661696c65640000000000000000600082015250565b600061449c601883614178565b91506144a782614466565b602082019050919050565b600060208201905081810360008301526144cb8161448f565b9050919050565b7f4c6f616e206e6f74206163746976650000000000000000000000000000000000600082015250565b6000614508600f83614178565b9150614513826144d2565b602082019050919050565b60006020820190508181036000830152614537816144fb565b9050919050565b7f4c6f616e206e6f74206f76657264756500000000000000000000000000000000600082015250565b6000614574601083614178565b915061457f8261453e565b602082019050919050565b600060208201905081810360008301526145a381614567565b9050919050565b7f4c6f616e20616c72656164792072657061696400000000000000000000000000600082015250565b60006145e0601383614178565b91506145eb826145aa565b602082019050919050565b6000602082019050818103600083015261460f816145d3565b9050919050565b600060ff82169050919050565b61462c81614616565b811461463757600080fd5b50565b60008151905061464981614623565b92915050565b60006020828403121561466557614664613a90565b5b60006146738482850161463a565b91505092915050565b7f4e6f7420626f72726f7765720000000000000000000000000000000000000000600082015250565b60006146b2600c83614178565b91506146bd8261467c565b602082019050919050565b600060208201905081810360008301526146e1816146a5565b9050919050565b7f6e6f20696e746572657374206163637275656421000000000000000000000000600082015250565b600061471e601483614178565b9150614729826146e8565b602082019050919050565b6000602082019050818103600083015261474d81614711565b9050919050565b600061475f82613a95565b915061476a83613a95565b925082820261477881613a95565b9150828204841483151761478f5761478e614261565b5b5092915050565b7f4e487b7100000000000000000000000000000000000000000000000000000000600052601260045260246000fd5b60006147d082613a95565b91506147db83613a95565b9250826147eb576147ea614796565b5b828204905092915050565b600061480182613a95565b915061480c83613a95565b925082820390508181111561482457614823614261565b5b92915050565b600061483582613a95565b915061484083613a95565b925082820190508082111561485857614857614261565b5b92915050565b7f496e746572657374206e6f742063616c63756c61746564000000000000000000600082015250565b6000614894601783614178565b915061489f8261485e565b602082019050919050565b600060208201905081810360008301526148c381614887565b9050919050565b7f4e6f207265776172642063616c63756c61746564000000000000000000000000600082015250565b6000614900601483614178565b915061490b826148ca565b602082019050919050565b6000602082019050818103600083015261492f816148f3565b9050919050565b600060608201905061494b6000830186613ecf565b6149586020830185613ecf565b6149656040830184613d58565b949350505050565b7f5472616e73666572206661696c65640000000000000000000000000000000000600082015250565b60006149a3600f83614178565b91506149ae8261496d565b602082019050919050565b600060208201905081810360008301526149d281614996565b9050919050565b7f5472616e7366657220746f206c656e646572206661696c656400000000000000600082015250565b6000614a0f601983614178565b9150614a1a826149d9565b602082019050919050565b60006020820190508181036000830152614a3e81614a02565b9050919050565b7f4c6f616e20616c72656164792061637469766500000000000000000000000000600082015250565b6000614a7b601383614178565b9150614a8682614a45565b602082019050919050565b60006020820190508181036000830152614aaa81614a6e565b9050919050565b7f4c6f616e20616c72656164792066756e64656400000000000000000000000000600082015250565b6000614ae7601383614178565b9150614af282614ab1565b602082019050919050565b60006020820190508181036000830152614b1681614ada565b9050919050565b6000604082019050614b326000830185613ecf565b614b3f6020830184613ecf565b9392505050565b7f496e73756666696369656e7420616c6c6f77616e636520666f7220746869732060008201527f7573657200000000000000000000000000000000000000000000000000000000602082015250565b6000614ba2602483614178565b9150614bad82614b46565b604082019050919050565b60006020820190508181036000830152614bd181614b95565b9050919050565b7f4c6f616e2064697362757273656d656e74206661696c65640000000000000000600082015250565b6000614c0e601883614178565b9150614c1982614bd8565b602082019050919050565b60006020820190508181036000830152614c3d81614c01565b9050919050565b7f4d696e696d756d206c6f616e20616d6f756e74206d757374206265206772656160008201527f746572207468616e203000000000000000000000000000000000000000000000602082015250565b6000614ca0602a83614178565b9150614cab82614c44565b604082019050919050565b60006020820190508181036000830152614ccf81614c93565b9050919050565b7f4d6178696d756d206c6f616e20616d6f756e74206d757374206265206772656160008201527f746572207468616e206d696e696d756d206c6f616e20616d6f756e7400000000602082015250565b6000614d32603c83614178565b9150614d3d82614cd6565b604082019050919050565b60006020820190508181036000830152614d6181614d25565b9050919050565b600069ffffffffffffffffffff82169050919050565b614d8781614d68565b8114614d9257600080fd5b50565b600081519050614da481614d7e565b92915050565b6000819050919050565b614dbd81614daa565b8114614dc857600080fd5b50565b600081519050614dda81614db4565b92915050565b600080600080600060a08688031215614dfc57614dfb613a90565b5b6000614e0a88828901614d95565b9550506020614e1b88828901614dcb565b9450506040614e2c88828901614336565b9350506060614e3d88828901614336565b9250506080614e4e88828901614d95565b9150509295509295909350565b7f496e76616c696420707269636500000000000000000000000000000000000000600082015250565b6000614e91600d83614178565b9150614e9c82614e5b565b602082019050919050565b60006020820190508181036000830152614ec081614e84565b9050919050565b7f52657061796d656e742065786365656473206f77656420616d6f756e74000000600082015250565b6000614efd601d83614178565b9150614f0882614ec7565b602082019050919050565b60006020820190508181036000830152614f2c81614ef0565b9050919050565b7f5061727469616c2072657061796d656e74206661696c65640000000000000000600082015250565b6000614f69601883614178565b9150614f7482614f33565b602082019050919050565b60006020820190508181036000830152614f9881614f5c565b9050919050565b7f5468726573686f6c6420746f6f206c6f77000000000000000000000000000000600082015250565b6000614fd5601183614178565b9150614fe082614f9f565b602082019050919050565b6000602082019050818103600083015261500481614fc8565b9050919050565b7f496e76616c6964206c6f616e20616d6f756e7400000000000000000000000000600082015250565b6000615041601383614178565b915061504c8261500b565b602082019050919050565b6000602082019050818103600083015261507081615034565b9050919050565b7f496e73756666696369656e7420636f6c6c61746572616c000000000000000000600082015250565b60006150ad601783614178565b91506150b882615077565b602082019050919050565b600060208201905081810360008301526150dc816150a0565b9050919050565b7f496e73756666696369656e7420636f6c6c61746572616c2062616c616e636500600082015250565b6000615119601f83614178565b9150615124826150e3565b602082019050919050565b600060208201905081810360008301526151488161510c565b9050919050565b600081905092915050565b50565b600061516a60008361514f565b91506151758261515a565b600082019050919050565b600061518b8261515d565b9150819050919050565b7f436f6c6c61746572616c207472616e73666572206661696c6564000000000000600082015250565b60006151cb601a83614178565b91506151d682615195565b602082019050919050565b600060208201905081810360008301526151fa816151be565b9050919050565b60008160011c9050919050565b6000808291508390505b60018511156152585780860481111561523457615233614261565b5b60018516156152435780820291505b808102905061525185615201565b9450615218565b94509492505050565b600082615271576001905061532d565b8161527f576000905061532d565b8160018114615295576002811461529f576152ce565b600191505061532d565b60ff8411156152b1576152b0614261565b5b8360020a9150848211156152c8576152c7614261565b5b5061532d565b5060208310610133831016604e8410600b84101617156153035782820a9050838111156152fe576152fd614261565b5b61532d565b615310848484600161520e565b9250905081840481111561532757615326614261565b5b81810290505b9392505050565b600061533f82613a95565b915061534a83613a95565b92506153777fffffffffffffffffffffffffffffffffffffffffffffffffffffffffffffffff8484615261565b905092915050565b7f4e6f2074696d6520656c617073656420666f7220696e7465726573742061636360008201527f7275616c00000000000000000000000000000000000000000000000000000000602082015250565b60006153db602483614178565b91506153e68261537f565b604082019050919050565b6000602082019050818103600083015261540a816153ce565b9050919050565b7f5072696e636970616c206d7573742062652067726561746572207468616e2030600082015250565b6000615447602083614178565b915061545282615411565b602082019050919050565b600060208201905081810360008301526154768161543a565b9050919050565b7f416e6e75616c2072617465206d7573742062652067726561746572207468616e60008201527f2030000000000000000000000000000000000000000000000000000000000000602082015250565b60006154d9602283614178565b91506154e48261547d565b604082019050919050565b60006020820190508181036000830152615508816154cc565b9050919050565b7f54696d6520656c6170736564206d75737420626520677265617465722074686160008201527f6e20300000000000000000000000000000000000000000000000000000000000602082015250565b600061556b602383614178565b91506155768261550f565b604082019050919050565b6000602082019050818103600083015261559a8161555e565b9050919050565b7f5261746520706572207365636f6e6420697320696e76616c6964000000000000600082015250565b60006155d7601a83614178565b91506155e2826155a1565b602082019050919050565b60006020820190508181036000830152615606816155ca565b9050919050565b7f496e73756666696369656e74206c656e6465722066756e647300000000000000600082015250565b6000615643601983614178565b915061564e8261560d565b602082019050919050565b6000602082019050818103600083015261567281615636565b905091905056fea2646970667358221220e43b54ff638b3d9f31d89a0d6e959edcfa6c2b49e8a656fead7c88c5eb2e061264736f6c63430008180033",
          "opcodes": "PUSH1 0x80 PUSH1 0x40 MSTORE PUSH1 0x78 PUSH1 0xE SSTORE PUSH1 0x6E PUSH1 0xF SSTORE PUSH8 0xDE0B6B3A7640000 PUSH1 0x11 SSTORE PUSH10 0x152D02C7E14AF6800000 PUSH1 0x12 SSTORE CALLVALUE DUP1 ISZERO PUSH3 0x35 JUMPI PUSH1 0x0 DUP1 REVERT JUMPDEST POP PUSH1 0x40 MLOAD PUSH3 0x5912 CODESIZE SUB DUP1 PUSH3 0x5912 DUP4 CODECOPY DUP2 DUP2 ADD PUSH1 0x40 MSTORE DUP2 ADD SWAP1 PUSH3 0x5B SWAP2 SWAP1 PUSH3 0x20C JUMP JUMPDEST PUSH1 0x1 PUSH1 0xA DUP2 SWAP1 SSTORE POP PUSH1 0x0 PUSH1 0xB PUSH1 0x0 PUSH2 0x100 EXP DUP2 SLOAD DUP2 PUSH1 0xFF MUL NOT AND SWAP1 DUP4 ISZERO ISZERO MUL OR SWAP1 SSTORE POP DUP2 PUSH1 0xB PUSH1 0x1 PUSH2 0x100 EXP DUP2 SLOAD DUP2 PUSH20 0xFFFFFFFFFFFFFFFFFFFFFFFFFFFFFFFFFFFFFFFF MUL NOT AND SWAP1 DUP4 PUSH20 0xFFFFFFFFFFFFFFFFFFFFFFFFFFFFFFFFFFFFFFFF AND MUL OR SWAP1 SSTORE POP DUP1 PUSH1 0xC PUSH1 0x0 PUSH2 0x100 EXP DUP2 SLOAD DUP2 PUSH20 0xFFFFFFFFFFFFFFFFFFFFFFFFFFFFFFFFFFFFFFFF MUL NOT AND SWAP1 DUP4 PUSH20 0xFFFFFFFFFFFFFFFFFFFFFFFFFFFFFFFFFFFFFFFF AND MUL OR SWAP1 SSTORE POP CALLER PUSH1 0xD PUSH1 0x0 PUSH2 0x100 EXP DUP2 SLOAD DUP2 PUSH20 0xFFFFFFFFFFFFFFFFFFFFFFFFFFFFFFFFFFFFFFFF MUL NOT AND SWAP1 DUP4 PUSH20 0xFFFFFFFFFFFFFFFFFFFFFFFFFFFFFFFFFFFFFFFF AND MUL OR SWAP1 SSTORE POP POP POP PUSH3 0x253 JUMP JUMPDEST PUSH1 0x0 DUP1 REVERT JUMPDEST PUSH1 0x0 PUSH20 0xFFFFFFFFFFFFFFFFFFFFFFFFFFFFFFFFFFFFFFFF DUP3 AND SWAP1 POP SWAP2 SWAP1 POP JUMP JUMPDEST PUSH1 0x0 PUSH3 0x17B DUP3 PUSH3 0x14E JUMP JUMPDEST SWAP1 POP SWAP2 SWAP1 POP JUMP JUMPDEST PUSH1 0x0 PUSH3 0x18F DUP3 PUSH3 0x16E JUMP JUMPDEST SWAP1 POP SWAP2 SWAP1 POP JUMP JUMPDEST PUSH3 0x1A1 DUP2 PUSH3 0x182 JUMP JUMPDEST DUP2 EQ PUSH3 0x1AD JUMPI PUSH1 0x0 DUP1 REVERT JUMPDEST POP JUMP JUMPDEST PUSH1 0x0 DUP2 MLOAD SWAP1 POP PUSH3 0x1C1 DUP2 PUSH3 0x196 JUMP JUMPDEST SWAP3 SWAP2 POP POP JUMP JUMPDEST PUSH1 0x0 PUSH3 0x1D4 DUP3 PUSH3 0x16E JUMP JUMPDEST SWAP1 POP SWAP2 SWAP1 POP JUMP JUMPDEST PUSH3 0x1E6 DUP2 PUSH3 0x1C7 JUMP JUMPDEST DUP2 EQ PUSH3 0x1F2 JUMPI PUSH1 0x0 DUP1 REVERT JUMPDEST POP JUMP JUMPDEST PUSH1 0x0 DUP2 MLOAD SWAP1 POP PUSH3 0x206 DUP2 PUSH3 0x1DB JUMP JUMPDEST SWAP3 SWAP2 POP POP JUMP JUMPDEST PUSH1 0x0 DUP1 PUSH1 0x40 DUP4 DUP6 SUB SLT ISZERO PUSH3 0x226 JUMPI PUSH3 0x225 PUSH3 0x149 JUMP JUMPDEST JUMPDEST PUSH1 0x0 PUSH3 0x236 DUP6 DUP3 DUP7 ADD PUSH3 0x1B0 JUMP JUMPDEST SWAP3 POP POP PUSH1 0x20 PUSH3 0x249 DUP6 DUP3 DUP7 ADD PUSH3 0x1F5 JUMP JUMPDEST SWAP2 POP POP SWAP3 POP SWAP3 SWAP1 POP JUMP JUMPDEST PUSH2 0x56AF DUP1 PUSH3 0x263 PUSH1 0x0 CODECOPY PUSH1 0x0 RETURN INVALID PUSH1 0x80 PUSH1 0x40 MSTORE PUSH1 0x4 CALLDATASIZE LT PUSH2 0x1E3 JUMPI PUSH1 0x0 CALLDATALOAD PUSH1 0xE0 SHR DUP1 PUSH4 0x88AE545C GT PUSH2 0x102 JUMPI DUP1 PUSH4 0xD1B332F4 GT PUSH2 0x95 JUMPI DUP1 PUSH4 0xE16FFCDC GT PUSH2 0x64 JUMPI DUP1 PUSH4 0xE16FFCDC EQ PUSH2 0x739 JUMPI DUP1 PUSH4 0xE3ED1902 EQ PUSH2 0x764 JUMPI DUP1 PUSH4 0xE91349D7 EQ PUSH2 0x7A1 JUMPI DUP1 PUSH4 0xEDADBBFE EQ PUSH2 0x7E4 JUMPI PUSH2 0x1E3 JUMP JUMPDEST DUP1 PUSH4 0xD1B332F4 EQ PUSH2 0x679 JUMPI DUP1 PUSH4 0xD3B5BE1A EQ PUSH2 0x6BA JUMPI DUP1 PUSH4 0xDCAF9C44 EQ PUSH2 0x6E3 JUMPI DUP1 PUSH4 0xE06A9138 EQ PUSH2 0x70E JUMPI PUSH2 0x1E3 JUMP JUMPDEST DUP1 PUSH4 0xAAEA7009 GT PUSH2 0xD1 JUMPI DUP1 PUSH4 0xAAEA7009 EQ PUSH2 0x592 JUMPI DUP1 PUSH4 0xB29504E9 EQ PUSH2 0x5D1 JUMPI DUP1 PUSH4 0xB4580A66 EQ PUSH2 0x5FA JUMPI DUP1 PUSH4 0xCC826646 EQ PUSH2 0x63B JUMPI PUSH2 0x1E3 JUMP JUMPDEST DUP1 PUSH4 0x88AE545C EQ PUSH2 0x4D6 JUMPI DUP1 PUSH4 0x8DA5CB5B EQ PUSH2 0x513 JUMPI DUP1 PUSH4 0x97A146C0 EQ PUSH2 0x53E JUMPI DUP1 PUSH4 0xA607A8D9 EQ PUSH2 0x567 JUMPI PUSH2 0x1E3 JUMP JUMPDEST DUP1 PUSH4 0x57970E93 GT PUSH2 0x17A JUMPI DUP1 PUSH4 0x72F94365 GT PUSH2 0x149 JUMPI DUP1 PUSH4 0x72F94365 EQ PUSH2 0x42E JUMPI DUP1 PUSH4 0x741BEF1A EQ PUSH2 0x459 JUMPI DUP1 PUSH4 0x7C6FE270 EQ PUSH2 0x484 JUMPI DUP1 PUSH4 0x846B909A EQ PUSH2 0x4AD JUMPI PUSH2 0x1E3 JUMP JUMPDEST DUP1 PUSH4 0x57970E93 EQ PUSH2 0x372 JUMPI DUP1 PUSH4 0x5C975ABB EQ PUSH2 0x39D JUMPI DUP1 PUSH4 0x61851D65 EQ PUSH2 0x3C8 JUMPI DUP1 PUSH4 0x69549FDC EQ PUSH2 0x3F1 JUMPI PUSH2 0x1E3 JUMP JUMPDEST DUP1 PUSH4 0x34D9289E GT PUSH2 0x1B6 JUMPI DUP1 PUSH4 0x34D9289E EQ PUSH2 0x2B6 JUMPI DUP1 PUSH4 0x3CDB72F1 EQ PUSH2 0x2E1 JUMPI DUP1 PUSH4 0x4031234C EQ PUSH2 0x31E JUMPI DUP1 PUSH4 0x42D86693 EQ PUSH2 0x349 JUMPI PUSH2 0x1E3 JUMP JUMPDEST DUP1 PUSH4 0x607EC70 EQ PUSH2 0x1E8 JUMPI DUP1 PUSH4 0xC9BABC3 EQ PUSH2 0x211 JUMPI DUP1 PUSH4 0x17D960E0 EQ PUSH2 0x23C JUMPI DUP1 PUSH4 0x197428BF EQ PUSH2 0x279 JUMPI JUMPDEST PUSH1 0x0 DUP1 REVERT JUMPDEST CALLVALUE DUP1 ISZERO PUSH2 0x1F4 JUMPI PUSH1 0x0 DUP1 REVERT JUMPDEST POP PUSH2 0x20F PUSH1 0x4 DUP1 CALLDATASIZE SUB DUP2 ADD SWAP1 PUSH2 0x20A SWAP2 SWAP1 PUSH2 0x3ACB JUMP JUMPDEST PUSH2 0x800 JUMP JUMPDEST STOP JUMPDEST CALLVALUE DUP1 ISZERO PUSH2 0x21D JUMPI PUSH1 0x0 DUP1 REVERT JUMPDEST POP PUSH2 0x226 PUSH2 0x8DE JUMP JUMPDEST PUSH1 0x40 MLOAD PUSH2 0x233 SWAP2 SWAP1 PUSH2 0x3CCA JUMP JUMPDEST PUSH1 0x40 MLOAD DUP1 SWAP2 SUB SWAP1 RETURN JUMPDEST CALLVALUE DUP1 ISZERO PUSH2 0x248 JUMPI PUSH1 0x0 DUP1 REVERT JUMPDEST POP PUSH2 0x263 PUSH1 0x4 DUP1 CALLDATASIZE SUB DUP2 ADD SWAP1 PUSH2 0x25E SWAP2 SWAP1 PUSH2 0x3D18 JUMP JUMPDEST PUSH2 0xCE0 JUMP JUMPDEST PUSH1 0x40 MLOAD PUSH2 0x270 SWAP2 SWAP1 PUSH2 0x3D67 JUMP JUMPDEST PUSH1 0x40 MLOAD DUP1 SWAP2 SUB SWAP1 RETURN JUMPDEST CALLVALUE DUP1 ISZERO PUSH2 0x285 JUMPI PUSH1 0x0 DUP1 REVERT JUMPDEST POP PUSH2 0x2A0 PUSH1 0x4 DUP1 CALLDATASIZE SUB DUP2 ADD SWAP1 PUSH2 0x29B SWAP2 SWAP1 PUSH2 0x3D82 JUMP JUMPDEST PUSH2 0xD05 JUMP JUMPDEST PUSH1 0x40 MLOAD PUSH2 0x2AD SWAP2 SWAP1 PUSH2 0x3D67 JUMP JUMPDEST PUSH1 0x40 MLOAD DUP1 SWAP2 SUB SWAP1 RETURN JUMPDEST CALLVALUE DUP1 ISZERO PUSH2 0x2C2 JUMPI PUSH1 0x0 DUP1 REVERT JUMPDEST POP PUSH2 0x2CB PUSH2 0xD1D JUMP JUMPDEST PUSH1 0x40 MLOAD PUSH2 0x2D8 SWAP2 SWAP1 PUSH2 0x3D67 JUMP JUMPDEST PUSH1 0x40 MLOAD DUP1 SWAP2 SUB SWAP1 RETURN JUMPDEST CALLVALUE DUP1 ISZERO PUSH2 0x2ED JUMPI PUSH1 0x0 DUP1 REVERT JUMPDEST POP PUSH2 0x308 PUSH1 0x4 DUP1 CALLDATASIZE SUB DUP2 ADD SWAP1 PUSH2 0x303 SWAP2 SWAP1 PUSH2 0x3DAF JUMP JUMPDEST PUSH2 0xD23 JUMP JUMPDEST PUSH1 0x40 MLOAD PUSH2 0x315 SWAP2 SWAP1 PUSH2 0x3D67 JUMP JUMPDEST PUSH1 0x40 MLOAD DUP1 SWAP2 SUB SWAP1 RETURN JUMPDEST CALLVALUE DUP1 ISZERO PUSH2 0x32A JUMPI PUSH1 0x0 DUP1 REVERT JUMPDEST POP PUSH2 0x333 PUSH2 0xD54 JUMP JUMPDEST PUSH1 0x40 MLOAD PUSH2 0x340 SWAP2 SWAP1 PUSH2 0x3D67 JUMP JUMPDEST PUSH1 0x40 MLOAD DUP1 SWAP2 SUB SWAP1 RETURN JUMPDEST CALLVALUE DUP1 ISZERO PUSH2 0x355 JUMPI PUSH1 0x0 DUP1 REVERT JUMPDEST POP PUSH2 0x370 PUSH1 0x4 DUP1 CALLDATASIZE SUB DUP2 ADD SWAP1 PUSH2 0x36B SWAP2 SWAP1 PUSH2 0x3D82 JUMP JUMPDEST PUSH2 0xD5A JUMP JUMPDEST STOP JUMPDEST CALLVALUE DUP1 ISZERO PUSH2 0x37E JUMPI PUSH1 0x0 DUP1 REVERT JUMPDEST POP PUSH2 0x387 PUSH2 0xFF9 JUMP JUMPDEST PUSH1 0x40 MLOAD PUSH2 0x394 SWAP2 SWAP1 PUSH2 0x3E4E JUMP JUMPDEST PUSH1 0x40 MLOAD DUP1 SWAP2 SUB SWAP1 RETURN JUMPDEST CALLVALUE DUP1 ISZERO PUSH2 0x3A9 JUMPI PUSH1 0x0 DUP1 REVERT JUMPDEST POP PUSH2 0x3B2 PUSH2 0x101F JUMP JUMPDEST PUSH1 0x40 MLOAD PUSH2 0x3BF SWAP2 SWAP1 PUSH2 0x3E78 JUMP JUMPDEST PUSH1 0x40 MLOAD DUP1 SWAP2 SUB SWAP1 RETURN JUMPDEST CALLVALUE DUP1 ISZERO PUSH2 0x3D4 JUMPI PUSH1 0x0 DUP1 REVERT JUMPDEST POP PUSH2 0x3EF PUSH1 0x4 DUP1 CALLDATASIZE SUB DUP2 ADD SWAP1 PUSH2 0x3EA SWAP2 SWAP1 PUSH2 0x3ACB JUMP JUMPDEST PUSH2 0x1036 JUMP JUMPDEST STOP JUMPDEST CALLVALUE DUP1 ISZERO PUSH2 0x3FD JUMPI PUSH1 0x0 DUP1 REVERT JUMPDEST POP PUSH2 0x418 PUSH1 0x4 DUP1 CALLDATASIZE SUB DUP2 ADD SWAP1 PUSH2 0x413 SWAP2 SWAP1 PUSH2 0x3ACB JUMP JUMPDEST PUSH2 0x1223 JUMP JUMPDEST PUSH1 0x40 MLOAD PUSH2 0x425 SWAP2 SWAP1 PUSH2 0x3D67 JUMP JUMPDEST PUSH1 0x40 MLOAD DUP1 SWAP2 SUB SWAP1 RETURN JUMPDEST CALLVALUE DUP1 ISZERO PUSH2 0x43A JUMPI PUSH1 0x0 DUP1 REVERT JUMPDEST POP PUSH2 0x443 PUSH2 0x12E4 JUMP JUMPDEST PUSH1 0x40 MLOAD PUSH2 0x450 SWAP2 SWAP1 PUSH2 0x3D67 JUMP JUMPDEST PUSH1 0x40 MLOAD DUP1 SWAP2 SUB SWAP1 RETURN JUMPDEST CALLVALUE DUP1 ISZERO PUSH2 0x465 JUMPI PUSH1 0x0 DUP1 REVERT JUMPDEST POP PUSH2 0x46E PUSH2 0x12EA JUMP JUMPDEST PUSH1 0x40 MLOAD PUSH2 0x47B SWAP2 SWAP1 PUSH2 0x3EB4 JUMP JUMPDEST PUSH1 0x40 MLOAD DUP1 SWAP2 SUB SWAP1 RETURN JUMPDEST CALLVALUE DUP1 ISZERO PUSH2 0x490 JUMPI PUSH1 0x0 DUP1 REVERT JUMPDEST POP PUSH2 0x4AB PUSH1 0x4 DUP1 CALLDATASIZE SUB DUP2 ADD SWAP1 PUSH2 0x4A6 SWAP2 SWAP1 PUSH2 0x3ACB JUMP JUMPDEST PUSH2 0x1310 JUMP JUMPDEST STOP JUMPDEST CALLVALUE DUP1 ISZERO PUSH2 0x4B9 JUMPI PUSH1 0x0 DUP1 REVERT JUMPDEST POP PUSH2 0x4D4 PUSH1 0x4 DUP1 CALLDATASIZE SUB DUP2 ADD SWAP1 PUSH2 0x4CF SWAP2 SWAP1 PUSH2 0x3ACB JUMP JUMPDEST PUSH2 0x188B JUMP JUMPDEST STOP JUMPDEST CALLVALUE DUP1 ISZERO PUSH2 0x4E2 JUMPI PUSH1 0x0 DUP1 REVERT JUMPDEST POP PUSH2 0x4FD PUSH1 0x4 DUP1 CALLDATASIZE SUB DUP2 ADD SWAP1 PUSH2 0x4F8 SWAP2 SWAP1 PUSH2 0x3D82 JUMP JUMPDEST PUSH2 0x1EC7 JUMP JUMPDEST PUSH1 0x40 MLOAD PUSH2 0x50A SWAP2 SWAP1 PUSH2 0x3CCA JUMP JUMPDEST PUSH1 0x40 MLOAD DUP1 SWAP2 SUB SWAP1 RETURN JUMPDEST CALLVALUE DUP1 ISZERO PUSH2 0x51F JUMPI PUSH1 0x0 DUP1 REVERT JUMPDEST POP PUSH2 0x528 PUSH2 0x238A JUMP JUMPDEST PUSH1 0x40 MLOAD PUSH2 0x535 SWAP2 SWAP1 PUSH2 0x3EDE JUMP JUMPDEST PUSH1 0x40 MLOAD DUP1 SWAP2 SUB SWAP1 RETURN JUMPDEST CALLVALUE DUP1 ISZERO PUSH2 0x54A JUMPI PUSH1 0x0 DUP1 REVERT JUMPDEST POP PUSH2 0x565 PUSH1 0x4 DUP1 CALLDATASIZE SUB DUP2 ADD SWAP1 PUSH2 0x560 SWAP2 SWAP1 PUSH2 0x3EF9 JUMP JUMPDEST PUSH2 0x23B0 JUMP JUMPDEST STOP JUMPDEST CALLVALUE DUP1 ISZERO PUSH2 0x573 JUMPI PUSH1 0x0 DUP1 REVERT JUMPDEST POP PUSH2 0x57C PUSH2 0x24D7 JUMP JUMPDEST PUSH1 0x40 MLOAD PUSH2 0x589 SWAP2 SWAP1 PUSH2 0x3D67 JUMP JUMPDEST PUSH1 0x40 MLOAD DUP1 SWAP2 SUB SWAP1 RETURN JUMPDEST CALLVALUE DUP1 ISZERO PUSH2 0x59E JUMPI PUSH1 0x0 DUP1 REVERT JUMPDEST POP PUSH2 0x5B9 PUSH1 0x4 DUP1 CALLDATASIZE SUB DUP2 ADD SWAP1 PUSH2 0x5B4 SWAP2 SWAP1 PUSH2 0x3D82 JUMP JUMPDEST PUSH2 0x25BB JUMP JUMPDEST PUSH1 0x40 MLOAD PUSH2 0x5C8 SWAP4 SWAP3 SWAP2 SWAP1 PUSH2 0x3F39 JUMP JUMPDEST PUSH1 0x40 MLOAD DUP1 SWAP2 SUB SWAP1 RETURN JUMPDEST CALLVALUE DUP1 ISZERO PUSH2 0x5DD JUMPI PUSH1 0x0 DUP1 REVERT JUMPDEST POP PUSH2 0x5F8 PUSH1 0x4 DUP1 CALLDATASIZE SUB DUP2 ADD SWAP1 PUSH2 0x5F3 SWAP2 SWAP1 PUSH2 0x3EF9 JUMP JUMPDEST PUSH2 0x2612 JUMP JUMPDEST STOP JUMPDEST CALLVALUE DUP1 ISZERO PUSH2 0x606 JUMPI PUSH1 0x0 DUP1 REVERT JUMPDEST POP PUSH2 0x621 PUSH1 0x4 DUP1 CALLDATASIZE SUB DUP2 ADD SWAP1 PUSH2 0x61C SWAP2 SWAP1 PUSH2 0x3ACB JUMP JUMPDEST PUSH2 0x2990 JUMP JUMPDEST PUSH1 0x40 MLOAD PUSH2 0x632 SWAP6 SWAP5 SWAP4 SWAP3 SWAP2 SWAP1 PUSH2 0x3F70 JUMP JUMPDEST PUSH1 0x40 MLOAD DUP1 SWAP2 SUB SWAP1 RETURN JUMPDEST CALLVALUE DUP1 ISZERO PUSH2 0x647 JUMPI PUSH1 0x0 DUP1 REVERT JUMPDEST POP PUSH2 0x662 PUSH1 0x4 DUP1 CALLDATASIZE SUB DUP2 ADD SWAP1 PUSH2 0x65D SWAP2 SWAP1 PUSH2 0x3ACB JUMP JUMPDEST PUSH2 0x29ED JUMP JUMPDEST PUSH1 0x40 MLOAD PUSH2 0x670 SWAP3 SWAP2 SWAP1 PUSH2 0x3FC3 JUMP JUMPDEST PUSH1 0x40 MLOAD DUP1 SWAP2 SUB SWAP1 RETURN JUMPDEST CALLVALUE DUP1 ISZERO PUSH2 0x685 JUMPI PUSH1 0x0 DUP1 REVERT JUMPDEST POP PUSH2 0x6A0 PUSH1 0x4 DUP1 CALLDATASIZE SUB DUP2 ADD SWAP1 PUSH2 0x69B SWAP2 SWAP1 PUSH2 0x3ACB JUMP JUMPDEST PUSH2 0x2A11 JUMP JUMPDEST PUSH1 0x40 MLOAD PUSH2 0x6B1 SWAP6 SWAP5 SWAP4 SWAP3 SWAP2 SWAP1 PUSH2 0x3FEC JUMP JUMPDEST PUSH1 0x40 MLOAD DUP1 SWAP2 SUB SWAP1 RETURN JUMPDEST CALLVALUE DUP1 ISZERO PUSH2 0x6C6 JUMPI PUSH1 0x0 DUP1 REVERT JUMPDEST POP PUSH2 0x6E1 PUSH1 0x4 DUP1 CALLDATASIZE SUB DUP2 ADD SWAP1 PUSH2 0x6DC SWAP2 SWAP1 PUSH2 0x3ACB JUMP JUMPDEST PUSH2 0x2A54 JUMP JUMPDEST STOP JUMPDEST CALLVALUE DUP1 ISZERO PUSH2 0x6EF JUMPI PUSH1 0x0 DUP1 REVERT JUMPDEST POP PUSH2 0x6F8 PUSH2 0x2B32 JUMP JUMPDEST PUSH1 0x40 MLOAD PUSH2 0x705 SWAP2 SWAP1 PUSH2 0x3D67 JUMP JUMPDEST PUSH1 0x40 MLOAD DUP1 SWAP2 SUB SWAP1 RETURN JUMPDEST CALLVALUE DUP1 ISZERO PUSH2 0x71A JUMPI PUSH1 0x0 DUP1 REVERT JUMPDEST POP PUSH2 0x723 PUSH2 0x2B38 JUMP JUMPDEST PUSH1 0x40 MLOAD PUSH2 0x730 SWAP2 SWAP1 PUSH2 0x3D67 JUMP JUMPDEST PUSH1 0x40 MLOAD DUP1 SWAP2 SUB SWAP1 RETURN JUMPDEST CALLVALUE DUP1 ISZERO PUSH2 0x745 JUMPI PUSH1 0x0 DUP1 REVERT JUMPDEST POP PUSH2 0x74E PUSH2 0x2B3E JUMP JUMPDEST PUSH1 0x40 MLOAD PUSH2 0x75B SWAP2 SWAP1 PUSH2 0x3D67 JUMP JUMPDEST PUSH1 0x40 MLOAD DUP1 SWAP2 SUB SWAP1 RETURN JUMPDEST CALLVALUE DUP1 ISZERO PUSH2 0x770 JUMPI PUSH1 0x0 DUP1 REVERT JUMPDEST POP PUSH2 0x78B PUSH1 0x4 DUP1 CALLDATASIZE SUB DUP2 ADD SWAP1 PUSH2 0x786 SWAP2 SWAP1 PUSH2 0x3DAF JUMP JUMPDEST PUSH2 0x2BE8 JUMP JUMPDEST PUSH1 0x40 MLOAD PUSH2 0x798 SWAP2 SWAP1 PUSH2 0x3D67 JUMP JUMPDEST PUSH1 0x40 MLOAD DUP1 SWAP2 SUB SWAP1 RETURN JUMPDEST CALLVALUE DUP1 ISZERO PUSH2 0x7AD JUMPI PUSH1 0x0 DUP1 REVERT JUMPDEST POP PUSH2 0x7C8 PUSH1 0x4 DUP1 CALLDATASIZE SUB DUP2 ADD SWAP1 PUSH2 0x7C3 SWAP2 SWAP1 PUSH2 0x3ACB JUMP JUMPDEST PUSH2 0x2C19 JUMP JUMPDEST PUSH1 0x40 MLOAD PUSH2 0x7DB SWAP8 SWAP7 SWAP6 SWAP5 SWAP4 SWAP3 SWAP2 SWAP1 PUSH2 0x40B6 JUMP JUMPDEST PUSH1 0x40 MLOAD DUP1 SWAP2 SUB SWAP1 RETURN JUMPDEST PUSH2 0x7FE PUSH1 0x4 DUP1 CALLDATASIZE SUB DUP2 ADD SWAP1 PUSH2 0x7F9 SWAP2 SWAP1 PUSH2 0x4125 JUMP JUMPDEST PUSH2 0x2CA8 JUMP JUMPDEST STOP JUMPDEST PUSH1 0xD PUSH1 0x0 SWAP1 SLOAD SWAP1 PUSH2 0x100 EXP SWAP1 DIV PUSH20 0xFFFFFFFFFFFFFFFFFFFFFFFFFFFFFFFFFFFFFFFF AND PUSH20 0xFFFFFFFFFFFFFFFFFFFFFFFFFFFFFFFFFFFFFFFF AND CALLER PUSH20 0xFFFFFFFFFFFFFFFFFFFFFFFFFFFFFFFFFFFFFFFF AND EQ PUSH2 0x890 JUMPI PUSH1 0x40 MLOAD PUSH32 0x8C379A000000000000000000000000000000000000000000000000000000000 DUP2 MSTORE PUSH1 0x4 ADD PUSH2 0x887 SWAP1 PUSH2 0x41D5 JUMP JUMPDEST PUSH1 0x40 MLOAD DUP1 SWAP2 SUB SWAP1 REVERT JUMPDEST PUSH1 0x64 DUP2 LT ISZERO PUSH2 0x8D4 JUMPI PUSH1 0x40 MLOAD PUSH32 0x8C379A000000000000000000000000000000000000000000000000000000000 DUP2 MSTORE PUSH1 0x4 ADD PUSH2 0x8CB SWAP1 PUSH2 0x4241 JUMP JUMPDEST PUSH1 0x40 MLOAD DUP1 SWAP2 SUB SWAP1 REVERT JUMPDEST DUP1 PUSH1 0xE DUP2 SWAP1 SSTORE POP POP JUMP JUMPDEST PUSH1 0x60 PUSH1 0x0 DUP1 PUSH1 0x1 SWAP1 POP JUMPDEST PUSH1 0x10 SLOAD DUP2 GT PUSH2 0x986 JUMPI PUSH1 0x0 PUSH1 0x6 PUSH1 0x0 DUP4 DUP2 MSTORE PUSH1 0x20 ADD SWAP1 DUP2 MSTORE PUSH1 0x20 ADD PUSH1 0x0 KECCAK256 PUSH1 0x40 MLOAD DUP1 PUSH1 0xA0 ADD PUSH1 0x40 MSTORE SWAP1 DUP2 PUSH1 0x0 DUP3 ADD SLOAD DUP2 MSTORE PUSH1 0x20 ADD PUSH1 0x1 DUP3 ADD SLOAD DUP2 MSTORE PUSH1 0x20 ADD PUSH1 0x2 DUP3 ADD SLOAD DUP2 MSTORE PUSH1 0x20 ADD PUSH1 0x3 DUP3 ADD SLOAD DUP2 MSTORE PUSH1 0x20 ADD PUSH1 0x4 DUP3 ADD PUSH1 0x0 SWAP1 SLOAD SWAP1 PUSH2 0x100 EXP SWAP1 DIV PUSH1 0xFF AND ISZERO ISZERO ISZERO ISZERO DUP2 MSTORE POP POP SWAP1 POP PUSH1 0x0 DUP2 PUSH1 0x0 ADD MLOAD GT ISZERO PUSH2 0x972 JUMPI DUP3 DUP1 PUSH2 0x96E SWAP1 PUSH2 0x4290 JUMP JUMPDEST SWAP4 POP POP JUMPDEST POP DUP1 DUP1 PUSH2 0x97E SWAP1 PUSH2 0x4290 JUMP JUMPDEST SWAP2 POP POP PUSH2 0x8E8 JUMP JUMPDEST POP PUSH1 0x0 DUP2 PUSH8 0xFFFFFFFFFFFFFFFF DUP2 GT ISZERO PUSH2 0x9A3 JUMPI PUSH2 0x9A2 PUSH2 0x42D8 JUMP JUMPDEST JUMPDEST PUSH1 0x40 MLOAD SWAP1 DUP1 DUP3 MSTORE DUP1 PUSH1 0x20 MUL PUSH1 0x20 ADD DUP3 ADD PUSH1 0x40 MSTORE DUP1 ISZERO PUSH2 0x9DC JUMPI DUP2 PUSH1 0x20 ADD JUMPDEST PUSH2 0x9C9 PUSH2 0x3A2A JUMP JUMPDEST DUP2 MSTORE PUSH1 0x20 ADD SWAP1 PUSH1 0x1 SWAP1 SUB SWAP1 DUP2 PUSH2 0x9C1 JUMPI SWAP1 POP JUMPDEST POP SWAP1 POP PUSH1 0x0 DUP1 PUSH1 0x1 SWAP1 POP JUMPDEST PUSH1 0x10 SLOAD DUP2 GT PUSH2 0xCD6 JUMPI PUSH1 0x0 PUSH1 0x6 PUSH1 0x0 DUP4 DUP2 MSTORE PUSH1 0x20 ADD SWAP1 DUP2 MSTORE PUSH1 0x20 ADD PUSH1 0x0 KECCAK256 PUSH1 0x40 MLOAD DUP1 PUSH1 0xA0 ADD PUSH1 0x40 MSTORE SWAP1 DUP2 PUSH1 0x0 DUP3 ADD SLOAD DUP2 MSTORE PUSH1 0x20 ADD PUSH1 0x1 DUP3 ADD SLOAD DUP2 MSTORE PUSH1 0x20 ADD PUSH1 0x2 DUP3 ADD SLOAD DUP2 MSTORE PUSH1 0x20 ADD PUSH1 0x3 DUP3 ADD SLOAD DUP2 MSTORE PUSH1 0x20 ADD PUSH1 0x4 DUP3 ADD PUSH1 0x0 SWAP1 SLOAD SWAP1 PUSH2 0x100 EXP SWAP1 DIV PUSH1 0xFF AND ISZERO ISZERO ISZERO ISZERO DUP2 MSTORE POP POP SWAP1 POP PUSH1 0x0 PUSH1 0x1 PUSH1 0x0 DUP5 DUP2 MSTORE PUSH1 0x20 ADD SWAP1 DUP2 MSTORE PUSH1 0x20 ADD PUSH1 0x0 KECCAK256 PUSH1 0x40 MLOAD DUP1 PUSH1 0xA0 ADD PUSH1 0x40 MSTORE SWAP1 DUP2 PUSH1 0x0 DUP3 ADD SLOAD DUP2 MSTORE PUSH1 0x20 ADD PUSH1 0x1 DUP3 ADD PUSH1 0x0 SWAP1 SLOAD SWAP1 PUSH2 0x100 EXP SWAP1 DIV PUSH1 0xFF AND ISZERO ISZERO ISZERO ISZERO DUP2 MSTORE PUSH1 0x20 ADD PUSH1 0x1 DUP3 ADD PUSH1 0x1 SWAP1 SLOAD SWAP1 PUSH2 0x100 EXP SWAP1 DIV PUSH1 0xFF AND ISZERO ISZERO ISZERO ISZERO DUP2 MSTORE PUSH1 0x20 ADD PUSH1 0x1 DUP3 ADD PUSH1 0x2 SWAP1 SLOAD SWAP1 PUSH2 0x100 EXP SWAP1 DIV PUSH1 0xFF AND ISZERO ISZERO ISZERO ISZERO DUP2 MSTORE PUSH1 0x20 ADD PUSH1 0x2 DUP3 ADD SLOAD DUP2 MSTORE POP POP SWAP1 POP PUSH1 0x0 DUP1 PUSH1 0x0 DUP6 DUP2 MSTORE PUSH1 0x20 ADD SWAP1 DUP2 MSTORE PUSH1 0x20 ADD PUSH1 0x0 KECCAK256 PUSH1 0x40 MLOAD DUP1 PUSH1 0xE0 ADD PUSH1 0x40 MSTORE SWAP1 DUP2 PUSH1 0x0 DUP3 ADD PUSH1 0x0 SWAP1 SLOAD SWAP1 PUSH2 0x100 EXP SWAP1 DIV PUSH20 0xFFFFFFFFFFFFFFFFFFFFFFFFFFFFFFFFFFFFFFFF AND PUSH20 0xFFFFFFFFFFFFFFFFFFFFFFFFFFFFFFFFFFFFFFFF AND PUSH20 0xFFFFFFFFFFFFFFFFFFFFFFFFFFFFFFFFFFFFFFFF AND DUP2 MSTORE PUSH1 0x20 ADD PUSH1 0x1 DUP3 ADD PUSH1 0x0 SWAP1 SLOAD SWAP1 PUSH2 0x100 EXP SWAP1 DIV PUSH20 0xFFFFFFFFFFFFFFFFFFFFFFFFFFFFFFFFFFFFFFFF AND PUSH20 0xFFFFFFFFFFFFFFFFFFFFFFFFFFFFFFFFFFFFFFFF AND PUSH20 0xFFFFFFFFFFFFFFFFFFFFFFFFFFFFFFFFFFFFFFFF AND DUP2 MSTORE PUSH1 0x20 ADD PUSH1 0x2 DUP3 ADD SLOAD DUP2 MSTORE PUSH1 0x20 ADD PUSH1 0x3 DUP3 ADD SLOAD DUP2 MSTORE PUSH1 0x20 ADD PUSH1 0x4 DUP3 ADD SLOAD DUP2 MSTORE PUSH1 0x20 ADD PUSH1 0x5 DUP3 ADD PUSH1 0x0 SWAP1 SLOAD SWAP1 PUSH2 0x100 EXP SWAP1 DIV PUSH1 0xFF AND PUSH1 0x1 DUP2 GT ISZERO PUSH2 0xBEA JUMPI PUSH2 0xBE9 PUSH2 0x403F JUMP JUMPDEST JUMPDEST PUSH1 0x1 DUP2 GT ISZERO PUSH2 0xBFC JUMPI PUSH2 0xBFB PUSH2 0x403F JUMP JUMPDEST JUMPDEST DUP2 MSTORE PUSH1 0x20 ADD PUSH1 0x6 DUP3 ADD SLOAD DUP2 MSTORE POP POP SWAP1 POP PUSH1 0x0 DUP4 PUSH1 0x0 ADD MLOAD GT ISZERO PUSH2 0xCC0 JUMPI PUSH1 0x40 MLOAD DUP1 PUSH2 0x120 ADD PUSH1 0x40 MSTORE DUP1 DUP6 DUP2 MSTORE PUSH1 0x20 ADD DUP3 PUSH1 0x0 ADD MLOAD PUSH20 0xFFFFFFFFFFFFFFFFFFFFFFFFFFFFFFFFFFFFFFFF AND DUP2 MSTORE PUSH1 0x20 ADD DUP5 PUSH1 0x0 ADD MLOAD DUP2 MSTORE PUSH1 0x20 ADD DUP5 PUSH1 0x20 ADD MLOAD DUP2 MSTORE PUSH1 0x20 ADD DUP5 PUSH1 0x40 ADD MLOAD DUP2 MSTORE PUSH1 0x20 ADD DUP5 PUSH1 0x60 ADD MLOAD DUP2 MSTORE PUSH1 0x20 ADD DUP5 PUSH1 0x80 ADD MLOAD ISZERO ISZERO DUP2 MSTORE PUSH1 0x20 ADD DUP3 PUSH1 0x60 ADD MLOAD DUP2 MSTORE PUSH1 0x20 ADD DUP4 PUSH1 0x20 ADD MLOAD ISZERO ISZERO DUP2 MSTORE POP DUP7 DUP7 DUP2 MLOAD DUP2 LT PUSH2 0xCA6 JUMPI PUSH2 0xCA5 PUSH2 0x4307 JUMP JUMPDEST JUMPDEST PUSH1 0x20 MUL PUSH1 0x20 ADD ADD DUP2 SWAP1 MSTORE POP DUP5 DUP1 PUSH2 0xCBC SWAP1 PUSH2 0x4290 JUMP JUMPDEST SWAP6 POP POP JUMPDEST POP POP POP DUP1 DUP1 PUSH2 0xCCE SWAP1 PUSH2 0x4290 JUMP JUMPDEST SWAP2 POP POP PUSH2 0x9E7 JUMP JUMPDEST POP DUP2 SWAP4 POP POP POP POP SWAP1 JUMP JUMPDEST PUSH1 0x3 PUSH1 0x20 MSTORE DUP2 PUSH1 0x0 MSTORE PUSH1 0x40 PUSH1 0x0 KECCAK256 PUSH1 0x20 MSTORE DUP1 PUSH1 0x0 MSTORE PUSH1 0x40 PUSH1 0x0 KECCAK256 PUSH1 0x0 SWAP2 POP SWAP2 POP POP SLOAD DUP2 JUMP JUMPDEST PUSH1 0x7 PUSH1 0x20 MSTORE DUP1 PUSH1 0x0 MSTORE PUSH1 0x40 PUSH1 0x0 KECCAK256 PUSH1 0x0 SWAP2 POP SWAP1 POP SLOAD DUP2 JUMP JUMPDEST PUSH1 0x10 SLOAD DUP2 JUMP JUMPDEST PUSH1 0x5 PUSH1 0x20 MSTORE DUP2 PUSH1 0x0 MSTORE PUSH1 0x40 PUSH1 0x0 KECCAK256 DUP2 DUP2 SLOAD DUP2 LT PUSH2 0xD3F JUMPI PUSH1 0x0 DUP1 REVERT JUMPDEST SWAP1 PUSH1 0x0 MSTORE PUSH1 0x20 PUSH1 0x0 KECCAK256 ADD PUSH1 0x0 SWAP2 POP SWAP2 POP POP SLOAD DUP2 JUMP JUMPDEST PUSH1 0xF SLOAD DUP2 JUMP JUMPDEST PUSH1 0xD PUSH1 0x0 SWAP1 SLOAD SWAP1 PUSH2 0x100 EXP SWAP1 DIV PUSH20 0xFFFFFFFFFFFFFFFFFFFFFFFFFFFFFFFFFFFFFFFF AND PUSH20 0xFFFFFFFFFFFFFFFFFFFFFFFFFFFFFFFFFFFFFFFF AND CALLER PUSH20 0xFFFFFFFFFFFFFFFFFFFFFFFFFFFFFFFFFFFFFFFF AND EQ PUSH2 0xDEA JUMPI PUSH1 0x40 MLOAD PUSH32 0x8C379A000000000000000000000000000000000000000000000000000000000 DUP2 MSTORE PUSH1 0x4 ADD PUSH2 0xDE1 SWAP1 PUSH2 0x41D5 JUMP JUMPDEST PUSH1 0x40 MLOAD DUP1 SWAP2 SUB SWAP1 REVERT JUMPDEST PUSH2 0xDF2 PUSH2 0x30CD JUMP JUMPDEST PUSH1 0x0 PUSH1 0xB PUSH1 0x1 SWAP1 SLOAD SWAP1 PUSH2 0x100 EXP SWAP1 DIV PUSH20 0xFFFFFFFFFFFFFFFFFFFFFFFFFFFFFFFFFFFFFFFF AND PUSH20 0xFFFFFFFFFFFFFFFFFFFFFFFFFFFFFFFFFFFFFFFF AND PUSH4 0x70A08231 ADDRESS PUSH1 0x40 MLOAD DUP3 PUSH4 0xFFFFFFFF AND PUSH1 0xE0 SHL DUP2 MSTORE PUSH1 0x4 ADD PUSH2 0xE4F SWAP2 SWAP1 PUSH2 0x3EDE JUMP JUMPDEST PUSH1 0x20 PUSH1 0x40 MLOAD DUP1 DUP4 SUB DUP2 DUP7 GAS STATICCALL ISZERO DUP1 ISZERO PUSH2 0xE6C JUMPI RETURNDATASIZE PUSH1 0x0 DUP1 RETURNDATACOPY RETURNDATASIZE PUSH1 0x0 REVERT JUMPDEST POP POP POP POP PUSH1 0x40 MLOAD RETURNDATASIZE PUSH1 0x1F NOT PUSH1 0x1F DUP3 ADD AND DUP3 ADD DUP1 PUSH1 0x40 MSTORE POP DUP2 ADD SWAP1 PUSH2 0xE90 SWAP2 SWAP1 PUSH2 0x434B JUMP JUMPDEST SWAP1 POP PUSH1 0x0 DUP2 GT PUSH2 0xED5 JUMPI PUSH1 0x40 MLOAD PUSH32 0x8C379A000000000000000000000000000000000000000000000000000000000 DUP2 MSTORE PUSH1 0x4 ADD PUSH2 0xECC SWAP1 PUSH2 0x43C4 JUMP JUMPDEST PUSH1 0x40 MLOAD DUP1 SWAP2 SUB SWAP1 REVERT JUMPDEST PUSH1 0xB PUSH1 0x1 SWAP1 SLOAD SWAP1 PUSH2 0x100 EXP SWAP1 DIV PUSH20 0xFFFFFFFFFFFFFFFFFFFFFFFFFFFFFFFFFFFFFFFF AND PUSH20 0xFFFFFFFFFFFFFFFFFFFFFFFFFFFFFFFFFFFFFFFF AND PUSH4 0xA9059CBB DUP4 DUP4 PUSH1 0x40 MLOAD DUP4 PUSH4 0xFFFFFFFF AND PUSH1 0xE0 SHL DUP2 MSTORE PUSH1 0x4 ADD PUSH2 0xF32 SWAP3 SWAP2 SWAP1 PUSH2 0x43E4 JUMP JUMPDEST PUSH1 0x20 PUSH1 0x40 MLOAD DUP1 DUP4 SUB DUP2 PUSH1 0x0 DUP8 GAS CALL ISZERO DUP1 ISZERO PUSH2 0xF51 JUMPI RETURNDATASIZE PUSH1 0x0 DUP1 RETURNDATACOPY RETURNDATASIZE PUSH1 0x0 REVERT JUMPDEST POP POP POP POP PUSH1 0x40 MLOAD RETURNDATASIZE PUSH1 0x1F NOT PUSH1 0x1F DUP3 ADD AND DUP3 ADD DUP1 PUSH1 0x40 MSTORE POP DUP2 ADD SWAP1 PUSH2 0xF75 SWAP2 SWAP1 PUSH2 0x4439 JUMP JUMPDEST PUSH2 0xFB4 JUMPI PUSH1 0x40 MLOAD PUSH32 0x8C379A000000000000000000000000000000000000000000000000000000000 DUP2 MSTORE PUSH1 0x4 ADD PUSH2 0xFAB SWAP1 PUSH2 0x44B2 JUMP JUMPDEST PUSH1 0x40 MLOAD DUP1 SWAP2 SUB SWAP1 REVERT JUMPDEST PUSH32 0x8A43C4352486EC339F487F64AF78CA5CBF06CD47833F073D3BAF3A193E503161 DUP3 DUP3 PUSH1 0x40 MLOAD PUSH2 0xFE5 SWAP3 SWAP2 SWAP1 PUSH2 0x43E4 JUMP JUMPDEST PUSH1 0x40 MLOAD DUP1 SWAP2 SUB SWAP1 LOG1 POP PUSH2 0xFF6 PUSH2 0x3113 JUMP JUMPDEST POP JUMP JUMPDEST PUSH1 0xB PUSH1 0x1 SWAP1 SLOAD SWAP1 PUSH2 0x100 EXP SWAP1 DIV PUSH20 0xFFFFFFFFFFFFFFFFFFFFFFFFFFFFFFFFFFFFFFFF AND DUP2 JUMP JUMPDEST PUSH1 0x0 PUSH1 0xB PUSH1 0x0 SWAP1 SLOAD SWAP1 PUSH2 0x100 EXP SWAP1 DIV PUSH1 0xFF AND SWAP1 POP SWAP1 JUMP JUMPDEST PUSH2 0x103E PUSH2 0x311D JUMP JUMPDEST PUSH2 0x1046 PUSH2 0x30CD JUMP JUMPDEST PUSH1 0x0 DUP1 PUSH1 0x0 DUP4 DUP2 MSTORE PUSH1 0x20 ADD SWAP1 DUP2 MSTORE PUSH1 0x20 ADD PUSH1 0x0 KECCAK256 SWAP1 POP PUSH1 0x0 PUSH1 0x1 PUSH1 0x0 DUP5 DUP2 MSTORE PUSH1 0x20 ADD SWAP1 DUP2 MSTORE PUSH1 0x20 ADD PUSH1 0x0 KECCAK256 SWAP1 POP DUP1 PUSH1 0x1 ADD PUSH1 0x0 SWAP1 SLOAD SWAP1 PUSH2 0x100 EXP SWAP1 DIV PUSH1 0xFF AND PUSH2 0x10C4 JUMPI PUSH1 0x40 MLOAD PUSH32 0x8C379A000000000000000000000000000000000000000000000000000000000 DUP2 MSTORE PUSH1 0x4 ADD PUSH2 0x10BB SWAP1 PUSH2 0x451E JUMP JUMPDEST PUSH1 0x40 MLOAD DUP1 SWAP2 SUB SWAP1 REVERT JUMPDEST DUP2 PUSH1 0x6 ADD SLOAD TIMESTAMP GT PUSH2 0x110A JUMPI PUSH1 0x40 MLOAD PUSH32 0x8C379A000000000000000000000000000000000000000000000000000000000 DUP2 MSTORE PUSH1 0x4 ADD PUSH2 0x1101 SWAP1 PUSH2 0x458A JUMP JUMPDEST PUSH1 0x40 MLOAD DUP1 SWAP2 SUB SWAP1 REVERT JUMPDEST DUP1 PUSH1 0x1 ADD PUSH1 0x1 SWAP1 SLOAD SWAP1 PUSH2 0x100 EXP SWAP1 DIV PUSH1 0xFF AND ISZERO PUSH2 0x115C JUMPI PUSH1 0x40 MLOAD PUSH32 0x8C379A000000000000000000000000000000000000000000000000000000000 DUP2 MSTORE PUSH1 0x4 ADD PUSH2 0x1153 SWAP1 PUSH2 0x45F6 JUMP JUMPDEST PUSH1 0x40 MLOAD DUP1 SWAP2 SUB SWAP1 REVERT JUMPDEST PUSH2 0x1165 DUP4 PUSH2 0x315E JUMP JUMPDEST PUSH1 0x0 DUP2 PUSH1 0x1 ADD PUSH1 0x0 PUSH2 0x100 EXP DUP2 SLOAD DUP2 PUSH1 0xFF MUL NOT AND SWAP1 DUP4 ISZERO ISZERO MUL OR SWAP1 SSTORE POP PUSH1 0x1 DUP2 PUSH1 0x1 ADD PUSH1 0x2 PUSH2 0x100 EXP DUP2 SLOAD DUP2 PUSH1 0xFF MUL NOT AND SWAP1 DUP4 ISZERO ISZERO MUL OR SWAP1 SSTORE POP DUP2 PUSH1 0x1 ADD PUSH1 0x0 SWAP1 SLOAD SWAP1 PUSH2 0x100 EXP SWAP1 DIV PUSH20 0xFFFFFFFFFFFFFFFFFFFFFFFFFFFFFFFFFFFFFFFF AND PUSH20 0xFFFFFFFFFFFFFFFFFFFFFFFFFFFFFFFFFFFFFFFF AND DUP4 PUSH32 0x256BDF47E9AFF5784070D6CAB332D79F81FC6B8C8ED875565982A423A389E3A DUP5 PUSH1 0x2 ADD SLOAD PUSH1 0x40 MLOAD PUSH2 0x120E SWAP2 SWAP1 PUSH2 0x3D67 JUMP JUMPDEST PUSH1 0x40 MLOAD DUP1 SWAP2 SUB SWAP1 LOG3 POP POP PUSH2 0x1220 PUSH2 0x3113 JUMP JUMPDEST POP JUMP JUMPDEST PUSH1 0x0 DUP1 PUSH2 0x122E PUSH2 0x24D7 JUMP JUMPDEST SWAP1 POP PUSH2 0x12DC DUP2 PUSH1 0xE SLOAD PUSH1 0xC PUSH1 0x0 SWAP1 SLOAD SWAP1 PUSH2 0x100 EXP SWAP1 DIV PUSH20 0xFFFFFFFFFFFFFFFFFFFFFFFFFFFFFFFFFFFFFFFF AND PUSH20 0xFFFFFFFFFFFFFFFFFFFFFFFFFFFFFFFFFFFFFFFF AND PUSH4 0x313CE567 PUSH1 0x40 MLOAD DUP2 PUSH4 0xFFFFFFFF AND PUSH1 0xE0 SHL DUP2 MSTORE PUSH1 0x4 ADD PUSH1 0x20 PUSH1 0x40 MLOAD DUP1 DUP4 SUB DUP2 DUP7 GAS STATICCALL ISZERO DUP1 ISZERO PUSH2 0x12A4 JUMPI RETURNDATASIZE PUSH1 0x0 DUP1 RETURNDATACOPY RETURNDATASIZE PUSH1 0x0 REVERT JUMPDEST POP POP POP POP PUSH1 0x40 MLOAD RETURNDATASIZE PUSH1 0x1F NOT PUSH1 0x1F DUP3 ADD AND DUP3 ADD DUP1 PUSH1 0x40 MSTORE POP DUP2 ADD SWAP1 PUSH2 0x12C8 SWAP2 SWAP1 PUSH2 0x464F JUMP JUMPDEST PUSH1 0xFF AND DUP7 PUSH2 0x329A SWAP1 SWAP4 SWAP3 SWAP2 SWAP1 PUSH4 0xFFFFFFFF AND JUMP JUMPDEST SWAP2 POP POP SWAP2 SWAP1 POP JUMP JUMPDEST PUSH1 0x12 SLOAD DUP2 JUMP JUMPDEST PUSH1 0xC PUSH1 0x0 SWAP1 SLOAD SWAP1 PUSH2 0x100 EXP SWAP1 DIV PUSH20 0xFFFFFFFFFFFFFFFFFFFFFFFFFFFFFFFFFFFFFFFF AND DUP2 JUMP JUMPDEST PUSH2 0x1318 PUSH2 0x311D JUMP JUMPDEST PUSH2 0x1320 PUSH2 0x30CD JUMP JUMPDEST PUSH1 0x0 DUP1 PUSH1 0x0 DUP4 DUP2 MSTORE PUSH1 0x20 ADD SWAP1 DUP2 MSTORE PUSH1 0x20 ADD PUSH1 0x0 KECCAK256 SWAP1 POP PUSH1 0x0 PUSH1 0x1 PUSH1 0x0 DUP5 DUP2 MSTORE PUSH1 0x20 ADD SWAP1 DUP2 MSTORE PUSH1 0x20 ADD PUSH1 0x0 KECCAK256 SWAP1 POP PUSH1 0x0 PUSH1 0x2 PUSH1 0x0 DUP6 DUP2 MSTORE PUSH1 0x20 ADD SWAP1 DUP2 MSTORE PUSH1 0x20 ADD PUSH1 0x0 KECCAK256 SWAP1 POP DUP2 PUSH1 0x1 ADD PUSH1 0x0 SWAP1 SLOAD SWAP1 PUSH2 0x100 EXP SWAP1 DIV PUSH1 0xFF AND PUSH2 0x13B5 JUMPI PUSH1 0x40 MLOAD PUSH32 0x8C379A000000000000000000000000000000000000000000000000000000000 DUP2 MSTORE PUSH1 0x4 ADD PUSH2 0x13AC SWAP1 PUSH2 0x451E JUMP JUMPDEST PUSH1 0x40 MLOAD DUP1 SWAP2 SUB SWAP1 REVERT JUMPDEST DUP3 PUSH1 0x0 ADD PUSH1 0x0 SWAP1 SLOAD SWAP1 PUSH2 0x100 EXP SWAP1 DIV PUSH20 0xFFFFFFFFFFFFFFFFFFFFFFFFFFFFFFFFFFFFFFFF AND PUSH20 0xFFFFFFFFFFFFFFFFFFFFFFFFFFFFFFFFFFFFFFFF AND CALLER PUSH20 0xFFFFFFFFFFFFFFFFFFFFFFFFFFFFFFFFFFFFFFFF AND EQ PUSH2 0x1447 JUMPI PUSH1 0x40 MLOAD PUSH32 0x8C379A000000000000000000000000000000000000000000000000000000000 DUP2 MSTORE PUSH1 0x4 ADD PUSH2 0x143E SWAP1 PUSH2 0x46C8 JUMP JUMPDEST PUSH1 0x40 MLOAD DUP1 SWAP2 SUB SWAP1 REVERT JUMPDEST PUSH2 0x1450 DUP5 PUSH2 0x32E0 JUMP JUMPDEST PUSH1 0x0 DUP2 PUSH1 0x1 ADD SLOAD SWAP1 POP PUSH1 0x0 DUP2 GT PUSH2 0x149C JUMPI PUSH1 0x40 MLOAD PUSH32 0x8C379A000000000000000000000000000000000000000000000000000000000 DUP2 MSTORE PUSH1 0x4 ADD PUSH2 0x1493 SWAP1 PUSH2 0x4734 JUMP JUMPDEST PUSH1 0x40 MLOAD DUP1 SWAP2 SUB SWAP1 REVERT JUMPDEST PUSH1 0x0 PUSH1 0x64 PUSH1 0x14 DUP4 PUSH2 0x14AD SWAP2 SWAP1 PUSH2 0x4754 JUMP JUMPDEST PUSH2 0x14B7 SWAP2 SWAP1 PUSH2 0x47C5 JUMP JUMPDEST SWAP1 POP PUSH1 0x0 DUP2 DUP4 PUSH2 0x14C7 SWAP2 SWAP1 PUSH2 0x47F6 JUMP JUMPDEST SWAP1 POP TIMESTAMP DUP5 PUSH1 0x0 ADD DUP2 SWAP1 SSTORE POP PUSH1 0x0 DUP6 PUSH1 0x2 ADD SLOAD DUP5 DUP9 PUSH1 0x2 ADD SLOAD PUSH2 0x14E9 SWAP2 SWAP1 PUSH2 0x482A JUMP JUMPDEST PUSH2 0x14F3 SWAP2 SWAP1 PUSH2 0x47F6 JUMP JUMPDEST SWAP1 POP DUP7 PUSH1 0x2 ADD SLOAD DUP2 GT PUSH2 0x153B JUMPI PUSH1 0x40 MLOAD PUSH32 0x8C379A000000000000000000000000000000000000000000000000000000000 DUP2 MSTORE PUSH1 0x4 ADD PUSH2 0x1532 SWAP1 PUSH2 0x48AA JUMP JUMPDEST PUSH1 0x40 MLOAD DUP1 SWAP2 SUB SWAP1 REVERT JUMPDEST PUSH1 0x0 DUP4 GT PUSH2 0x157E JUMPI PUSH1 0x40 MLOAD PUSH32 0x8C379A000000000000000000000000000000000000000000000000000000000 DUP2 MSTORE PUSH1 0x4 ADD PUSH2 0x1575 SWAP1 PUSH2 0x4916 JUMP JUMPDEST PUSH1 0x40 MLOAD DUP1 SWAP2 SUB SWAP1 REVERT JUMPDEST PUSH1 0xB PUSH1 0x1 SWAP1 SLOAD SWAP1 PUSH2 0x100 EXP SWAP1 DIV PUSH20 0xFFFFFFFFFFFFFFFFFFFFFFFFFFFFFFFFFFFFFFFF AND PUSH20 0xFFFFFFFFFFFFFFFFFFFFFFFFFFFFFFFFFFFFFFFF AND PUSH4 0x23B872DD CALLER ADDRESS DUP5 PUSH1 0x40 MLOAD DUP5 PUSH4 0xFFFFFFFF AND PUSH1 0xE0 SHL DUP2 MSTORE PUSH1 0x4 ADD PUSH2 0x15DD SWAP4 SWAP3 SWAP2 SWAP1 PUSH2 0x4936 JUMP JUMPDEST PUSH1 0x20 PUSH1 0x40 MLOAD DUP1 DUP4 SUB DUP2 PUSH1 0x0 DUP8 GAS CALL ISZERO DUP1 ISZERO PUSH2 0x15FC JUMPI RETURNDATASIZE PUSH1 0x0 DUP1 RETURNDATACOPY RETURNDATASIZE PUSH1 0x0 REVERT JUMPDEST POP POP POP POP PUSH1 0x40 MLOAD RETURNDATASIZE PUSH1 0x1F NOT PUSH1 0x1F DUP3 ADD AND DUP3 ADD DUP1 PUSH1 0x40 MSTORE POP DUP2 ADD SWAP1 PUSH2 0x1620 SWAP2 SWAP1 PUSH2 0x4439 JUMP JUMPDEST PUSH2 0x165F JUMPI PUSH1 0x40 MLOAD PUSH32 0x8C379A000000000000000000000000000000000000000000000000000000000 DUP2 MSTORE PUSH1 0x4 ADD PUSH2 0x1656 SWAP1 PUSH2 0x49B9 JUMP JUMPDEST PUSH1 0x40 MLOAD DUP1 SWAP2 SUB SWAP1 REVERT JUMPDEST PUSH1 0x0 DUP3 DUP9 PUSH1 0x2 ADD SLOAD PUSH2 0x1671 SWAP2 SWAP1 PUSH2 0x482A JUMP JUMPDEST SWAP1 POP PUSH1 0xB PUSH1 0x1 SWAP1 SLOAD SWAP1 PUSH2 0x100 EXP SWAP1 DIV PUSH20 0xFFFFFFFFFFFFFFFFFFFFFFFFFFFFFFFFFFFFFFFF AND PUSH20 0xFFFFFFFFFFFFFFFFFFFFFFFFFFFFFFFFFFFFFFFF AND PUSH4 0xA9059CBB DUP10 PUSH1 0x1 ADD PUSH1 0x0 SWAP1 SLOAD SWAP1 PUSH2 0x100 EXP SWAP1 DIV PUSH20 0xFFFFFFFFFFFFFFFFFFFFFFFFFFFFFFFFFFFFFFFF AND DUP4 PUSH1 0x40 MLOAD DUP4 PUSH4 0xFFFFFFFF AND PUSH1 0xE0 SHL DUP2 MSTORE PUSH1 0x4 ADD PUSH2 0x16F4 SWAP3 SWAP2 SWAP1 PUSH2 0x43E4 JUMP JUMPDEST PUSH1 0x20 PUSH1 0x40 MLOAD DUP1 DUP4 SUB DUP2 PUSH1 0x0 DUP8 GAS CALL ISZERO DUP1 ISZERO PUSH2 0x1713 JUMPI RETURNDATASIZE PUSH1 0x0 DUP1 RETURNDATACOPY RETURNDATASIZE PUSH1 0x0 REVERT JUMPDEST POP POP POP POP PUSH1 0x40 MLOAD RETURNDATASIZE PUSH1 0x1F NOT PUSH1 0x1F DUP3 ADD AND DUP3 ADD DUP1 PUSH1 0x40 MSTORE POP DUP2 ADD SWAP1 PUSH2 0x1737 SWAP2 SWAP1 PUSH2 0x4439 JUMP JUMPDEST PUSH2 0x1776 JUMPI PUSH1 0x40 MLOAD PUSH32 0x8C379A000000000000000000000000000000000000000000000000000000000 DUP2 MSTORE PUSH1 0x4 ADD PUSH2 0x176D SWAP1 PUSH2 0x4A25 JUMP JUMPDEST PUSH1 0x40 MLOAD DUP1 SWAP2 SUB SWAP1 REVERT JUMPDEST DUP2 DUP8 PUSH1 0x2 ADD PUSH1 0x0 DUP3 DUP3 SLOAD PUSH2 0x178A SWAP2 SWAP1 PUSH2 0x482A JUMP JUMPDEST SWAP3 POP POP DUP2 SWAP1 SSTORE POP PUSH1 0x0 DUP8 PUSH1 0x1 ADD PUSH1 0x0 PUSH2 0x100 EXP DUP2 SLOAD DUP2 PUSH1 0xFF MUL NOT AND SWAP1 DUP4 ISZERO ISZERO MUL OR SWAP1 SSTORE POP PUSH1 0x1 DUP8 PUSH1 0x1 ADD PUSH1 0x1 PUSH2 0x100 EXP DUP2 SLOAD DUP2 PUSH1 0xFF MUL NOT AND SWAP1 DUP4 ISZERO ISZERO MUL OR SWAP1 SSTORE POP PUSH1 0x0 DUP8 PUSH1 0x1 ADD PUSH1 0x2 PUSH2 0x100 EXP DUP2 SLOAD DUP2 PUSH1 0xFF MUL NOT AND SWAP1 DUP4 ISZERO ISZERO MUL OR SWAP1 SSTORE POP PUSH2 0x17F1 DUP10 PUSH2 0x345F JUMP JUMPDEST CALLER PUSH20 0xFFFFFFFFFFFFFFFFFFFFFFFFFFFFFFFFFFFFFFFF AND DUP10 PUSH32 0x512D3E65B3E58C2187BB1872AA435DBA5BD09C1C03823BA56AB70AAC411E4A21 DUP5 PUSH1 0x40 MLOAD PUSH2 0x1838 SWAP2 SWAP1 PUSH2 0x3D67 JUMP JUMPDEST PUSH1 0x40 MLOAD DUP1 SWAP2 SUB SWAP1 LOG3 DUP9 PUSH32 0x4E1EAD5246A36F9DA4A7F8BA0922EBAB097B2349377E0B60B228A5E9D8EE587 DUP6 PUSH1 0x40 MLOAD PUSH2 0x1870 SWAP2 SWAP1 PUSH2 0x3D67 JUMP JUMPDEST PUSH1 0x40 MLOAD DUP1 SWAP2 SUB SWAP1 LOG2 POP POP POP POP POP POP POP POP PUSH2 0x1888 PUSH2 0x3113 JUMP JUMPDEST POP JUMP JUMPDEST PUSH2 0x1893 PUSH2 0x311D JUMP JUMPDEST PUSH2 0x189B PUSH2 0x30CD JUMP JUMPDEST PUSH1 0x0 DUP1 PUSH1 0x0 DUP4 DUP2 MSTORE PUSH1 0x20 ADD SWAP1 DUP2 MSTORE PUSH1 0x20 ADD PUSH1 0x0 KECCAK256 SWAP1 POP PUSH1 0x0 PUSH1 0x1 PUSH1 0x0 DUP5 DUP2 MSTORE PUSH1 0x20 ADD SWAP1 DUP2 MSTORE PUSH1 0x20 ADD PUSH1 0x0 KECCAK256 SWAP1 POP DUP1 PUSH1 0x1 ADD PUSH1 0x0 SWAP1 SLOAD SWAP1 PUSH2 0x100 EXP SWAP1 DIV PUSH1 0xFF AND ISZERO PUSH2 0x191A JUMPI PUSH1 0x40 MLOAD PUSH32 0x8C379A000000000000000000000000000000000000000000000000000000000 DUP2 MSTORE PUSH1 0x4 ADD PUSH2 0x1911 SWAP1 PUSH2 0x4A91 JUMP JUMPDEST PUSH1 0x40 MLOAD DUP1 SWAP2 SUB SWAP1 REVERT JUMPDEST PUSH1 0x0 PUSH20 0xFFFFFFFFFFFFFFFFFFFFFFFFFFFFFFFFFFFFFFFF AND DUP3 PUSH1 0x1 ADD PUSH1 0x0 SWAP1 SLOAD SWAP1 PUSH2 0x100 EXP SWAP1 DIV PUSH20 0xFFFFFFFFFFFFFFFFFFFFFFFFFFFFFFFFFFFFFFFF AND PUSH20 0xFFFFFFFFFFFFFFFFFFFFFFFFFFFFFFFFFFFFFFFF AND EQ PUSH2 0x19AD JUMPI PUSH1 0x40 MLOAD PUSH32 0x8C379A000000000000000000000000000000000000000000000000000000000 DUP2 MSTORE PUSH1 0x4 ADD PUSH2 0x19A4 SWAP1 PUSH2 0x4AFD JUMP JUMPDEST PUSH1 0x40 MLOAD DUP1 SWAP2 SUB SWAP1 REVERT JUMPDEST DUP2 PUSH1 0x2 ADD SLOAD PUSH1 0xB PUSH1 0x1 SWAP1 SLOAD SWAP1 PUSH2 0x100 EXP SWAP1 DIV PUSH20 0xFFFFFFFFFFFFFFFFFFFFFFFFFFFFFFFFFFFFFFFF AND PUSH20 0xFFFFFFFFFFFFFFFFFFFFFFFFFFFFFFFFFFFFFFFF AND PUSH4 0xDD62ED3E CALLER ADDRESS PUSH1 0x40 MLOAD DUP4 PUSH4 0xFFFFFFFF AND PUSH1 0xE0 SHL DUP2 MSTORE PUSH1 0x4 ADD PUSH2 0x1A0F SWAP3 SWAP2 SWAP1 PUSH2 0x4B1D JUMP JUMPDEST PUSH1 0x20 PUSH1 0x40 MLOAD DUP1 DUP4 SUB DUP2 DUP7 GAS STATICCALL ISZERO DUP1 ISZERO PUSH2 0x1A2C JUMPI RETURNDATASIZE PUSH1 0x0 DUP1 RETURNDATACOPY RETURNDATASIZE PUSH1 0x0 REVERT JUMPDEST POP POP POP POP PUSH1 0x40 MLOAD RETURNDATASIZE PUSH1 0x1F NOT PUSH1 0x1F DUP3 ADD AND DUP3 ADD DUP1 PUSH1 0x40 MSTORE POP DUP2 ADD SWAP1 PUSH2 0x1A50 SWAP2 SWAP1 PUSH2 0x434B JUMP JUMPDEST LT ISZERO PUSH2 0x1A91 JUMPI PUSH1 0x40 MLOAD PUSH32 0x8C379A000000000000000000000000000000000000000000000000000000000 DUP2 MSTORE PUSH1 0x4 ADD PUSH2 0x1A88 SWAP1 PUSH2 0x4BB8 JUMP JUMPDEST PUSH1 0x40 MLOAD DUP1 SWAP2 SUB SWAP1 REVERT JUMPDEST PUSH1 0xB PUSH1 0x1 SWAP1 SLOAD SWAP1 PUSH2 0x100 EXP SWAP1 DIV PUSH20 0xFFFFFFFFFFFFFFFFFFFFFFFFFFFFFFFFFFFFFFFF AND PUSH20 0xFFFFFFFFFFFFFFFFFFFFFFFFFFFFFFFFFFFFFFFF AND PUSH4 0x23B872DD CALLER ADDRESS DUP6 PUSH1 0x2 ADD SLOAD PUSH1 0x40 MLOAD DUP5 PUSH4 0xFFFFFFFF AND PUSH1 0xE0 SHL DUP2 MSTORE PUSH1 0x4 ADD PUSH2 0x1AF4 SWAP4 SWAP3 SWAP2 SWAP1 PUSH2 0x4936 JUMP JUMPDEST PUSH1 0x20 PUSH1 0x40 MLOAD DUP1 DUP4 SUB DUP2 PUSH1 0x0 DUP8 GAS CALL ISZERO DUP1 ISZERO PUSH2 0x1B13 JUMPI RETURNDATASIZE PUSH1 0x0 DUP1 RETURNDATACOPY RETURNDATASIZE PUSH1 0x0 REVERT JUMPDEST POP POP POP POP PUSH1 0x40 MLOAD RETURNDATASIZE PUSH1 0x1F NOT PUSH1 0x1F DUP3 ADD AND DUP3 ADD DUP1 PUSH1 0x40 MSTORE POP DUP2 ADD SWAP1 PUSH2 0x1B37 SWAP2 SWAP1 PUSH2 0x4439 JUMP JUMPDEST PUSH2 0x1B76 JUMPI PUSH1 0x40 MLOAD PUSH32 0x8C379A000000000000000000000000000000000000000000000000000000000 DUP2 MSTORE PUSH1 0x4 ADD PUSH2 0x1B6D SWAP1 PUSH2 0x49B9 JUMP JUMPDEST PUSH1 0x40 MLOAD DUP1 SWAP2 SUB SWAP1 REVERT JUMPDEST CALLER DUP3 PUSH1 0x1 ADD PUSH1 0x0 PUSH2 0x100 EXP DUP2 SLOAD DUP2 PUSH20 0xFFFFFFFFFFFFFFFFFFFFFFFFFFFFFFFFFFFFFFFF MUL NOT AND SWAP1 DUP4 PUSH20 0xFFFFFFFFFFFFFFFFFFFFFFFFFFFFFFFFFFFFFFFF AND MUL OR SWAP1 SSTORE POP TIMESTAMP DUP2 PUSH1 0x0 ADD DUP2 SWAP1 SSTORE POP PUSH1 0x1 DUP2 PUSH1 0x1 ADD PUSH1 0x0 PUSH2 0x100 EXP DUP2 SLOAD DUP2 PUSH1 0xFF MUL NOT AND SWAP1 DUP4 ISZERO ISZERO MUL OR SWAP1 SSTORE POP PUSH1 0xB PUSH1 0x1 SWAP1 SLOAD SWAP1 PUSH2 0x100 EXP SWAP1 DIV PUSH20 0xFFFFFFFFFFFFFFFFFFFFFFFFFFFFFFFFFFFFFFFF AND PUSH20 0xFFFFFFFFFFFFFFFFFFFFFFFFFFFFFFFFFFFFFFFF AND PUSH4 0xA9059CBB DUP4 PUSH1 0x0 ADD PUSH1 0x0 SWAP1 SLOAD SWAP1 PUSH2 0x100 EXP SWAP1 DIV PUSH20 0xFFFFFFFFFFFFFFFFFFFFFFFFFFFFFFFFFFFFFFFF AND DUP5 PUSH1 0x2 ADD SLOAD PUSH1 0x40 MLOAD DUP4 PUSH4 0xFFFFFFFF AND PUSH1 0xE0 SHL DUP2 MSTORE PUSH1 0x4 ADD PUSH2 0x1C64 SWAP3 SWAP2 SWAP1 PUSH2 0x43E4 JUMP JUMPDEST PUSH1 0x20 PUSH1 0x40 MLOAD DUP1 DUP4 SUB DUP2 PUSH1 0x0 DUP8 GAS CALL ISZERO DUP1 ISZERO PUSH2 0x1C83 JUMPI RETURNDATASIZE PUSH1 0x0 DUP1 RETURNDATACOPY RETURNDATASIZE PUSH1 0x0 REVERT JUMPDEST POP POP POP POP PUSH1 0x40 MLOAD RETURNDATASIZE PUSH1 0x1F NOT PUSH1 0x1F DUP3 ADD AND DUP3 ADD DUP1 PUSH1 0x40 MSTORE POP DUP2 ADD SWAP1 PUSH2 0x1CA7 SWAP2 SWAP1 PUSH2 0x4439 JUMP JUMPDEST PUSH2 0x1CE6 JUMPI PUSH1 0x40 MLOAD PUSH32 0x8C379A000000000000000000000000000000000000000000000000000000000 DUP2 MSTORE PUSH1 0x4 ADD PUSH2 0x1CDD SWAP1 PUSH2 0x4C24 JUMP JUMPDEST PUSH1 0x40 MLOAD DUP1 SWAP2 SUB SWAP1 REVERT JUMPDEST PUSH1 0x5 PUSH1 0x0 CALLER PUSH20 0xFFFFFFFFFFFFFFFFFFFFFFFFFFFFFFFFFFFFFFFF AND PUSH20 0xFFFFFFFFFFFFFFFFFFFFFFFFFFFFFFFFFFFFFFFF AND DUP2 MSTORE PUSH1 0x20 ADD SWAP1 DUP2 MSTORE PUSH1 0x20 ADD PUSH1 0x0 KECCAK256 DUP4 SWAP1 DUP1 PUSH1 0x1 DUP2 SLOAD ADD DUP1 DUP3 SSTORE DUP1 SWAP2 POP POP PUSH1 0x1 SWAP1 SUB SWAP1 PUSH1 0x0 MSTORE PUSH1 0x20 PUSH1 0x0 KECCAK256 ADD PUSH1 0x0 SWAP1 SWAP2 SWAP1 SWAP2 SWAP1 SWAP2 POP SSTORE PUSH1 0x4 PUSH1 0x0 DUP4 PUSH1 0x0 ADD PUSH1 0x0 SWAP1 SLOAD SWAP1 PUSH2 0x100 EXP SWAP1 DIV PUSH20 0xFFFFFFFFFFFFFFFFFFFFFFFFFFFFFFFFFFFFFFFF AND PUSH20 0xFFFFFFFFFFFFFFFFFFFFFFFFFFFFFFFFFFFFFFFF AND PUSH20 0xFFFFFFFFFFFFFFFFFFFFFFFFFFFFFFFFFFFFFFFF AND DUP2 MSTORE PUSH1 0x20 ADD SWAP1 DUP2 MSTORE PUSH1 0x20 ADD PUSH1 0x0 KECCAK256 DUP4 SWAP1 DUP1 PUSH1 0x1 DUP2 SLOAD ADD DUP1 DUP3 SSTORE DUP1 SWAP2 POP POP PUSH1 0x1 SWAP1 SUB SWAP1 PUSH1 0x0 MSTORE PUSH1 0x20 PUSH1 0x0 KECCAK256 ADD PUSH1 0x0 SWAP1 SWAP2 SWAP1 SWAP2 SWAP1 SWAP2 POP SSTORE PUSH1 0x9 DUP4 SWAP1 DUP1 PUSH1 0x1 DUP2 SLOAD ADD DUP1 DUP3 SSTORE DUP1 SWAP2 POP POP PUSH1 0x1 SWAP1 SUB SWAP1 PUSH1 0x0 MSTORE PUSH1 0x20 PUSH1 0x0 KECCAK256 ADD PUSH1 0x0 SWAP1 SWAP2 SWAP1 SWAP2 SWAP1 SWAP2 POP SSTORE CALLER PUSH20 0xFFFFFFFFFFFFFFFFFFFFFFFFFFFFFFFFFFFFFFFF AND DUP4 PUSH32 0x15FEAB5D3EB17171632762CF769709A315DD15F487A556C0DFB8A259C8F186CC PUSH1 0x40 MLOAD PUSH1 0x40 MLOAD DUP1 SWAP2 SUB SWAP1 LOG3 DUP2 PUSH1 0x0 ADD PUSH1 0x0 SWAP1 SLOAD SWAP1 PUSH2 0x100 EXP SWAP1 DIV PUSH20 0xFFFFFFFFFFFFFFFFFFFFFFFFFFFFFFFFFFFFFFFF AND PUSH20 0xFFFFFFFFFFFFFFFFFFFFFFFFFFFFFFFFFFFFFFFF AND DUP4 PUSH32 0xCEEB4503A2FE0B51298A0AF21358F3D89E7EAB3F65AE2A7835859C3E2C51604 DUP5 PUSH1 0x2 ADD SLOAD PUSH1 0x40 MLOAD PUSH2 0x1EB2 SWAP2 SWAP1 PUSH2 0x3D67 JUMP JUMPDEST PUSH1 0x40 MLOAD DUP1 SWAP2 SUB SWAP1 LOG3 POP POP PUSH2 0x1EC4 PUSH2 0x3113 JUMP JUMPDEST POP JUMP JUMPDEST PUSH1 0x60 PUSH1 0x0 PUSH1 0x4 PUSH1 0x0 DUP5 PUSH20 0xFFFFFFFFFFFFFFFFFFFFFFFFFFFFFFFFFFFFFFFF AND PUSH20 0xFFFFFFFFFFFFFFFFFFFFFFFFFFFFFFFFFFFFFFFF AND DUP2 MSTORE PUSH1 0x20 ADD SWAP1 DUP2 MSTORE PUSH1 0x20 ADD PUSH1 0x0 KECCAK256 DUP1 SLOAD DUP1 PUSH1 0x20 MUL PUSH1 0x20 ADD PUSH1 0x40 MLOAD SWAP1 DUP2 ADD PUSH1 0x40 MSTORE DUP1 SWAP3 SWAP2 SWAP1 DUP2 DUP2 MSTORE PUSH1 0x20 ADD DUP3 DUP1 SLOAD DUP1 ISZERO PUSH2 0x1F54 JUMPI PUSH1 0x20 MUL DUP3 ADD SWAP2 SWAP1 PUSH1 0x0 MSTORE PUSH1 0x20 PUSH1 0x0 KECCAK256 SWAP1 JUMPDEST DUP2 SLOAD DUP2 MSTORE PUSH1 0x20 ADD SWAP1 PUSH1 0x1 ADD SWAP1 DUP1 DUP4 GT PUSH2 0x1F40 JUMPI JUMPDEST POP POP POP POP POP SWAP1 POP PUSH1 0x0 DUP1 JUMPDEST DUP3 MLOAD DUP2 LT ISZERO PUSH2 0x2017 JUMPI PUSH1 0x0 DUP4 DUP3 DUP2 MLOAD DUP2 LT PUSH2 0x1F7D JUMPI PUSH2 0x1F7C PUSH2 0x4307 JUMP JUMPDEST JUMPDEST PUSH1 0x20 MUL PUSH1 0x20 ADD ADD MLOAD SWAP1 POP PUSH1 0x0 PUSH1 0x6 PUSH1 0x0 DUP4 DUP2 MSTORE PUSH1 0x20 ADD SWAP1 DUP2 MSTORE PUSH1 0x20 ADD PUSH1 0x0 KECCAK256 PUSH1 0x40 MLOAD DUP1 PUSH1 0xA0 ADD PUSH1 0x40 MSTORE SWAP1 DUP2 PUSH1 0x0 DUP3 ADD SLOAD DUP2 MSTORE PUSH1 0x20 ADD PUSH1 0x1 DUP3 ADD SLOAD DUP2 MSTORE PUSH1 0x20 ADD PUSH1 0x2 DUP3 ADD SLOAD DUP2 MSTORE PUSH1 0x20 ADD PUSH1 0x3 DUP3 ADD SLOAD DUP2 MSTORE PUSH1 0x20 ADD PUSH1 0x4 DUP3 ADD PUSH1 0x0 SWAP1 SLOAD SWAP1 PUSH2 0x100 EXP SWAP1 DIV PUSH1 0xFF AND ISZERO ISZERO ISZERO ISZERO DUP2 MSTORE POP POP SWAP1 POP PUSH1 0x0 DUP2 PUSH1 0x0 ADD MLOAD GT ISZERO PUSH2 0x2008 JUMPI DUP4 DUP1 PUSH2 0x2004 SWAP1 PUSH2 0x4290 JUMP JUMPDEST SWAP5 POP POP JUMPDEST POP POP DUP1 DUP1 PUSH1 0x1 ADD SWAP2 POP POP PUSH2 0x1F5F JUMP JUMPDEST POP PUSH1 0x0 DUP2 PUSH8 0xFFFFFFFFFFFFFFFF DUP2 GT ISZERO PUSH2 0x2034 JUMPI PUSH2 0x2033 PUSH2 0x42D8 JUMP JUMPDEST JUMPDEST PUSH1 0x40 MLOAD SWAP1 DUP1 DUP3 MSTORE DUP1 PUSH1 0x20 MUL PUSH1 0x20 ADD DUP3 ADD PUSH1 0x40 MSTORE DUP1 ISZERO PUSH2 0x206D JUMPI DUP2 PUSH1 0x20 ADD JUMPDEST PUSH2 0x205A PUSH2 0x3A2A JUMP JUMPDEST DUP2 MSTORE PUSH1 0x20 ADD SWAP1 PUSH1 0x1 SWAP1 SUB SWAP1 DUP2 PUSH2 0x2052 JUMPI SWAP1 POP JUMPDEST POP SWAP1 POP PUSH1 0x0 DUP1 JUMPDEST DUP5 MLOAD DUP2 LT ISZERO PUSH2 0x237D JUMPI PUSH1 0x0 DUP6 DUP3 DUP2 MLOAD DUP2 LT PUSH2 0x2092 JUMPI PUSH2 0x2091 PUSH2 0x4307 JUMP JUMPDEST JUMPDEST PUSH1 0x20 MUL PUSH1 0x20 ADD ADD MLOAD SWAP1 POP PUSH1 0x0 PUSH1 0x6 PUSH1 0x0 DUP4 DUP2 MSTORE PUSH1 0x20 ADD SWAP1 DUP2 MSTORE PUSH1 0x20 ADD PUSH1 0x0 KECCAK256 PUSH1 0x40 MLOAD DUP1 PUSH1 0xA0 ADD PUSH1 0x40 MSTORE SWAP1 DUP2 PUSH1 0x0 DUP3 ADD SLOAD DUP2 MSTORE PUSH1 0x20 ADD PUSH1 0x1 DUP3 ADD SLOAD DUP2 MSTORE PUSH1 0x20 ADD PUSH1 0x2 DUP3 ADD SLOAD DUP2 MSTORE PUSH1 0x20 ADD PUSH1 0x3 DUP3 ADD SLOAD DUP2 MSTORE PUSH1 0x20 ADD PUSH1 0x4 DUP3 ADD PUSH1 0x0 SWAP1 SLOAD SWAP1 PUSH2 0x100 EXP SWAP1 DIV PUSH1 0xFF AND ISZERO ISZERO ISZERO ISZERO DUP2 MSTORE POP POP SWAP1 POP PUSH1 0x0 PUSH1 0x1 PUSH1 0x0 DUP5 DUP2 MSTORE PUSH1 0x20 ADD SWAP1 DUP2 MSTORE PUSH1 0x20 ADD PUSH1 0x0 KECCAK256 PUSH1 0x40 MLOAD DUP1 PUSH1 0xA0 ADD PUSH1 0x40 MSTORE SWAP1 DUP2 PUSH1 0x0 DUP3 ADD SLOAD DUP2 MSTORE PUSH1 0x20 ADD PUSH1 0x1 DUP3 ADD PUSH1 0x0 SWAP1 SLOAD SWAP1 PUSH2 0x100 EXP SWAP1 DIV PUSH1 0xFF AND ISZERO ISZERO ISZERO ISZERO DUP2 MSTORE PUSH1 0x20 ADD PUSH1 0x1 DUP3 ADD PUSH1 0x1 SWAP1 SLOAD SWAP1 PUSH2 0x100 EXP SWAP1 DIV PUSH1 0xFF AND ISZERO ISZERO ISZERO ISZERO DUP2 MSTORE PUSH1 0x20 ADD PUSH1 0x1 DUP3 ADD PUSH1 0x2 SWAP1 SLOAD SWAP1 PUSH2 0x100 EXP SWAP1 DIV PUSH1 0xFF AND ISZERO ISZERO ISZERO ISZERO DUP2 MSTORE PUSH1 0x20 ADD PUSH1 0x2 DUP3 ADD SLOAD DUP2 MSTORE POP POP SWAP1 POP PUSH1 0x0 DUP1 PUSH1 0x0 DUP6 DUP2 MSTORE PUSH1 0x20 ADD SWAP1 DUP2 MSTORE PUSH1 0x20 ADD PUSH1 0x0 KECCAK256 PUSH1 0x40 MLOAD DUP1 PUSH1 0xE0 ADD PUSH1 0x40 MSTORE SWAP1 DUP2 PUSH1 0x0 DUP3 ADD PUSH1 0x0 SWAP1 SLOAD SWAP1 PUSH2 0x100 EXP SWAP1 DIV PUSH20 0xFFFFFFFFFFFFFFFFFFFFFFFFFFFFFFFFFFFFFFFF AND PUSH20 0xFFFFFFFFFFFFFFFFFFFFFFFFFFFFFFFFFFFFFFFF AND PUSH20 0xFFFFFFFFFFFFFFFFFFFFFFFFFFFFFFFFFFFFFFFF AND DUP2 MSTORE PUSH1 0x20 ADD PUSH1 0x1 DUP3 ADD PUSH1 0x0 SWAP1 SLOAD SWAP1 PUSH2 0x100 EXP SWAP1 DIV PUSH20 0xFFFFFFFFFFFFFFFFFFFFFFFFFFFFFFFFFFFFFFFF AND PUSH20 0xFFFFFFFFFFFFFFFFFFFFFFFFFFFFFFFFFFFFFFFF AND PUSH20 0xFFFFFFFFFFFFFFFFFFFFFFFFFFFFFFFFFFFFFFFF AND DUP2 MSTORE PUSH1 0x20 ADD PUSH1 0x2 DUP3 ADD SLOAD DUP2 MSTORE PUSH1 0x20 ADD PUSH1 0x3 DUP3 ADD SLOAD DUP2 MSTORE PUSH1 0x20 ADD PUSH1 0x4 DUP3 ADD SLOAD DUP2 MSTORE PUSH1 0x20 ADD PUSH1 0x5 DUP3 ADD PUSH1 0x0 SWAP1 SLOAD SWAP1 PUSH2 0x100 EXP SWAP1 DIV PUSH1 0xFF AND PUSH1 0x1 DUP2 GT ISZERO PUSH2 0x2296 JUMPI PUSH2 0x2295 PUSH2 0x403F JUMP JUMPDEST JUMPDEST PUSH1 0x1 DUP2 GT ISZERO PUSH2 0x22A8 JUMPI PUSH2 0x22A7 PUSH2 0x403F JUMP JUMPDEST JUMPDEST DUP2 MSTORE PUSH1 0x20 ADD PUSH1 0x6 DUP3 ADD SLOAD DUP2 MSTORE POP POP SWAP1 POP PUSH1 0x0 DUP4 PUSH1 0x0 ADD MLOAD GT ISZERO PUSH2 0x236C JUMPI PUSH1 0x40 MLOAD DUP1 PUSH2 0x120 ADD PUSH1 0x40 MSTORE DUP1 DUP6 DUP2 MSTORE PUSH1 0x20 ADD DUP3 PUSH1 0x0 ADD MLOAD PUSH20 0xFFFFFFFFFFFFFFFFFFFFFFFFFFFFFFFFFFFFFFFF AND DUP2 MSTORE PUSH1 0x20 ADD DUP5 PUSH1 0x0 ADD MLOAD DUP2 MSTORE PUSH1 0x20 ADD DUP5 PUSH1 0x20 ADD MLOAD DUP2 MSTORE PUSH1 0x20 ADD DUP5 PUSH1 0x40 ADD MLOAD DUP2 MSTORE PUSH1 0x20 ADD DUP5 PUSH1 0x60 ADD MLOAD DUP2 MSTORE PUSH1 0x20 ADD DUP5 PUSH1 0x80 ADD MLOAD ISZERO ISZERO DUP2 MSTORE PUSH1 0x20 ADD DUP3 PUSH1 0x60 ADD MLOAD DUP2 MSTORE PUSH1 0x20 ADD DUP4 PUSH1 0x20 ADD MLOAD ISZERO ISZERO DUP2 MSTORE POP DUP8 DUP8 DUP2 MLOAD DUP2 LT PUSH2 0x2352 JUMPI PUSH2 0x2351 PUSH2 0x4307 JUMP JUMPDEST JUMPDEST PUSH1 0x20 MUL PUSH1 0x20 ADD ADD DUP2 SWAP1 MSTORE POP DUP6 DUP1 PUSH2 0x2368 SWAP1 PUSH2 0x4290 JUMP JUMPDEST SWAP7 POP POP JUMPDEST POP POP POP POP DUP1 DUP1 PUSH1 0x1 ADD SWAP2 POP POP PUSH2 0x2074 JUMP JUMPDEST POP DUP2 SWAP5 POP POP POP POP POP SWAP2 SWAP1 POP JUMP JUMPDEST PUSH1 0xD PUSH1 0x0 SWAP1 SLOAD SWAP1 PUSH2 0x100 EXP SWAP1 DIV PUSH20 0xFFFFFFFFFFFFFFFFFFFFFFFFFFFFFFFFFFFFFFFF AND DUP2 JUMP JUMPDEST PUSH1 0xD PUSH1 0x0 SWAP1 SLOAD SWAP1 PUSH2 0x100 EXP SWAP1 DIV PUSH20 0xFFFFFFFFFFFFFFFFFFFFFFFFFFFFFFFFFFFFFFFF AND PUSH20 0xFFFFFFFFFFFFFFFFFFFFFFFFFFFFFFFFFFFFFFFF AND CALLER PUSH20 0xFFFFFFFFFFFFFFFFFFFFFFFFFFFFFFFFFFFFFFFF AND EQ PUSH2 0x2440 JUMPI PUSH1 0x40 MLOAD PUSH32 0x8C379A000000000000000000000000000000000000000000000000000000000 DUP2 MSTORE PUSH1 0x4 ADD PUSH2 0x2437 SWAP1 PUSH2 0x41D5 JUMP JUMPDEST PUSH1 0x40 MLOAD DUP1 SWAP2 SUB SWAP1 REVERT JUMPDEST PUSH1 0x0 DUP3 GT PUSH2 0x2483 JUMPI PUSH1 0x40 MLOAD PUSH32 0x8C379A000000000000000000000000000000000000000000000000000000000 DUP2 MSTORE PUSH1 0x4 ADD PUSH2 0x247A SWAP1 PUSH2 0x4CB6 JUMP JUMPDEST PUSH1 0x40 MLOAD DUP1 SWAP2 SUB SWAP1 REVERT JUMPDEST DUP2 DUP2 GT PUSH2 0x24C5 JUMPI PUSH1 0x40 MLOAD PUSH32 0x8C379A000000000000000000000000000000000000000000000000000000000 DUP2 MSTORE PUSH1 0x4 ADD PUSH2 0x24BC SWAP1 PUSH2 0x4D48 JUMP JUMPDEST PUSH1 0x40 MLOAD DUP1 SWAP2 SUB SWAP1 REVERT JUMPDEST DUP2 PUSH1 0x11 DUP2 SWAP1 SSTORE POP DUP1 PUSH1 0x12 DUP2 SWAP1 SSTORE POP POP POP JUMP JUMPDEST PUSH1 0x0 DUP1 PUSH1 0xC PUSH1 0x0 SWAP1 SLOAD SWAP1 PUSH2 0x100 EXP SWAP1 DIV PUSH20 0xFFFFFFFFFFFFFFFFFFFFFFFFFFFFFFFFFFFFFFFF AND PUSH20 0xFFFFFFFFFFFFFFFFFFFFFFFFFFFFFFFFFFFFFFFF AND PUSH4 0xFEAF968C PUSH1 0x40 MLOAD DUP2 PUSH4 0xFFFFFFFF AND PUSH1 0xE0 SHL DUP2 MSTORE PUSH1 0x4 ADD PUSH1 0xA0 PUSH1 0x40 MLOAD DUP1 DUP4 SUB DUP2 DUP7 GAS STATICCALL ISZERO DUP1 ISZERO PUSH2 0x2547 JUMPI RETURNDATASIZE PUSH1 0x0 DUP1 RETURNDATACOPY RETURNDATASIZE PUSH1 0x0 REVERT JUMPDEST POP POP POP POP PUSH1 0x40 MLOAD RETURNDATASIZE PUSH1 0x1F NOT PUSH1 0x1F DUP3 ADD AND DUP3 ADD DUP1 PUSH1 0x40 MSTORE POP DUP2 ADD SWAP1 PUSH2 0x256B SWAP2 SWAP1 PUSH2 0x4DE0 JUMP JUMPDEST POP POP POP SWAP2 POP POP PUSH1 0x0 DUP2 SGT PUSH2 0x25B4 JUMPI PUSH1 0x40 MLOAD PUSH32 0x8C379A000000000000000000000000000000000000000000000000000000000 DUP2 MSTORE PUSH1 0x4 ADD PUSH2 0x25AB SWAP1 PUSH2 0x4EA7 JUMP JUMPDEST PUSH1 0x40 MLOAD DUP1 SWAP2 SUB SWAP1 REVERT JUMPDEST DUP1 SWAP2 POP POP SWAP1 JUMP JUMPDEST PUSH1 0x8 PUSH1 0x20 MSTORE DUP1 PUSH1 0x0 MSTORE PUSH1 0x40 PUSH1 0x0 KECCAK256 PUSH1 0x0 SWAP2 POP SWAP1 POP DUP1 PUSH1 0x0 ADD PUSH1 0x0 SWAP1 SLOAD SWAP1 PUSH2 0x100 EXP SWAP1 DIV PUSH20 0xFFFFFFFFFFFFFFFFFFFFFFFFFFFFFFFFFFFFFFFF AND SWAP1 DUP1 PUSH1 0x1 ADD SLOAD SWAP1 DUP1 PUSH1 0x2 ADD PUSH1 0x0 SWAP1 SLOAD SWAP1 PUSH2 0x100 EXP SWAP1 DIV PUSH1 0xFF AND SWAP1 POP DUP4 JUMP JUMPDEST PUSH2 0x261A PUSH2 0x311D JUMP JUMPDEST PUSH2 0x2622 PUSH2 0x30CD JUMP JUMPDEST PUSH1 0x0 DUP1 PUSH1 0x0 DUP5 DUP2 MSTORE PUSH1 0x20 ADD SWAP1 DUP2 MSTORE PUSH1 0x20 ADD PUSH1 0x0 KECCAK256 SWAP1 POP PUSH1 0x0 PUSH1 0x1 PUSH1 0x0 DUP6 DUP2 MSTORE PUSH1 0x20 ADD SWAP1 DUP2 MSTORE PUSH1 0x20 ADD PUSH1 0x0 KECCAK256 SWAP1 POP PUSH1 0x0 PUSH1 0x2 PUSH1 0x0 DUP7 DUP2 MSTORE PUSH1 0x20 ADD SWAP1 DUP2 MSTORE PUSH1 0x20 ADD PUSH1 0x0 KECCAK256 SWAP1 POP DUP2 PUSH1 0x1 ADD PUSH1 0x0 SWAP1 SLOAD SWAP1 PUSH2 0x100 EXP SWAP1 DIV PUSH1 0xFF AND PUSH2 0x26B7 JUMPI PUSH1 0x40 MLOAD PUSH32 0x8C379A000000000000000000000000000000000000000000000000000000000 DUP2 MSTORE PUSH1 0x4 ADD PUSH2 0x26AE SWAP1 PUSH2 0x451E JUMP JUMPDEST PUSH1 0x40 MLOAD DUP1 SWAP2 SUB SWAP1 REVERT JUMPDEST DUP3 PUSH1 0x0 ADD PUSH1 0x0 SWAP1 SLOAD SWAP1 PUSH2 0x100 EXP SWAP1 DIV PUSH20 0xFFFFFFFFFFFFFFFFFFFFFFFFFFFFFFFFFFFFFFFF AND PUSH20 0xFFFFFFFFFFFFFFFFFFFFFFFFFFFFFFFFFFFFFFFF AND CALLER PUSH20 0xFFFFFFFFFFFFFFFFFFFFFFFFFFFFFFFFFFFFFFFF AND EQ PUSH2 0x2749 JUMPI PUSH1 0x40 MLOAD PUSH32 0x8C379A000000000000000000000000000000000000000000000000000000000 DUP2 MSTORE PUSH1 0x4 ADD PUSH2 0x2740 SWAP1 PUSH2 0x46C8 JUMP JUMPDEST PUSH1 0x40 MLOAD DUP1 SWAP2 SUB SWAP1 REVERT JUMPDEST PUSH2 0x2752 DUP6 PUSH2 0x32E0 JUMP JUMPDEST PUSH1 0x0 DUP2 PUSH1 0x1 ADD SLOAD SWAP1 POP PUSH1 0x0 DUP4 PUSH1 0x2 ADD SLOAD DUP3 DUP7 PUSH1 0x2 ADD SLOAD PUSH2 0x2772 SWAP2 SWAP1 PUSH2 0x482A JUMP JUMPDEST PUSH2 0x277C SWAP2 SWAP1 PUSH2 0x47F6 JUMP JUMPDEST SWAP1 POP DUP1 DUP7 GT ISZERO PUSH2 0x27C1 JUMPI PUSH1 0x40 MLOAD PUSH32 0x8C379A000000000000000000000000000000000000000000000000000000000 DUP2 MSTORE PUSH1 0x4 ADD PUSH2 0x27B8 SWAP1 PUSH2 0x4F13 JUMP JUMPDEST PUSH1 0x40 MLOAD DUP1 SWAP2 SUB SWAP1 REVERT JUMPDEST PUSH1 0xB PUSH1 0x1 SWAP1 SLOAD SWAP1 PUSH2 0x100 EXP SWAP1 DIV PUSH20 0xFFFFFFFFFFFFFFFFFFFFFFFFFFFFFFFFFFFFFFFF AND PUSH20 0xFFFFFFFFFFFFFFFFFFFFFFFFFFFFFFFFFFFFFFFF AND PUSH4 0x23B872DD CALLER DUP8 PUSH1 0x1 ADD PUSH1 0x0 SWAP1 SLOAD SWAP1 PUSH2 0x100 EXP SWAP1 DIV PUSH20 0xFFFFFFFFFFFFFFFFFFFFFFFFFFFFFFFFFFFFFFFF AND DUP10 PUSH1 0x40 MLOAD DUP5 PUSH4 0xFFFFFFFF AND PUSH1 0xE0 SHL DUP2 MSTORE PUSH1 0x4 ADD PUSH2 0x2844 SWAP4 SWAP3 SWAP2 SWAP1 PUSH2 0x4936 JUMP JUMPDEST PUSH1 0x20 PUSH1 0x40 MLOAD DUP1 DUP4 SUB DUP2 PUSH1 0x0 DUP8 GAS CALL ISZERO DUP1 ISZERO PUSH2 0x2863 JUMPI RETURNDATASIZE PUSH1 0x0 DUP1 RETURNDATACOPY RETURNDATASIZE PUSH1 0x0 REVERT JUMPDEST POP POP POP POP PUSH1 0x40 MLOAD RETURNDATASIZE PUSH1 0x1F NOT PUSH1 0x1F DUP3 ADD AND DUP3 ADD DUP1 PUSH1 0x40 MSTORE POP DUP2 ADD SWAP1 PUSH2 0x2887 SWAP2 SWAP1 PUSH2 0x4439 JUMP JUMPDEST PUSH2 0x28C6 JUMPI PUSH1 0x40 MLOAD PUSH32 0x8C379A000000000000000000000000000000000000000000000000000000000 DUP2 MSTORE PUSH1 0x4 ADD PUSH2 0x28BD SWAP1 PUSH2 0x4F7F JUMP JUMPDEST PUSH1 0x40 MLOAD DUP1 SWAP2 SUB SWAP1 REVERT JUMPDEST DUP6 DUP5 PUSH1 0x2 ADD PUSH1 0x0 DUP3 DUP3 SLOAD PUSH2 0x28DA SWAP2 SWAP1 PUSH2 0x482A JUMP JUMPDEST SWAP3 POP POP DUP2 SWAP1 SSTORE POP DUP1 DUP5 PUSH1 0x2 ADD SLOAD LT PUSH2 0x2930 JUMPI PUSH1 0x1 DUP5 PUSH1 0x1 ADD PUSH1 0x1 PUSH2 0x100 EXP DUP2 SLOAD DUP2 PUSH1 0xFF MUL NOT AND SWAP1 DUP4 ISZERO ISZERO MUL OR SWAP1 SSTORE POP PUSH1 0x0 DUP5 PUSH1 0x1 ADD PUSH1 0x0 PUSH2 0x100 EXP DUP2 SLOAD DUP2 PUSH1 0xFF MUL NOT AND SWAP1 DUP4 ISZERO ISZERO MUL OR SWAP1 SSTORE POP PUSH2 0x292F DUP8 PUSH2 0x345F JUMP JUMPDEST JUMPDEST CALLER PUSH20 0xFFFFFFFFFFFFFFFFFFFFFFFFFFFFFFFFFFFFFFFF AND DUP8 PUSH32 0xB7B6AE626E0094ABA4B69388B656D4B64F27860C5101C42C10A2E53FD6B0CE35 DUP9 PUSH1 0x40 MLOAD PUSH2 0x2977 SWAP2 SWAP1 PUSH2 0x3D67 JUMP JUMPDEST PUSH1 0x40 MLOAD DUP1 SWAP2 SUB SWAP1 LOG3 POP POP POP POP POP PUSH2 0x298C PUSH2 0x3113 JUMP JUMPDEST POP POP JUMP JUMPDEST PUSH1 0x1 PUSH1 0x20 MSTORE DUP1 PUSH1 0x0 MSTORE PUSH1 0x40 PUSH1 0x0 KECCAK256 PUSH1 0x0 SWAP2 POP SWAP1 POP DUP1 PUSH1 0x0 ADD SLOAD SWAP1 DUP1 PUSH1 0x1 ADD PUSH1 0x0 SWAP1 SLOAD SWAP1 PUSH2 0x100 EXP SWAP1 DIV PUSH1 0xFF AND SWAP1 DUP1 PUSH1 0x1 ADD PUSH1 0x1 SWAP1 SLOAD SWAP1 PUSH2 0x100 EXP SWAP1 DIV PUSH1 0xFF AND SWAP1 DUP1 PUSH1 0x1 ADD PUSH1 0x2 SWAP1 SLOAD SWAP1 PUSH2 0x100 EXP SWAP1 DIV PUSH1 0xFF AND SWAP1 DUP1 PUSH1 0x2 ADD SLOAD SWAP1 POP DUP6 JUMP JUMPDEST PUSH1 0x2 PUSH1 0x20 MSTORE DUP1 PUSH1 0x0 MSTORE PUSH1 0x40 PUSH1 0x0 KECCAK256 PUSH1 0x0 SWAP2 POP SWAP1 POP DUP1 PUSH1 0x0 ADD SLOAD SWAP1 DUP1 PUSH1 0x1 ADD SLOAD SWAP1 POP DUP3 JUMP JUMPDEST PUSH1 0x6 PUSH1 0x20 MSTORE DUP1 PUSH1 0x0 MSTORE PUSH1 0x40 PUSH1 0x0 KECCAK256 PUSH1 0x0 SWAP2 POP SWAP1 POP DUP1 PUSH1 0x0 ADD SLOAD SWAP1 DUP1 PUSH1 0x1 ADD SLOAD SWAP1 DUP1 PUSH1 0x2 ADD SLOAD SWAP1 DUP1 PUSH1 0x3 ADD SLOAD SWAP1 DUP1 PUSH1 0x4 ADD PUSH1 0x0 SWAP1 SLOAD SWAP1 PUSH2 0x100 EXP SWAP1 DIV PUSH1 0xFF AND SWAP1 POP DUP6 JUMP JUMPDEST PUSH1 0xD PUSH1 0x0 SWAP1 SLOAD SWAP1 PUSH2 0x100 EXP SWAP1 DIV PUSH20 0xFFFFFFFFFFFFFFFFFFFFFFFFFFFFFFFFFFFFFFFF AND PUSH20 0xFFFFFFFFFFFFFFFFFFFFFFFFFFFFFFFFFFFFFFFF AND CALLER PUSH20 0xFFFFFFFFFFFFFFFFFFFFFFFFFFFFFFFFFFFFFFFF AND EQ PUSH2 0x2AE4 JUMPI PUSH1 0x40 MLOAD PUSH32 0x8C379A000000000000000000000000000000000000000000000000000000000 DUP2 MSTORE PUSH1 0x4 ADD PUSH2 0x2ADB SWAP1 PUSH2 0x41D5 JUMP JUMPDEST PUSH1 0x40 MLOAD DUP1 SWAP2 SUB SWAP1 REVERT JUMPDEST PUSH1 0x64 DUP2 LT ISZERO PUSH2 0x2B28 JUMPI PUSH1 0x40 MLOAD PUSH32 0x8C379A000000000000000000000000000000000000000000000000000000000 DUP2 MSTORE PUSH1 0x4 ADD PUSH2 0x2B1F SWAP1 PUSH2 0x4FEB JUMP JUMPDEST PUSH1 0x40 MLOAD DUP1 SWAP2 SUB SWAP1 REVERT JUMPDEST DUP1 PUSH1 0xF DUP2 SWAP1 SSTORE POP POP JUMP JUMPDEST PUSH1 0xE SLOAD DUP2 JUMP JUMPDEST PUSH1 0x11 SLOAD DUP2 JUMP JUMPDEST PUSH1 0x0 DUP1 PUSH1 0xB PUSH1 0x1 SWAP1 SLOAD SWAP1 PUSH2 0x100 EXP SWAP1 DIV PUSH20 0xFFFFFFFFFFFFFFFFFFFFFFFFFFFFFFFFFFFFFFFF AND PUSH20 0xFFFFFFFFFFFFFFFFFFFFFFFFFFFFFFFFFFFFFFFF AND PUSH4 0xDD62ED3E CALLER ADDRESS PUSH1 0x40 MLOAD DUP4 PUSH4 0xFFFFFFFF AND PUSH1 0xE0 SHL DUP2 MSTORE PUSH1 0x4 ADD PUSH2 0x2B9E SWAP3 SWAP2 SWAP1 PUSH2 0x4B1D JUMP JUMPDEST PUSH1 0x20 PUSH1 0x40 MLOAD DUP1 DUP4 SUB DUP2 DUP7 GAS STATICCALL ISZERO DUP1 ISZERO PUSH2 0x2BBB JUMPI RETURNDATASIZE PUSH1 0x0 DUP1 RETURNDATACOPY RETURNDATASIZE PUSH1 0x0 REVERT JUMPDEST POP POP POP POP PUSH1 0x40 MLOAD RETURNDATASIZE PUSH1 0x1F NOT PUSH1 0x1F DUP3 ADD AND DUP3 ADD DUP1 PUSH1 0x40 MSTORE POP DUP2 ADD SWAP1 PUSH2 0x2BDF SWAP2 SWAP1 PUSH2 0x434B JUMP JUMPDEST SWAP1 POP DUP1 SWAP2 POP POP SWAP1 JUMP JUMPDEST PUSH1 0x4 PUSH1 0x20 MSTORE DUP2 PUSH1 0x0 MSTORE PUSH1 0x40 PUSH1 0x0 KECCAK256 DUP2 DUP2 SLOAD DUP2 LT PUSH2 0x2C04 JUMPI PUSH1 0x0 DUP1 REVERT JUMPDEST SWAP1 PUSH1 0x0 MSTORE PUSH1 0x20 PUSH1 0x0 KECCAK256 ADD PUSH1 0x0 SWAP2 POP SWAP2 POP POP SLOAD DUP2 JUMP JUMPDEST PUSH1 0x0 PUSH1 0x20 MSTORE DUP1 PUSH1 0x0 MSTORE PUSH1 0x40 PUSH1 0x0 KECCAK256 PUSH1 0x0 SWAP2 POP SWAP1 POP DUP1 PUSH1 0x0 ADD PUSH1 0x0 SWAP1 SLOAD SWAP1 PUSH2 0x100 EXP SWAP1 DIV PUSH20 0xFFFFFFFFFFFFFFFFFFFFFFFFFFFFFFFFFFFFFFFF AND SWAP1 DUP1 PUSH1 0x1 ADD PUSH1 0x0 SWAP1 SLOAD SWAP1 PUSH2 0x100 EXP SWAP1 DIV PUSH20 0xFFFFFFFFFFFFFFFFFFFFFFFFFFFFFFFFFFFFFFFF AND SWAP1 DUP1 PUSH1 0x2 ADD SLOAD SWAP1 DUP1 PUSH1 0x3 ADD SLOAD SWAP1 DUP1 PUSH1 0x4 ADD SLOAD SWAP1 DUP1 PUSH1 0x5 ADD PUSH1 0x0 SWAP1 SLOAD SWAP1 PUSH2 0x100 EXP SWAP1 DIV PUSH1 0xFF AND SWAP1 DUP1 PUSH1 0x6 ADD SLOAD SWAP1 POP DUP8 JUMP JUMPDEST PUSH2 0x2CB0 PUSH2 0x311D JUMP JUMPDEST PUSH2 0x2CB8 PUSH2 0x30CD JUMP JUMPDEST PUSH1 0x11 SLOAD DUP4 LT ISZERO DUP1 ISZERO PUSH2 0x2CCC JUMPI POP PUSH1 0x12 SLOAD DUP4 GT ISZERO JUMPDEST PUSH2 0x2D0B JUMPI PUSH1 0x40 MLOAD PUSH32 0x8C379A000000000000000000000000000000000000000000000000000000000 DUP2 MSTORE PUSH1 0x4 ADD PUSH2 0x2D02 SWAP1 PUSH2 0x5057 JUMP JUMPDEST PUSH1 0x40 MLOAD DUP1 SWAP2 SUB SWAP1 REVERT JUMPDEST PUSH1 0x0 PUSH2 0x2D15 PUSH2 0x24D7 JUMP JUMPDEST SWAP1 POP PUSH1 0x0 PUSH2 0x2DC5 DUP3 PUSH1 0xE SLOAD PUSH1 0xC PUSH1 0x0 SWAP1 SLOAD SWAP1 PUSH2 0x100 EXP SWAP1 DIV PUSH20 0xFFFFFFFFFFFFFFFFFFFFFFFFFFFFFFFFFFFFFFFF AND PUSH20 0xFFFFFFFFFFFFFFFFFFFFFFFFFFFFFFFFFFFFFFFF AND PUSH4 0x313CE567 PUSH1 0x40 MLOAD DUP2 PUSH4 0xFFFFFFFF AND PUSH1 0xE0 SHL DUP2 MSTORE PUSH1 0x4 ADD PUSH1 0x20 PUSH1 0x40 MLOAD DUP1 DUP4 SUB DUP2 DUP7 GAS STATICCALL ISZERO DUP1 ISZERO PUSH2 0x2D8D JUMPI RETURNDATASIZE PUSH1 0x0 DUP1 RETURNDATACOPY RETURNDATASIZE PUSH1 0x0 REVERT JUMPDEST POP POP POP POP PUSH1 0x40 MLOAD RETURNDATASIZE PUSH1 0x1F NOT PUSH1 0x1F DUP3 ADD AND DUP3 ADD DUP1 PUSH1 0x40 MSTORE POP DUP2 ADD SWAP1 PUSH2 0x2DB1 SWAP2 SWAP1 PUSH2 0x464F JUMP JUMPDEST PUSH1 0xFF AND DUP9 PUSH2 0x329A SWAP1 SWAP4 SWAP3 SWAP2 SWAP1 PUSH4 0xFFFFFFFF AND JUMP JUMPDEST SWAP1 POP DUP1 CALLVALUE LT ISZERO PUSH2 0x2E0A JUMPI PUSH1 0x40 MLOAD PUSH32 0x8C379A000000000000000000000000000000000000000000000000000000000 DUP2 MSTORE PUSH1 0x4 ADD PUSH2 0x2E01 SWAP1 PUSH2 0x50C3 JUMP JUMPDEST PUSH1 0x40 MLOAD DUP1 SWAP2 SUB SWAP1 REVERT JUMPDEST PUSH1 0x10 PUSH1 0x0 DUP2 SLOAD DUP1 SWAP3 SWAP2 SWAP1 PUSH2 0x2E1D SWAP1 PUSH2 0x4290 JUMP JUMPDEST SWAP2 SWAP1 POP SSTORE POP PUSH1 0x0 PUSH1 0x6 PUSH1 0x0 PUSH1 0x10 SLOAD DUP2 MSTORE PUSH1 0x20 ADD SWAP1 DUP2 MSTORE PUSH1 0x20 ADD PUSH1 0x0 KECCAK256 SWAP1 POP DUP6 DUP2 PUSH1 0x0 ADD DUP2 SWAP1 SSTORE POP DUP5 DUP2 PUSH1 0x1 ADD DUP2 SWAP1 SSTORE POP DUP4 DUP2 PUSH1 0x3 ADD DUP2 SWAP1 SSTORE POP DUP4 TIMESTAMP PUSH2 0x2E62 SWAP2 SWAP1 PUSH2 0x482A JUMP JUMPDEST DUP2 PUSH1 0x2 ADD DUP2 SWAP1 SSTORE POP PUSH1 0x0 DUP2 PUSH1 0x4 ADD PUSH1 0x0 PUSH2 0x100 EXP DUP2 SLOAD DUP2 PUSH1 0xFF MUL NOT AND SWAP1 DUP4 ISZERO ISZERO MUL OR SWAP1 SSTORE POP PUSH1 0x40 MLOAD DUP1 PUSH1 0xE0 ADD PUSH1 0x40 MSTORE DUP1 CALLER PUSH20 0xFFFFFFFFFFFFFFFFFFFFFFFFFFFFFFFFFFFFFFFF AND DUP2 MSTORE PUSH1 0x20 ADD PUSH1 0x0 PUSH20 0xFFFFFFFFFFFFFFFFFFFFFFFFFFFFFFFFFFFFFFFF AND DUP2 MSTORE PUSH1 0x20 ADD DUP8 DUP2 MSTORE PUSH1 0x20 ADD CALLVALUE DUP2 MSTORE PUSH1 0x20 ADD DUP7 DUP2 MSTORE PUSH1 0x20 ADD PUSH1 0x0 PUSH1 0x1 DUP2 GT ISZERO PUSH2 0x2EF1 JUMPI PUSH2 0x2EF0 PUSH2 0x403F JUMP JUMPDEST JUMPDEST DUP2 MSTORE PUSH1 0x20 ADD DUP6 DUP2 MSTORE POP PUSH1 0x0 DUP1 PUSH1 0x10 SLOAD DUP2 MSTORE PUSH1 0x20 ADD SWAP1 DUP2 MSTORE PUSH1 0x20 ADD PUSH1 0x0 KECCAK256 PUSH1 0x0 DUP3 ADD MLOAD DUP2 PUSH1 0x0 ADD PUSH1 0x0 PUSH2 0x100 EXP DUP2 SLOAD DUP2 PUSH20 0xFFFFFFFFFFFFFFFFFFFFFFFFFFFFFFFFFFFFFFFF MUL NOT AND SWAP1 DUP4 PUSH20 0xFFFFFFFFFFFFFFFFFFFFFFFFFFFFFFFFFFFFFFFF AND MUL OR SWAP1 SSTORE POP PUSH1 0x20 DUP3 ADD MLOAD DUP2 PUSH1 0x1 ADD PUSH1 0x0 PUSH2 0x100 EXP DUP2 SLOAD DUP2 PUSH20 0xFFFFFFFFFFFFFFFFFFFFFFFFFFFFFFFFFFFFFFFF MUL NOT AND SWAP1 DUP4 PUSH20 0xFFFFFFFFFFFFFFFFFFFFFFFFFFFFFFFFFFFFFFFF AND MUL OR SWAP1 SSTORE POP PUSH1 0x40 DUP3 ADD MLOAD DUP2 PUSH1 0x2 ADD SSTORE PUSH1 0x60 DUP3 ADD MLOAD DUP2 PUSH1 0x3 ADD SSTORE PUSH1 0x80 DUP3 ADD MLOAD DUP2 PUSH1 0x4 ADD SSTORE PUSH1 0xA0 DUP3 ADD MLOAD DUP2 PUSH1 0x5 ADD PUSH1 0x0 PUSH2 0x100 EXP DUP2 SLOAD DUP2 PUSH1 0xFF MUL NOT AND SWAP1 DUP4 PUSH1 0x1 DUP2 GT ISZERO PUSH2 0x2FE5 JUMPI PUSH2 0x2FE4 PUSH2 0x403F JUMP JUMPDEST JUMPDEST MUL OR SWAP1 SSTORE POP PUSH1 0xC0 DUP3 ADD MLOAD DUP2 PUSH1 0x6 ADD SSTORE SWAP1 POP POP PUSH1 0x4 PUSH1 0x0 CALLER PUSH20 0xFFFFFFFFFFFFFFFFFFFFFFFFFFFFFFFFFFFFFFFF AND PUSH20 0xFFFFFFFFFFFFFFFFFFFFFFFFFFFFFFFFFFFFFFFF AND DUP2 MSTORE PUSH1 0x20 ADD SWAP1 DUP2 MSTORE PUSH1 0x20 ADD PUSH1 0x0 KECCAK256 PUSH1 0x10 SLOAD SWAP1 DUP1 PUSH1 0x1 DUP2 SLOAD ADD DUP1 DUP3 SSTORE DUP1 SWAP2 POP POP PUSH1 0x1 SWAP1 SUB SWAP1 PUSH1 0x0 MSTORE PUSH1 0x20 PUSH1 0x0 KECCAK256 ADD PUSH1 0x0 SWAP1 SWAP2 SWAP1 SWAP2 SWAP1 SWAP2 POP SSTORE PUSH2 0x306A PUSH1 0x10 SLOAD PUSH2 0x3568 JUMP JUMPDEST CALLER PUSH20 0xFFFFFFFFFFFFFFFFFFFFFFFFFFFFFFFFFFFFFFFF AND PUSH1 0x10 SLOAD PUSH32 0x68595DBE887AE7F496F2C88735019A8918919A1DECFDEE6BDB460480AB87DECB DUP9 CALLVALUE PUSH1 0x40 MLOAD PUSH2 0x30B5 SWAP3 SWAP2 SWAP1 PUSH2 0x3FC3 JUMP JUMPDEST PUSH1 0x40 MLOAD DUP1 SWAP2 SUB SWAP1 LOG3 POP POP POP PUSH2 0x30C8 PUSH2 0x3113 JUMP JUMPDEST POP POP POP JUMP JUMPDEST PUSH1 0x2 PUSH1 0xA SLOAD SUB PUSH2 0x3109 JUMPI PUSH1 0x40 MLOAD PUSH32 0x3EE5AEB500000000000000000000000000000000000000000000000000000000 DUP2 MSTORE PUSH1 0x4 ADD PUSH1 0x40 MLOAD DUP1 SWAP2 SUB SWAP1 REVERT JUMPDEST PUSH1 0x2 PUSH1 0xA DUP2 SWAP1 SSTORE POP JUMP JUMPDEST PUSH1 0x1 PUSH1 0xA DUP2 SWAP1 SSTORE POP JUMP JUMPDEST PUSH2 0x3125 PUSH2 0x101F JUMP JUMPDEST ISZERO PUSH2 0x315C JUMPI PUSH1 0x40 MLOAD PUSH32 0xD93C066500000000000000000000000000000000000000000000000000000000 DUP2 MSTORE PUSH1 0x4 ADD PUSH1 0x40 MLOAD DUP1 SWAP2 SUB SWAP1 REVERT JUMPDEST JUMP JUMPDEST PUSH1 0x0 DUP1 PUSH1 0x0 DUP4 DUP2 MSTORE PUSH1 0x20 ADD SWAP1 DUP2 MSTORE PUSH1 0x20 ADD PUSH1 0x0 KECCAK256 SWAP1 POP DUP1 PUSH1 0x3 ADD SLOAD SELFBALANCE LT ISZERO PUSH2 0x31BB JUMPI PUSH1 0x40 MLOAD PUSH32 0x8C379A000000000000000000000000000000000000000000000000000000000 DUP2 MSTORE PUSH1 0x4 ADD PUSH2 0x31B2 SWAP1 PUSH2 0x512F JUMP JUMPDEST PUSH1 0x40 MLOAD DUP1 SWAP2 SUB SWAP1 REVERT JUMPDEST PUSH1 0x0 DUP2 PUSH1 0x1 ADD PUSH1 0x0 SWAP1 SLOAD SWAP1 PUSH2 0x100 EXP SWAP1 DIV PUSH20 0xFFFFFFFFFFFFFFFFFFFFFFFFFFFFFFFFFFFFFFFF AND SWAP1 POP PUSH1 0x0 DUP2 PUSH20 0xFFFFFFFFFFFFFFFFFFFFFFFFFFFFFFFFFFFFFFFF AND DUP4 PUSH1 0x3 ADD SLOAD PUSH1 0x40 MLOAD PUSH2 0x320E SWAP1 PUSH2 0x5180 JUMP JUMPDEST PUSH1 0x0 PUSH1 0x40 MLOAD DUP1 DUP4 SUB DUP2 DUP6 DUP8 GAS CALL SWAP3 POP POP POP RETURNDATASIZE DUP1 PUSH1 0x0 DUP2 EQ PUSH2 0x324B JUMPI PUSH1 0x40 MLOAD SWAP2 POP PUSH1 0x1F NOT PUSH1 0x3F RETURNDATASIZE ADD AND DUP3 ADD PUSH1 0x40 MSTORE RETURNDATASIZE DUP3 MSTORE RETURNDATASIZE PUSH1 0x0 PUSH1 0x20 DUP5 ADD RETURNDATACOPY PUSH2 0x3250 JUMP JUMPDEST PUSH1 0x60 SWAP2 POP JUMPDEST POP POP SWAP1 POP DUP1 PUSH2 0x3294 JUMPI PUSH1 0x40 MLOAD PUSH32 0x8C379A000000000000000000000000000000000000000000000000000000000 DUP2 MSTORE PUSH1 0x4 ADD PUSH2 0x328B SWAP1 PUSH2 0x51E1 JUMP JUMPDEST PUSH1 0x40 MLOAD DUP1 SWAP2 SUB SWAP1 REVERT JUMPDEST POP POP POP POP JUMP JUMPDEST PUSH1 0x0 DUP2 PUSH1 0xA PUSH2 0x32A9 SWAP2 SWAP1 PUSH2 0x5334 JUMP JUMPDEST PUSH1 0x64 PUSH2 0x32B5 SWAP2 SWAP1 PUSH2 0x4754 JUMP JUMPDEST DUP4 DUP6 DUP8 PUSH2 0x32C2 SWAP2 SWAP1 PUSH2 0x4754 JUMP JUMPDEST PUSH2 0x32CC SWAP2 SWAP1 PUSH2 0x4754 JUMP JUMPDEST PUSH2 0x32D6 SWAP2 SWAP1 PUSH2 0x47C5 JUMP JUMPDEST SWAP1 POP SWAP5 SWAP4 POP POP POP POP JUMP JUMPDEST PUSH1 0x0 DUP1 PUSH1 0x0 DUP4 DUP2 MSTORE PUSH1 0x20 ADD SWAP1 DUP2 MSTORE PUSH1 0x20 ADD PUSH1 0x0 KECCAK256 SWAP1 POP PUSH1 0x0 PUSH1 0x2 PUSH1 0x0 DUP5 DUP2 MSTORE PUSH1 0x20 ADD SWAP1 DUP2 MSTORE PUSH1 0x20 ADD PUSH1 0x0 KECCAK256 SWAP1 POP PUSH1 0x0 PUSH1 0x1 PUSH1 0x0 DUP6 DUP2 MSTORE PUSH1 0x20 ADD SWAP1 DUP2 MSTORE PUSH1 0x20 ADD PUSH1 0x0 KECCAK256 SWAP1 POP DUP1 PUSH1 0x1 ADD PUSH1 0x0 SWAP1 SLOAD SWAP1 PUSH2 0x100 EXP SWAP1 DIV PUSH1 0xFF AND PUSH2 0x3375 JUMPI PUSH1 0x40 MLOAD PUSH32 0x8C379A000000000000000000000000000000000000000000000000000000000 DUP2 MSTORE PUSH1 0x4 ADD PUSH2 0x336C SWAP1 PUSH2 0x451E JUMP JUMPDEST PUSH1 0x40 MLOAD DUP1 SWAP2 SUB SWAP1 REVERT JUMPDEST PUSH1 0x0 DUP1 DUP4 PUSH1 0x0 ADD SLOAD SUB PUSH2 0x338E JUMPI DUP4 PUSH1 0x6 ADD SLOAD SWAP1 POP PUSH2 0x33A1 JUMP JUMPDEST DUP3 PUSH1 0x0 ADD SLOAD TIMESTAMP PUSH2 0x339E SWAP2 SWAP1 PUSH2 0x47F6 JUMP JUMPDEST SWAP1 POP JUMPDEST PUSH1 0x0 DUP2 GT PUSH2 0x33E4 JUMPI PUSH1 0x40 MLOAD PUSH32 0x8C379A000000000000000000000000000000000000000000000000000000000 DUP2 MSTORE PUSH1 0x4 ADD PUSH2 0x33DB SWAP1 PUSH2 0x53F1 JUMP JUMPDEST PUSH1 0x40 MLOAD DUP1 SWAP2 SUB SWAP1 REVERT JUMPDEST PUSH1 0x0 PUSH2 0x33F9 DUP6 PUSH1 0x2 ADD SLOAD DUP7 PUSH1 0x4 ADD SLOAD DUP5 PUSH2 0x36AA JUMP JUMPDEST SWAP1 POP DUP1 DUP5 PUSH1 0x1 ADD PUSH1 0x0 DUP3 DUP3 SLOAD PUSH2 0x340F SWAP2 SWAP1 PUSH2 0x482A JUMP JUMPDEST SWAP3 POP POP DUP2 SWAP1 SSTORE POP TIMESTAMP DUP5 PUSH1 0x0 ADD DUP2 SWAP1 SSTORE POP DUP6 PUSH32 0x3D8708181C6452C5711A2B4C6ED3F12149F6EA35F78549ABA00A89D041E766CA DUP3 PUSH1 0x40 MLOAD PUSH2 0x344F SWAP2 SWAP1 PUSH2 0x3D67 JUMP JUMPDEST PUSH1 0x40 MLOAD DUP1 SWAP2 SUB SWAP1 LOG2 POP POP POP POP POP POP JUMP JUMPDEST PUSH1 0x0 DUP1 PUSH1 0x0 DUP4 DUP2 MSTORE PUSH1 0x20 ADD SWAP1 DUP2 MSTORE PUSH1 0x20 ADD PUSH1 0x0 KECCAK256 SWAP1 POP PUSH1 0x0 DUP2 PUSH1 0x3 ADD SLOAD SWAP1 POP PUSH1 0x0 DUP2 GT ISZERO PUSH2 0x3563 JUMPI PUSH1 0x0 DUP3 PUSH1 0x3 ADD DUP2 SWAP1 SSTORE POP PUSH1 0x0 DUP3 PUSH1 0x0 ADD PUSH1 0x0 SWAP1 SLOAD SWAP1 PUSH2 0x100 EXP SWAP1 DIV PUSH20 0xFFFFFFFFFFFFFFFFFFFFFFFFFFFFFFFFFFFFFFFF AND PUSH20 0xFFFFFFFFFFFFFFFFFFFFFFFFFFFFFFFFFFFFFFFF AND DUP3 PUSH1 0x40 MLOAD PUSH2 0x34DB SWAP1 PUSH2 0x5180 JUMP JUMPDEST PUSH1 0x0 PUSH1 0x40 MLOAD DUP1 DUP4 SUB DUP2 DUP6 DUP8 GAS CALL SWAP3 POP POP POP RETURNDATASIZE DUP1 PUSH1 0x0 DUP2 EQ PUSH2 0x3518 JUMPI PUSH1 0x40 MLOAD SWAP2 POP PUSH1 0x1F NOT PUSH1 0x3F RETURNDATASIZE ADD AND DUP3 ADD PUSH1 0x40 MSTORE RETURNDATASIZE DUP3 MSTORE RETURNDATASIZE PUSH1 0x0 PUSH1 0x20 DUP5 ADD RETURNDATACOPY PUSH2 0x351D JUMP JUMPDEST PUSH1 0x60 SWAP2 POP JUMPDEST POP POP SWAP1 POP DUP1 PUSH2 0x3561 JUMPI PUSH1 0x40 MLOAD PUSH32 0x8C379A000000000000000000000000000000000000000000000000000000000 DUP2 MSTORE PUSH1 0x4 ADD PUSH2 0x3558 SWAP1 PUSH2 0x51E1 JUMP JUMPDEST PUSH1 0x40 MLOAD DUP1 SWAP2 SUB SWAP1 REVERT JUMPDEST POP JUMPDEST POP POP POP JUMP JUMPDEST PUSH1 0x0 PUSH1 0x6 PUSH1 0x0 DUP4 DUP2 MSTORE PUSH1 0x20 ADD SWAP1 DUP2 MSTORE PUSH1 0x20 ADD PUSH1 0x0 KECCAK256 SWAP1 POP PUSH1 0x0 DUP1 PUSH32 0xFFFFFFFFFFFFFFFFFFFFFFFFFFFFFFFFFFFFFFFFFFFFFFFFFFFFFFFFFFFFFFFF SWAP1 POP PUSH1 0x0 JUMPDEST PUSH1 0x9 DUP1 SLOAD SWAP1 POP DUP2 LT ISZERO PUSH2 0x3663 JUMPI PUSH1 0x0 PUSH1 0x9 DUP3 DUP2 SLOAD DUP2 LT PUSH2 0x35CB JUMPI PUSH2 0x35CA PUSH2 0x4307 JUMP JUMPDEST JUMPDEST SWAP1 PUSH1 0x0 MSTORE PUSH1 0x20 PUSH1 0x0 KECCAK256 ADD SLOAD SWAP1 POP DUP5 PUSH1 0x0 ADD SLOAD PUSH1 0x7 PUSH1 0x0 DUP4 PUSH20 0xFFFFFFFFFFFFFFFFFFFFFFFFFFFFFFFFFFFFFFFF AND PUSH20 0xFFFFFFFFFFFFFFFFFFFFFFFFFFFFFFFFFFFFFFFF AND DUP2 MSTORE PUSH1 0x20 ADD SWAP1 DUP2 MSTORE PUSH1 0x20 ADD PUSH1 0x0 KECCAK256 SLOAD LT PUSH2 0x3655 JUMPI PUSH1 0x0 PUSH2 0x3632 DUP3 DUP8 PUSH1 0x0 ADD SLOAD PUSH2 0x3818 JUMP JUMPDEST SWAP1 POP DUP6 PUSH1 0x1 ADD SLOAD DUP2 GT ISZERO DUP1 ISZERO PUSH2 0x3647 JUMPI POP DUP4 DUP2 LT JUMPDEST ISZERO PUSH2 0x3653 JUMPI DUP2 SWAP5 POP DUP1 SWAP4 POP JUMPDEST POP JUMPDEST POP DUP1 DUP1 PUSH1 0x1 ADD SWAP2 POP POP PUSH2 0x35A8 JUMP JUMPDEST POP PUSH1 0x0 PUSH20 0xFFFFFFFFFFFFFFFFFFFFFFFFFFFFFFFFFFFFFFFF AND DUP3 PUSH20 0xFFFFFFFFFFFFFFFFFFFFFFFFFFFFFFFFFFFFFFFF AND EQ PUSH2 0x36A4 JUMPI PUSH2 0x36A3 DUP5 DUP4 DUP4 PUSH2 0x3914 JUMP JUMPDEST JUMPDEST POP POP POP POP JUMP JUMPDEST PUSH1 0x0 DUP1 DUP5 GT PUSH2 0x36EE JUMPI PUSH1 0x40 MLOAD PUSH32 0x8C379A000000000000000000000000000000000000000000000000000000000 DUP2 MSTORE PUSH1 0x4 ADD PUSH2 0x36E5 SWAP1 PUSH2 0x545D JUMP JUMPDEST PUSH1 0x40 MLOAD DUP1 SWAP2 SUB SWAP1 REVERT JUMPDEST PUSH1 0x0 DUP4 GT PUSH2 0x3731 JUMPI PUSH1 0x40 MLOAD PUSH32 0x8C379A000000000000000000000000000000000000000000000000000000000 DUP2 MSTORE PUSH1 0x4 ADD PUSH2 0x3728 SWAP1 PUSH2 0x54EF JUMP JUMPDEST PUSH1 0x40 MLOAD DUP1 SWAP2 SUB SWAP1 REVERT JUMPDEST PUSH1 0x0 DUP3 GT PUSH2 0x3774 JUMPI PUSH1 0x40 MLOAD PUSH32 0x8C379A000000000000000000000000000000000000000000000000000000000 DUP2 MSTORE PUSH1 0x4 ADD PUSH2 0x376B SWAP1 PUSH2 0x5581 JUMP JUMPDEST PUSH1 0x40 MLOAD DUP1 SWAP2 SUB SWAP1 REVERT JUMPDEST PUSH1 0x0 PUSH4 0xBBF81E00 PUSH8 0xDE0B6B3A7640000 DUP6 PUSH2 0x378F SWAP2 SWAP1 PUSH2 0x4754 JUMP JUMPDEST PUSH2 0x3799 SWAP2 SWAP1 PUSH2 0x47C5 JUMP JUMPDEST SWAP1 POP PUSH1 0x0 DUP2 GT PUSH2 0x37DE JUMPI PUSH1 0x40 MLOAD PUSH32 0x8C379A000000000000000000000000000000000000000000000000000000000 DUP2 MSTORE PUSH1 0x4 ADD PUSH2 0x37D5 SWAP1 PUSH2 0x55ED JUMP JUMPDEST PUSH1 0x40 MLOAD DUP1 SWAP2 SUB SWAP1 REVERT JUMPDEST PUSH1 0x0 PUSH8 0xDE0B6B3A7640000 DUP5 DUP4 DUP9 PUSH2 0x37F6 SWAP2 SWAP1 PUSH2 0x4754 JUMP JUMPDEST PUSH2 0x3800 SWAP2 SWAP1 PUSH2 0x4754 JUMP JUMPDEST PUSH2 0x380A SWAP2 SWAP1 PUSH2 0x47C5 JUMP JUMPDEST SWAP1 POP DUP1 SWAP3 POP POP POP SWAP4 SWAP3 POP POP POP JUMP JUMPDEST PUSH1 0x0 DUP1 PUSH1 0x7 PUSH1 0x0 DUP6 PUSH20 0xFFFFFFFFFFFFFFFFFFFFFFFFFFFFFFFFFFFFFFFF AND PUSH20 0xFFFFFFFFFFFFFFFFFFFFFFFFFFFFFFFFFFFFFFFF AND DUP2 MSTORE PUSH1 0x20 ADD SWAP1 DUP2 MSTORE PUSH1 0x20 ADD PUSH1 0x0 KECCAK256 SLOAD SWAP1 POP DUP3 DUP2 LT ISZERO PUSH2 0x38A0 JUMPI PUSH1 0x40 MLOAD PUSH32 0x8C379A000000000000000000000000000000000000000000000000000000000 DUP2 MSTORE PUSH1 0x4 ADD PUSH2 0x3897 SWAP1 PUSH2 0x5659 JUMP JUMPDEST PUSH1 0x40 MLOAD DUP1 SWAP2 SUB SWAP1 REVERT JUMPDEST PUSH1 0x0 DUP2 PUSH1 0x64 DUP6 PUSH2 0x38B0 SWAP2 SWAP1 PUSH2 0x4754 JUMP JUMPDEST PUSH2 0x38BA SWAP2 SWAP1 PUSH2 0x47C5 JUMP JUMPDEST SWAP1 POP PUSH1 0x0 PUSH1 0x2 SWAP1 POP PUSH1 0x0 PUSH1 0x14 SWAP1 POP PUSH1 0x0 PUSH1 0x64 DUP4 DUP4 PUSH2 0x38D8 SWAP2 SWAP1 PUSH2 0x47F6 JUMP JUMPDEST DUP6 PUSH2 0x38E3 SWAP2 SWAP1 PUSH2 0x4754 JUMP JUMPDEST PUSH2 0x38ED SWAP2 SWAP1 PUSH2 0x47C5 JUMP JUMPDEST DUP4 PUSH2 0x38F8 SWAP2 SWAP1 PUSH2 0x482A JUMP JUMPDEST SWAP1 POP DUP2 DUP2 GT ISZERO PUSH2 0x3906 JUMPI DUP2 SWAP1 POP JUMPDEST DUP1 SWAP6 POP POP POP POP POP POP SWAP3 SWAP2 POP POP JUMP JUMPDEST PUSH1 0x0 DUP1 PUSH1 0x0 DUP6 DUP2 MSTORE PUSH1 0x20 ADD SWAP1 DUP2 MSTORE PUSH1 0x20 ADD PUSH1 0x0 KECCAK256 SWAP1 POP DUP3 DUP2 PUSH1 0x1 ADD PUSH1 0x0 PUSH2 0x100 EXP DUP2 SLOAD DUP2 PUSH20 0xFFFFFFFFFFFFFFFFFFFFFFFFFFFFFFFFFFFFFFFF MUL NOT AND SWAP1 DUP4 PUSH20 0xFFFFFFFFFFFFFFFFFFFFFFFFFFFFFFFFFFFFFFFF AND MUL OR SWAP1 SSTORE POP DUP2 DUP2 PUSH1 0x4 ADD DUP2 SWAP1 SSTORE POP PUSH1 0x1 PUSH1 0x6 PUSH1 0x0 DUP7 DUP2 MSTORE PUSH1 0x20 ADD SWAP1 DUP2 MSTORE PUSH1 0x20 ADD PUSH1 0x0 KECCAK256 PUSH1 0x4 ADD PUSH1 0x0 PUSH2 0x100 EXP DUP2 SLOAD DUP2 PUSH1 0xFF MUL NOT AND SWAP1 DUP4 ISZERO ISZERO MUL OR SWAP1 SSTORE POP DUP1 PUSH1 0x0 ADD PUSH1 0x0 SWAP1 SLOAD SWAP1 PUSH2 0x100 EXP SWAP1 DIV PUSH20 0xFFFFFFFFFFFFFFFFFFFFFFFFFFFFFFFFFFFFFFFF AND PUSH20 0xFFFFFFFFFFFFFFFFFFFFFFFFFFFFFFFFFFFFFFFF AND DUP4 PUSH20 0xFFFFFFFFFFFFFFFFFFFFFFFFFFFFFFFFFFFFFFFF AND DUP6 PUSH32 0x132AEB8D030DCC11ADFC3EAD0730A22AA3C0BF449B3532210C732B9A25E83C20 PUSH1 0x40 MLOAD PUSH1 0x40 MLOAD DUP1 SWAP2 SUB SWAP1 LOG4 POP POP POP POP JUMP JUMPDEST PUSH1 0x40 MLOAD DUP1 PUSH2 0x120 ADD PUSH1 0x40 MSTORE DUP1 PUSH1 0x0 DUP2 MSTORE PUSH1 0x20 ADD PUSH1 0x0 PUSH20 0xFFFFFFFFFFFFFFFFFFFFFFFFFFFFFFFFFFFFFFFF AND DUP2 MSTORE PUSH1 0x20 ADD PUSH1 0x0 DUP2 MSTORE PUSH1 0x20 ADD PUSH1 0x0 DUP2 MSTORE PUSH1 0x20 ADD PUSH1 0x0 DUP2 MSTORE PUSH1 0x20 ADD PUSH1 0x0 DUP2 MSTORE PUSH1 0x20 ADD PUSH1 0x0 ISZERO ISZERO DUP2 MSTORE PUSH1 0x20 ADD PUSH1 0x0 DUP2 MSTORE PUSH1 0x20 ADD PUSH1 0x0 ISZERO ISZERO DUP2 MSTORE POP SWAP1 JUMP JUMPDEST PUSH1 0x0 DUP1 REVERT JUMPDEST PUSH1 0x0 DUP2 SWAP1 POP SWAP2 SWAP1 POP JUMP JUMPDEST PUSH2 0x3AA8 DUP2 PUSH2 0x3A95 JUMP JUMPDEST DUP2 EQ PUSH2 0x3AB3 JUMPI PUSH1 0x0 DUP1 REVERT JUMPDEST POP JUMP JUMPDEST PUSH1 0x0 DUP2 CALLDATALOAD SWAP1 POP PUSH2 0x3AC5 DUP2 PUSH2 0x3A9F JUMP JUMPDEST SWAP3 SWAP2 POP POP JUMP JUMPDEST PUSH1 0x0 PUSH1 0x20 DUP3 DUP5 SUB SLT ISZERO PUSH2 0x3AE1 JUMPI PUSH2 0x3AE0 PUSH2 0x3A90 JUMP JUMPDEST JUMPDEST PUSH1 0x0 PUSH2 0x3AEF DUP5 DUP3 DUP6 ADD PUSH2 0x3AB6 JUMP JUMPDEST SWAP2 POP POP SWAP3 SWAP2 POP POP JUMP JUMPDEST PUSH1 0x0 DUP2 MLOAD SWAP1 POP SWAP2 SWAP1 POP JUMP JUMPDEST PUSH1 0x0 DUP3 DUP3 MSTORE PUSH1 0x20 DUP3 ADD SWAP1 POP SWAP3 SWAP2 POP POP JUMP JUMPDEST PUSH1 0x0 DUP2 SWAP1 POP PUSH1 0x20 DUP3 ADD SWAP1 POP SWAP2 SWAP1 POP JUMP JUMPDEST PUSH2 0x3B2D DUP2 PUSH2 0x3A95 JUMP JUMPDEST DUP3 MSTORE POP POP JUMP JUMPDEST PUSH1 0x0 PUSH20 0xFFFFFFFFFFFFFFFFFFFFFFFFFFFFFFFFFFFFFFFF DUP3 AND SWAP1 POP SWAP2 SWAP1 POP JUMP JUMPDEST PUSH1 0x0 PUSH2 0x3B5E DUP3 PUSH2 0x3B33 JUMP JUMPDEST SWAP1 POP SWAP2 SWAP1 POP JUMP JUMPDEST PUSH2 0x3B6E DUP2 PUSH2 0x3B53 JUMP JUMPDEST DUP3 MSTORE POP POP JUMP JUMPDEST PUSH1 0x0 DUP2 ISZERO ISZERO SWAP1 POP SWAP2 SWAP1 POP JUMP JUMPDEST PUSH2 0x3B89 DUP2 PUSH2 0x3B74 JUMP JUMPDEST DUP3 MSTORE POP POP JUMP JUMPDEST PUSH2 0x120 DUP3 ADD PUSH1 0x0 DUP3 ADD MLOAD PUSH2 0x3BA6 PUSH1 0x0 DUP6 ADD DUP3 PUSH2 0x3B24 JUMP JUMPDEST POP PUSH1 0x20 DUP3 ADD MLOAD PUSH2 0x3BB9 PUSH1 0x20 DUP6 ADD DUP3 PUSH2 0x3B65 JUMP JUMPDEST POP PUSH1 0x40 DUP3 ADD MLOAD PUSH2 0x3BCC PUSH1 0x40 DUP6 ADD DUP3 PUSH2 0x3B24 JUMP JUMPDEST POP PUSH1 0x60 DUP3 ADD MLOAD PUSH2 0x3BDF PUSH1 0x60 DUP6 ADD DUP3 PUSH2 0x3B24 JUMP JUMPDEST POP PUSH1 0x80 DUP3 ADD MLOAD PUSH2 0x3BF2 PUSH1 0x80 DUP6 ADD DUP3 PUSH2 0x3B24 JUMP JUMPDEST POP PUSH1 0xA0 DUP3 ADD MLOAD PUSH2 0x3C05 PUSH1 0xA0 DUP6 ADD DUP3 PUSH2 0x3B24 JUMP JUMPDEST POP PUSH1 0xC0 DUP3 ADD MLOAD PUSH2 0x3C18 PUSH1 0xC0 DUP6 ADD DUP3 PUSH2 0x3B80 JUMP JUMPDEST POP PUSH1 0xE0 DUP3 ADD MLOAD PUSH2 0x3C2B PUSH1 0xE0 DUP6 ADD DUP3 PUSH2 0x3B24 JUMP JUMPDEST POP PUSH2 0x100 DUP3 ADD MLOAD PUSH2 0x3C40 PUSH2 0x100 DUP6 ADD DUP3 PUSH2 0x3B80 JUMP JUMPDEST POP POP POP POP JUMP JUMPDEST PUSH1 0x0 PUSH2 0x3C52 DUP4 DUP4 PUSH2 0x3B8F JUMP JUMPDEST PUSH2 0x120 DUP4 ADD SWAP1 POP SWAP3 SWAP2 POP POP JUMP JUMPDEST PUSH1 0x0 PUSH1 0x20 DUP3 ADD SWAP1 POP SWAP2 SWAP1 POP JUMP JUMPDEST PUSH1 0x0 PUSH2 0x3C77 DUP3 PUSH2 0x3AF8 JUMP JUMPDEST PUSH2 0x3C81 DUP2 DUP6 PUSH2 0x3B03 JUMP JUMPDEST SWAP4 POP PUSH2 0x3C8C DUP4 PUSH2 0x3B14 JUMP JUMPDEST DUP1 PUSH1 0x0 JUMPDEST DUP4 DUP2 LT ISZERO PUSH2 0x3CBD JUMPI DUP2 MLOAD PUSH2 0x3CA4 DUP9 DUP3 PUSH2 0x3C46 JUMP JUMPDEST SWAP8 POP PUSH2 0x3CAF DUP4 PUSH2 0x3C5F JUMP JUMPDEST SWAP3 POP POP PUSH1 0x1 DUP2 ADD SWAP1 POP PUSH2 0x3C90 JUMP JUMPDEST POP DUP6 SWAP4 POP POP POP POP SWAP3 SWAP2 POP POP JUMP JUMPDEST PUSH1 0x0 PUSH1 0x20 DUP3 ADD SWAP1 POP DUP2 DUP2 SUB PUSH1 0x0 DUP4 ADD MSTORE PUSH2 0x3CE4 DUP2 DUP5 PUSH2 0x3C6C JUMP JUMPDEST SWAP1 POP SWAP3 SWAP2 POP POP JUMP JUMPDEST PUSH2 0x3CF5 DUP2 PUSH2 0x3B53 JUMP JUMPDEST DUP2 EQ PUSH2 0x3D00 JUMPI PUSH1 0x0 DUP1 REVERT JUMPDEST POP JUMP JUMPDEST PUSH1 0x0 DUP2 CALLDATALOAD SWAP1 POP PUSH2 0x3D12 DUP2 PUSH2 0x3CEC JUMP JUMPDEST SWAP3 SWAP2 POP POP JUMP JUMPDEST PUSH1 0x0 DUP1 PUSH1 0x40 DUP4 DUP6 SUB SLT ISZERO PUSH2 0x3D2F JUMPI PUSH2 0x3D2E PUSH2 0x3A90 JUMP JUMPDEST JUMPDEST PUSH1 0x0 PUSH2 0x3D3D DUP6 DUP3 DUP7 ADD PUSH2 0x3AB6 JUMP JUMPDEST SWAP3 POP POP PUSH1 0x20 PUSH2 0x3D4E DUP6 DUP3 DUP7 ADD PUSH2 0x3D03 JUMP JUMPDEST SWAP2 POP POP SWAP3 POP SWAP3 SWAP1 POP JUMP JUMPDEST PUSH2 0x3D61 DUP2 PUSH2 0x3A95 JUMP JUMPDEST DUP3 MSTORE POP POP JUMP JUMPDEST PUSH1 0x0 PUSH1 0x20 DUP3 ADD SWAP1 POP PUSH2 0x3D7C PUSH1 0x0 DUP4 ADD DUP5 PUSH2 0x3D58 JUMP JUMPDEST SWAP3 SWAP2 POP POP JUMP JUMPDEST PUSH1 0x0 PUSH1 0x20 DUP3 DUP5 SUB SLT ISZERO PUSH2 0x3D98 JUMPI PUSH2 0x3D97 PUSH2 0x3A90 JUMP JUMPDEST JUMPDEST PUSH1 0x0 PUSH2 0x3DA6 DUP5 DUP3 DUP6 ADD PUSH2 0x3D03 JUMP JUMPDEST SWAP2 POP POP SWAP3 SWAP2 POP POP JUMP JUMPDEST PUSH1 0x0 DUP1 PUSH1 0x40 DUP4 DUP6 SUB SLT ISZERO PUSH2 0x3DC6 JUMPI PUSH2 0x3DC5 PUSH2 0x3A90 JUMP JUMPDEST JUMPDEST PUSH1 0x0 PUSH2 0x3DD4 DUP6 DUP3 DUP7 ADD PUSH2 0x3D03 JUMP JUMPDEST SWAP3 POP POP PUSH1 0x20 PUSH2 0x3DE5 DUP6 DUP3 DUP7 ADD PUSH2 0x3AB6 JUMP JUMPDEST SWAP2 POP POP SWAP3 POP SWAP3 SWAP1 POP JUMP JUMPDEST PUSH1 0x0 DUP2 SWAP1 POP SWAP2 SWAP1 POP JUMP JUMPDEST PUSH1 0x0 PUSH2 0x3E14 PUSH2 0x3E0F PUSH2 0x3E0A DUP5 PUSH2 0x3B33 JUMP JUMPDEST PUSH2 0x3DEF JUMP JUMPDEST PUSH2 0x3B33 JUMP JUMPDEST SWAP1 POP SWAP2 SWAP1 POP JUMP JUMPDEST PUSH1 0x0 PUSH2 0x3E26 DUP3 PUSH2 0x3DF9 JUMP JUMPDEST SWAP1 POP SWAP2 SWAP1 POP JUMP JUMPDEST PUSH1 0x0 PUSH2 0x3E38 DUP3 PUSH2 0x3E1B JUMP JUMPDEST SWAP1 POP SWAP2 SWAP1 POP JUMP JUMPDEST PUSH2 0x3E48 DUP2 PUSH2 0x3E2D JUMP JUMPDEST DUP3 MSTORE POP POP JUMP JUMPDEST PUSH1 0x0 PUSH1 0x20 DUP3 ADD SWAP1 POP PUSH2 0x3E63 PUSH1 0x0 DUP4 ADD DUP5 PUSH2 0x3E3F JUMP JUMPDEST SWAP3 SWAP2 POP POP JUMP JUMPDEST PUSH2 0x3E72 DUP2 PUSH2 0x3B74 JUMP JUMPDEST DUP3 MSTORE POP POP JUMP JUMPDEST PUSH1 0x0 PUSH1 0x20 DUP3 ADD SWAP1 POP PUSH2 0x3E8D PUSH1 0x0 DUP4 ADD DUP5 PUSH2 0x3E69 JUMP JUMPDEST SWAP3 SWAP2 POP POP JUMP JUMPDEST PUSH1 0x0 PUSH2 0x3E9E DUP3 PUSH2 0x3E1B JUMP JUMPDEST SWAP1 POP SWAP2 SWAP1 POP JUMP JUMPDEST PUSH2 0x3EAE DUP2 PUSH2 0x3E93 JUMP JUMPDEST DUP3 MSTORE POP POP JUMP JUMPDEST PUSH1 0x0 PUSH1 0x20 DUP3 ADD SWAP1 POP PUSH2 0x3EC9 PUSH1 0x0 DUP4 ADD DUP5 PUSH2 0x3EA5 JUMP JUMPDEST SWAP3 SWAP2 POP POP JUMP JUMPDEST PUSH2 0x3ED8 DUP2 PUSH2 0x3B53 JUMP JUMPDEST DUP3 MSTORE POP POP JUMP JUMPDEST PUSH1 0x0 PUSH1 0x20 DUP3 ADD SWAP1 POP PUSH2 0x3EF3 PUSH1 0x0 DUP4 ADD DUP5 PUSH2 0x3ECF JUMP JUMPDEST SWAP3 SWAP2 POP POP JUMP JUMPDEST PUSH1 0x0 DUP1 PUSH1 0x40 DUP4 DUP6 SUB SLT ISZERO PUSH2 0x3F10 JUMPI PUSH2 0x3F0F PUSH2 0x3A90 JUMP JUMPDEST JUMPDEST PUSH1 0x0 PUSH2 0x3F1E DUP6 DUP3 DUP7 ADD PUSH2 0x3AB6 JUMP JUMPDEST SWAP3 POP POP PUSH1 0x20 PUSH2 0x3F2F DUP6 DUP3 DUP7 ADD PUSH2 0x3AB6 JUMP JUMPDEST SWAP2 POP POP SWAP3 POP SWAP3 SWAP1 POP JUMP JUMPDEST PUSH1 0x0 PUSH1 0x60 DUP3 ADD SWAP1 POP PUSH2 0x3F4E PUSH1 0x0 DUP4 ADD DUP7 PUSH2 0x3ECF JUMP JUMPDEST PUSH2 0x3F5B PUSH1 0x20 DUP4 ADD DUP6 PUSH2 0x3D58 JUMP JUMPDEST PUSH2 0x3F68 PUSH1 0x40 DUP4 ADD DUP5 PUSH2 0x3E69 JUMP JUMPDEST SWAP5 SWAP4 POP POP POP POP JUMP JUMPDEST PUSH1 0x0 PUSH1 0xA0 DUP3 ADD SWAP1 POP PUSH2 0x3F85 PUSH1 0x0 DUP4 ADD DUP9 PUSH2 0x3D58 JUMP JUMPDEST PUSH2 0x3F92 PUSH1 0x20 DUP4 ADD DUP8 PUSH2 0x3E69 JUMP JUMPDEST PUSH2 0x3F9F PUSH1 0x40 DUP4 ADD DUP7 PUSH2 0x3E69 JUMP JUMPDEST PUSH2 0x3FAC PUSH1 0x60 DUP4 ADD DUP6 PUSH2 0x3E69 JUMP JUMPDEST PUSH2 0x3FB9 PUSH1 0x80 DUP4 ADD DUP5 PUSH2 0x3D58 JUMP JUMPDEST SWAP7 SWAP6 POP POP POP POP POP POP JUMP JUMPDEST PUSH1 0x0 PUSH1 0x40 DUP3 ADD SWAP1 POP PUSH2 0x3FD8 PUSH1 0x0 DUP4 ADD DUP6 PUSH2 0x3D58 JUMP JUMPDEST PUSH2 0x3FE5 PUSH1 0x20 DUP4 ADD DUP5 PUSH2 0x3D58 JUMP JUMPDEST SWAP4 SWAP3 POP POP POP JUMP JUMPDEST PUSH1 0x0 PUSH1 0xA0 DUP3 ADD SWAP1 POP PUSH2 0x4001 PUSH1 0x0 DUP4 ADD DUP9 PUSH2 0x3D58 JUMP JUMPDEST PUSH2 0x400E PUSH1 0x20 DUP4 ADD DUP8 PUSH2 0x3D58 JUMP JUMPDEST PUSH2 0x401B PUSH1 0x40 DUP4 ADD DUP7 PUSH2 0x3D58 JUMP JUMPDEST PUSH2 0x4028 PUSH1 0x60 DUP4 ADD DUP6 PUSH2 0x3D58 JUMP JUMPDEST PUSH2 0x4035 PUSH1 0x80 DUP4 ADD DUP5 PUSH2 0x3E69 JUMP JUMPDEST SWAP7 SWAP6 POP POP POP POP POP POP JUMP JUMPDEST PUSH32 0x4E487B7100000000000000000000000000000000000000000000000000000000 PUSH1 0x0 MSTORE PUSH1 0x21 PUSH1 0x4 MSTORE PUSH1 0x24 PUSH1 0x0 REVERT JUMPDEST PUSH1 0x2 DUP2 LT PUSH2 0x407F JUMPI PUSH2 0x407E PUSH2 0x403F JUMP JUMPDEST JUMPDEST POP JUMP JUMPDEST PUSH1 0x0 DUP2 SWAP1 POP PUSH2 0x4090 DUP3 PUSH2 0x406E JUMP JUMPDEST SWAP2 SWAP1 POP JUMP JUMPDEST PUSH1 0x0 PUSH2 0x40A0 DUP3 PUSH2 0x4082 JUMP JUMPDEST SWAP1 POP SWAP2 SWAP1 POP JUMP JUMPDEST PUSH2 0x40B0 DUP2 PUSH2 0x4095 JUMP JUMPDEST DUP3 MSTORE POP POP JUMP JUMPDEST PUSH1 0x0 PUSH1 0xE0 DUP3 ADD SWAP1 POP PUSH2 0x40CB PUSH1 0x0 DUP4 ADD DUP11 PUSH2 0x3ECF JUMP JUMPDEST PUSH2 0x40D8 PUSH1 0x20 DUP4 ADD DUP10 PUSH2 0x3ECF JUMP JUMPDEST PUSH2 0x40E5 PUSH1 0x40 DUP4 ADD DUP9 PUSH2 0x3D58 JUMP JUMPDEST PUSH2 0x40F2 PUSH1 0x60 DUP4 ADD DUP8 PUSH2 0x3D58 JUMP JUMPDEST PUSH2 0x40FF PUSH1 0x80 DUP4 ADD DUP7 PUSH2 0x3D58 JUMP JUMPDEST PUSH2 0x410C PUSH1 0xA0 DUP4 ADD DUP6 PUSH2 0x40A7 JUMP JUMPDEST PUSH2 0x4119 PUSH1 0xC0 DUP4 ADD DUP5 PUSH2 0x3D58 JUMP JUMPDEST SWAP9 SWAP8 POP POP POP POP POP POP POP POP JUMP JUMPDEST PUSH1 0x0 DUP1 PUSH1 0x0 PUSH1 0x60 DUP5 DUP7 SUB SLT ISZERO PUSH2 0x413E JUMPI PUSH2 0x413D PUSH2 0x3A90 JUMP JUMPDEST JUMPDEST PUSH1 0x0 PUSH2 0x414C DUP7 DUP3 DUP8 ADD PUSH2 0x3AB6 JUMP JUMPDEST SWAP4 POP POP PUSH1 0x20 PUSH2 0x415D DUP7 DUP3 DUP8 ADD PUSH2 0x3AB6 JUMP JUMPDEST SWAP3 POP POP PUSH1 0x40 PUSH2 0x416E DUP7 DUP3 DUP8 ADD PUSH2 0x3AB6 JUMP JUMPDEST SWAP2 POP POP SWAP3 POP SWAP3 POP SWAP3 JUMP JUMPDEST PUSH1 0x0 DUP3 DUP3 MSTORE PUSH1 0x20 DUP3 ADD SWAP1 POP SWAP3 SWAP2 POP POP JUMP JUMPDEST PUSH32 0x4F6E6C79206F776E657200000000000000000000000000000000000000000000 PUSH1 0x0 DUP3 ADD MSTORE POP JUMP JUMPDEST PUSH1 0x0 PUSH2 0x41BF PUSH1 0xA DUP4 PUSH2 0x4178 JUMP JUMPDEST SWAP2 POP PUSH2 0x41CA DUP3 PUSH2 0x4189 JUMP JUMPDEST PUSH1 0x20 DUP3 ADD SWAP1 POP SWAP2 SWAP1 POP JUMP JUMPDEST PUSH1 0x0 PUSH1 0x20 DUP3 ADD SWAP1 POP DUP2 DUP2 SUB PUSH1 0x0 DUP4 ADD MSTORE PUSH2 0x41EE DUP2 PUSH2 0x41B2 JUMP JUMPDEST SWAP1 POP SWAP2 SWAP1 POP JUMP JUMPDEST PUSH32 0x526174696F20746F6F206C6F7700000000000000000000000000000000000000 PUSH1 0x0 DUP3 ADD MSTORE POP JUMP JUMPDEST PUSH1 0x0 PUSH2 0x422B PUSH1 0xD DUP4 PUSH2 0x4178 JUMP JUMPDEST SWAP2 POP PUSH2 0x4236 DUP3 PUSH2 0x41F5 JUMP JUMPDEST PUSH1 0x20 DUP3 ADD SWAP1 POP SWAP2 SWAP1 POP JUMP JUMPDEST PUSH1 0x0 PUSH1 0x20 DUP3 ADD SWAP1 POP DUP2 DUP2 SUB PUSH1 0x0 DUP4 ADD MSTORE PUSH2 0x425A DUP2 PUSH2 0x421E JUMP JUMPDEST SWAP1 POP SWAP2 SWAP1 POP JUMP JUMPDEST PUSH32 0x4E487B7100000000000000000000000000000000000000000000000000000000 PUSH1 0x0 MSTORE PUSH1 0x11 PUSH1 0x4 MSTORE PUSH1 0x24 PUSH1 0x0 REVERT JUMPDEST PUSH1 0x0 PUSH2 0x429B DUP3 PUSH2 0x3A95 JUMP JUMPDEST SWAP2 POP PUSH32 0xFFFFFFFFFFFFFFFFFFFFFFFFFFFFFFFFFFFFFFFFFFFFFFFFFFFFFFFFFFFFFFFF DUP3 SUB PUSH2 0x42CD JUMPI PUSH2 0x42CC PUSH2 0x4261 JUMP JUMPDEST JUMPDEST PUSH1 0x1 DUP3 ADD SWAP1 POP SWAP2 SWAP1 POP JUMP JUMPDEST PUSH32 0x4E487B7100000000000000000000000000000000000000000000000000000000 PUSH1 0x0 MSTORE PUSH1 0x41 PUSH1 0x4 MSTORE PUSH1 0x24 PUSH1 0x0 REVERT JUMPDEST PUSH32 0x4E487B7100000000000000000000000000000000000000000000000000000000 PUSH1 0x0 MSTORE PUSH1 0x32 PUSH1 0x4 MSTORE PUSH1 0x24 PUSH1 0x0 REVERT JUMPDEST PUSH1 0x0 DUP2 MLOAD SWAP1 POP PUSH2 0x4345 DUP2 PUSH2 0x3A9F JUMP JUMPDEST SWAP3 SWAP2 POP POP JUMP JUMPDEST PUSH1 0x0 PUSH1 0x20 DUP3 DUP5 SUB SLT ISZERO PUSH2 0x4361 JUMPI PUSH2 0x4360 PUSH2 0x3A90 JUMP JUMPDEST JUMPDEST PUSH1 0x0 PUSH2 0x436F DUP5 DUP3 DUP6 ADD PUSH2 0x4336 JUMP JUMPDEST SWAP2 POP POP SWAP3 SWAP2 POP POP JUMP JUMPDEST PUSH32 0x4E6F207265776172647320746F20776974686472617700000000000000000000 PUSH1 0x0 DUP3 ADD MSTORE POP JUMP JUMPDEST PUSH1 0x0 PUSH2 0x43AE PUSH1 0x16 DUP4 PUSH2 0x4178 JUMP JUMPDEST SWAP2 POP PUSH2 0x43B9 DUP3 PUSH2 0x4378 JUMP JUMPDEST PUSH1 0x20 DUP3 ADD SWAP1 POP SWAP2 SWAP1 POP JUMP JUMPDEST PUSH1 0x0 PUSH1 0x20 DUP3 ADD SWAP1 POP DUP2 DUP2 SUB PUSH1 0x0 DUP4 ADD MSTORE PUSH2 0x43DD DUP2 PUSH2 0x43A1 JUMP JUMPDEST SWAP1 POP SWAP2 SWAP1 POP JUMP JUMPDEST PUSH1 0x0 PUSH1 0x40 DUP3 ADD SWAP1 POP PUSH2 0x43F9 PUSH1 0x0 DUP4 ADD DUP6 PUSH2 0x3ECF JUMP JUMPDEST PUSH2 0x4406 PUSH1 0x20 DUP4 ADD DUP5 PUSH2 0x3D58 JUMP JUMPDEST SWAP4 SWAP3 POP POP POP JUMP JUMPDEST PUSH2 0x4416 DUP2 PUSH2 0x3B74 JUMP JUMPDEST DUP2 EQ PUSH2 0x4421 JUMPI PUSH1 0x0 DUP1 REVERT JUMPDEST POP JUMP JUMPDEST PUSH1 0x0 DUP2 MLOAD SWAP1 POP PUSH2 0x4433 DUP2 PUSH2 0x440D JUMP JUMPDEST SWAP3 SWAP2 POP POP JUMP JUMPDEST PUSH1 0x0 PUSH1 0x20 DUP3 DUP5 SUB SLT ISZERO PUSH2 0x444F JUMPI PUSH2 0x444E PUSH2 0x3A90 JUMP JUMPDEST JUMPDEST PUSH1 0x0 PUSH2 0x445D DUP5 DUP3 DUP6 ADD PUSH2 0x4424 JUMP JUMPDEST SWAP2 POP POP SWAP3 SWAP2 POP POP JUMP JUMPDEST PUSH32 0x526577617264207769746864726177616C206661696C65640000000000000000 PUSH1 0x0 DUP3 ADD MSTORE POP JUMP JUMPDEST PUSH1 0x0 PUSH2 0x449C PUSH1 0x18 DUP4 PUSH2 0x4178 JUMP JUMPDEST SWAP2 POP PUSH2 0x44A7 DUP3 PUSH2 0x4466 JUMP JUMPDEST PUSH1 0x20 DUP3 ADD SWAP1 POP SWAP2 SWAP1 POP JUMP JUMPDEST PUSH1 0x0 PUSH1 0x20 DUP3 ADD SWAP1 POP DUP2 DUP2 SUB PUSH1 0x0 DUP4 ADD MSTORE PUSH2 0x44CB DUP2 PUSH2 0x448F JUMP JUMPDEST SWAP1 POP SWAP2 SWAP1 POP JUMP JUMPDEST PUSH32 0x4C6F616E206E6F74206163746976650000000000000000000000000000000000 PUSH1 0x0 DUP3 ADD MSTORE POP JUMP JUMPDEST PUSH1 0x0 PUSH2 0x4508 PUSH1 0xF DUP4 PUSH2 0x4178 JUMP JUMPDEST SWAP2 POP PUSH2 0x4513 DUP3 PUSH2 0x44D2 JUMP JUMPDEST PUSH1 0x20 DUP3 ADD SWAP1 POP SWAP2 SWAP1 POP JUMP JUMPDEST PUSH1 0x0 PUSH1 0x20 DUP3 ADD SWAP1 POP DUP2 DUP2 SUB PUSH1 0x0 DUP4 ADD MSTORE PUSH2 0x4537 DUP2 PUSH2 0x44FB JUMP JUMPDEST SWAP1 POP SWAP2 SWAP1 POP JUMP JUMPDEST PUSH32 0x4C6F616E206E6F74206F76657264756500000000000000000000000000000000 PUSH1 0x0 DUP3 ADD MSTORE POP JUMP JUMPDEST PUSH1 0x0 PUSH2 0x4574 PUSH1 0x10 DUP4 PUSH2 0x4178 JUMP JUMPDEST SWAP2 POP PUSH2 0x457F DUP3 PUSH2 0x453E JUMP JUMPDEST PUSH1 0x20 DUP3 ADD SWAP1 POP SWAP2 SWAP1 POP JUMP JUMPDEST PUSH1 0x0 PUSH1 0x20 DUP3 ADD SWAP1 POP DUP2 DUP2 SUB PUSH1 0x0 DUP4 ADD MSTORE PUSH2 0x45A3 DUP2 PUSH2 0x4567 JUMP JUMPDEST SWAP1 POP SWAP2 SWAP1 POP JUMP JUMPDEST PUSH32 0x4C6F616E20616C72656164792072657061696400000000000000000000000000 PUSH1 0x0 DUP3 ADD MSTORE POP JUMP JUMPDEST PUSH1 0x0 PUSH2 0x45E0 PUSH1 0x13 DUP4 PUSH2 0x4178 JUMP JUMPDEST SWAP2 POP PUSH2 0x45EB DUP3 PUSH2 0x45AA JUMP JUMPDEST PUSH1 0x20 DUP3 ADD SWAP1 POP SWAP2 SWAP1 POP JUMP JUMPDEST PUSH1 0x0 PUSH1 0x20 DUP3 ADD SWAP1 POP DUP2 DUP2 SUB PUSH1 0x0 DUP4 ADD MSTORE PUSH2 0x460F DUP2 PUSH2 0x45D3 JUMP JUMPDEST SWAP1 POP SWAP2 SWAP1 POP JUMP JUMPDEST PUSH1 0x0 PUSH1 0xFF DUP3 AND SWAP1 POP SWAP2 SWAP1 POP JUMP JUMPDEST PUSH2 0x462C DUP2 PUSH2 0x4616 JUMP JUMPDEST DUP2 EQ PUSH2 0x4637 JUMPI PUSH1 0x0 DUP1 REVERT JUMPDEST POP JUMP JUMPDEST PUSH1 0x0 DUP2 MLOAD SWAP1 POP PUSH2 0x4649 DUP2 PUSH2 0x4623 JUMP JUMPDEST SWAP3 SWAP2 POP POP JUMP JUMPDEST PUSH1 0x0 PUSH1 0x20 DUP3 DUP5 SUB SLT ISZERO PUSH2 0x4665 JUMPI PUSH2 0x4664 PUSH2 0x3A90 JUMP JUMPDEST JUMPDEST PUSH1 0x0 PUSH2 0x4673 DUP5 DUP3 DUP6 ADD PUSH2 0x463A JUMP JUMPDEST SWAP2 POP POP SWAP3 SWAP2 POP POP JUMP JUMPDEST PUSH32 0x4E6F7420626F72726F7765720000000000000000000000000000000000000000 PUSH1 0x0 DUP3 ADD MSTORE POP JUMP JUMPDEST PUSH1 0x0 PUSH2 0x46B2 PUSH1 0xC DUP4 PUSH2 0x4178 JUMP JUMPDEST SWAP2 POP PUSH2 0x46BD DUP3 PUSH2 0x467C JUMP JUMPDEST PUSH1 0x20 DUP3 ADD SWAP1 POP SWAP2 SWAP1 POP JUMP JUMPDEST PUSH1 0x0 PUSH1 0x20 DUP3 ADD SWAP1 POP DUP2 DUP2 SUB PUSH1 0x0 DUP4 ADD MSTORE PUSH2 0x46E1 DUP2 PUSH2 0x46A5 JUMP JUMPDEST SWAP1 POP SWAP2 SWAP1 POP JUMP JUMPDEST PUSH32 0x6E6F20696E746572657374206163637275656421000000000000000000000000 PUSH1 0x0 DUP3 ADD MSTORE POP JUMP JUMPDEST PUSH1 0x0 PUSH2 0x471E PUSH1 0x14 DUP4 PUSH2 0x4178 JUMP JUMPDEST SWAP2 POP PUSH2 0x4729 DUP3 PUSH2 0x46E8 JUMP JUMPDEST PUSH1 0x20 DUP3 ADD SWAP1 POP SWAP2 SWAP1 POP JUMP JUMPDEST PUSH1 0x0 PUSH1 0x20 DUP3 ADD SWAP1 POP DUP2 DUP2 SUB PUSH1 0x0 DUP4 ADD MSTORE PUSH2 0x474D DUP2 PUSH2 0x4711 JUMP JUMPDEST SWAP1 POP SWAP2 SWAP1 POP JUMP JUMPDEST PUSH1 0x0 PUSH2 0x475F DUP3 PUSH2 0x3A95 JUMP JUMPDEST SWAP2 POP PUSH2 0x476A DUP4 PUSH2 0x3A95 JUMP JUMPDEST SWAP3 POP DUP3 DUP3 MUL PUSH2 0x4778 DUP2 PUSH2 0x3A95 JUMP JUMPDEST SWAP2 POP DUP3 DUP3 DIV DUP5 EQ DUP4 ISZERO OR PUSH2 0x478F JUMPI PUSH2 0x478E PUSH2 0x4261 JUMP JUMPDEST JUMPDEST POP SWAP3 SWAP2 POP POP JUMP JUMPDEST PUSH32 0x4E487B7100000000000000000000000000000000000000000000000000000000 PUSH1 0x0 MSTORE PUSH1 0x12 PUSH1 0x4 MSTORE PUSH1 0x24 PUSH1 0x0 REVERT JUMPDEST PUSH1 0x0 PUSH2 0x47D0 DUP3 PUSH2 0x3A95 JUMP JUMPDEST SWAP2 POP PUSH2 0x47DB DUP4 PUSH2 0x3A95 JUMP JUMPDEST SWAP3 POP DUP3 PUSH2 0x47EB JUMPI PUSH2 0x47EA PUSH2 0x4796 JUMP JUMPDEST JUMPDEST DUP3 DUP3 DIV SWAP1 POP SWAP3 SWAP2 POP POP JUMP JUMPDEST PUSH1 0x0 PUSH2 0x4801 DUP3 PUSH2 0x3A95 JUMP JUMPDEST SWAP2 POP PUSH2 0x480C DUP4 PUSH2 0x3A95 JUMP JUMPDEST SWAP3 POP DUP3 DUP3 SUB SWAP1 POP DUP2 DUP2 GT ISZERO PUSH2 0x4824 JUMPI PUSH2 0x4823 PUSH2 0x4261 JUMP JUMPDEST JUMPDEST SWAP3 SWAP2 POP POP JUMP JUMPDEST PUSH1 0x0 PUSH2 0x4835 DUP3 PUSH2 0x3A95 JUMP JUMPDEST SWAP2 POP PUSH2 0x4840 DUP4 PUSH2 0x3A95 JUMP JUMPDEST SWAP3 POP DUP3 DUP3 ADD SWAP1 POP DUP1 DUP3 GT ISZERO PUSH2 0x4858 JUMPI PUSH2 0x4857 PUSH2 0x4261 JUMP JUMPDEST JUMPDEST SWAP3 SWAP2 POP POP JUMP JUMPDEST PUSH32 0x496E746572657374206E6F742063616C63756C61746564000000000000000000 PUSH1 0x0 DUP3 ADD MSTORE POP JUMP JUMPDEST PUSH1 0x0 PUSH2 0x4894 PUSH1 0x17 DUP4 PUSH2 0x4178 JUMP JUMPDEST SWAP2 POP PUSH2 0x489F DUP3 PUSH2 0x485E JUMP JUMPDEST PUSH1 0x20 DUP3 ADD SWAP1 POP SWAP2 SWAP1 POP JUMP JUMPDEST PUSH1 0x0 PUSH1 0x20 DUP3 ADD SWAP1 POP DUP2 DUP2 SUB PUSH1 0x0 DUP4 ADD MSTORE PUSH2 0x48C3 DUP2 PUSH2 0x4887 JUMP JUMPDEST SWAP1 POP SWAP2 SWAP1 POP JUMP JUMPDEST PUSH32 0x4E6F207265776172642063616C63756C61746564000000000000000000000000 PUSH1 0x0 DUP3 ADD MSTORE POP JUMP JUMPDEST PUSH1 0x0 PUSH2 0x4900 PUSH1 0x14 DUP4 PUSH2 0x4178 JUMP JUMPDEST SWAP2 POP PUSH2 0x490B DUP3 PUSH2 0x48CA JUMP JUMPDEST PUSH1 0x20 DUP3 ADD SWAP1 POP SWAP2 SWAP1 POP JUMP JUMPDEST PUSH1 0x0 PUSH1 0x20 DUP3 ADD SWAP1 POP DUP2 DUP2 SUB PUSH1 0x0 DUP4 ADD MSTORE PUSH2 0x492F DUP2 PUSH2 0x48F3 JUMP JUMPDEST SWAP1 POP SWAP2 SWAP1 POP JUMP JUMPDEST PUSH1 0x0 PUSH1 0x60 DUP3 ADD SWAP1 POP PUSH2 0x494B PUSH1 0x0 DUP4 ADD DUP7 PUSH2 0x3ECF JUMP JUMPDEST PUSH2 0x4958 PUSH1 0x20 DUP4 ADD DUP6 PUSH2 0x3ECF JUMP JUMPDEST PUSH2 0x4965 PUSH1 0x40 DUP4 ADD DUP5 PUSH2 0x3D58 JUMP JUMPDEST SWAP5 SWAP4 POP POP POP POP JUMP JUMPDEST PUSH32 0x5472616E73666572206661696C65640000000000000000000000000000000000 PUSH1 0x0 DUP3 ADD MSTORE POP JUMP JUMPDEST PUSH1 0x0 PUSH2 0x49A3 PUSH1 0xF DUP4 PUSH2 0x4178 JUMP JUMPDEST SWAP2 POP PUSH2 0x49AE DUP3 PUSH2 0x496D JUMP JUMPDEST PUSH1 0x20 DUP3 ADD SWAP1 POP SWAP2 SWAP1 POP JUMP JUMPDEST PUSH1 0x0 PUSH1 0x20 DUP3 ADD SWAP1 POP DUP2 DUP2 SUB PUSH1 0x0 DUP4 ADD MSTORE PUSH2 0x49D2 DUP2 PUSH2 0x4996 JUMP JUMPDEST SWAP1 POP SWAP2 SWAP1 POP JUMP JUMPDEST PUSH32 0x5472616E7366657220746F206C656E646572206661696C656400000000000000 PUSH1 0x0 DUP3 ADD MSTORE POP JUMP JUMPDEST PUSH1 0x0 PUSH2 0x4A0F PUSH1 0x19 DUP4 PUSH2 0x4178 JUMP JUMPDEST SWAP2 POP PUSH2 0x4A1A DUP3 PUSH2 0x49D9 JUMP JUMPDEST PUSH1 0x20 DUP3 ADD SWAP1 POP SWAP2 SWAP1 POP JUMP JUMPDEST PUSH1 0x0 PUSH1 0x20 DUP3 ADD SWAP1 POP DUP2 DUP2 SUB PUSH1 0x0 DUP4 ADD MSTORE PUSH2 0x4A3E DUP2 PUSH2 0x4A02 JUMP JUMPDEST SWAP1 POP SWAP2 SWAP1 POP JUMP JUMPDEST PUSH32 0x4C6F616E20616C72656164792061637469766500000000000000000000000000 PUSH1 0x0 DUP3 ADD MSTORE POP JUMP JUMPDEST PUSH1 0x0 PUSH2 0x4A7B PUSH1 0x13 DUP4 PUSH2 0x4178 JUMP JUMPDEST SWAP2 POP PUSH2 0x4A86 DUP3 PUSH2 0x4A45 JUMP JUMPDEST PUSH1 0x20 DUP3 ADD SWAP1 POP SWAP2 SWAP1 POP JUMP JUMPDEST PUSH1 0x0 PUSH1 0x20 DUP3 ADD SWAP1 POP DUP2 DUP2 SUB PUSH1 0x0 DUP4 ADD MSTORE PUSH2 0x4AAA DUP2 PUSH2 0x4A6E JUMP JUMPDEST SWAP1 POP SWAP2 SWAP1 POP JUMP JUMPDEST PUSH32 0x4C6F616E20616C72656164792066756E64656400000000000000000000000000 PUSH1 0x0 DUP3 ADD MSTORE POP JUMP JUMPDEST PUSH1 0x0 PUSH2 0x4AE7 PUSH1 0x13 DUP4 PUSH2 0x4178 JUMP JUMPDEST SWAP2 POP PUSH2 0x4AF2 DUP3 PUSH2 0x4AB1 JUMP JUMPDEST PUSH1 0x20 DUP3 ADD SWAP1 POP SWAP2 SWAP1 POP JUMP JUMPDEST PUSH1 0x0 PUSH1 0x20 DUP3 ADD SWAP1 POP DUP2 DUP2 SUB PUSH1 0x0 DUP4 ADD MSTORE PUSH2 0x4B16 DUP2 PUSH2 0x4ADA JUMP JUMPDEST SWAP1 POP SWAP2 SWAP1 POP JUMP JUMPDEST PUSH1 0x0 PUSH1 0x40 DUP3 ADD SWAP1 POP PUSH2 0x4B32 PUSH1 0x0 DUP4 ADD DUP6 PUSH2 0x3ECF JUMP JUMPDEST PUSH2 0x4B3F PUSH1 0x20 DUP4 ADD DUP5 PUSH2 0x3ECF JUMP JUMPDEST SWAP4 SWAP3 POP POP POP JUMP JUMPDEST PUSH32 0x496E73756666696369656E7420616C6C6F77616E636520666F72207468697320 PUSH1 0x0 DUP3 ADD MSTORE PUSH32 0x7573657200000000000000000000000000000000000000000000000000000000 PUSH1 0x20 DUP3 ADD MSTORE POP JUMP JUMPDEST PUSH1 0x0 PUSH2 0x4BA2 PUSH1 0x24 DUP4 PUSH2 0x4178 JUMP JUMPDEST SWAP2 POP PUSH2 0x4BAD DUP3 PUSH2 0x4B46 JUMP JUMPDEST PUSH1 0x40 DUP3 ADD SWAP1 POP SWAP2 SWAP1 POP JUMP JUMPDEST PUSH1 0x0 PUSH1 0x20 DUP3 ADD SWAP1 POP DUP2 DUP2 SUB PUSH1 0x0 DUP4 ADD MSTORE PUSH2 0x4BD1 DUP2 PUSH2 0x4B95 JUMP JUMPDEST SWAP1 POP SWAP2 SWAP1 POP JUMP JUMPDEST PUSH32 0x4C6F616E2064697362757273656D656E74206661696C65640000000000000000 PUSH1 0x0 DUP3 ADD MSTORE POP JUMP JUMPDEST PUSH1 0x0 PUSH2 0x4C0E PUSH1 0x18 DUP4 PUSH2 0x4178 JUMP JUMPDEST SWAP2 POP PUSH2 0x4C19 DUP3 PUSH2 0x4BD8 JUMP JUMPDEST PUSH1 0x20 DUP3 ADD SWAP1 POP SWAP2 SWAP1 POP JUMP JUMPDEST PUSH1 0x0 PUSH1 0x20 DUP3 ADD SWAP1 POP DUP2 DUP2 SUB PUSH1 0x0 DUP4 ADD MSTORE PUSH2 0x4C3D DUP2 PUSH2 0x4C01 JUMP JUMPDEST SWAP1 POP SWAP2 SWAP1 POP JUMP JUMPDEST PUSH32 0x4D696E696D756D206C6F616E20616D6F756E74206D7573742062652067726561 PUSH1 0x0 DUP3 ADD MSTORE PUSH32 0x746572207468616E203000000000000000000000000000000000000000000000 PUSH1 0x20 DUP3 ADD MSTORE POP JUMP JUMPDEST PUSH1 0x0 PUSH2 0x4CA0 PUSH1 0x2A DUP4 PUSH2 0x4178 JUMP JUMPDEST SWAP2 POP PUSH2 0x4CAB DUP3 PUSH2 0x4C44 JUMP JUMPDEST PUSH1 0x40 DUP3 ADD SWAP1 POP SWAP2 SWAP1 POP JUMP JUMPDEST PUSH1 0x0 PUSH1 0x20 DUP3 ADD SWAP1 POP DUP2 DUP2 SUB PUSH1 0x0 DUP4 ADD MSTORE PUSH2 0x4CCF DUP2 PUSH2 0x4C93 JUMP JUMPDEST SWAP1 POP SWAP2 SWAP1 POP JUMP JUMPDEST PUSH32 0x4D6178696D756D206C6F616E20616D6F756E74206D7573742062652067726561 PUSH1 0x0 DUP3 ADD MSTORE PUSH32 0x746572207468616E206D696E696D756D206C6F616E20616D6F756E7400000000 PUSH1 0x20 DUP3 ADD MSTORE POP JUMP JUMPDEST PUSH1 0x0 PUSH2 0x4D32 PUSH1 0x3C DUP4 PUSH2 0x4178 JUMP JUMPDEST SWAP2 POP PUSH2 0x4D3D DUP3 PUSH2 0x4CD6 JUMP JUMPDEST PUSH1 0x40 DUP3 ADD SWAP1 POP SWAP2 SWAP1 POP JUMP JUMPDEST PUSH1 0x0 PUSH1 0x20 DUP3 ADD SWAP1 POP DUP2 DUP2 SUB PUSH1 0x0 DUP4 ADD MSTORE PUSH2 0x4D61 DUP2 PUSH2 0x4D25 JUMP JUMPDEST SWAP1 POP SWAP2 SWAP1 POP JUMP JUMPDEST PUSH1 0x0 PUSH10 0xFFFFFFFFFFFFFFFFFFFF DUP3 AND SWAP1 POP SWAP2 SWAP1 POP JUMP JUMPDEST PUSH2 0x4D87 DUP2 PUSH2 0x4D68 JUMP JUMPDEST DUP2 EQ PUSH2 0x4D92 JUMPI PUSH1 0x0 DUP1 REVERT JUMPDEST POP JUMP JUMPDEST PUSH1 0x0 DUP2 MLOAD SWAP1 POP PUSH2 0x4DA4 DUP2 PUSH2 0x4D7E JUMP JUMPDEST SWAP3 SWAP2 POP POP JUMP JUMPDEST PUSH1 0x0 DUP2 SWAP1 POP SWAP2 SWAP1 POP JUMP JUMPDEST PUSH2 0x4DBD DUP2 PUSH2 0x4DAA JUMP JUMPDEST DUP2 EQ PUSH2 0x4DC8 JUMPI PUSH1 0x0 DUP1 REVERT JUMPDEST POP JUMP JUMPDEST PUSH1 0x0 DUP2 MLOAD SWAP1 POP PUSH2 0x4DDA DUP2 PUSH2 0x4DB4 JUMP JUMPDEST SWAP3 SWAP2 POP POP JUMP JUMPDEST PUSH1 0x0 DUP1 PUSH1 0x0 DUP1 PUSH1 0x0 PUSH1 0xA0 DUP7 DUP9 SUB SLT ISZERO PUSH2 0x4DFC JUMPI PUSH2 0x4DFB PUSH2 0x3A90 JUMP JUMPDEST JUMPDEST PUSH1 0x0 PUSH2 0x4E0A DUP9 DUP3 DUP10 ADD PUSH2 0x4D95 JUMP JUMPDEST SWAP6 POP POP PUSH1 0x20 PUSH2 0x4E1B DUP9 DUP3 DUP10 ADD PUSH2 0x4DCB JUMP JUMPDEST SWAP5 POP POP PUSH1 0x40 PUSH2 0x4E2C DUP9 DUP3 DUP10 ADD PUSH2 0x4336 JUMP JUMPDEST SWAP4 POP POP PUSH1 0x60 PUSH2 0x4E3D DUP9 DUP3 DUP10 ADD PUSH2 0x4336 JUMP JUMPDEST SWAP3 POP POP PUSH1 0x80 PUSH2 0x4E4E DUP9 DUP3 DUP10 ADD PUSH2 0x4D95 JUMP JUMPDEST SWAP2 POP POP SWAP3 SWAP6 POP SWAP3 SWAP6 SWAP1 SWAP4 POP JUMP JUMPDEST PUSH32 0x496E76616C696420707269636500000000000000000000000000000000000000 PUSH1 0x0 DUP3 ADD MSTORE POP JUMP JUMPDEST PUSH1 0x0 PUSH2 0x4E91 PUSH1 0xD DUP4 PUSH2 0x4178 JUMP JUMPDEST SWAP2 POP PUSH2 0x4E9C DUP3 PUSH2 0x4E5B JUMP JUMPDEST PUSH1 0x20 DUP3 ADD SWAP1 POP SWAP2 SWAP1 POP JUMP JUMPDEST PUSH1 0x0 PUSH1 0x20 DUP3 ADD SWAP1 POP DUP2 DUP2 SUB PUSH1 0x0 DUP4 ADD MSTORE PUSH2 0x4EC0 DUP2 PUSH2 0x4E84 JUMP JUMPDEST SWAP1 POP SWAP2 SWAP1 POP JUMP JUMPDEST PUSH32 0x52657061796D656E742065786365656473206F77656420616D6F756E74000000 PUSH1 0x0 DUP3 ADD MSTORE POP JUMP JUMPDEST PUSH1 0x0 PUSH2 0x4EFD PUSH1 0x1D DUP4 PUSH2 0x4178 JUMP JUMPDEST SWAP2 POP PUSH2 0x4F08 DUP3 PUSH2 0x4EC7 JUMP JUMPDEST PUSH1 0x20 DUP3 ADD SWAP1 POP SWAP2 SWAP1 POP JUMP JUMPDEST PUSH1 0x0 PUSH1 0x20 DUP3 ADD SWAP1 POP DUP2 DUP2 SUB PUSH1 0x0 DUP4 ADD MSTORE PUSH2 0x4F2C DUP2 PUSH2 0x4EF0 JUMP JUMPDEST SWAP1 POP SWAP2 SWAP1 POP JUMP JUMPDEST PUSH32 0x5061727469616C2072657061796D656E74206661696C65640000000000000000 PUSH1 0x0 DUP3 ADD MSTORE POP JUMP JUMPDEST PUSH1 0x0 PUSH2 0x4F69 PUSH1 0x18 DUP4 PUSH2 0x4178 JUMP JUMPDEST SWAP2 POP PUSH2 0x4F74 DUP3 PUSH2 0x4F33 JUMP JUMPDEST PUSH1 0x20 DUP3 ADD SWAP1 POP SWAP2 SWAP1 POP JUMP JUMPDEST PUSH1 0x0 PUSH1 0x20 DUP3 ADD SWAP1 POP DUP2 DUP2 SUB PUSH1 0x0 DUP4 ADD MSTORE PUSH2 0x4F98 DUP2 PUSH2 0x4F5C JUMP JUMPDEST SWAP1 POP SWAP2 SWAP1 POP JUMP JUMPDEST PUSH32 0x5468726573686F6C6420746F6F206C6F77000000000000000000000000000000 PUSH1 0x0 DUP3 ADD MSTORE POP JUMP JUMPDEST PUSH1 0x0 PUSH2 0x4FD5 PUSH1 0x11 DUP4 PUSH2 0x4178 JUMP JUMPDEST SWAP2 POP PUSH2 0x4FE0 DUP3 PUSH2 0x4F9F JUMP JUMPDEST PUSH1 0x20 DUP3 ADD SWAP1 POP SWAP2 SWAP1 POP JUMP JUMPDEST PUSH1 0x0 PUSH1 0x20 DUP3 ADD SWAP1 POP DUP2 DUP2 SUB PUSH1 0x0 DUP4 ADD MSTORE PUSH2 0x5004 DUP2 PUSH2 0x4FC8 JUMP JUMPDEST SWAP1 POP SWAP2 SWAP1 POP JUMP JUMPDEST PUSH32 0x496E76616C6964206C6F616E20616D6F756E7400000000000000000000000000 PUSH1 0x0 DUP3 ADD MSTORE POP JUMP JUMPDEST PUSH1 0x0 PUSH2 0x5041 PUSH1 0x13 DUP4 PUSH2 0x4178 JUMP JUMPDEST SWAP2 POP PUSH2 0x504C DUP3 PUSH2 0x500B JUMP JUMPDEST PUSH1 0x20 DUP3 ADD SWAP1 POP SWAP2 SWAP1 POP JUMP JUMPDEST PUSH1 0x0 PUSH1 0x20 DUP3 ADD SWAP1 POP DUP2 DUP2 SUB PUSH1 0x0 DUP4 ADD MSTORE PUSH2 0x5070 DUP2 PUSH2 0x5034 JUMP JUMPDEST SWAP1 POP SWAP2 SWAP1 POP JUMP JUMPDEST PUSH32 0x496E73756666696369656E7420636F6C6C61746572616C000000000000000000 PUSH1 0x0 DUP3 ADD MSTORE POP JUMP JUMPDEST PUSH1 0x0 PUSH2 0x50AD PUSH1 0x17 DUP4 PUSH2 0x4178 JUMP JUMPDEST SWAP2 POP PUSH2 0x50B8 DUP3 PUSH2 0x5077 JUMP JUMPDEST PUSH1 0x20 DUP3 ADD SWAP1 POP SWAP2 SWAP1 POP JUMP JUMPDEST PUSH1 0x0 PUSH1 0x20 DUP3 ADD SWAP1 POP DUP2 DUP2 SUB PUSH1 0x0 DUP4 ADD MSTORE PUSH2 0x50DC DUP2 PUSH2 0x50A0 JUMP JUMPDEST SWAP1 POP SWAP2 SWAP1 POP JUMP JUMPDEST PUSH32 0x496E73756666696369656E7420636F6C6C61746572616C2062616C616E636500 PUSH1 0x0 DUP3 ADD MSTORE POP JUMP JUMPDEST PUSH1 0x0 PUSH2 0x5119 PUSH1 0x1F DUP4 PUSH2 0x4178 JUMP JUMPDEST SWAP2 POP PUSH2 0x5124 DUP3 PUSH2 0x50E3 JUMP JUMPDEST PUSH1 0x20 DUP3 ADD SWAP1 POP SWAP2 SWAP1 POP JUMP JUMPDEST PUSH1 0x0 PUSH1 0x20 DUP3 ADD SWAP1 POP DUP2 DUP2 SUB PUSH1 0x0 DUP4 ADD MSTORE PUSH2 0x5148 DUP2 PUSH2 0x510C JUMP JUMPDEST SWAP1 POP SWAP2 SWAP1 POP JUMP JUMPDEST PUSH1 0x0 DUP2 SWAP1 POP SWAP3 SWAP2 POP POP JUMP JUMPDEST POP JUMP JUMPDEST PUSH1 0x0 PUSH2 0x516A PUSH1 0x0 DUP4 PUSH2 0x514F JUMP JUMPDEST SWAP2 POP PUSH2 0x5175 DUP3 PUSH2 0x515A JUMP JUMPDEST PUSH1 0x0 DUP3 ADD SWAP1 POP SWAP2 SWAP1 POP JUMP JUMPDEST PUSH1 0x0 PUSH2 0x518B DUP3 PUSH2 0x515D JUMP JUMPDEST SWAP2 POP DUP2 SWAP1 POP SWAP2 SWAP1 POP JUMP JUMPDEST PUSH32 0x436F6C6C61746572616C207472616E73666572206661696C6564000000000000 PUSH1 0x0 DUP3 ADD MSTORE POP JUMP JUMPDEST PUSH1 0x0 PUSH2 0x51CB PUSH1 0x1A DUP4 PUSH2 0x4178 JUMP JUMPDEST SWAP2 POP PUSH2 0x51D6 DUP3 PUSH2 0x5195 JUMP JUMPDEST PUSH1 0x20 DUP3 ADD SWAP1 POP SWAP2 SWAP1 POP JUMP JUMPDEST PUSH1 0x0 PUSH1 0x20 DUP3 ADD SWAP1 POP DUP2 DUP2 SUB PUSH1 0x0 DUP4 ADD MSTORE PUSH2 0x51FA DUP2 PUSH2 0x51BE JUMP JUMPDEST SWAP1 POP SWAP2 SWAP1 POP JUMP JUMPDEST PUSH1 0x0 DUP2 PUSH1 0x1 SHR SWAP1 POP SWAP2 SWAP1 POP JUMP JUMPDEST PUSH1 0x0 DUP1 DUP3 SWAP2 POP DUP4 SWAP1 POP JUMPDEST PUSH1 0x1 DUP6 GT ISZERO PUSH2 0x5258 JUMPI DUP1 DUP7 DIV DUP2 GT ISZERO PUSH2 0x5234 JUMPI PUSH2 0x5233 PUSH2 0x4261 JUMP JUMPDEST JUMPDEST PUSH1 0x1 DUP6 AND ISZERO PUSH2 0x5243 JUMPI DUP1 DUP3 MUL SWAP2 POP JUMPDEST DUP1 DUP2 MUL SWAP1 POP PUSH2 0x5251 DUP6 PUSH2 0x5201 JUMP JUMPDEST SWAP5 POP PUSH2 0x5218 JUMP JUMPDEST SWAP5 POP SWAP5 SWAP3 POP POP POP JUMP JUMPDEST PUSH1 0x0 DUP3 PUSH2 0x5271 JUMPI PUSH1 0x1 SWAP1 POP PUSH2 0x532D JUMP JUMPDEST DUP2 PUSH2 0x527F JUMPI PUSH1 0x0 SWAP1 POP PUSH2 0x532D JUMP JUMPDEST DUP2 PUSH1 0x1 DUP2 EQ PUSH2 0x5295 JUMPI PUSH1 0x2 DUP2 EQ PUSH2 0x529F JUMPI PUSH2 0x52CE JUMP JUMPDEST PUSH1 0x1 SWAP2 POP POP PUSH2 0x532D JUMP JUMPDEST PUSH1 0xFF DUP5 GT ISZERO PUSH2 0x52B1 JUMPI PUSH2 0x52B0 PUSH2 0x4261 JUMP JUMPDEST JUMPDEST DUP4 PUSH1 0x2 EXP SWAP2 POP DUP5 DUP3 GT ISZERO PUSH2 0x52C8 JUMPI PUSH2 0x52C7 PUSH2 0x4261 JUMP JUMPDEST JUMPDEST POP PUSH2 0x532D JUMP JUMPDEST POP PUSH1 0x20 DUP4 LT PUSH2 0x133 DUP4 LT AND PUSH1 0x4E DUP5 LT PUSH1 0xB DUP5 LT AND OR ISZERO PUSH2 0x5303 JUMPI DUP3 DUP3 EXP SWAP1 POP DUP4 DUP2 GT ISZERO PUSH2 0x52FE JUMPI PUSH2 0x52FD PUSH2 0x4261 JUMP JUMPDEST JUMPDEST PUSH2 0x532D JUMP JUMPDEST PUSH2 0x5310 DUP5 DUP5 DUP5 PUSH1 0x1 PUSH2 0x520E JUMP JUMPDEST SWAP3 POP SWAP1 POP DUP2 DUP5 DIV DUP2 GT ISZERO PUSH2 0x5327 JUMPI PUSH2 0x5326 PUSH2 0x4261 JUMP JUMPDEST JUMPDEST DUP2 DUP2 MUL SWAP1 POP JUMPDEST SWAP4 SWAP3 POP POP POP JUMP JUMPDEST PUSH1 0x0 PUSH2 0x533F DUP3 PUSH2 0x3A95 JUMP JUMPDEST SWAP2 POP PUSH2 0x534A DUP4 PUSH2 0x3A95 JUMP JUMPDEST SWAP3 POP PUSH2 0x5377 PUSH32 0xFFFFFFFFFFFFFFFFFFFFFFFFFFFFFFFFFFFFFFFFFFFFFFFFFFFFFFFFFFFFFFFF DUP5 DUP5 PUSH2 0x5261 JUMP JUMPDEST SWAP1 POP SWAP3 SWAP2 POP POP JUMP JUMPDEST PUSH32 0x4E6F2074696D6520656C617073656420666F7220696E74657265737420616363 PUSH1 0x0 DUP3 ADD MSTORE PUSH32 0x7275616C00000000000000000000000000000000000000000000000000000000 PUSH1 0x20 DUP3 ADD MSTORE POP JUMP JUMPDEST PUSH1 0x0 PUSH2 0x53DB PUSH1 0x24 DUP4 PUSH2 0x4178 JUMP JUMPDEST SWAP2 POP PUSH2 0x53E6 DUP3 PUSH2 0x537F JUMP JUMPDEST PUSH1 0x40 DUP3 ADD SWAP1 POP SWAP2 SWAP1 POP JUMP JUMPDEST PUSH1 0x0 PUSH1 0x20 DUP3 ADD SWAP1 POP DUP2 DUP2 SUB PUSH1 0x0 DUP4 ADD MSTORE PUSH2 0x540A DUP2 PUSH2 0x53CE JUMP JUMPDEST SWAP1 POP SWAP2 SWAP1 POP JUMP JUMPDEST PUSH32 0x5072696E636970616C206D7573742062652067726561746572207468616E2030 PUSH1 0x0 DUP3 ADD MSTORE POP JUMP JUMPDEST PUSH1 0x0 PUSH2 0x5447 PUSH1 0x20 DUP4 PUSH2 0x4178 JUMP JUMPDEST SWAP2 POP PUSH2 0x5452 DUP3 PUSH2 0x5411 JUMP JUMPDEST PUSH1 0x20 DUP3 ADD SWAP1 POP SWAP2 SWAP1 POP JUMP JUMPDEST PUSH1 0x0 PUSH1 0x20 DUP3 ADD SWAP1 POP DUP2 DUP2 SUB PUSH1 0x0 DUP4 ADD MSTORE PUSH2 0x5476 DUP2 PUSH2 0x543A JUMP JUMPDEST SWAP1 POP SWAP2 SWAP1 POP JUMP JUMPDEST PUSH32 0x416E6E75616C2072617465206D7573742062652067726561746572207468616E PUSH1 0x0 DUP3 ADD MSTORE PUSH32 0x2030000000000000000000000000000000000000000000000000000000000000 PUSH1 0x20 DUP3 ADD MSTORE POP JUMP JUMPDEST PUSH1 0x0 PUSH2 0x54D9 PUSH1 0x22 DUP4 PUSH2 0x4178 JUMP JUMPDEST SWAP2 POP PUSH2 0x54E4 DUP3 PUSH2 0x547D JUMP JUMPDEST PUSH1 0x40 DUP3 ADD SWAP1 POP SWAP2 SWAP1 POP JUMP JUMPDEST PUSH1 0x0 PUSH1 0x20 DUP3 ADD SWAP1 POP DUP2 DUP2 SUB PUSH1 0x0 DUP4 ADD MSTORE PUSH2 0x5508 DUP2 PUSH2 0x54CC JUMP JUMPDEST SWAP1 POP SWAP2 SWAP1 POP JUMP JUMPDEST PUSH32 0x54696D6520656C6170736564206D757374206265206772656174657220746861 PUSH1 0x0 DUP3 ADD MSTORE PUSH32 0x6E20300000000000000000000000000000000000000000000000000000000000 PUSH1 0x20 DUP3 ADD MSTORE POP JUMP JUMPDEST PUSH1 0x0 PUSH2 0x556B PUSH1 0x23 DUP4 PUSH2 0x4178 JUMP JUMPDEST SWAP2 POP PUSH2 0x5576 DUP3 PUSH2 0x550F JUMP JUMPDEST PUSH1 0x40 DUP3 ADD SWAP1 POP SWAP2 SWAP1 POP JUMP JUMPDEST PUSH1 0x0 PUSH1 0x20 DUP3 ADD SWAP1 POP DUP2 DUP2 SUB PUSH1 0x0 DUP4 ADD MSTORE PUSH2 0x559A DUP2 PUSH2 0x555E JUMP JUMPDEST SWAP1 POP SWAP2 SWAP1 POP JUMP JUMPDEST PUSH32 0x5261746520706572207365636F6E6420697320696E76616C6964000000000000 PUSH1 0x0 DUP3 ADD MSTORE POP JUMP JUMPDEST PUSH1 0x0 PUSH2 0x55D7 PUSH1 0x1A DUP4 PUSH2 0x4178 JUMP JUMPDEST SWAP2 POP PUSH2 0x55E2 DUP3 PUSH2 0x55A1 JUMP JUMPDEST PUSH1 0x20 DUP3 ADD SWAP1 POP SWAP2 SWAP1 POP JUMP JUMPDEST PUSH1 0x0 PUSH1 0x20 DUP3 ADD SWAP1 POP DUP2 DUP2 SUB PUSH1 0x0 DUP4 ADD MSTORE PUSH2 0x5606 DUP2 PUSH2 0x55CA JUMP JUMPDEST SWAP1 POP SWAP2 SWAP1 POP JUMP JUMPDEST PUSH32 0x496E73756666696369656E74206C656E6465722066756E647300000000000000 PUSH1 0x0 DUP3 ADD MSTORE POP JUMP JUMPDEST PUSH1 0x0 PUSH2 0x5643 PUSH1 0x19 DUP4 PUSH2 0x4178 JUMP JUMPDEST SWAP2 POP PUSH2 0x564E DUP3 PUSH2 0x560D JUMP JUMPDEST PUSH1 0x20 DUP3 ADD SWAP1 POP SWAP2 SWAP1 POP JUMP JUMPDEST PUSH1 0x0 PUSH1 0x20 DUP3 ADD SWAP1 POP DUP2 DUP2 SUB PUSH1 0x0 DUP4 ADD MSTORE PUSH2 0x5672 DUP2 PUSH2 0x5636 JUMP JUMPDEST SWAP1 POP SWAP2 SWAP1 POP JUMP INVALID LOG2 PUSH5 0x6970667358 0x22 SLT KECCAK256 0xE4 EXTCODESIZE SLOAD SELFDESTRUCT PUSH4 0x8B3D9F31 0xD8 SWAP11 0xD PUSH15 0x959EDCFA6C2B49E8A656FEAD7C88C5 0xEB 0x2E MOD SLT PUSH5 0x736F6C6343 STOP ADDMOD XOR STOP CALLER "
        },
        "methodIdentifiers": {
          "allowanceCaller()": "e16ffcdc",
          "borrowerLoans(address,uint256)": "e3ed1902",
          "collateralizationRatio()": "dcaf9c44",
          "fundLoan(uint256)": "846b909a",
          "getAllLoanRequests()": "0c9babc3",
          "getETHPrice()": "a607a8d9",
          "getUserLoanRequests(address)": "88ae545c",
          "getrequiredCollateralAmount(uint256)": "69549fdc",
          "lenderAvailableFunds(address)": "197428bf",
          "lenderLoans(address,uint256)": "3cdb72f1",
          "linkToken()": "57970e93",
          "liquidateOverdueLoan(uint256)": "61851d65",
          "liquidationThreshold()": "4031234c",
          "loanCounter()": "34d9289e",
          "loanRequests(uint256)": "d1b332f4",
          "loansCollateral(uint256,address)": "17d960e0",
          "loansCore(uint256)": "e91349d7",
          "loansInterest(uint256)": "cc826646",
          "loansStatus(uint256)": "b4580a66",
          "makePartialRepayment(uint256,uint256)": "b29504e9",
          "maxLoanAmount()": "72f94365",
          "minLoanAmount()": "e06a9138",
          "owner()": "8da5cb5b",
          "paused()": "5c975abb",
          "priceFeed()": "741bef1a",
          "repayLoanWithReward(uint256)": "7c6fe270",
          "requestLoan(uint256,uint256,uint256)": "edadbbfe",
          "setLoanLimits(uint256,uint256)": "97a146c0",
          "supportedCollaterals(address)": "aaea7009",
          "updateCollateralizationRatio(uint256)": "0607ec70",
          "updateLiquidationThreshold(uint256)": "d3b5be1a",
          "withdrawRewards(address)": "42d86693"
        }
      }
    }
  }
}