{
  "_format": "hh-sol-artifact-1",
  "contractName": "LoanManager",
  "sourceName": "contracts/LoanManager.sol",
  "abi": [
    {
      "inputs": [
        {
          "internalType": "contract IERC20",
          "name": "_linkToken",
          "type": "address"
        },
        {
          "internalType": "contract AggregatorV3Interface",
          "name": "_priceFeed",
          "type": "address"
        }
      ],
      "stateMutability": "nonpayable",
      "type": "constructor"
    },
    {
      "inputs": [],
      "name": "EnforcedPause",
      "type": "error"
    },
    {
      "inputs": [],
      "name": "ExpectedPause",
      "type": "error"
    },
    {
      "inputs": [],
      "name": "ReentrancyGuardReentrantCall",
      "type": "error"
    },
    {
      "anonymous": false,
      "inputs": [
        {
          "indexed": true,
          "internalType": "uint256",
          "name": "loanId",
          "type": "uint256"
        },
        {
          "indexed": true,
          "internalType": "address",
          "name": "lender",
          "type": "address"
        },
        {
          "indexed": true,
          "internalType": "address",
          "name": "borrower",
          "type": "address"
        }
      ],
      "name": "AutomaticMatch",
      "type": "event"
    },
    {
      "anonymous": false,
      "inputs": [
        {
          "indexed": true,
          "internalType": "address",
          "name": "token",
          "type": "address"
        },
        {
          "indexed": false,
          "internalType": "uint256",
          "name": "maxLTV",
          "type": "uint256"
        }
      ],
      "name": "CollateralAdded",
      "type": "event"
    },
    {
      "anonymous": false,
      "inputs": [
        {
          "indexed": true,
          "internalType": "uint256",
          "name": "loanId",
          "type": "uint256"
        },
        {
          "indexed": false,
          "internalType": "uint256",
          "name": "amount",
          "type": "uint256"
        }
      ],
      "name": "InterestAccrued",
      "type": "event"
    },
    {
      "anonymous": false,
      "inputs": [
        {
          "indexed": true,
          "internalType": "uint256",
          "name": "loanId",
          "type": "uint256"
        },
        {
          "indexed": true,
          "internalType": "address",
          "name": "borrower",
          "type": "address"
        },
        {
          "indexed": false,
          "internalType": "uint256",
          "name": "loanAmount",
          "type": "uint256"
        }
      ],
      "name": "LoanDisbursed",
      "type": "event"
    },
    {
      "anonymous": false,
      "inputs": [
        {
          "indexed": true,
          "internalType": "uint256",
          "name": "loanId",
          "type": "uint256"
        },
        {
          "indexed": true,
          "internalType": "address",
          "name": "lender",
          "type": "address"
        }
      ],
      "name": "LoanFunded",
      "type": "event"
    },
    {
      "anonymous": false,
      "inputs": [
        {
          "indexed": true,
          "internalType": "uint256",
          "name": "loanId",
          "type": "uint256"
        },
        {
          "indexed": true,
          "internalType": "address",
          "name": "liquidator",
          "type": "address"
        }
      ],
      "name": "LoanLiquidated",
      "type": "event"
    },
    {
      "anonymous": false,
      "inputs": [
        {
          "indexed": true,
          "internalType": "uint256",
          "name": "loanId",
          "type": "uint256"
        },
        {
          "indexed": true,
          "internalType": "address",
          "name": "lender",
          "type": "address"
        },
        {
          "indexed": false,
          "internalType": "uint256",
          "name": "loanAmount",
          "type": "uint256"
        }
      ],
      "name": "LoanLiquidated",
      "type": "event"
    },
    {
      "anonymous": false,
      "inputs": [
        {
          "indexed": true,
          "internalType": "uint256",
          "name": "loanId",
          "type": "uint256"
        },
        {
          "indexed": true,
          "internalType": "address",
          "name": "borrower",
          "type": "address"
        },
        {
          "indexed": false,
          "internalType": "uint256",
          "name": "amount",
          "type": "uint256"
        }
      ],
      "name": "LoanRepaid",
      "type": "event"
    },
    {
      "anonymous": false,
      "inputs": [
        {
          "indexed": true,
          "internalType": "uint256",
          "name": "loanId",
          "type": "uint256"
        },
        {
          "indexed": true,
          "internalType": "address",
          "name": "borrower",
          "type": "address"
        },
        {
          "indexed": false,
          "internalType": "uint256",
          "name": "amount",
          "type": "uint256"
        },
        {
          "indexed": false,
          "internalType": "uint256",
          "name": "collateral",
          "type": "uint256"
        }
      ],
      "name": "LoanRequested",
      "type": "event"
    },
    {
      "anonymous": false,
      "inputs": [
        {
          "indexed": true,
          "internalType": "uint256",
          "name": "loanId",
          "type": "uint256"
        },
        {
          "indexed": true,
          "internalType": "address",
          "name": "borrower",
          "type": "address"
        },
        {
          "indexed": false,
          "internalType": "uint256",
          "name": "amount",
          "type": "uint256"
        }
      ],
      "name": "PartialRepayment",
      "type": "event"
    },
    {
      "anonymous": false,
      "inputs": [
        {
          "indexed": false,
          "internalType": "address",
          "name": "account",
          "type": "address"
        }
      ],
      "name": "Paused",
      "type": "event"
    },
    {
      "anonymous": false,
      "inputs": [
        {
          "indexed": true,
          "internalType": "uint256",
          "name": "loanId",
          "type": "uint256"
        },
        {
          "indexed": false,
          "internalType": "uint256",
          "name": "reward",
          "type": "uint256"
        }
      ],
      "name": "RewardCollected",
      "type": "event"
    },
    {
      "anonymous": false,
      "inputs": [
        {
          "indexed": false,
          "internalType": "address",
          "name": "owner",
          "type": "address"
        },
        {
          "indexed": false,
          "internalType": "uint256",
          "name": "contractBalance",
          "type": "uint256"
        }
      ],
      "name": "RewardsWithdrawn",
      "type": "event"
    },
    {
      "anonymous": false,
      "inputs": [
        {
          "indexed": false,
          "internalType": "address",
          "name": "account",
          "type": "address"
        }
      ],
      "name": "Unpaused",
      "type": "event"
    },
    {
      "inputs": [],
      "name": "allowanceCaller",
      "outputs": [
        {
          "internalType": "uint256",
          "name": "",
          "type": "uint256"
        }
      ],
      "stateMutability": "view",
      "type": "function"
    },
    {
      "inputs": [
        {
          "internalType": "address",
          "name": "",
          "type": "address"
        },
        {
          "internalType": "uint256",
          "name": "",
          "type": "uint256"
        }
      ],
      "name": "borrowerLoans",
      "outputs": [
        {
          "internalType": "uint256",
          "name": "",
          "type": "uint256"
        }
      ],
      "stateMutability": "view",
      "type": "function"
    },
    {
      "inputs": [],
      "name": "collateralizationRatio",
      "outputs": [
        {
          "internalType": "uint256",
          "name": "",
          "type": "uint256"
        }
      ],
      "stateMutability": "view",
      "type": "function"
    },
    {
      "inputs": [
        {
          "internalType": "uint256",
          "name": "loanId",
          "type": "uint256"
        }
      ],
      "name": "fundLoan",
      "outputs": [],
      "stateMutability": "nonpayable",
      "type": "function"
    },
    {
      "inputs": [],
      "name": "getAllLoanRequests",
      "outputs": [
        {
          "components": [
            {
              "internalType": "uint256",
              "name": "loanId",
              "type": "uint256"
            },
            {
              "internalType": "address",
              "name": "borrower",
              "type": "address"
            },
            {
              "internalType": "uint256",
              "name": "amount",
              "type": "uint256"
            },
            {
              "internalType": "uint256",
              "name": "maxInterestRate",
              "type": "uint256"
            },
            {
              "internalType": "uint256",
              "name": "dueDate",
              "type": "uint256"
            },
            {
              "internalType": "uint256",
              "name": "duration",
              "type": "uint256"
            },
            {
              "internalType": "bool",
              "name": "matched",
              "type": "bool"
            },
            {
              "internalType": "uint256",
              "name": "collateralAmount",
              "type": "uint256"
            },
            {
              "internalType": "bool",
              "name": "isActive",
              "type": "bool"
            }
          ],
          "internalType": "struct LoanStorage.LoanRequestDetail[]",
          "name": "",
          "type": "tuple[]"
        }
      ],
      "stateMutability": "view",
      "type": "function"
    },
    {
      "inputs": [],
      "name": "getETHPrice",
      "outputs": [
        {
          "internalType": "uint256",
          "name": "",
          "type": "uint256"
        }
      ],
      "stateMutability": "view",
      "type": "function"
    },
    {
      "inputs": [
        {
          "internalType": "uint256",
          "name": "loanId",
          "type": "uint256"
        }
      ],
      "name": "getTotalLoanPayment",
      "outputs": [
        {
          "internalType": "uint256",
          "name": "totalPayment",
          "type": "uint256"
        },
        {
          "internalType": "uint256",
          "name": "principal",
          "type": "uint256"
        },
        {
          "internalType": "uint256",
          "name": "interestAmount",
          "type": "uint256"
        }
      ],
      "stateMutability": "view",
      "type": "function"
    },
    {
      "inputs": [
        {
          "internalType": "uint256",
          "name": "loanAmount",
          "type": "uint256"
        }
      ],
      "name": "getrequiredCollateralAmount",
      "outputs": [
        {
          "internalType": "uint256",
          "name": "",
          "type": "uint256"
        }
      ],
      "stateMutability": "view",
      "type": "function"
    },
    {
      "inputs": [
        {
          "internalType": "address",
          "name": "",
          "type": "address"
        }
      ],
      "name": "lenderAvailableFunds",
      "outputs": [
        {
          "internalType": "uint256",
          "name": "",
          "type": "uint256"
        }
      ],
      "stateMutability": "view",
      "type": "function"
    },
    {
      "inputs": [
        {
          "internalType": "address",
          "name": "",
          "type": "address"
        },
        {
          "internalType": "uint256",
          "name": "",
          "type": "uint256"
        }
      ],
      "name": "lenderLoans",
      "outputs": [
        {
          "internalType": "uint256",
          "name": "",
          "type": "uint256"
        }
      ],
      "stateMutability": "view",
      "type": "function"
    },
    {
      "inputs": [],
      "name": "linkToken",
      "outputs": [
        {
          "internalType": "contract IERC20",
          "name": "",
          "type": "address"
        }
      ],
      "stateMutability": "view",
      "type": "function"
    },
    {
      "inputs": [
        {
          "internalType": "uint256",
          "name": "loanId",
          "type": "uint256"
        }
      ],
      "name": "liquidateOverdueLoan",
      "outputs": [],
      "stateMutability": "nonpayable",
      "type": "function"
    },
    {
      "inputs": [],
      "name": "liquidationThreshold",
      "outputs": [
        {
          "internalType": "uint256",
          "name": "",
          "type": "uint256"
        }
      ],
      "stateMutability": "view",
      "type": "function"
    },
    {
      "inputs": [],
      "name": "loanCounter",
      "outputs": [
        {
          "internalType": "uint256",
          "name": "",
          "type": "uint256"
        }
      ],
      "stateMutability": "view",
      "type": "function"
    },
    {
      "inputs": [
        {
          "internalType": "uint256",
          "name": "",
          "type": "uint256"
        }
      ],
      "name": "loanRequests",
      "outputs": [
        {
          "internalType": "uint256",
          "name": "amount",
          "type": "uint256"
        },
        {
          "internalType": "uint256",
          "name": "maxInterestRate",
          "type": "uint256"
        },
        {
          "internalType": "uint256",
          "name": "dueDate",
          "type": "uint256"
        },
        {
          "internalType": "uint256",
          "name": "duration",
          "type": "uint256"
        },
        {
          "internalType": "bool",
          "name": "matched",
          "type": "bool"
        }
      ],
      "stateMutability": "view",
      "type": "function"
    },
    {
      "inputs": [
        {
          "internalType": "uint256",
          "name": "",
          "type": "uint256"
        },
        {
          "internalType": "address",
          "name": "",
          "type": "address"
        }
      ],
      "name": "loansCollateral",
      "outputs": [
        {
          "internalType": "uint256",
          "name": "",
          "type": "uint256"
        }
      ],
      "stateMutability": "view",
      "type": "function"
    },
    {
      "inputs": [
        {
          "internalType": "uint256",
          "name": "",
          "type": "uint256"
        }
      ],
      "name": "loansCore",
      "outputs": [
        {
          "internalType": "address",
          "name": "borrower",
          "type": "address"
        },
        {
          "internalType": "address",
          "name": "lender",
          "type": "address"
        },
        {
          "internalType": "uint256",
          "name": "amount",
          "type": "uint256"
        },
        {
          "internalType": "uint256",
          "name": "collateral",
          "type": "uint256"
        },
        {
          "internalType": "uint256",
          "name": "interestRate",
          "type": "uint256"
        },
        {
          "internalType": "enum ILoanManager.InterestRateType",
          "name": "rateType",
          "type": "uint8"
        },
        {
          "internalType": "uint256",
          "name": "duration",
          "type": "uint256"
        }
      ],
      "stateMutability": "view",
      "type": "function"
    },
    {
      "inputs": [
        {
          "internalType": "uint256",
          "name": "",
          "type": "uint256"
        }
      ],
      "name": "loansInterest",
      "outputs": [
        {
          "internalType": "uint256",
          "name": "lastInterestAccrualTimestamp",
          "type": "uint256"
        },
        {
          "internalType": "uint256",
          "name": "accruedInterest",
          "type": "uint256"
        }
      ],
      "stateMutability": "view",
      "type": "function"
    },
    {
      "inputs": [
        {
          "internalType": "uint256",
          "name": "",
          "type": "uint256"
        }
      ],
      "name": "loansStatus",
      "outputs": [
        {
          "internalType": "uint256",
          "name": "startTime",
          "type": "uint256"
        },
        {
          "internalType": "bool",
          "name": "active",
          "type": "bool"
        },
        {
          "internalType": "bool",
          "name": "repaid",
          "type": "bool"
        },
        {
          "internalType": "bool",
          "name": "defaulted",
          "type": "bool"
        },
        {
          "internalType": "uint256",
          "name": "repaidAmount",
          "type": "uint256"
        }
      ],
      "stateMutability": "view",
      "type": "function"
    },
    {
      "inputs": [
        {
          "internalType": "uint256",
          "name": "loanId",
          "type": "uint256"
        },
        {
          "internalType": "uint256",
          "name": "amount",
          "type": "uint256"
        }
      ],
      "name": "makePartialRepayment",
      "outputs": [],
      "stateMutability": "nonpayable",
      "type": "function"
    },
    {
      "inputs": [],
      "name": "maxLoanAmount",
      "outputs": [
        {
          "internalType": "uint256",
          "name": "",
          "type": "uint256"
        }
      ],
      "stateMutability": "view",
      "type": "function"
    },
    {
      "inputs": [],
      "name": "minLoanAmount",
      "outputs": [
        {
          "internalType": "uint256",
          "name": "",
          "type": "uint256"
        }
      ],
      "stateMutability": "view",
      "type": "function"
    },
    {
      "inputs": [],
      "name": "owner",
      "outputs": [
        {
          "internalType": "address",
          "name": "",
          "type": "address"
        }
      ],
      "stateMutability": "view",
      "type": "function"
    },
    {
      "inputs": [],
      "name": "paused",
      "outputs": [
        {
          "internalType": "bool",
          "name": "",
          "type": "bool"
        }
      ],
      "stateMutability": "view",
      "type": "function"
    },
    {
      "inputs": [],
      "name": "priceFeed",
      "outputs": [
        {
          "internalType": "contract AggregatorV3Interface",
          "name": "",
          "type": "address"
        }
      ],
      "stateMutability": "view",
      "type": "function"
    },
    {
      "inputs": [
        {
          "internalType": "uint256",
          "name": "loanId",
          "type": "uint256"
        }
      ],
      "name": "repayLoanWithReward",
      "outputs": [],
      "stateMutability": "nonpayable",
      "type": "function"
    },
    {
      "inputs": [
        {
          "internalType": "uint256",
          "name": "amount",
          "type": "uint256"
        },
        {
          "internalType": "uint256",
          "name": "maxInterestRate",
          "type": "uint256"
        },
        {
          "internalType": "uint256",
          "name": "duration",
          "type": "uint256"
        }
      ],
      "name": "requestLoan",
      "outputs": [],
      "stateMutability": "payable",
      "type": "function"
    },
    {
      "inputs": [
        {
          "internalType": "uint256",
          "name": "_minLoanAmount",
          "type": "uint256"
        },
        {
          "internalType": "uint256",
          "name": "_maxLoanAmount",
          "type": "uint256"
        }
      ],
      "name": "setLoanLimits",
      "outputs": [],
      "stateMutability": "nonpayable",
      "type": "function"
    },
    {
      "inputs": [
        {
          "internalType": "address",
          "name": "",
          "type": "address"
        }
      ],
      "name": "supportedCollaterals",
      "outputs": [
        {
          "internalType": "address",
          "name": "priceOracle",
          "type": "address"
        },
        {
          "internalType": "uint256",
          "name": "maxLTV",
          "type": "uint256"
        },
        {
          "internalType": "bool",
          "name": "isActive",
          "type": "bool"
        }
      ],
      "stateMutability": "view",
      "type": "function"
    },
    {
      "inputs": [
        {
          "internalType": "uint256",
          "name": "newRatio",
          "type": "uint256"
        }
      ],
      "name": "updateCollateralizationRatio",
      "outputs": [],
      "stateMutability": "nonpayable",
      "type": "function"
    },
    {
      "inputs": [
        {
          "internalType": "uint256",
          "name": "newThreshold",
          "type": "uint256"
        }
      ],
      "name": "updateLiquidationThreshold",
      "outputs": [],
      "stateMutability": "nonpayable",
      "type": "function"
    },
    {
      "inputs": [
        {
          "internalType": "address",
          "name": "_owner",
          "type": "address"
        }
      ],
      "name": "withdrawRewards",
      "outputs": [],
      "stateMutability": "nonpayable",
      "type": "function"
    }
  ],
  "bytecode": "0x60806040526078600e55606e600f55670de0b6b3a764000060115569152d02c7e14af68000006012553480156200003557600080fd5b506040516200568f3803806200568f83398181016040528101906200005b91906200020c565b6001600a819055506000600b60006101000a81548160ff02191690831515021790555081600b60016101000a81548173ffffffffffffffffffffffffffffffffffffffff021916908373ffffffffffffffffffffffffffffffffffffffff16021790555080600c60006101000a81548173ffffffffffffffffffffffffffffffffffffffff021916908373ffffffffffffffffffffffffffffffffffffffff16021790555033600d60006101000a81548173ffffffffffffffffffffffffffffffffffffffff021916908373ffffffffffffffffffffffffffffffffffffffff160217905550505062000253565b600080fd5b600073ffffffffffffffffffffffffffffffffffffffff82169050919050565b60006200017b826200014e565b9050919050565b60006200018f826200016e565b9050919050565b620001a18162000182565b8114620001ad57600080fd5b50565b600081519050620001c18162000196565b92915050565b6000620001d4826200016e565b9050919050565b620001e681620001c7565b8114620001f257600080fd5b50565b6000815190506200020681620001db565b92915050565b6000806040838503121562000226576200022562000149565b5b60006200023685828601620001b0565b92505060206200024985828601620001f5565b9150509250929050565b61542c80620002636000396000f3fe6080604052600436106101e35760003560e01c80638af7031511610102578063d1b332f411610095578063e16ffcdc11610064578063e16ffcdc1461073b578063e3ed190214610766578063e91349d7146107a3578063edadbbfe146107e6576101e3565b8063d1b332f41461067b578063d3b5be1a146106bc578063dcaf9c44146106e5578063e06a913814610710576101e3565b8063aaea7009116100d1578063aaea700914610594578063b29504e9146105d3578063b4580a66146105fc578063cc8266461461063d576101e3565b80638af70315146104d65780638da5cb5b1461051557806397a146c014610540578063a607a8d914610569576101e3565b806357970e931161017a57806372f943651161014957806372f943651461042e578063741bef1a146104595780637c6fe27014610484578063846b909a146104ad576101e3565b806357970e93146103725780635c975abb1461039d57806361851d65146103c857806369549fdc146103f1576101e3565b806334d9289e116101b657806334d9289e146102b65780633cdb72f1146102e15780634031234c1461031e57806342d8669314610349576101e3565b80630607ec70146101e85780630c9babc31461021157806317d960e01461023c578063197428bf14610279575b600080fd5b3480156101f457600080fd5b5061020f600480360381019061020a91906137a5565b610802565b005b34801561021d57600080fd5b506102266108e0565b60405161023391906139a4565b60405180910390f35b34801561024857600080fd5b50610263600480360381019061025e91906139f2565b610ce2565b6040516102709190613a41565b60405180910390f35b34801561028557600080fd5b506102a0600480360381019061029b9190613a5c565b610d07565b6040516102ad9190613a41565b60405180910390f35b3480156102c257600080fd5b506102cb610d1f565b6040516102d89190613a41565b60405180910390f35b3480156102ed57600080fd5b5061030860048036038101906103039190613a89565b610d25565b6040516103159190613a41565b60405180910390f35b34801561032a57600080fd5b50610333610d56565b6040516103409190613a41565b60405180910390f35b34801561035557600080fd5b50610370600480360381019061036b9190613a5c565b610d5c565b005b34801561037e57600080fd5b50610387610ffb565b6040516103949190613b28565b60405180910390f35b3480156103a957600080fd5b506103b2611021565b6040516103bf9190613b52565b60405180910390f35b3480156103d457600080fd5b506103ef60048036038101906103ea91906137a5565b611038565b005b3480156103fd57600080fd5b50610418600480360381019061041391906137a5565b611225565b6040516104259190613a41565b60405180910390f35b34801561043a57600080fd5b506104436112e6565b6040516104509190613a41565b60405180910390f35b34801561046557600080fd5b5061046e6112ec565b60405161047b9190613b8e565b60405180910390f35b34801561049057600080fd5b506104ab60048036038101906104a691906137a5565b611312565b005b3480156104b957600080fd5b506104d460048036038101906104cf91906137a5565b61188d565b005b3480156104e257600080fd5b506104fd60048036038101906104f891906137a5565b611ec9565b60405161050c93929190613ba9565b60405180910390f35b34801561052157600080fd5b5061052a612064565b6040516105379190613bef565b60405180910390f35b34801561054c57600080fd5b5061056760048036038101906105629190613c0a565b61208a565b005b34801561057557600080fd5b5061057e6121b1565b60405161058b9190613a41565b60405180910390f35b3480156105a057600080fd5b506105bb60048036038101906105b69190613a5c565b612295565b6040516105ca93929190613c4a565b60405180910390f35b3480156105df57600080fd5b506105fa60048036038101906105f59190613c0a565b6122ec565b005b34801561060857600080fd5b50610623600480360381019061061e91906137a5565b61266a565b604051610634959493929190613c81565b60405180910390f35b34801561064957600080fd5b50610664600480360381019061065f91906137a5565b6126c7565b604051610672929190613cd4565b60405180910390f35b34801561068757600080fd5b506106a2600480360381019061069d91906137a5565b6126eb565b6040516106b3959493929190613cfd565b60405180910390f35b3480156106c857600080fd5b506106e360048036038101906106de91906137a5565b61272e565b005b3480156106f157600080fd5b506106fa61280c565b6040516107079190613a41565b60405180910390f35b34801561071c57600080fd5b50610725612812565b6040516107329190613a41565b60405180910390f35b34801561074757600080fd5b50610750612818565b60405161075d9190613a41565b60405180910390f35b34801561077257600080fd5b5061078d60048036038101906107889190613a89565b6128c2565b60405161079a9190613a41565b60405180910390f35b3480156107af57600080fd5b506107ca60048036038101906107c591906137a5565b6128f3565b6040516107dd9796959493929190613dc7565b60405180910390f35b61080060048036038101906107fb9190613e36565b612982565b005b600d60009054906101000a900473ffffffffffffffffffffffffffffffffffffffff1673ffffffffffffffffffffffffffffffffffffffff163373ffffffffffffffffffffffffffffffffffffffff1614610892576040517f08c379a000000000000000000000000000000000000000000000000000000000815260040161088990613ee6565b60405180910390fd5b60648110156108d6576040517f08c379a00000000000000000000000000000000000000000000000000000000081526004016108cd90613f52565b60405180910390fd5b80600e8190555050565b6060600080600190505b6010548111610988576000600660008381526020019081526020016000206040518060a0016040529081600082015481526020016001820154815260200160028201548152602001600382015481526020016004820160009054906101000a900460ff161515151581525050905060008160000151111561097457828061097090613fa1565b9350505b50808061098090613fa1565b9150506108ea565b5060008167ffffffffffffffff8111156109a5576109a4613fe9565b5b6040519080825280602002602001820160405280156109de57816020015b6109cb613704565b8152602001906001900390816109c35790505b509050600080600190505b6010548111610cd8576000600660008381526020019081526020016000206040518060a0016040529081600082015481526020016001820154815260200160028201548152602001600382015481526020016004820160009054906101000a900460ff16151515158152505090506000600160008481526020019081526020016000206040518060a0016040529081600082015481526020016001820160009054906101000a900460ff161515151581526020016001820160019054906101000a900460ff161515151581526020016001820160029054906101000a900460ff16151515158152602001600282015481525050905060008060008581526020019081526020016000206040518060e00160405290816000820160009054906101000a900473ffffffffffffffffffffffffffffffffffffffff1673ffffffffffffffffffffffffffffffffffffffff1673ffffffffffffffffffffffffffffffffffffffff1681526020016001820160009054906101000a900473ffffffffffffffffffffffffffffffffffffffff1673ffffffffffffffffffffffffffffffffffffffff1673ffffffffffffffffffffffffffffffffffffffff1681526020016002820154815260200160038201548152602001600482015481526020016005820160009054906101000a900460ff166001811115610bec57610beb613d50565b5b6001811115610bfe57610bfd613d50565b5b81526020016006820154815250509050600083600001511115610cc257604051806101200160405280858152602001826000015173ffffffffffffffffffffffffffffffffffffffff168152602001846000015181526020018460200151815260200184604001518152602001846060015181526020018460800151151581526020018260600151815260200183602001511515815250868681518110610ca857610ca7614018565b5b60200260200101819052508480610cbe90613fa1565b9550505b5050508080610cd090613fa1565b9150506109e9565b5081935050505090565b6003602052816000526040600020602052806000526040600020600091509150505481565b60076020528060005260406000206000915090505481565b60105481565b60056020528160005260406000208181548110610d4157600080fd5b90600052602060002001600091509150505481565b600f5481565b600d60009054906101000a900473ffffffffffffffffffffffffffffffffffffffff1673ffffffffffffffffffffffffffffffffffffffff163373ffffffffffffffffffffffffffffffffffffffff1614610dec576040517f08c379a0000000000000000000000000000000000000000000000000000000008152600401610de390613ee6565b60405180910390fd5b610df4612da7565b6000600b60019054906101000a900473ffffffffffffffffffffffffffffffffffffffff1673ffffffffffffffffffffffffffffffffffffffff166370a08231306040518263ffffffff1660e01b8152600401610e519190613bef565b602060405180830381865afa158015610e6e573d6000803e3d6000fd5b505050506040513d601f19601f82011682018060405250810190610e92919061405c565b905060008111610ed7576040517f08c379a0000000000000000000000000000000000000000000000000000000008152600401610ece906140d5565b60405180910390fd5b600b60019054906101000a900473ffffffffffffffffffffffffffffffffffffffff1673ffffffffffffffffffffffffffffffffffffffff1663a9059cbb83836040518363ffffffff1660e01b8152600401610f349291906140f5565b6020604051808303816000875af1158015610f53573d6000803e3d6000fd5b505050506040513d601f19601f82011682018060405250810190610f77919061414a565b610fb6576040517f08c379a0000000000000000000000000000000000000000000000000000000008152600401610fad906141c3565b60405180910390fd5b7f8a43c4352486ec339f487f64af78ca5cbf06cd47833f073d3baf3a193e5031618282604051610fe79291906140f5565b60405180910390a150610ff8612ded565b50565b600b60019054906101000a900473ffffffffffffffffffffffffffffffffffffffff1681565b6000600b60009054906101000a900460ff16905090565b611040612df7565b611048612da7565b6000806000838152602001908152602001600020905060006001600084815260200190815260200160002090508060010160009054906101000a900460ff166110c6576040517f08c379a00000000000000000000000000000000000000000000000000000000081526004016110bd9061422f565b60405180910390fd5b8160060154421161110c576040517f08c379a00000000000000000000000000000000000000000000000000000000081526004016111039061429b565b60405180910390fd5b8060010160019054906101000a900460ff161561115e576040517f08c379a000000000000000000000000000000000000000000000000000000000815260040161115590614307565b60405180910390fd5b61116783612e38565b60008160010160006101000a81548160ff02191690831515021790555060018160010160026101000a81548160ff0219169083151502179055508160010160009054906101000a900473ffffffffffffffffffffffffffffffffffffffff1673ffffffffffffffffffffffffffffffffffffffff16837f0256bdf47e9aff5784070d6cab332d79f81fc6b8c8ed875565982a423a389e3a84600201546040516112109190613a41565b60405180910390a35050611222612ded565b50565b6000806112306121b1565b90506112de81600e54600c60009054906101000a900473ffffffffffffffffffffffffffffffffffffffff1673ffffffffffffffffffffffffffffffffffffffff1663313ce5676040518163ffffffff1660e01b8152600401602060405180830381865afa1580156112a6573d6000803e3d6000fd5b505050506040513d601f19601f820116820180604052508101906112ca9190614360565b60ff1686612f74909392919063ffffffff16565b915050919050565b60125481565b600c60009054906101000a900473ffffffffffffffffffffffffffffffffffffffff1681565b61131a612df7565b611322612da7565b60008060008381526020019081526020016000209050600060016000848152602001908152602001600020905060006002600085815260200190815260200160002090508160010160009054906101000a900460ff166113b7576040517f08c379a00000000000000000000000000000000000000000000000000000000081526004016113ae9061422f565b60405180910390fd5b8260000160009054906101000a900473ffffffffffffffffffffffffffffffffffffffff1673ffffffffffffffffffffffffffffffffffffffff163373ffffffffffffffffffffffffffffffffffffffff1614611449576040517f08c379a0000000000000000000000000000000000000000000000000000000008152600401611440906143d9565b60405180910390fd5b61145284612fba565b6000816001015490506000811161149e576040517f08c379a000000000000000000000000000000000000000000000000000000000815260040161149590614445565b60405180910390fd5b600060646014836114af9190614465565b6114b991906144d6565b9050600081836114c99190614507565b9050428460000181905550600085600201548488600201546114eb919061453b565b6114f59190614507565b90508660020154811161153d576040517f08c379a0000000000000000000000000000000000000000000000000000000008152600401611534906145bb565b60405180910390fd5b60008311611580576040517f08c379a000000000000000000000000000000000000000000000000000000000815260040161157790614627565b60405180910390fd5b600b60019054906101000a900473ffffffffffffffffffffffffffffffffffffffff1673ffffffffffffffffffffffffffffffffffffffff166323b872dd3330846040518463ffffffff1660e01b81526004016115df93929190614647565b6020604051808303816000875af11580156115fe573d6000803e3d6000fd5b505050506040513d601f19601f82011682018060405250810190611622919061414a565b611661576040517f08c379a0000000000000000000000000000000000000000000000000000000008152600401611658906146ca565b60405180910390fd5b6000828860020154611673919061453b565b9050600b60019054906101000a900473ffffffffffffffffffffffffffffffffffffffff1673ffffffffffffffffffffffffffffffffffffffff1663a9059cbb8960010160009054906101000a900473ffffffffffffffffffffffffffffffffffffffff16836040518363ffffffff1660e01b81526004016116f69291906140f5565b6020604051808303816000875af1158015611715573d6000803e3d6000fd5b505050506040513d601f19601f82011682018060405250810190611739919061414a565b611778576040517f08c379a000000000000000000000000000000000000000000000000000000000815260040161176f90614736565b60405180910390fd5b8187600201600082825461178c919061453b565b9250508190555060008760010160006101000a81548160ff02191690831515021790555060018760010160016101000a81548160ff02191690831515021790555060008760010160026101000a81548160ff0219169083151502179055506117f389613139565b3373ffffffffffffffffffffffffffffffffffffffff16897f512d3e65b3e58c2187bb1872aa435dba5bd09c1c03823ba56ab70aac411e4a218460405161183a9190613a41565b60405180910390a3887f04e1ead5246a36f9da4a7f8ba0922ebab097b2349377e0b60b228a5e9d8ee587856040516118729190613a41565b60405180910390a2505050505050505061188a612ded565b50565b611895612df7565b61189d612da7565b6000806000838152602001908152602001600020905060006001600084815260200190815260200160002090508060010160009054906101000a900460ff161561191c576040517f08c379a0000000000000000000000000000000000000000000000000000000008152600401611913906147a2565b60405180910390fd5b600073ffffffffffffffffffffffffffffffffffffffff168260010160009054906101000a900473ffffffffffffffffffffffffffffffffffffffff1673ffffffffffffffffffffffffffffffffffffffff16146119af576040517f08c379a00000000000000000000000000000000000000000000000000000000081526004016119a69061480e565b60405180910390fd5b8160020154600b60019054906101000a900473ffffffffffffffffffffffffffffffffffffffff1673ffffffffffffffffffffffffffffffffffffffff1663dd62ed3e33306040518363ffffffff1660e01b8152600401611a1192919061482e565b602060405180830381865afa158015611a2e573d6000803e3d6000fd5b505050506040513d601f19601f82011682018060405250810190611a52919061405c565b1015611a93576040517f08c379a0000000000000000000000000000000000000000000000000000000008152600401611a8a906148c9565b60405180910390fd5b600b60019054906101000a900473ffffffffffffffffffffffffffffffffffffffff1673ffffffffffffffffffffffffffffffffffffffff166323b872dd333085600201546040518463ffffffff1660e01b8152600401611af693929190614647565b6020604051808303816000875af1158015611b15573d6000803e3d6000fd5b505050506040513d601f19601f82011682018060405250810190611b39919061414a565b611b78576040517f08c379a0000000000000000000000000000000000000000000000000000000008152600401611b6f906146ca565b60405180910390fd5b338260010160006101000a81548173ffffffffffffffffffffffffffffffffffffffff021916908373ffffffffffffffffffffffffffffffffffffffff16021790555042816000018190555060018160010160006101000a81548160ff021916908315150217905550600b60019054906101000a900473ffffffffffffffffffffffffffffffffffffffff1673ffffffffffffffffffffffffffffffffffffffff1663a9059cbb8360000160009054906101000a900473ffffffffffffffffffffffffffffffffffffffff1684600201546040518363ffffffff1660e01b8152600401611c669291906140f5565b6020604051808303816000875af1158015611c85573d6000803e3d6000fd5b505050506040513d601f19601f82011682018060405250810190611ca9919061414a565b611ce8576040517f08c379a0000000000000000000000000000000000000000000000000000000008152600401611cdf90614935565b60405180910390fd5b600560003373ffffffffffffffffffffffffffffffffffffffff1673ffffffffffffffffffffffffffffffffffffffff168152602001908152602001600020839080600181540180825580915050600190039060005260206000200160009091909190915055600460008360000160009054906101000a900473ffffffffffffffffffffffffffffffffffffffff1673ffffffffffffffffffffffffffffffffffffffff1673ffffffffffffffffffffffffffffffffffffffff16815260200190815260200160002083908060018154018082558091505060019003906000526020600020016000909190919091505560098390806001815401808255809150506001900390600052602060002001600090919091909150553373ffffffffffffffffffffffffffffffffffffffff16837f15feab5d3eb17171632762cf769709a315dd15f487a556c0dfb8a259c8f186cc60405160405180910390a38160000160009054906101000a900473ffffffffffffffffffffffffffffffffffffffff1673ffffffffffffffffffffffffffffffffffffffff16837f0ceeb4503a2fe0b51298a0af21358f3d89e7eab3f65ae2a7835859c3e2c516048460020154604051611eb49190613a41565b60405180910390a35050611ec6612ded565b50565b6000806000806000808681526020019081526020016000209050600060016000878152602001908152602001600020905060006002600088815260200190815260200160002090506000836002015411611f58576040517f08c379a0000000000000000000000000000000000000000000000000000000008152600401611f4f906149a1565b60405180910390fd5b826002015494508160010160009054906101000a900460ff16158015611f8c57508160010160019054906101000a900460ff165b15611fb557816002015485868460020154611fa79190614507565b95509550955050505061205d565b60008260010160009054906101000a900460ff1615612033576000826000015403611ff157826000015442611fea9190614507565b9050612004565b8160000154426120019190614507565b90505b60006120198560020154866004015484613242565b905080836001015461202b919061453b565b95505061203b565b816001015494505b8260020154858761204c919061453b565b6120569190614507565b9650505050505b9193909250565b600d60009054906101000a900473ffffffffffffffffffffffffffffffffffffffff1681565b600d60009054906101000a900473ffffffffffffffffffffffffffffffffffffffff1673ffffffffffffffffffffffffffffffffffffffff163373ffffffffffffffffffffffffffffffffffffffff161461211a576040517f08c379a000000000000000000000000000000000000000000000000000000000815260040161211190613ee6565b60405180910390fd5b6000821161215d576040517f08c379a000000000000000000000000000000000000000000000000000000000815260040161215490614a33565b60405180910390fd5b81811161219f576040517f08c379a000000000000000000000000000000000000000000000000000000000815260040161219690614ac5565b60405180910390fd5b81601181905550806012819055505050565b600080600c60009054906101000a900473ffffffffffffffffffffffffffffffffffffffff1673ffffffffffffffffffffffffffffffffffffffff1663feaf968c6040518163ffffffff1660e01b815260040160a060405180830381865afa158015612221573d6000803e3d6000fd5b505050506040513d601f19601f820116820180604052508101906122459190614b5d565b5050509150506000811361228e576040517f08c379a000000000000000000000000000000000000000000000000000000000815260040161228590614c24565b60405180910390fd5b8091505090565b60086020528060005260406000206000915090508060000160009054906101000a900473ffffffffffffffffffffffffffffffffffffffff16908060010154908060020160009054906101000a900460ff16905083565b6122f4612df7565b6122fc612da7565b60008060008481526020019081526020016000209050600060016000858152602001908152602001600020905060006002600086815260200190815260200160002090508160010160009054906101000a900460ff16612391576040517f08c379a00000000000000000000000000000000000000000000000000000000081526004016123889061422f565b60405180910390fd5b8260000160009054906101000a900473ffffffffffffffffffffffffffffffffffffffff1673ffffffffffffffffffffffffffffffffffffffff163373ffffffffffffffffffffffffffffffffffffffff1614612423576040517f08c379a000000000000000000000000000000000000000000000000000000000815260040161241a906143d9565b60405180910390fd5b61242c85612fba565b6000816001015490506000836002015482866002015461244c919061453b565b6124569190614507565b90508086111561249b576040517f08c379a000000000000000000000000000000000000000000000000000000000815260040161249290614c90565b60405180910390fd5b600b60019054906101000a900473ffffffffffffffffffffffffffffffffffffffff1673ffffffffffffffffffffffffffffffffffffffff166323b872dd338760010160009054906101000a900473ffffffffffffffffffffffffffffffffffffffff16896040518463ffffffff1660e01b815260040161251e93929190614647565b6020604051808303816000875af115801561253d573d6000803e3d6000fd5b505050506040513d601f19601f82011682018060405250810190612561919061414a565b6125a0576040517f08c379a000000000000000000000000000000000000000000000000000000000815260040161259790614cfc565b60405180910390fd5b858460020160008282546125b4919061453b565b925050819055508084600201541061260a5760018460010160016101000a81548160ff02191690831515021790555060008460010160006101000a81548160ff02191690831515021790555061260987613139565b5b3373ffffffffffffffffffffffffffffffffffffffff16877fb7b6ae626e0094aba4b69388b656d4b64f27860c5101c42c10a2e53fd6b0ce35886040516126519190613a41565b60405180910390a35050505050612666612ded565b5050565b60016020528060005260406000206000915090508060000154908060010160009054906101000a900460ff16908060010160019054906101000a900460ff16908060010160029054906101000a900460ff16908060020154905085565b60026020528060005260406000206000915090508060000154908060010154905082565b60066020528060005260406000206000915090508060000154908060010154908060020154908060030154908060040160009054906101000a900460ff16905085565b600d60009054906101000a900473ffffffffffffffffffffffffffffffffffffffff1673ffffffffffffffffffffffffffffffffffffffff163373ffffffffffffffffffffffffffffffffffffffff16146127be576040517f08c379a00000000000000000000000000000000000000000000000000000000081526004016127b590613ee6565b60405180910390fd5b6064811015612802576040517f08c379a00000000000000000000000000000000000000000000000000000000081526004016127f990614d68565b60405180910390fd5b80600f8190555050565b600e5481565b60115481565b600080600b60019054906101000a900473ffffffffffffffffffffffffffffffffffffffff1673ffffffffffffffffffffffffffffffffffffffff1663dd62ed3e33306040518363ffffffff1660e01b815260040161287892919061482e565b602060405180830381865afa158015612895573d6000803e3d6000fd5b505050506040513d601f19601f820116820180604052508101906128b9919061405c565b90508091505090565b600460205281600052604060002081815481106128de57600080fd5b90600052602060002001600091509150505481565b60006020528060005260406000206000915090508060000160009054906101000a900473ffffffffffffffffffffffffffffffffffffffff16908060010160009054906101000a900473ffffffffffffffffffffffffffffffffffffffff16908060020154908060030154908060040154908060050160009054906101000a900460ff16908060060154905087565b61298a612df7565b612992612da7565b60115483101580156129a657506012548311155b6129e5576040517f08c379a00000000000000000000000000000000000000000000000000000000081526004016129dc90614dd4565b60405180910390fd5b60006129ef6121b1565b90506000612a9f82600e54600c60009054906101000a900473ffffffffffffffffffffffffffffffffffffffff1673ffffffffffffffffffffffffffffffffffffffff1663313ce5676040518163ffffffff1660e01b8152600401602060405180830381865afa158015612a67573d6000803e3d6000fd5b505050506040513d601f19601f82011682018060405250810190612a8b9190614360565b60ff1688612f74909392919063ffffffff16565b905080341015612ae4576040517f08c379a0000000000000000000000000000000000000000000000000000000008152600401612adb90614e40565b60405180910390fd5b60106000815480929190612af790613fa1565b9190505550600060066000601054815260200190815260200160002090508581600001819055508481600101819055508381600301819055508342612b3c919061453b565b816002018190555060008160040160006101000a81548160ff0219169083151502179055506040518060e001604052803373ffffffffffffffffffffffffffffffffffffffff168152602001600073ffffffffffffffffffffffffffffffffffffffff16815260200187815260200134815260200186815260200160006001811115612bcb57612bca613d50565b5b815260200185815250600080601054815260200190815260200160002060008201518160000160006101000a81548173ffffffffffffffffffffffffffffffffffffffff021916908373ffffffffffffffffffffffffffffffffffffffff16021790555060208201518160010160006101000a81548173ffffffffffffffffffffffffffffffffffffffff021916908373ffffffffffffffffffffffffffffffffffffffff16021790555060408201518160020155606082015181600301556080820151816004015560a08201518160050160006101000a81548160ff02191690836001811115612cbf57612cbe613d50565b5b021790555060c08201518160060155905050600460003373ffffffffffffffffffffffffffffffffffffffff1673ffffffffffffffffffffffffffffffffffffffff1681526020019081526020016000206010549080600181540180825580915050600190039060005260206000200160009091909190915055612d446010546133b0565b3373ffffffffffffffffffffffffffffffffffffffff166010547f68595dbe887ae7f496f2c88735019a8918919a1decfdee6bdb460480ab87decb8834604051612d8f929190613cd4565b60405180910390a3505050612da2612ded565b505050565b6002600a5403612de3576040517f3ee5aeb500000000000000000000000000000000000000000000000000000000815260040160405180910390fd5b6002600a81905550565b6001600a81905550565b612dff611021565b15612e36576040517fd93c066500000000000000000000000000000000000000000000000000000000815260040160405180910390fd5b565b600080600083815260200190815260200160002090508060030154471015612e95576040517f08c379a0000000000000000000000000000000000000000000000000000000008152600401612e8c90614eac565b60405180910390fd5b60008160010160009054906101000a900473ffffffffffffffffffffffffffffffffffffffff16905060008173ffffffffffffffffffffffffffffffffffffffff168360030154604051612ee890614efd565b60006040518083038185875af1925050503d8060008114612f25576040519150601f19603f3d011682016040523d82523d6000602084013e612f2a565b606091505b5050905080612f6e576040517f08c379a0000000000000000000000000000000000000000000000000000000008152600401612f6590614f5e565b60405180910390fd5b50505050565b600081600a612f8391906150b1565b6064612f8f9190614465565b838587612f9c9190614465565b612fa69190614465565b612fb091906144d6565b9050949350505050565b60008060008381526020019081526020016000209050600060026000848152602001908152602001600020905060006001600085815260200190815260200160002090508060010160009054906101000a900460ff1661304f576040517f08c379a00000000000000000000000000000000000000000000000000000000081526004016130469061422f565b60405180910390fd5b600080836000015403613068578360060154905061307b565b8260000154426130789190614507565b90505b600081116130be576040517f08c379a00000000000000000000000000000000000000000000000000000000081526004016130b59061516e565b60405180910390fd5b60006130d38560020154866004015484613242565b9050808460010160008282546130e9919061453b565b92505081905550428460000181905550857f3d8708181c6452c5711a2b4c6ed3f12149f6ea35f78549aba00a89d041e766ca826040516131299190613a41565b60405180910390a2505050505050565b60008060008381526020019081526020016000209050600081600301549050600081111561323d576000826003018190555060008260000160009054906101000a900473ffffffffffffffffffffffffffffffffffffffff1673ffffffffffffffffffffffffffffffffffffffff16826040516131b590614efd565b60006040518083038185875af1925050503d80600081146131f2576040519150601f19603f3d011682016040523d82523d6000602084013e6131f7565b606091505b505090508061323b576040517f08c379a000000000000000000000000000000000000000000000000000000000815260040161323290614f5e565b60405180910390fd5b505b505050565b6000808411613286576040517f08c379a000000000000000000000000000000000000000000000000000000000815260040161327d906151da565b60405180910390fd5b600083116132c9576040517f08c379a00000000000000000000000000000000000000000000000000000000081526004016132c09061526c565b60405180910390fd5b6000821161330c576040517f08c379a0000000000000000000000000000000000000000000000000000000008152600401613303906152fe565b60405180910390fd5b600063bbf81e00670de0b6b3a7640000856133279190614465565b61333191906144d6565b905060008111613376576040517f08c379a000000000000000000000000000000000000000000000000000000000815260040161336d9061536a565b60405180910390fd5b6000670de0b6b3a764000084838861338e9190614465565b6133989190614465565b6133a291906144d6565b905080925050509392505050565b60006006600083815260200190815260200160002090506000807fffffffffffffffffffffffffffffffffffffffffffffffffffffffffffffffff905060005b6009805490508110156134ab5760006009828154811061341357613412614018565b5b906000526020600020015490508460000154600760008373ffffffffffffffffffffffffffffffffffffffff1673ffffffffffffffffffffffffffffffffffffffff168152602001908152602001600020541061349d57600061347a8287600001546134f2565b90508560010154811115801561348f57508381105b1561349b578194508093505b505b5080806001019150506133f0565b50600073ffffffffffffffffffffffffffffffffffffffff168273ffffffffffffffffffffffffffffffffffffffff16146134ec576134eb8483836135ee565b5b50505050565b600080600760008573ffffffffffffffffffffffffffffffffffffffff1673ffffffffffffffffffffffffffffffffffffffff1681526020019081526020016000205490508281101561357a576040517f08c379a0000000000000000000000000000000000000000000000000000000008152600401613571906153d6565b60405180910390fd5b60008160648561358a9190614465565b61359491906144d6565b90506000600290506000601490506000606483836135b29190614507565b856135bd9190614465565b6135c791906144d6565b836135d2919061453b565b9050818111156135e0578190505b809550505050505092915050565b60008060008581526020019081526020016000209050828160010160006101000a81548173ffffffffffffffffffffffffffffffffffffffff021916908373ffffffffffffffffffffffffffffffffffffffff16021790555081816004018190555060016006600086815260200190815260200160002060040160006101000a81548160ff0219169083151502179055508060000160009054906101000a900473ffffffffffffffffffffffffffffffffffffffff1673ffffffffffffffffffffffffffffffffffffffff168373ffffffffffffffffffffffffffffffffffffffff16857f132aeb8d030dcc11adfc3ead0730a22aa3c0bf449b3532210c732b9a25e83c2060405160405180910390a450505050565b60405180610120016040528060008152602001600073ffffffffffffffffffffffffffffffffffffffff16815260200160008152602001600081526020016000815260200160008152602001600015158152602001600081526020016000151581525090565b600080fd5b6000819050919050565b6137828161376f565b811461378d57600080fd5b50565b60008135905061379f81613779565b92915050565b6000602082840312156137bb576137ba61376a565b5b60006137c984828501613790565b91505092915050565b600081519050919050565b600082825260208201905092915050565b6000819050602082019050919050565b6138078161376f565b82525050565b600073ffffffffffffffffffffffffffffffffffffffff82169050919050565b60006138388261380d565b9050919050565b6138488161382d565b82525050565b60008115159050919050565b6138638161384e565b82525050565b6101208201600082015161388060008501826137fe565b506020820151613893602085018261383f565b5060408201516138a660408501826137fe565b5060608201516138b960608501826137fe565b5060808201516138cc60808501826137fe565b5060a08201516138df60a08501826137fe565b5060c08201516138f260c085018261385a565b5060e082015161390560e08501826137fe565b5061010082015161391a61010085018261385a565b50505050565b600061392c8383613869565b6101208301905092915050565b6000602082019050919050565b6000613951826137d2565b61395b81856137dd565b9350613966836137ee565b8060005b8381101561399757815161397e8882613920565b975061398983613939565b92505060018101905061396a565b5085935050505092915050565b600060208201905081810360008301526139be8184613946565b905092915050565b6139cf8161382d565b81146139da57600080fd5b50565b6000813590506139ec816139c6565b92915050565b60008060408385031215613a0957613a0861376a565b5b6000613a1785828601613790565b9250506020613a28858286016139dd565b9150509250929050565b613a3b8161376f565b82525050565b6000602082019050613a566000830184613a32565b92915050565b600060208284031215613a7257613a7161376a565b5b6000613a80848285016139dd565b91505092915050565b60008060408385031215613aa057613a9f61376a565b5b6000613aae858286016139dd565b9250506020613abf85828601613790565b9150509250929050565b6000819050919050565b6000613aee613ae9613ae48461380d565b613ac9565b61380d565b9050919050565b6000613b0082613ad3565b9050919050565b6000613b1282613af5565b9050919050565b613b2281613b07565b82525050565b6000602082019050613b3d6000830184613b19565b92915050565b613b4c8161384e565b82525050565b6000602082019050613b676000830184613b43565b92915050565b6000613b7882613af5565b9050919050565b613b8881613b6d565b82525050565b6000602082019050613ba36000830184613b7f565b92915050565b6000606082019050613bbe6000830186613a32565b613bcb6020830185613a32565b613bd86040830184613a32565b949350505050565b613be98161382d565b82525050565b6000602082019050613c046000830184613be0565b92915050565b60008060408385031215613c2157613c2061376a565b5b6000613c2f85828601613790565b9250506020613c4085828601613790565b9150509250929050565b6000606082019050613c5f6000830186613be0565b613c6c6020830185613a32565b613c796040830184613b43565b949350505050565b600060a082019050613c966000830188613a32565b613ca36020830187613b43565b613cb06040830186613b43565b613cbd6060830185613b43565b613cca6080830184613a32565b9695505050505050565b6000604082019050613ce96000830185613a32565b613cf66020830184613a32565b9392505050565b600060a082019050613d126000830188613a32565b613d1f6020830187613a32565b613d2c6040830186613a32565b613d396060830185613a32565b613d466080830184613b43565b9695505050505050565b7f4e487b7100000000000000000000000000000000000000000000000000000000600052602160045260246000fd5b60028110613d9057613d8f613d50565b5b50565b6000819050613da182613d7f565b919050565b6000613db182613d93565b9050919050565b613dc181613da6565b82525050565b600060e082019050613ddc600083018a613be0565b613de96020830189613be0565b613df66040830188613a32565b613e036060830187613a32565b613e106080830186613a32565b613e1d60a0830185613db8565b613e2a60c0830184613a32565b98975050505050505050565b600080600060608486031215613e4f57613e4e61376a565b5b6000613e5d86828701613790565b9350506020613e6e86828701613790565b9250506040613e7f86828701613790565b9150509250925092565b600082825260208201905092915050565b7f4f6e6c79206f776e657200000000000000000000000000000000000000000000600082015250565b6000613ed0600a83613e89565b9150613edb82613e9a565b602082019050919050565b60006020820190508181036000830152613eff81613ec3565b9050919050565b7f526174696f20746f6f206c6f7700000000000000000000000000000000000000600082015250565b6000613f3c600d83613e89565b9150613f4782613f06565b602082019050919050565b60006020820190508181036000830152613f6b81613f2f565b9050919050565b7f4e487b7100000000000000000000000000000000000000000000000000000000600052601160045260246000fd5b6000613fac8261376f565b91507fffffffffffffffffffffffffffffffffffffffffffffffffffffffffffffffff8203613fde57613fdd613f72565b5b600182019050919050565b7f4e487b7100000000000000000000000000000000000000000000000000000000600052604160045260246000fd5b7f4e487b7100000000000000000000000000000000000000000000000000000000600052603260045260246000fd5b60008151905061405681613779565b92915050565b6000602082840312156140725761407161376a565b5b600061408084828501614047565b91505092915050565b7f4e6f207265776172647320746f20776974686472617700000000000000000000600082015250565b60006140bf601683613e89565b91506140ca82614089565b602082019050919050565b600060208201905081810360008301526140ee816140b2565b9050919050565b600060408201905061410a6000830185613be0565b6141176020830184613a32565b9392505050565b6141278161384e565b811461413257600080fd5b50565b6000815190506141448161411e565b92915050565b6000602082840312156141605761415f61376a565b5b600061416e84828501614135565b91505092915050565b7f526577617264207769746864726177616c206661696c65640000000000000000600082015250565b60006141ad601883613e89565b91506141b882614177565b602082019050919050565b600060208201905081810360008301526141dc816141a0565b9050919050565b7f4c6f616e206e6f74206163746976650000000000000000000000000000000000600082015250565b6000614219600f83613e89565b9150614224826141e3565b602082019050919050565b600060208201905081810360008301526142488161420c565b9050919050565b7f4c6f616e206e6f74206f76657264756500000000000000000000000000000000600082015250565b6000614285601083613e89565b91506142908261424f565b602082019050919050565b600060208201905081810360008301526142b481614278565b9050919050565b7f4c6f616e20616c72656164792072657061696400000000000000000000000000600082015250565b60006142f1601383613e89565b91506142fc826142bb565b602082019050919050565b60006020820190508181036000830152614320816142e4565b9050919050565b600060ff82169050919050565b61433d81614327565b811461434857600080fd5b50565b60008151905061435a81614334565b92915050565b6000602082840312156143765761437561376a565b5b60006143848482850161434b565b91505092915050565b7f4e6f7420626f72726f7765720000000000000000000000000000000000000000600082015250565b60006143c3600c83613e89565b91506143ce8261438d565b602082019050919050565b600060208201905081810360008301526143f2816143b6565b9050919050565b7f6e6f20696e746572657374206163637275656421000000000000000000000000600082015250565b600061442f601483613e89565b915061443a826143f9565b602082019050919050565b6000602082019050818103600083015261445e81614422565b9050919050565b60006144708261376f565b915061447b8361376f565b92508282026144898161376f565b915082820484148315176144a05761449f613f72565b5b5092915050565b7f4e487b7100000000000000000000000000000000000000000000000000000000600052601260045260246000fd5b60006144e18261376f565b91506144ec8361376f565b9250826144fc576144fb6144a7565b5b828204905092915050565b60006145128261376f565b915061451d8361376f565b925082820390508181111561453557614534613f72565b5b92915050565b60006145468261376f565b91506145518361376f565b925082820190508082111561456957614568613f72565b5b92915050565b7f496e746572657374206e6f742063616c63756c61746564000000000000000000600082015250565b60006145a5601783613e89565b91506145b08261456f565b602082019050919050565b600060208201905081810360008301526145d481614598565b9050919050565b7f4e6f207265776172642063616c63756c61746564000000000000000000000000600082015250565b6000614611601483613e89565b915061461c826145db565b602082019050919050565b6000602082019050818103600083015261464081614604565b9050919050565b600060608201905061465c6000830186613be0565b6146696020830185613be0565b6146766040830184613a32565b949350505050565b7f5472616e73666572206661696c65640000000000000000000000000000000000600082015250565b60006146b4600f83613e89565b91506146bf8261467e565b602082019050919050565b600060208201905081810360008301526146e3816146a7565b9050919050565b7f5472616e7366657220746f206c656e646572206661696c656400000000000000600082015250565b6000614720601983613e89565b915061472b826146ea565b602082019050919050565b6000602082019050818103600083015261474f81614713565b9050919050565b7f4c6f616e20616c72656164792061637469766500000000000000000000000000600082015250565b600061478c601383613e89565b915061479782614756565b602082019050919050565b600060208201905081810360008301526147bb8161477f565b9050919050565b7f4c6f616e20616c72656164792066756e64656400000000000000000000000000600082015250565b60006147f8601383613e89565b9150614803826147c2565b602082019050919050565b60006020820190508181036000830152614827816147eb565b9050919050565b60006040820190506148436000830185613be0565b6148506020830184613be0565b9392505050565b7f496e73756666696369656e7420616c6c6f77616e636520666f7220746869732060008201527f7573657200000000000000000000000000000000000000000000000000000000602082015250565b60006148b3602483613e89565b91506148be82614857565b604082019050919050565b600060208201905081810360008301526148e2816148a6565b9050919050565b7f4c6f616e2064697362757273656d656e74206661696c65640000000000000000600082015250565b600061491f601883613e89565b915061492a826148e9565b602082019050919050565b6000602082019050818103600083015261494e81614912565b9050919050565b7f4c6f616e20646f6573206e6f7420657869737400000000000000000000000000600082015250565b600061498b601383613e89565b915061499682614955565b602082019050919050565b600060208201905081810360008301526149ba8161497e565b9050919050565b7f4d696e696d756d206c6f616e20616d6f756e74206d757374206265206772656160008201527f746572207468616e203000000000000000000000000000000000000000000000602082015250565b6000614a1d602a83613e89565b9150614a28826149c1565b604082019050919050565b60006020820190508181036000830152614a4c81614a10565b9050919050565b7f4d6178696d756d206c6f616e20616d6f756e74206d757374206265206772656160008201527f746572207468616e206d696e696d756d206c6f616e20616d6f756e7400000000602082015250565b6000614aaf603c83613e89565b9150614aba82614a53565b604082019050919050565b60006020820190508181036000830152614ade81614aa2565b9050919050565b600069ffffffffffffffffffff82169050919050565b614b0481614ae5565b8114614b0f57600080fd5b50565b600081519050614b2181614afb565b92915050565b6000819050919050565b614b3a81614b27565b8114614b4557600080fd5b50565b600081519050614b5781614b31565b92915050565b600080600080600060a08688031215614b7957614b7861376a565b5b6000614b8788828901614b12565b9550506020614b9888828901614b48565b9450506040614ba988828901614047565b9350506060614bba88828901614047565b9250506080614bcb88828901614b12565b9150509295509295909350565b7f496e76616c696420707269636500000000000000000000000000000000000000600082015250565b6000614c0e600d83613e89565b9150614c1982614bd8565b602082019050919050565b60006020820190508181036000830152614c3d81614c01565b9050919050565b7f52657061796d656e742065786365656473206f77656420616d6f756e74000000600082015250565b6000614c7a601d83613e89565b9150614c8582614c44565b602082019050919050565b60006020820190508181036000830152614ca981614c6d565b9050919050565b7f5061727469616c2072657061796d656e74206661696c65640000000000000000600082015250565b6000614ce6601883613e89565b9150614cf182614cb0565b602082019050919050565b60006020820190508181036000830152614d1581614cd9565b9050919050565b7f5468726573686f6c6420746f6f206c6f77000000000000000000000000000000600082015250565b6000614d52601183613e89565b9150614d5d82614d1c565b602082019050919050565b60006020820190508181036000830152614d8181614d45565b9050919050565b7f496e76616c6964206c6f616e20616d6f756e7400000000000000000000000000600082015250565b6000614dbe601383613e89565b9150614dc982614d88565b602082019050919050565b60006020820190508181036000830152614ded81614db1565b9050919050565b7f496e73756666696369656e7420636f6c6c61746572616c000000000000000000600082015250565b6000614e2a601783613e89565b9150614e3582614df4565b602082019050919050565b60006020820190508181036000830152614e5981614e1d565b9050919050565b7f496e73756666696369656e7420636f6c6c61746572616c2062616c616e636500600082015250565b6000614e96601f83613e89565b9150614ea182614e60565b602082019050919050565b60006020820190508181036000830152614ec581614e89565b9050919050565b600081905092915050565b50565b6000614ee7600083614ecc565b9150614ef282614ed7565b600082019050919050565b6000614f0882614eda565b9150819050919050565b7f436f6c6c61746572616c207472616e73666572206661696c6564000000000000600082015250565b6000614f48601a83613e89565b9150614f5382614f12565b602082019050919050565b60006020820190508181036000830152614f7781614f3b565b9050919050565b60008160011c9050919050565b6000808291508390505b6001851115614fd557808604811115614fb157614fb0613f72565b5b6001851615614fc05780820291505b8081029050614fce85614f7e565b9450614f95565b94509492505050565b600082614fee57600190506150aa565b81614ffc57600090506150aa565b8160018114615012576002811461501c5761504b565b60019150506150aa565b60ff84111561502e5761502d613f72565b5b8360020a91508482111561504557615044613f72565b5b506150aa565b5060208310610133831016604e8410600b84101617156150805782820a90508381111561507b5761507a613f72565b5b6150aa565b61508d8484846001614f8b565b925090508184048111156150a4576150a3613f72565b5b81810290505b9392505050565b60006150bc8261376f565b91506150c78361376f565b92506150f47fffffffffffffffffffffffffffffffffffffffffffffffffffffffffffffffff8484614fde565b905092915050565b7f4e6f2074696d6520656c617073656420666f7220696e7465726573742061636360008201527f7275616c00000000000000000000000000000000000000000000000000000000602082015250565b6000615158602483613e89565b9150615163826150fc565b604082019050919050565b600060208201905081810360008301526151878161514b565b9050919050565b7f5072696e636970616c206d7573742062652067726561746572207468616e2030600082015250565b60006151c4602083613e89565b91506151cf8261518e565b602082019050919050565b600060208201905081810360008301526151f3816151b7565b9050919050565b7f416e6e75616c2072617465206d7573742062652067726561746572207468616e60008201527f2030000000000000000000000000000000000000000000000000000000000000602082015250565b6000615256602283613e89565b9150615261826151fa565b604082019050919050565b6000602082019050818103600083015261528581615249565b9050919050565b7f54696d6520656c6170736564206d75737420626520677265617465722074686160008201527f6e20300000000000000000000000000000000000000000000000000000000000602082015250565b60006152e8602383613e89565b91506152f38261528c565b604082019050919050565b60006020820190508181036000830152615317816152db565b9050919050565b7f5261746520706572207365636f6e6420697320696e76616c6964000000000000600082015250565b6000615354601a83613e89565b915061535f8261531e565b602082019050919050565b6000602082019050818103600083015261538381615347565b9050919050565b7f496e73756666696369656e74206c656e6465722066756e647300000000000000600082015250565b60006153c0601983613e89565b91506153cb8261538a565b602082019050919050565b600060208201905081810360008301526153ef816153b3565b905091905056fea2646970667358221220d0d2cc226aed93befcd58030242654ec92e071bd1e20eae51b330ef196a64a6264736f6c63430008180033",
  "linkReferences": {},
  "deployedLinkReferences": {}
}