{
  "_format": "hh-sol-artifact-1",
  "contractName": "LoanManager",
  "sourceName": "contracts/LoanManager.sol",
  "abi": [
    {
      "inputs": [
        {
          "internalType": "contract IERC20",
          "name": "_linkToken",
          "type": "address"
        },
        {
          "internalType": "contract AggregatorV3Interface",
          "name": "_priceFeed",
          "type": "address"
        }
      ],
      "stateMutability": "nonpayable",
      "type": "constructor"
    },
    {
      "inputs": [],
      "name": "EnforcedPause",
      "type": "error"
    },
    {
      "inputs": [],
      "name": "ExpectedPause",
      "type": "error"
    },
    {
      "inputs": [],
      "name": "ReentrancyGuardReentrantCall",
      "type": "error"
    },
    {
      "anonymous": false,
      "inputs": [
        {
          "indexed": true,
          "internalType": "uint256",
          "name": "loanId",
          "type": "uint256"
        },
        {
          "indexed": true,
          "internalType": "address",
          "name": "lender",
          "type": "address"
        },
        {
          "indexed": true,
          "internalType": "address",
          "name": "borrower",
          "type": "address"
        }
      ],
      "name": "AutomaticMatch",
      "type": "event"
    },
    {
      "anonymous": false,
      "inputs": [
        {
          "indexed": true,
          "internalType": "address",
          "name": "token",
          "type": "address"
        },
        {
          "indexed": false,
          "internalType": "uint256",
          "name": "maxLTV",
          "type": "uint256"
        }
      ],
      "name": "CollateralAdded",
      "type": "event"
    },
    {
      "anonymous": false,
      "inputs": [
        {
          "indexed": true,
          "internalType": "uint256",
          "name": "loanId",
          "type": "uint256"
        },
        {
          "indexed": false,
          "internalType": "uint256",
          "name": "amount",
          "type": "uint256"
        }
      ],
      "name": "InterestAccrued",
      "type": "event"
    },
    {
      "anonymous": false,
      "inputs": [
        {
          "indexed": true,
          "internalType": "uint256",
          "name": "loanId",
          "type": "uint256"
        },
        {
          "indexed": true,
          "internalType": "address",
          "name": "borrower",
          "type": "address"
        },
        {
          "indexed": false,
          "internalType": "uint256",
          "name": "loanAmount",
          "type": "uint256"
        }
      ],
      "name": "LoanDisbursed",
      "type": "event"
    },
    {
      "anonymous": false,
      "inputs": [
        {
          "indexed": true,
          "internalType": "uint256",
          "name": "loanId",
          "type": "uint256"
        },
        {
          "indexed": true,
          "internalType": "address",
          "name": "lender",
          "type": "address"
        }
      ],
      "name": "LoanFunded",
      "type": "event"
    },
    {
      "anonymous": false,
      "inputs": [
        {
          "indexed": true,
          "internalType": "uint256",
          "name": "loanId",
          "type": "uint256"
        },
        {
          "indexed": true,
          "internalType": "address",
          "name": "liquidator",
          "type": "address"
        }
      ],
      "name": "LoanLiquidated",
      "type": "event"
    },
    {
      "anonymous": false,
      "inputs": [
        {
          "indexed": true,
          "internalType": "uint256",
          "name": "loanId",
          "type": "uint256"
        },
        {
          "indexed": true,
          "internalType": "address",
          "name": "lender",
          "type": "address"
        },
        {
          "indexed": false,
          "internalType": "uint256",
          "name": "loanAmount",
          "type": "uint256"
        }
      ],
      "name": "LoanLiquidated",
      "type": "event"
    },
    {
      "anonymous": false,
      "inputs": [
        {
          "indexed": true,
          "internalType": "uint256",
          "name": "loanId",
          "type": "uint256"
        },
        {
          "indexed": true,
          "internalType": "address",
          "name": "borrower",
          "type": "address"
        },
        {
          "indexed": false,
          "internalType": "uint256",
          "name": "amount",
          "type": "uint256"
        }
      ],
      "name": "LoanRepaid",
      "type": "event"
    },
    {
      "anonymous": false,
      "inputs": [
        {
          "indexed": true,
          "internalType": "uint256",
          "name": "loanId",
          "type": "uint256"
        },
        {
          "indexed": true,
          "internalType": "address",
          "name": "borrower",
          "type": "address"
        },
        {
          "indexed": false,
          "internalType": "uint256",
          "name": "amount",
          "type": "uint256"
        },
        {
          "indexed": false,
          "internalType": "uint256",
          "name": "collateral",
          "type": "uint256"
        }
      ],
      "name": "LoanRequested",
      "type": "event"
    },
    {
      "anonymous": false,
      "inputs": [
        {
          "indexed": true,
          "internalType": "uint256",
          "name": "loanId",
          "type": "uint256"
        },
        {
          "indexed": true,
          "internalType": "address",
          "name": "borrower",
          "type": "address"
        },
        {
          "indexed": false,
          "internalType": "uint256",
          "name": "amount",
          "type": "uint256"
        }
      ],
      "name": "PartialRepayment",
      "type": "event"
    },
    {
      "anonymous": false,
      "inputs": [
        {
          "indexed": false,
          "internalType": "address",
          "name": "account",
          "type": "address"
        }
      ],
      "name": "Paused",
      "type": "event"
    },
    {
      "anonymous": false,
      "inputs": [
        {
          "indexed": true,
          "internalType": "uint256",
          "name": "loanId",
          "type": "uint256"
        },
        {
          "indexed": false,
          "internalType": "uint256",
          "name": "reward",
          "type": "uint256"
        }
      ],
      "name": "RewardCollected",
      "type": "event"
    },
    {
      "anonymous": false,
      "inputs": [
        {
          "indexed": false,
          "internalType": "address",
          "name": "owner",
          "type": "address"
        },
        {
          "indexed": false,
          "internalType": "uint256",
          "name": "contractBalance",
          "type": "uint256"
        }
      ],
      "name": "RewardsWithdrawn",
      "type": "event"
    },
    {
      "anonymous": false,
      "inputs": [
        {
          "indexed": false,
          "internalType": "address",
          "name": "account",
          "type": "address"
        }
      ],
      "name": "Unpaused",
      "type": "event"
    },
    {
      "inputs": [],
      "name": "allowanceCaller",
      "outputs": [
        {
          "internalType": "uint256",
          "name": "",
          "type": "uint256"
        }
      ],
      "stateMutability": "view",
      "type": "function"
    },
    {
      "inputs": [
        {
          "internalType": "address",
          "name": "",
          "type": "address"
        },
        {
          "internalType": "uint256",
          "name": "",
          "type": "uint256"
        }
      ],
      "name": "borrowerLoans",
      "outputs": [
        {
          "internalType": "uint256",
          "name": "",
          "type": "uint256"
        }
      ],
      "stateMutability": "view",
      "type": "function"
    },
    {
      "inputs": [],
      "name": "collateralizationRatio",
      "outputs": [
        {
          "internalType": "uint256",
          "name": "",
          "type": "uint256"
        }
      ],
      "stateMutability": "view",
      "type": "function"
    },
    {
      "inputs": [
        {
          "internalType": "uint256",
          "name": "loanId",
          "type": "uint256"
        }
      ],
      "name": "fundLoan",
      "outputs": [],
      "stateMutability": "nonpayable",
      "type": "function"
    },
    {
      "inputs": [],
      "name": "getAllLoanRequests",
      "outputs": [
        {
          "components": [
            {
              "internalType": "uint256",
              "name": "loanId",
              "type": "uint256"
            },
            {
              "internalType": "address",
              "name": "borrower",
              "type": "address"
            },
            {
              "internalType": "uint256",
              "name": "amount",
              "type": "uint256"
            },
            {
              "internalType": "uint256",
              "name": "maxInterestRate",
              "type": "uint256"
            },
            {
              "internalType": "uint256",
              "name": "dueDate",
              "type": "uint256"
            },
            {
              "internalType": "uint256",
              "name": "duration",
              "type": "uint256"
            },
            {
              "internalType": "bool",
              "name": "matched",
              "type": "bool"
            },
            {
              "internalType": "uint256",
              "name": "collateralAmount",
              "type": "uint256"
            },
            {
              "internalType": "bool",
              "name": "isActive",
              "type": "bool"
            }
          ],
          "internalType": "struct LoanStorage.LoanRequestDetail[]",
          "name": "",
          "type": "tuple[]"
        }
      ],
      "stateMutability": "view",
      "type": "function"
    },
    {
      "inputs": [],
      "name": "getETHPrice",
      "outputs": [
        {
          "internalType": "uint256",
          "name": "",
          "type": "uint256"
        }
      ],
      "stateMutability": "view",
      "type": "function"
    },
    {
      "inputs": [
        {
          "internalType": "address",
          "name": "user",
          "type": "address"
        }
      ],
      "name": "getUserLoanRequests",
      "outputs": [
        {
          "components": [
            {
              "internalType": "uint256",
              "name": "loanId",
              "type": "uint256"
            },
            {
              "internalType": "address",
              "name": "borrower",
              "type": "address"
            },
            {
              "internalType": "uint256",
              "name": "amount",
              "type": "uint256"
            },
            {
              "internalType": "uint256",
              "name": "maxInterestRate",
              "type": "uint256"
            },
            {
              "internalType": "uint256",
              "name": "dueDate",
              "type": "uint256"
            },
            {
              "internalType": "uint256",
              "name": "duration",
              "type": "uint256"
            },
            {
              "internalType": "bool",
              "name": "matched",
              "type": "bool"
            },
            {
              "internalType": "uint256",
              "name": "collateralAmount",
              "type": "uint256"
            },
            {
              "internalType": "bool",
              "name": "isActive",
              "type": "bool"
            }
          ],
          "internalType": "struct LoanStorage.LoanRequestDetail[]",
          "name": "",
          "type": "tuple[]"
        }
      ],
      "stateMutability": "view",
      "type": "function"
    },
    {
      "inputs": [
        {
          "internalType": "address",
          "name": "",
          "type": "address"
        }
      ],
      "name": "lenderAvailableFunds",
      "outputs": [
        {
          "internalType": "uint256",
          "name": "",
          "type": "uint256"
        }
      ],
      "stateMutability": "view",
      "type": "function"
    },
    {
      "inputs": [
        {
          "internalType": "address",
          "name": "",
          "type": "address"
        },
        {
          "internalType": "uint256",
          "name": "",
          "type": "uint256"
        }
      ],
      "name": "lenderLoans",
      "outputs": [
        {
          "internalType": "uint256",
          "name": "",
          "type": "uint256"
        }
      ],
      "stateMutability": "view",
      "type": "function"
    },
    {
      "inputs": [],
      "name": "linkToken",
      "outputs": [
        {
          "internalType": "contract IERC20",
          "name": "",
          "type": "address"
        }
      ],
      "stateMutability": "view",
      "type": "function"
    },
    {
      "inputs": [
        {
          "internalType": "uint256",
          "name": "loanId",
          "type": "uint256"
        }
      ],
      "name": "liquidateOverdueLoan",
      "outputs": [],
      "stateMutability": "nonpayable",
      "type": "function"
    },
    {
      "inputs": [],
      "name": "liquidationThreshold",
      "outputs": [
        {
          "internalType": "uint256",
          "name": "",
          "type": "uint256"
        }
      ],
      "stateMutability": "view",
      "type": "function"
    },
    {
      "inputs": [],
      "name": "loanCounter",
      "outputs": [
        {
          "internalType": "uint256",
          "name": "",
          "type": "uint256"
        }
      ],
      "stateMutability": "view",
      "type": "function"
    },
    {
      "inputs": [
        {
          "internalType": "uint256",
          "name": "",
          "type": "uint256"
        }
      ],
      "name": "loanRequests",
      "outputs": [
        {
          "internalType": "uint256",
          "name": "amount",
          "type": "uint256"
        },
        {
          "internalType": "uint256",
          "name": "maxInterestRate",
          "type": "uint256"
        },
        {
          "internalType": "uint256",
          "name": "dueDate",
          "type": "uint256"
        },
        {
          "internalType": "uint256",
          "name": "duration",
          "type": "uint256"
        },
        {
          "internalType": "bool",
          "name": "matched",
          "type": "bool"
        }
      ],
      "stateMutability": "view",
      "type": "function"
    },
    {
      "inputs": [
        {
          "internalType": "uint256",
          "name": "",
          "type": "uint256"
        },
        {
          "internalType": "address",
          "name": "",
          "type": "address"
        }
      ],
      "name": "loansCollateral",
      "outputs": [
        {
          "internalType": "uint256",
          "name": "",
          "type": "uint256"
        }
      ],
      "stateMutability": "view",
      "type": "function"
    },
    {
      "inputs": [
        {
          "internalType": "uint256",
          "name": "",
          "type": "uint256"
        }
      ],
      "name": "loansCore",
      "outputs": [
        {
          "internalType": "address",
          "name": "borrower",
          "type": "address"
        },
        {
          "internalType": "address",
          "name": "lender",
          "type": "address"
        },
        {
          "internalType": "uint256",
          "name": "amount",
          "type": "uint256"
        },
        {
          "internalType": "uint256",
          "name": "collateral",
          "type": "uint256"
        },
        {
          "internalType": "uint256",
          "name": "interestRate",
          "type": "uint256"
        },
        {
          "internalType": "enum ILoanManager.InterestRateType",
          "name": "rateType",
          "type": "uint8"
        },
        {
          "internalType": "uint256",
          "name": "duration",
          "type": "uint256"
        }
      ],
      "stateMutability": "view",
      "type": "function"
    },
    {
      "inputs": [
        {
          "internalType": "uint256",
          "name": "",
          "type": "uint256"
        }
      ],
      "name": "loansInterest",
      "outputs": [
        {
          "internalType": "uint256",
          "name": "lastInterestAccrualTimestamp",
          "type": "uint256"
        },
        {
          "internalType": "uint256",
          "name": "accruedInterest",
          "type": "uint256"
        }
      ],
      "stateMutability": "view",
      "type": "function"
    },
    {
      "inputs": [
        {
          "internalType": "uint256",
          "name": "",
          "type": "uint256"
        }
      ],
      "name": "loansStatus",
      "outputs": [
        {
          "internalType": "uint256",
          "name": "startTime",
          "type": "uint256"
        },
        {
          "internalType": "bool",
          "name": "active",
          "type": "bool"
        },
        {
          "internalType": "bool",
          "name": "repaid",
          "type": "bool"
        },
        {
          "internalType": "bool",
          "name": "defaulted",
          "type": "bool"
        },
        {
          "internalType": "uint256",
          "name": "repaidAmount",
          "type": "uint256"
        }
      ],
      "stateMutability": "view",
      "type": "function"
    },
    {
      "inputs": [
        {
          "internalType": "uint256",
          "name": "loanId",
          "type": "uint256"
        },
        {
          "internalType": "uint256",
          "name": "amount",
          "type": "uint256"
        }
      ],
      "name": "makePartialRepayment",
      "outputs": [],
      "stateMutability": "nonpayable",
      "type": "function"
    },
    {
      "inputs": [],
      "name": "maxLoanAmount",
      "outputs": [
        {
          "internalType": "uint256",
          "name": "",
          "type": "uint256"
        }
      ],
      "stateMutability": "view",
      "type": "function"
    },
    {
      "inputs": [],
      "name": "minLoanAmount",
      "outputs": [
        {
          "internalType": "uint256",
          "name": "",
          "type": "uint256"
        }
      ],
      "stateMutability": "view",
      "type": "function"
    },
    {
      "inputs": [],
      "name": "owner",
      "outputs": [
        {
          "internalType": "address",
          "name": "",
          "type": "address"
        }
      ],
      "stateMutability": "view",
      "type": "function"
    },
    {
      "inputs": [],
      "name": "paused",
      "outputs": [
        {
          "internalType": "bool",
          "name": "",
          "type": "bool"
        }
      ],
      "stateMutability": "view",
      "type": "function"
    },
    {
      "inputs": [],
      "name": "priceFeed",
      "outputs": [
        {
          "internalType": "contract AggregatorV3Interface",
          "name": "",
          "type": "address"
        }
      ],
      "stateMutability": "view",
      "type": "function"
    },
    {
      "inputs": [
        {
          "internalType": "uint256",
          "name": "loanId",
          "type": "uint256"
        }
      ],
      "name": "repayLoanWithReward",
      "outputs": [],
      "stateMutability": "nonpayable",
      "type": "function"
    },
    {
      "inputs": [
        {
          "internalType": "uint256",
          "name": "amount",
          "type": "uint256"
        },
        {
          "internalType": "uint256",
          "name": "maxInterestRate",
          "type": "uint256"
        },
        {
          "internalType": "uint256",
          "name": "duration",
          "type": "uint256"
        }
      ],
      "name": "requestLoan",
      "outputs": [],
      "stateMutability": "payable",
      "type": "function"
    },
    {
      "inputs": [
        {
          "internalType": "uint256",
          "name": "_minLoanAmount",
          "type": "uint256"
        },
        {
          "internalType": "uint256",
          "name": "_maxLoanAmount",
          "type": "uint256"
        }
      ],
      "name": "setLoanLimits",
      "outputs": [],
      "stateMutability": "nonpayable",
      "type": "function"
    },
    {
      "inputs": [
        {
          "internalType": "address",
          "name": "",
          "type": "address"
        }
      ],
      "name": "supportedCollaterals",
      "outputs": [
        {
          "internalType": "address",
          "name": "priceOracle",
          "type": "address"
        },
        {
          "internalType": "uint256",
          "name": "maxLTV",
          "type": "uint256"
        },
        {
          "internalType": "bool",
          "name": "isActive",
          "type": "bool"
        }
      ],
      "stateMutability": "view",
      "type": "function"
    },
    {
      "inputs": [
        {
          "internalType": "uint256",
          "name": "newRatio",
          "type": "uint256"
        }
      ],
      "name": "updateCollateralizationRatio",
      "outputs": [],
      "stateMutability": "nonpayable",
      "type": "function"
    },
    {
      "inputs": [
        {
          "internalType": "uint256",
          "name": "newThreshold",
          "type": "uint256"
        }
      ],
      "name": "updateLiquidationThreshold",
      "outputs": [],
      "stateMutability": "nonpayable",
      "type": "function"
    },
    {
      "inputs": [
        {
          "internalType": "address",
          "name": "_owner",
          "type": "address"
        }
      ],
      "name": "withdrawRewards",
      "outputs": [],
      "stateMutability": "nonpayable",
      "type": "function"
    }
  ],
  "bytecode": "0x60806040526078600e55606e600f553480156200001b57600080fd5b50604051620057f2380380620057f28339818101604052810190620000419190620001f2565b6001600a819055506000600b60006101000a81548160ff02191690831515021790555081600b60016101000a81548173ffffffffffffffffffffffffffffffffffffffff021916908373ffffffffffffffffffffffffffffffffffffffff16021790555080600c60006101000a81548173ffffffffffffffffffffffffffffffffffffffff021916908373ffffffffffffffffffffffffffffffffffffffff16021790555033600d60006101000a81548173ffffffffffffffffffffffffffffffffffffffff021916908373ffffffffffffffffffffffffffffffffffffffff160217905550505062000239565b600080fd5b600073ffffffffffffffffffffffffffffffffffffffff82169050919050565b6000620001618262000134565b9050919050565b6000620001758262000154565b9050919050565b620001878162000168565b81146200019357600080fd5b50565b600081519050620001a7816200017c565b92915050565b6000620001ba8262000154565b9050919050565b620001cc81620001ad565b8114620001d857600080fd5b50565b600081519050620001ec81620001c1565b92915050565b600080604083850312156200020c576200020b6200012f565b5b60006200021c8582860162000196565b92505060206200022f85828601620001db565b9150509250929050565b6155a980620002496000396000f3fe6080604052600436106101d85760003560e01c806388ae545c11610102578063d1b332f411610095578063e16ffcdc11610064578063e16ffcdc146106f1578063e3ed19021461071c578063e91349d714610759578063edadbbfe1461079c576101d8565b8063d1b332f414610631578063d3b5be1a14610672578063dcaf9c441461069b578063e06a9138146106c6576101d8565b8063aaea7009116100d1578063aaea70091461054a578063b29504e914610589578063b4580a66146105b2578063cc826646146105f3576101d8565b806388ae545c1461048e5780638da5cb5b146104cb57806397a146c0146104f6578063a607a8d91461051f576101d8565b806342d866931161017a57806372f943651161014957806372f94365146103e6578063741bef1a146104115780637c6fe2701461043c578063846b909a14610465576101d8565b806342d866931461033e57806357970e93146103675780635c975abb1461039257806361851d65146103bd576101d8565b8063197428bf116101b6578063197428bf1461026e57806334d9289e146102ab5780633cdb72f1146102d65780634031234c14610313576101d8565b80630607ec70146101dd5780630c9babc31461020657806317d960e014610231575b600080fd5b3480156101e957600080fd5b5061020460048036038101906101ff91906139c5565b6107b8565b005b34801561021257600080fd5b5061021b610896565b6040516102289190613bc4565b60405180910390f35b34801561023d57600080fd5b5061025860048036038101906102539190613c12565b610c98565b6040516102659190613c61565b60405180910390f35b34801561027a57600080fd5b5061029560048036038101906102909190613c7c565b610cbd565b6040516102a29190613c61565b60405180910390f35b3480156102b757600080fd5b506102c0610cd5565b6040516102cd9190613c61565b60405180910390f35b3480156102e257600080fd5b506102fd60048036038101906102f89190613ca9565b610cdb565b60405161030a9190613c61565b60405180910390f35b34801561031f57600080fd5b50610328610d0c565b6040516103359190613c61565b60405180910390f35b34801561034a57600080fd5b5061036560048036038101906103609190613c7c565b610d12565b005b34801561037357600080fd5b5061037c610fb1565b6040516103899190613d48565b60405180910390f35b34801561039e57600080fd5b506103a7610fd7565b6040516103b49190613d72565b60405180910390f35b3480156103c957600080fd5b506103e460048036038101906103df91906139c5565b610fee565b005b3480156103f257600080fd5b506103fb6111db565b6040516104089190613c61565b60405180910390f35b34801561041d57600080fd5b506104266111e1565b6040516104339190613dae565b60405180910390f35b34801561044857600080fd5b50610463600480360381019061045e91906139c5565b611207565b005b34801561047157600080fd5b5061048c600480360381019061048791906139c5565b611782565b005b34801561049a57600080fd5b506104b560048036038101906104b09190613c7c565b611dbe565b6040516104c29190613bc4565b60405180910390f35b3480156104d757600080fd5b506104e0612281565b6040516104ed9190613dd8565b60405180910390f35b34801561050257600080fd5b5061051d60048036038101906105189190613df3565b6122a7565b005b34801561052b57600080fd5b506105346123ce565b6040516105419190613c61565b60405180910390f35b34801561055657600080fd5b50610571600480360381019061056c9190613c7c565b6124b2565b60405161058093929190613e33565b60405180910390f35b34801561059557600080fd5b506105b060048036038101906105ab9190613df3565b612509565b005b3480156105be57600080fd5b506105d960048036038101906105d491906139c5565b612887565b6040516105ea959493929190613e6a565b60405180910390f35b3480156105ff57600080fd5b5061061a600480360381019061061591906139c5565b6128e4565b604051610628929190613ebd565b60405180910390f35b34801561063d57600080fd5b50610658600480360381019061065391906139c5565b612908565b604051610669959493929190613ee6565b60405180910390f35b34801561067e57600080fd5b50610699600480360381019061069491906139c5565b61294b565b005b3480156106a757600080fd5b506106b0612a29565b6040516106bd9190613c61565b60405180910390f35b3480156106d257600080fd5b506106db612a2f565b6040516106e89190613c61565b60405180910390f35b3480156106fd57600080fd5b50610706612a35565b6040516107139190613c61565b60405180910390f35b34801561072857600080fd5b50610743600480360381019061073e9190613ca9565b612adf565b6040516107509190613c61565b60405180910390f35b34801561076557600080fd5b50610780600480360381019061077b91906139c5565b612b10565b6040516107939796959493929190613fb0565b60405180910390f35b6107b660048036038101906107b1919061401f565b612b9f565b005b600d60009054906101000a900473ffffffffffffffffffffffffffffffffffffffff1673ffffffffffffffffffffffffffffffffffffffff163373ffffffffffffffffffffffffffffffffffffffff1614610848576040517f08c379a000000000000000000000000000000000000000000000000000000000815260040161083f906140cf565b60405180910390fd5b606481101561088c576040517f08c379a00000000000000000000000000000000000000000000000000000000081526004016108839061413b565b60405180910390fd5b80600e8190555050565b6060600080600190505b601054811161093e576000600660008381526020019081526020016000206040518060a0016040529081600082015481526020016001820154815260200160028201548152602001600382015481526020016004820160009054906101000a900460ff161515151581525050905060008160000151111561092a5782806109269061418a565b9350505b5080806109369061418a565b9150506108a0565b5060008167ffffffffffffffff81111561095b5761095a6141d2565b5b60405190808252806020026020018201604052801561099457816020015b610981613924565b8152602001906001900390816109795790505b509050600080600190505b6010548111610c8e576000600660008381526020019081526020016000206040518060a0016040529081600082015481526020016001820154815260200160028201548152602001600382015481526020016004820160009054906101000a900460ff16151515158152505090506000600160008481526020019081526020016000206040518060a0016040529081600082015481526020016001820160009054906101000a900460ff161515151581526020016001820160019054906101000a900460ff161515151581526020016001820160029054906101000a900460ff16151515158152602001600282015481525050905060008060008581526020019081526020016000206040518060e00160405290816000820160009054906101000a900473ffffffffffffffffffffffffffffffffffffffff1673ffffffffffffffffffffffffffffffffffffffff1673ffffffffffffffffffffffffffffffffffffffff1681526020016001820160009054906101000a900473ffffffffffffffffffffffffffffffffffffffff1673ffffffffffffffffffffffffffffffffffffffff1673ffffffffffffffffffffffffffffffffffffffff1681526020016002820154815260200160038201548152602001600482015481526020016005820160009054906101000a900460ff166001811115610ba257610ba1613f39565b5b6001811115610bb457610bb3613f39565b5b81526020016006820154815250509050600083600001511115610c7857604051806101200160405280858152602001826000015173ffffffffffffffffffffffffffffffffffffffff168152602001846000015181526020018460200151815260200184604001518152602001846060015181526020018460800151151581526020018260600151815260200183602001511515815250868681518110610c5e57610c5d614201565b5b60200260200101819052508480610c749061418a565b9550505b5050508080610c869061418a565b91505061099f565b5081935050505090565b6003602052816000526040600020602052806000526040600020600091509150505481565b60076020528060005260406000206000915090505481565b60105481565b60056020528160005260406000208181548110610cf757600080fd5b90600052602060002001600091509150505481565b600f5481565b600d60009054906101000a900473ffffffffffffffffffffffffffffffffffffffff1673ffffffffffffffffffffffffffffffffffffffff163373ffffffffffffffffffffffffffffffffffffffff1614610da2576040517f08c379a0000000000000000000000000000000000000000000000000000000008152600401610d99906140cf565b60405180910390fd5b610daa612fdf565b6000600b60019054906101000a900473ffffffffffffffffffffffffffffffffffffffff1673ffffffffffffffffffffffffffffffffffffffff166370a08231306040518263ffffffff1660e01b8152600401610e079190613dd8565b602060405180830381865afa158015610e24573d6000803e3d6000fd5b505050506040513d601f19601f82011682018060405250810190610e489190614245565b905060008111610e8d576040517f08c379a0000000000000000000000000000000000000000000000000000000008152600401610e84906142be565b60405180910390fd5b600b60019054906101000a900473ffffffffffffffffffffffffffffffffffffffff1673ffffffffffffffffffffffffffffffffffffffff1663a9059cbb83836040518363ffffffff1660e01b8152600401610eea9291906142de565b6020604051808303816000875af1158015610f09573d6000803e3d6000fd5b505050506040513d601f19601f82011682018060405250810190610f2d9190614333565b610f6c576040517f08c379a0000000000000000000000000000000000000000000000000000000008152600401610f63906143ac565b60405180910390fd5b7f8a43c4352486ec339f487f64af78ca5cbf06cd47833f073d3baf3a193e5031618282604051610f9d9291906142de565b60405180910390a150610fae613025565b50565b600b60019054906101000a900473ffffffffffffffffffffffffffffffffffffffff1681565b6000600b60009054906101000a900460ff16905090565b610ff661302f565b610ffe612fdf565b6000806000838152602001908152602001600020905060006001600084815260200190815260200160002090508060010160009054906101000a900460ff1661107c576040517f08c379a000000000000000000000000000000000000000000000000000000000815260040161107390614418565b60405180910390fd5b816006015442116110c2576040517f08c379a00000000000000000000000000000000000000000000000000000000081526004016110b990614484565b60405180910390fd5b8060010160019054906101000a900460ff1615611114576040517f08c379a000000000000000000000000000000000000000000000000000000000815260040161110b906144f0565b60405180910390fd5b61111d83613070565b60008160010160006101000a81548160ff02191690831515021790555060018160010160026101000a81548160ff0219169083151502179055508160010160009054906101000a900473ffffffffffffffffffffffffffffffffffffffff1673ffffffffffffffffffffffffffffffffffffffff16837f0256bdf47e9aff5784070d6cab332d79f81fc6b8c8ed875565982a423a389e3a84600201546040516111c69190613c61565b60405180910390a350506111d8613025565b50565b60125481565b600c60009054906101000a900473ffffffffffffffffffffffffffffffffffffffff1681565b61120f61302f565b611217612fdf565b60008060008381526020019081526020016000209050600060016000848152602001908152602001600020905060006002600085815260200190815260200160002090508160010160009054906101000a900460ff166112ac576040517f08c379a00000000000000000000000000000000000000000000000000000000081526004016112a390614418565b60405180910390fd5b8260000160009054906101000a900473ffffffffffffffffffffffffffffffffffffffff1673ffffffffffffffffffffffffffffffffffffffff163373ffffffffffffffffffffffffffffffffffffffff161461133e576040517f08c379a00000000000000000000000000000000000000000000000000000000081526004016113359061455c565b60405180910390fd5b611347846131ac565b60008160010154905060008111611393576040517f08c379a000000000000000000000000000000000000000000000000000000000815260040161138a906145c8565b60405180910390fd5b600060646014836113a491906145e8565b6113ae9190614659565b9050600081836113be919061468a565b9050428460000181905550600085600201548488600201546113e091906146be565b6113ea919061468a565b905086600201548111611432576040517f08c379a00000000000000000000000000000000000000000000000000000000081526004016114299061473e565b60405180910390fd5b60008311611475576040517f08c379a000000000000000000000000000000000000000000000000000000000815260040161146c906147aa565b60405180910390fd5b600b60019054906101000a900473ffffffffffffffffffffffffffffffffffffffff1673ffffffffffffffffffffffffffffffffffffffff166323b872dd3330846040518463ffffffff1660e01b81526004016114d4939291906147ca565b6020604051808303816000875af11580156114f3573d6000803e3d6000fd5b505050506040513d601f19601f820116820180604052508101906115179190614333565b611556576040517f08c379a000000000000000000000000000000000000000000000000000000000815260040161154d9061484d565b60405180910390fd5b600082886002015461156891906146be565b9050600b60019054906101000a900473ffffffffffffffffffffffffffffffffffffffff1673ffffffffffffffffffffffffffffffffffffffff1663a9059cbb8960010160009054906101000a900473ffffffffffffffffffffffffffffffffffffffff16836040518363ffffffff1660e01b81526004016115eb9291906142de565b6020604051808303816000875af115801561160a573d6000803e3d6000fd5b505050506040513d601f19601f8201168201806040525081019061162e9190614333565b61166d576040517f08c379a0000000000000000000000000000000000000000000000000000000008152600401611664906148b9565b60405180910390fd5b8187600201600082825461168191906146be565b9250508190555060008760010160006101000a81548160ff02191690831515021790555060018760010160016101000a81548160ff02191690831515021790555060008760010160026101000a81548160ff0219169083151502179055506116e88961332b565b3373ffffffffffffffffffffffffffffffffffffffff16897f512d3e65b3e58c2187bb1872aa435dba5bd09c1c03823ba56ab70aac411e4a218460405161172f9190613c61565b60405180910390a3887f04e1ead5246a36f9da4a7f8ba0922ebab097b2349377e0b60b228a5e9d8ee587856040516117679190613c61565b60405180910390a2505050505050505061177f613025565b50565b61178a61302f565b611792612fdf565b6000806000838152602001908152602001600020905060006001600084815260200190815260200160002090508060010160009054906101000a900460ff1615611811576040517f08c379a000000000000000000000000000000000000000000000000000000000815260040161180890614925565b60405180910390fd5b600073ffffffffffffffffffffffffffffffffffffffff168260010160009054906101000a900473ffffffffffffffffffffffffffffffffffffffff1673ffffffffffffffffffffffffffffffffffffffff16146118a4576040517f08c379a000000000000000000000000000000000000000000000000000000000815260040161189b90614991565b60405180910390fd5b8160020154600b60019054906101000a900473ffffffffffffffffffffffffffffffffffffffff1673ffffffffffffffffffffffffffffffffffffffff1663dd62ed3e33306040518363ffffffff1660e01b81526004016119069291906149b1565b602060405180830381865afa158015611923573d6000803e3d6000fd5b505050506040513d601f19601f820116820180604052508101906119479190614245565b1015611988576040517f08c379a000000000000000000000000000000000000000000000000000000000815260040161197f90614a4c565b60405180910390fd5b600b60019054906101000a900473ffffffffffffffffffffffffffffffffffffffff1673ffffffffffffffffffffffffffffffffffffffff166323b872dd333085600201546040518463ffffffff1660e01b81526004016119eb939291906147ca565b6020604051808303816000875af1158015611a0a573d6000803e3d6000fd5b505050506040513d601f19601f82011682018060405250810190611a2e9190614333565b611a6d576040517f08c379a0000000000000000000000000000000000000000000000000000000008152600401611a649061484d565b60405180910390fd5b338260010160006101000a81548173ffffffffffffffffffffffffffffffffffffffff021916908373ffffffffffffffffffffffffffffffffffffffff16021790555042816000018190555060018160010160006101000a81548160ff021916908315150217905550600b60019054906101000a900473ffffffffffffffffffffffffffffffffffffffff1673ffffffffffffffffffffffffffffffffffffffff1663a9059cbb8360000160009054906101000a900473ffffffffffffffffffffffffffffffffffffffff1684600201546040518363ffffffff1660e01b8152600401611b5b9291906142de565b6020604051808303816000875af1158015611b7a573d6000803e3d6000fd5b505050506040513d601f19601f82011682018060405250810190611b9e9190614333565b611bdd576040517f08c379a0000000000000000000000000000000000000000000000000000000008152600401611bd490614ab8565b60405180910390fd5b600560003373ffffffffffffffffffffffffffffffffffffffff1673ffffffffffffffffffffffffffffffffffffffff168152602001908152602001600020839080600181540180825580915050600190039060005260206000200160009091909190915055600460008360000160009054906101000a900473ffffffffffffffffffffffffffffffffffffffff1673ffffffffffffffffffffffffffffffffffffffff1673ffffffffffffffffffffffffffffffffffffffff16815260200190815260200160002083908060018154018082558091505060019003906000526020600020016000909190919091505560098390806001815401808255809150506001900390600052602060002001600090919091909150553373ffffffffffffffffffffffffffffffffffffffff16837f15feab5d3eb17171632762cf769709a315dd15f487a556c0dfb8a259c8f186cc60405160405180910390a38160000160009054906101000a900473ffffffffffffffffffffffffffffffffffffffff1673ffffffffffffffffffffffffffffffffffffffff16837f0ceeb4503a2fe0b51298a0af21358f3d89e7eab3f65ae2a7835859c3e2c516048460020154604051611da99190613c61565b60405180910390a35050611dbb613025565b50565b60606000600460008473ffffffffffffffffffffffffffffffffffffffff1673ffffffffffffffffffffffffffffffffffffffff168152602001908152602001600020805480602002602001604051908101604052809291908181526020018280548015611e4b57602002820191906000526020600020905b815481526020019060010190808311611e37575b505050505090506000805b8251811015611f0e576000838281518110611e7457611e73614201565b5b602002602001015190506000600660008381526020019081526020016000206040518060a0016040529081600082015481526020016001820154815260200160028201548152602001600382015481526020016004820160009054906101000a900460ff1615151515815250509050600081600001511115611eff578380611efb9061418a565b9450505b50508080600101915050611e56565b5060008167ffffffffffffffff811115611f2b57611f2a6141d2565b5b604051908082528060200260200182016040528015611f6457816020015b611f51613924565b815260200190600190039081611f495790505b5090506000805b8451811015612274576000858281518110611f8957611f88614201565b5b602002602001015190506000600660008381526020019081526020016000206040518060a0016040529081600082015481526020016001820154815260200160028201548152602001600382015481526020016004820160009054906101000a900460ff16151515158152505090506000600160008481526020019081526020016000206040518060a0016040529081600082015481526020016001820160009054906101000a900460ff161515151581526020016001820160019054906101000a900460ff161515151581526020016001820160029054906101000a900460ff16151515158152602001600282015481525050905060008060008581526020019081526020016000206040518060e00160405290816000820160009054906101000a900473ffffffffffffffffffffffffffffffffffffffff1673ffffffffffffffffffffffffffffffffffffffff1673ffffffffffffffffffffffffffffffffffffffff1681526020016001820160009054906101000a900473ffffffffffffffffffffffffffffffffffffffff1673ffffffffffffffffffffffffffffffffffffffff1673ffffffffffffffffffffffffffffffffffffffff1681526020016002820154815260200160038201548152602001600482015481526020016005820160009054906101000a900460ff16600181111561218d5761218c613f39565b5b600181111561219f5761219e613f39565b5b8152602001600682015481525050905060008360000151111561226357604051806101200160405280858152602001826000015173ffffffffffffffffffffffffffffffffffffffff16815260200184600001518152602001846020015181526020018460400151815260200184606001518152602001846080015115158152602001826060015181526020018360200151151581525087878151811061224957612248614201565b5b6020026020010181905250858061225f9061418a565b9650505b505050508080600101915050611f6b565b5081945050505050919050565b600d60009054906101000a900473ffffffffffffffffffffffffffffffffffffffff1681565b600d60009054906101000a900473ffffffffffffffffffffffffffffffffffffffff1673ffffffffffffffffffffffffffffffffffffffff163373ffffffffffffffffffffffffffffffffffffffff1614612337576040517f08c379a000000000000000000000000000000000000000000000000000000000815260040161232e906140cf565b60405180910390fd5b6000821161237a576040517f08c379a000000000000000000000000000000000000000000000000000000000815260040161237190614b4a565b60405180910390fd5b8181116123bc576040517f08c379a00000000000000000000000000000000000000000000000000000000081526004016123b390614bdc565b60405180910390fd5b81601181905550806012819055505050565b600080600c60009054906101000a900473ffffffffffffffffffffffffffffffffffffffff1673ffffffffffffffffffffffffffffffffffffffff1663feaf968c6040518163ffffffff1660e01b815260040160a060405180830381865afa15801561243e573d6000803e3d6000fd5b505050506040513d601f19601f820116820180604052508101906124629190614c74565b505050915050600081136124ab576040517f08c379a00000000000000000000000000000000000000000000000000000000081526004016124a290614d3b565b60405180910390fd5b8091505090565b60086020528060005260406000206000915090508060000160009054906101000a900473ffffffffffffffffffffffffffffffffffffffff16908060010154908060020160009054906101000a900460ff16905083565b61251161302f565b612519612fdf565b60008060008481526020019081526020016000209050600060016000858152602001908152602001600020905060006002600086815260200190815260200160002090508160010160009054906101000a900460ff166125ae576040517f08c379a00000000000000000000000000000000000000000000000000000000081526004016125a590614418565b60405180910390fd5b8260000160009054906101000a900473ffffffffffffffffffffffffffffffffffffffff1673ffffffffffffffffffffffffffffffffffffffff163373ffffffffffffffffffffffffffffffffffffffff1614612640576040517f08c379a00000000000000000000000000000000000000000000000000000000081526004016126379061455c565b60405180910390fd5b612649856131ac565b6000816001015490506000836002015482866002015461266991906146be565b612673919061468a565b9050808611156126b8576040517f08c379a00000000000000000000000000000000000000000000000000000000081526004016126af90614da7565b60405180910390fd5b600b60019054906101000a900473ffffffffffffffffffffffffffffffffffffffff1673ffffffffffffffffffffffffffffffffffffffff166323b872dd338760010160009054906101000a900473ffffffffffffffffffffffffffffffffffffffff16896040518463ffffffff1660e01b815260040161273b939291906147ca565b6020604051808303816000875af115801561275a573d6000803e3d6000fd5b505050506040513d601f19601f8201168201806040525081019061277e9190614333565b6127bd576040517f08c379a00000000000000000000000000000000000000000000000000000000081526004016127b490614e13565b60405180910390fd5b858460020160008282546127d191906146be565b92505081905550808460020154106128275760018460010160016101000a81548160ff02191690831515021790555060008460010160006101000a81548160ff0219169083151502179055506128268761332b565b5b3373ffffffffffffffffffffffffffffffffffffffff16877fb7b6ae626e0094aba4b69388b656d4b64f27860c5101c42c10a2e53fd6b0ce358860405161286e9190613c61565b60405180910390a35050505050612883613025565b5050565b60016020528060005260406000206000915090508060000154908060010160009054906101000a900460ff16908060010160019054906101000a900460ff16908060010160029054906101000a900460ff16908060020154905085565b60026020528060005260406000206000915090508060000154908060010154905082565b60066020528060005260406000206000915090508060000154908060010154908060020154908060030154908060040160009054906101000a900460ff16905085565b600d60009054906101000a900473ffffffffffffffffffffffffffffffffffffffff1673ffffffffffffffffffffffffffffffffffffffff163373ffffffffffffffffffffffffffffffffffffffff16146129db576040517f08c379a00000000000000000000000000000000000000000000000000000000081526004016129d2906140cf565b60405180910390fd5b6064811015612a1f576040517f08c379a0000000000000000000000000000000000000000000000000000000008152600401612a1690614e7f565b60405180910390fd5b80600f8190555050565b600e5481565b60115481565b600080600b60019054906101000a900473ffffffffffffffffffffffffffffffffffffffff1673ffffffffffffffffffffffffffffffffffffffff1663dd62ed3e33306040518363ffffffff1660e01b8152600401612a959291906149b1565b602060405180830381865afa158015612ab2573d6000803e3d6000fd5b505050506040513d601f19601f82011682018060405250810190612ad69190614245565b90508091505090565b60046020528160005260406000208181548110612afb57600080fd5b90600052602060002001600091509150505481565b60006020528060005260406000206000915090508060000160009054906101000a900473ffffffffffffffffffffffffffffffffffffffff16908060010160009054906101000a900473ffffffffffffffffffffffffffffffffffffffff16908060020154908060030154908060040154908060050160009054906101000a900460ff16908060060154905087565b612ba761302f565b612baf612fdf565b6011548310158015612bc357506012548311155b612c02576040517f08c379a0000000000000000000000000000000000000000000000000000000008152600401612bf990614eeb565b60405180910390fd5b60006064600e5485612c1491906145e8565b612c1e9190614659565b90506000612c2a6123ce565b90506000612cd682600c60009054906101000a900473ffffffffffffffffffffffffffffffffffffffff1673ffffffffffffffffffffffffffffffffffffffff1663313ce5676040518163ffffffff1660e01b8152600401602060405180830381865afa158015612c9f573d6000803e3d6000fd5b505050506040513d601f19601f82011682018060405250810190612cc39190614f44565b60ff16346134349092919063ffffffff16565b905082811015612d1b576040517f08c379a0000000000000000000000000000000000000000000000000000000008152600401612d1290614fbd565b60405180910390fd5b60106000815480929190612d2e9061418a565b9190505550600060066000601054815260200190815260200160002090508681600001819055508581600101819055508481600301819055508442612d7391906146be565b816002018190555060008160040160006101000a81548160ff0219169083151502179055506040518060e001604052803373ffffffffffffffffffffffffffffffffffffffff168152602001600073ffffffffffffffffffffffffffffffffffffffff16815260200188815260200134815260200187815260200160006001811115612e0257612e01613f39565b5b815260200186815250600080601054815260200190815260200160002060008201518160000160006101000a81548173ffffffffffffffffffffffffffffffffffffffff021916908373ffffffffffffffffffffffffffffffffffffffff16021790555060208201518160010160006101000a81548173ffffffffffffffffffffffffffffffffffffffff021916908373ffffffffffffffffffffffffffffffffffffffff16021790555060408201518160020155606082015181600301556080820151816004015560a08201518160050160006101000a81548160ff02191690836001811115612ef657612ef5613f39565b5b021790555060c08201518160060155905050600460003373ffffffffffffffffffffffffffffffffffffffff1673ffffffffffffffffffffffffffffffffffffffff1681526020019081526020016000206010549080600181540180825580915050600190039060005260206000200160009091909190915055612f7b601054613462565b3373ffffffffffffffffffffffffffffffffffffffff166010547f68595dbe887ae7f496f2c88735019a8918919a1decfdee6bdb460480ab87decb8934604051612fc6929190613ebd565b60405180910390a350505050612fda613025565b505050565b6002600a540361301b576040517f3ee5aeb500000000000000000000000000000000000000000000000000000000815260040160405180910390fd5b6002600a81905550565b6001600a81905550565b613037610fd7565b1561306e576040517fd93c066500000000000000000000000000000000000000000000000000000000815260040160405180910390fd5b565b6000806000838152602001908152602001600020905080600301544710156130cd576040517f08c379a00000000000000000000000000000000000000000000000000000000081526004016130c490615029565b60405180910390fd5b60008160010160009054906101000a900473ffffffffffffffffffffffffffffffffffffffff16905060008173ffffffffffffffffffffffffffffffffffffffff1683600301546040516131209061507a565b60006040518083038185875af1925050503d806000811461315d576040519150601f19603f3d011682016040523d82523d6000602084013e613162565b606091505b50509050806131a6576040517f08c379a000000000000000000000000000000000000000000000000000000000815260040161319d906150db565b60405180910390fd5b50505050565b60008060008381526020019081526020016000209050600060026000848152602001908152602001600020905060006001600085815260200190815260200160002090508060010160009054906101000a900460ff16613241576040517f08c379a000000000000000000000000000000000000000000000000000000000815260040161323890614418565b60405180910390fd5b60008083600001540361325a578360060154905061326d565b82600001544261326a919061468a565b90505b600081116132b0576040517f08c379a00000000000000000000000000000000000000000000000000000000081526004016132a79061516d565b60405180910390fd5b60006132c585600201548660040154846135a4565b9050808460010160008282546132db91906146be565b92505081905550428460000181905550857f3d8708181c6452c5711a2b4c6ed3f12149f6ea35f78549aba00a89d041e766ca8260405161331b9190613c61565b60405180910390a2505050505050565b60008060008381526020019081526020016000209050600081600301549050600081111561342f576000826003018190555060008260000160009054906101000a900473ffffffffffffffffffffffffffffffffffffffff1673ffffffffffffffffffffffffffffffffffffffff16826040516133a79061507a565b60006040518083038185875af1925050503d80600081146133e4576040519150601f19603f3d011682016040523d82523d6000602084013e6133e9565b606091505b505090508061342d576040517f08c379a0000000000000000000000000000000000000000000000000000000008152600401613424906150db565b60405180910390fd5b505b505050565b600081600a61344391906152c0565b838561344f9190614659565b61345991906145e8565b90509392505050565b60006006600083815260200190815260200160002090506000807fffffffffffffffffffffffffffffffffffffffffffffffffffffffffffffffff905060005b60098054905081101561355d576000600982815481106134c5576134c4614201565b5b906000526020600020015490508460000154600760008373ffffffffffffffffffffffffffffffffffffffff1673ffffffffffffffffffffffffffffffffffffffff168152602001908152602001600020541061354f57600061352c828760000154613712565b90508560010154811115801561354157508381105b1561354d578194508093505b505b5080806001019150506134a2565b50600073ffffffffffffffffffffffffffffffffffffffff168273ffffffffffffffffffffffffffffffffffffffff161461359e5761359d84838361380e565b5b50505050565b60008084116135e8576040517f08c379a00000000000000000000000000000000000000000000000000000000081526004016135df90615357565b60405180910390fd5b6000831161362b576040517f08c379a0000000000000000000000000000000000000000000000000000000008152600401613622906153e9565b60405180910390fd5b6000821161366e576040517f08c379a00000000000000000000000000000000000000000000000000000000081526004016136659061547b565b60405180910390fd5b600063bbf81e00670de0b6b3a76400008561368991906145e8565b6136939190614659565b9050600081116136d8576040517f08c379a00000000000000000000000000000000000000000000000000000000081526004016136cf906154e7565b60405180910390fd5b6000670de0b6b3a76400008483886136f091906145e8565b6136fa91906145e8565b6137049190614659565b905080925050509392505050565b600080600760008573ffffffffffffffffffffffffffffffffffffffff1673ffffffffffffffffffffffffffffffffffffffff1681526020019081526020016000205490508281101561379a576040517f08c379a000000000000000000000000000000000000000000000000000000000815260040161379190615553565b60405180910390fd5b6000816064856137aa91906145e8565b6137b49190614659565b90506000600290506000601490506000606483836137d2919061468a565b856137dd91906145e8565b6137e79190614659565b836137f291906146be565b905081811115613800578190505b809550505050505092915050565b60008060008581526020019081526020016000209050828160010160006101000a81548173ffffffffffffffffffffffffffffffffffffffff021916908373ffffffffffffffffffffffffffffffffffffffff16021790555081816004018190555060016006600086815260200190815260200160002060040160006101000a81548160ff0219169083151502179055508060000160009054906101000a900473ffffffffffffffffffffffffffffffffffffffff1673ffffffffffffffffffffffffffffffffffffffff168373ffffffffffffffffffffffffffffffffffffffff16857f132aeb8d030dcc11adfc3ead0730a22aa3c0bf449b3532210c732b9a25e83c2060405160405180910390a450505050565b60405180610120016040528060008152602001600073ffffffffffffffffffffffffffffffffffffffff16815260200160008152602001600081526020016000815260200160008152602001600015158152602001600081526020016000151581525090565b600080fd5b6000819050919050565b6139a28161398f565b81146139ad57600080fd5b50565b6000813590506139bf81613999565b92915050565b6000602082840312156139db576139da61398a565b5b60006139e9848285016139b0565b91505092915050565b600081519050919050565b600082825260208201905092915050565b6000819050602082019050919050565b613a278161398f565b82525050565b600073ffffffffffffffffffffffffffffffffffffffff82169050919050565b6000613a5882613a2d565b9050919050565b613a6881613a4d565b82525050565b60008115159050919050565b613a8381613a6e565b82525050565b61012082016000820151613aa06000850182613a1e565b506020820151613ab36020850182613a5f565b506040820151613ac66040850182613a1e565b506060820151613ad96060850182613a1e565b506080820151613aec6080850182613a1e565b5060a0820151613aff60a0850182613a1e565b5060c0820151613b1260c0850182613a7a565b5060e0820151613b2560e0850182613a1e565b50610100820151613b3a610100850182613a7a565b50505050565b6000613b4c8383613a89565b6101208301905092915050565b6000602082019050919050565b6000613b71826139f2565b613b7b81856139fd565b9350613b8683613a0e565b8060005b83811015613bb7578151613b9e8882613b40565b9750613ba983613b59565b925050600181019050613b8a565b5085935050505092915050565b60006020820190508181036000830152613bde8184613b66565b905092915050565b613bef81613a4d565b8114613bfa57600080fd5b50565b600081359050613c0c81613be6565b92915050565b60008060408385031215613c2957613c2861398a565b5b6000613c37858286016139b0565b9250506020613c4885828601613bfd565b9150509250929050565b613c5b8161398f565b82525050565b6000602082019050613c766000830184613c52565b92915050565b600060208284031215613c9257613c9161398a565b5b6000613ca084828501613bfd565b91505092915050565b60008060408385031215613cc057613cbf61398a565b5b6000613cce85828601613bfd565b9250506020613cdf858286016139b0565b9150509250929050565b6000819050919050565b6000613d0e613d09613d0484613a2d565b613ce9565b613a2d565b9050919050565b6000613d2082613cf3565b9050919050565b6000613d3282613d15565b9050919050565b613d4281613d27565b82525050565b6000602082019050613d5d6000830184613d39565b92915050565b613d6c81613a6e565b82525050565b6000602082019050613d876000830184613d63565b92915050565b6000613d9882613d15565b9050919050565b613da881613d8d565b82525050565b6000602082019050613dc36000830184613d9f565b92915050565b613dd281613a4d565b82525050565b6000602082019050613ded6000830184613dc9565b92915050565b60008060408385031215613e0a57613e0961398a565b5b6000613e18858286016139b0565b9250506020613e29858286016139b0565b9150509250929050565b6000606082019050613e486000830186613dc9565b613e556020830185613c52565b613e626040830184613d63565b949350505050565b600060a082019050613e7f6000830188613c52565b613e8c6020830187613d63565b613e996040830186613d63565b613ea66060830185613d63565b613eb36080830184613c52565b9695505050505050565b6000604082019050613ed26000830185613c52565b613edf6020830184613c52565b9392505050565b600060a082019050613efb6000830188613c52565b613f086020830187613c52565b613f156040830186613c52565b613f226060830185613c52565b613f2f6080830184613d63565b9695505050505050565b7f4e487b7100000000000000000000000000000000000000000000000000000000600052602160045260246000fd5b60028110613f7957613f78613f39565b5b50565b6000819050613f8a82613f68565b919050565b6000613f9a82613f7c565b9050919050565b613faa81613f8f565b82525050565b600060e082019050613fc5600083018a613dc9565b613fd26020830189613dc9565b613fdf6040830188613c52565b613fec6060830187613c52565b613ff96080830186613c52565b61400660a0830185613fa1565b61401360c0830184613c52565b98975050505050505050565b6000806000606084860312156140385761403761398a565b5b6000614046868287016139b0565b9350506020614057868287016139b0565b9250506040614068868287016139b0565b9150509250925092565b600082825260208201905092915050565b7f4f6e6c79206f776e657200000000000000000000000000000000000000000000600082015250565b60006140b9600a83614072565b91506140c482614083565b602082019050919050565b600060208201905081810360008301526140e8816140ac565b9050919050565b7f526174696f20746f6f206c6f7700000000000000000000000000000000000000600082015250565b6000614125600d83614072565b9150614130826140ef565b602082019050919050565b6000602082019050818103600083015261415481614118565b9050919050565b7f4e487b7100000000000000000000000000000000000000000000000000000000600052601160045260246000fd5b60006141958261398f565b91507fffffffffffffffffffffffffffffffffffffffffffffffffffffffffffffffff82036141c7576141c661415b565b5b600182019050919050565b7f4e487b7100000000000000000000000000000000000000000000000000000000600052604160045260246000fd5b7f4e487b7100000000000000000000000000000000000000000000000000000000600052603260045260246000fd5b60008151905061423f81613999565b92915050565b60006020828403121561425b5761425a61398a565b5b600061426984828501614230565b91505092915050565b7f4e6f207265776172647320746f20776974686472617700000000000000000000600082015250565b60006142a8601683614072565b91506142b382614272565b602082019050919050565b600060208201905081810360008301526142d78161429b565b9050919050565b60006040820190506142f36000830185613dc9565b6143006020830184613c52565b9392505050565b61431081613a6e565b811461431b57600080fd5b50565b60008151905061432d81614307565b92915050565b6000602082840312156143495761434861398a565b5b60006143578482850161431e565b91505092915050565b7f526577617264207769746864726177616c206661696c65640000000000000000600082015250565b6000614396601883614072565b91506143a182614360565b602082019050919050565b600060208201905081810360008301526143c581614389565b9050919050565b7f4c6f616e206e6f74206163746976650000000000000000000000000000000000600082015250565b6000614402600f83614072565b915061440d826143cc565b602082019050919050565b60006020820190508181036000830152614431816143f5565b9050919050565b7f4c6f616e206e6f74206f76657264756500000000000000000000000000000000600082015250565b600061446e601083614072565b915061447982614438565b602082019050919050565b6000602082019050818103600083015261449d81614461565b9050919050565b7f4c6f616e20616c72656164792072657061696400000000000000000000000000600082015250565b60006144da601383614072565b91506144e5826144a4565b602082019050919050565b60006020820190508181036000830152614509816144cd565b9050919050565b7f4e6f7420626f72726f7765720000000000000000000000000000000000000000600082015250565b6000614546600c83614072565b915061455182614510565b602082019050919050565b6000602082019050818103600083015261457581614539565b9050919050565b7f6e6f20696e746572657374206163637275656421000000000000000000000000600082015250565b60006145b2601483614072565b91506145bd8261457c565b602082019050919050565b600060208201905081810360008301526145e1816145a5565b9050919050565b60006145f38261398f565b91506145fe8361398f565b925082820261460c8161398f565b915082820484148315176146235761462261415b565b5b5092915050565b7f4e487b7100000000000000000000000000000000000000000000000000000000600052601260045260246000fd5b60006146648261398f565b915061466f8361398f565b92508261467f5761467e61462a565b5b828204905092915050565b60006146958261398f565b91506146a08361398f565b92508282039050818111156146b8576146b761415b565b5b92915050565b60006146c98261398f565b91506146d48361398f565b92508282019050808211156146ec576146eb61415b565b5b92915050565b7f496e746572657374206e6f742063616c63756c61746564000000000000000000600082015250565b6000614728601783614072565b9150614733826146f2565b602082019050919050565b600060208201905081810360008301526147578161471b565b9050919050565b7f4e6f207265776172642063616c63756c61746564000000000000000000000000600082015250565b6000614794601483614072565b915061479f8261475e565b602082019050919050565b600060208201905081810360008301526147c381614787565b9050919050565b60006060820190506147df6000830186613dc9565b6147ec6020830185613dc9565b6147f96040830184613c52565b949350505050565b7f5472616e73666572206661696c65640000000000000000000000000000000000600082015250565b6000614837600f83614072565b915061484282614801565b602082019050919050565b600060208201905081810360008301526148668161482a565b9050919050565b7f5472616e7366657220746f206c656e646572206661696c656400000000000000600082015250565b60006148a3601983614072565b91506148ae8261486d565b602082019050919050565b600060208201905081810360008301526148d281614896565b9050919050565b7f4c6f616e20616c72656164792061637469766500000000000000000000000000600082015250565b600061490f601383614072565b915061491a826148d9565b602082019050919050565b6000602082019050818103600083015261493e81614902565b9050919050565b7f4c6f616e20616c72656164792066756e64656400000000000000000000000000600082015250565b600061497b601383614072565b915061498682614945565b602082019050919050565b600060208201905081810360008301526149aa8161496e565b9050919050565b60006040820190506149c66000830185613dc9565b6149d36020830184613dc9565b9392505050565b7f496e73756666696369656e7420616c6c6f77616e636520666f7220746869732060008201527f7573657200000000000000000000000000000000000000000000000000000000602082015250565b6000614a36602483614072565b9150614a41826149da565b604082019050919050565b60006020820190508181036000830152614a6581614a29565b9050919050565b7f4c6f616e2064697362757273656d656e74206661696c65640000000000000000600082015250565b6000614aa2601883614072565b9150614aad82614a6c565b602082019050919050565b60006020820190508181036000830152614ad181614a95565b9050919050565b7f4d696e696d756d206c6f616e20616d6f756e74206d757374206265206772656160008201527f746572207468616e203000000000000000000000000000000000000000000000602082015250565b6000614b34602a83614072565b9150614b3f82614ad8565b604082019050919050565b60006020820190508181036000830152614b6381614b27565b9050919050565b7f4d6178696d756d206c6f616e20616d6f756e74206d757374206265206772656160008201527f746572207468616e206d696e696d756d206c6f616e20616d6f756e7400000000602082015250565b6000614bc6603c83614072565b9150614bd182614b6a565b604082019050919050565b60006020820190508181036000830152614bf581614bb9565b9050919050565b600069ffffffffffffffffffff82169050919050565b614c1b81614bfc565b8114614c2657600080fd5b50565b600081519050614c3881614c12565b92915050565b6000819050919050565b614c5181614c3e565b8114614c5c57600080fd5b50565b600081519050614c6e81614c48565b92915050565b600080600080600060a08688031215614c9057614c8f61398a565b5b6000614c9e88828901614c29565b9550506020614caf88828901614c5f565b9450506040614cc088828901614230565b9350506060614cd188828901614230565b9250506080614ce288828901614c29565b9150509295509295909350565b7f496e76616c696420707269636500000000000000000000000000000000000000600082015250565b6000614d25600d83614072565b9150614d3082614cef565b602082019050919050565b60006020820190508181036000830152614d5481614d18565b9050919050565b7f52657061796d656e742065786365656473206f77656420616d6f756e74000000600082015250565b6000614d91601d83614072565b9150614d9c82614d5b565b602082019050919050565b60006020820190508181036000830152614dc081614d84565b9050919050565b7f5061727469616c2072657061796d656e74206661696c65640000000000000000600082015250565b6000614dfd601883614072565b9150614e0882614dc7565b602082019050919050565b60006020820190508181036000830152614e2c81614df0565b9050919050565b7f5468726573686f6c6420746f6f206c6f77000000000000000000000000000000600082015250565b6000614e69601183614072565b9150614e7482614e33565b602082019050919050565b60006020820190508181036000830152614e9881614e5c565b9050919050565b7f496e76616c6964206c6f616e20616d6f756e7400000000000000000000000000600082015250565b6000614ed5601383614072565b9150614ee082614e9f565b602082019050919050565b60006020820190508181036000830152614f0481614ec8565b9050919050565b600060ff82169050919050565b614f2181614f0b565b8114614f2c57600080fd5b50565b600081519050614f3e81614f18565b92915050565b600060208284031215614f5a57614f5961398a565b5b6000614f6884828501614f2f565b91505092915050565b7f496e73756666696369656e7420636f6c6c61746572616c000000000000000000600082015250565b6000614fa7601783614072565b9150614fb282614f71565b602082019050919050565b60006020820190508181036000830152614fd681614f9a565b9050919050565b7f496e73756666696369656e7420636f6c6c61746572616c2062616c616e636500600082015250565b6000615013601f83614072565b915061501e82614fdd565b602082019050919050565b6000602082019050818103600083015261504281615006565b9050919050565b600081905092915050565b50565b6000615064600083615049565b915061506f82615054565b600082019050919050565b600061508582615057565b9150819050919050565b7f436f6c6c61746572616c207472616e73666572206661696c6564000000000000600082015250565b60006150c5601a83614072565b91506150d08261508f565b602082019050919050565b600060208201905081810360008301526150f4816150b8565b9050919050565b7f4e6f2074696d6520656c617073656420666f7220696e7465726573742061636360008201527f7275616c00000000000000000000000000000000000000000000000000000000602082015250565b6000615157602483614072565b9150615162826150fb565b604082019050919050565b600060208201905081810360008301526151868161514a565b9050919050565b60008160011c9050919050565b6000808291508390505b60018511156151e4578086048111156151c0576151bf61415b565b5b60018516156151cf5780820291505b80810290506151dd8561518d565b94506151a4565b94509492505050565b6000826151fd57600190506152b9565b8161520b57600090506152b9565b8160018114615221576002811461522b5761525a565b60019150506152b9565b60ff84111561523d5761523c61415b565b5b8360020a9150848211156152545761525361415b565b5b506152b9565b5060208310610133831016604e8410600b841016171561528f5782820a90508381111561528a5761528961415b565b5b6152b9565b61529c848484600161519a565b925090508184048111156152b3576152b261415b565b5b81810290505b9392505050565b60006152cb8261398f565b91506152d68361398f565b92506153037fffffffffffffffffffffffffffffffffffffffffffffffffffffffffffffffff84846151ed565b905092915050565b7f5072696e636970616c206d7573742062652067726561746572207468616e2030600082015250565b6000615341602083614072565b915061534c8261530b565b602082019050919050565b6000602082019050818103600083015261537081615334565b9050919050565b7f416e6e75616c2072617465206d7573742062652067726561746572207468616e60008201527f2030000000000000000000000000000000000000000000000000000000000000602082015250565b60006153d3602283614072565b91506153de82615377565b604082019050919050565b60006020820190508181036000830152615402816153c6565b9050919050565b7f54696d6520656c6170736564206d75737420626520677265617465722074686160008201527f6e20300000000000000000000000000000000000000000000000000000000000602082015250565b6000615465602383614072565b915061547082615409565b604082019050919050565b6000602082019050818103600083015261549481615458565b9050919050565b7f5261746520706572207365636f6e6420697320696e76616c6964000000000000600082015250565b60006154d1601a83614072565b91506154dc8261549b565b602082019050919050565b60006020820190508181036000830152615500816154c4565b9050919050565b7f496e73756666696369656e74206c656e6465722066756e647300000000000000600082015250565b600061553d601983614072565b915061554882615507565b602082019050919050565b6000602082019050818103600083015261556c81615530565b905091905056fea2646970667358221220fd2a7c1998df399cfa315b74c8fd99cc3cb3a884b97a86fcf6ace04c5cb6855d64736f6c63430008180033",
  "linkReferences": {},
  "deployedLinkReferences": {}
}