{
  "_format": "hh-sol-artifact-1",
  "contractName": "LoanManager",
  "sourceName": "contracts/LoanManager.sol",
  "abi": [
    {
      "inputs": [
        {
          "internalType": "contract IERC20",
          "name": "_linkToken",
          "type": "address"
        },
        {
          "internalType": "contract AggregatorV3Interface",
          "name": "_priceFeed",
          "type": "address"
        }
      ],
      "stateMutability": "nonpayable",
      "type": "constructor"
    },
    {
      "inputs": [],
      "name": "EnforcedPause",
      "type": "error"
    },
    {
      "inputs": [],
      "name": "ExpectedPause",
      "type": "error"
    },
    {
      "inputs": [],
      "name": "ReentrancyGuardReentrantCall",
      "type": "error"
    },
    {
      "anonymous": false,
      "inputs": [
        {
          "indexed": true,
          "internalType": "uint256",
          "name": "loanId",
          "type": "uint256"
        },
        {
          "indexed": true,
          "internalType": "address",
          "name": "lender",
          "type": "address"
        },
        {
          "indexed": true,
          "internalType": "address",
          "name": "borrower",
          "type": "address"
        }
      ],
      "name": "AutomaticMatch",
      "type": "event"
    },
    {
      "anonymous": false,
      "inputs": [
        {
          "indexed": true,
          "internalType": "address",
          "name": "token",
          "type": "address"
        },
        {
          "indexed": false,
          "internalType": "uint256",
          "name": "maxLTV",
          "type": "uint256"
        }
      ],
      "name": "CollateralAdded",
      "type": "event"
    },
    {
      "anonymous": false,
      "inputs": [
        {
          "indexed": true,
          "internalType": "uint256",
          "name": "loanId",
          "type": "uint256"
        },
        {
          "indexed": false,
          "internalType": "uint256",
          "name": "amount",
          "type": "uint256"
        }
      ],
      "name": "InterestAccrued",
      "type": "event"
    },
    {
      "anonymous": false,
      "inputs": [
        {
          "indexed": true,
          "internalType": "uint256",
          "name": "loanId",
          "type": "uint256"
        },
        {
          "indexed": true,
          "internalType": "address",
          "name": "borrower",
          "type": "address"
        },
        {
          "indexed": false,
          "internalType": "uint256",
          "name": "loanAmount",
          "type": "uint256"
        }
      ],
      "name": "LoanDisbursed",
      "type": "event"
    },
    {
      "anonymous": false,
      "inputs": [
        {
          "indexed": true,
          "internalType": "uint256",
          "name": "loanId",
          "type": "uint256"
        },
        {
          "indexed": true,
          "internalType": "address",
          "name": "lender",
          "type": "address"
        }
      ],
      "name": "LoanFunded",
      "type": "event"
    },
    {
      "anonymous": false,
      "inputs": [
        {
          "indexed": true,
          "internalType": "uint256",
          "name": "loanId",
          "type": "uint256"
        },
        {
          "indexed": true,
          "internalType": "address",
          "name": "liquidator",
          "type": "address"
        }
      ],
      "name": "LoanLiquidated",
      "type": "event"
    },
    {
      "anonymous": false,
      "inputs": [
        {
          "indexed": true,
          "internalType": "uint256",
          "name": "loanId",
          "type": "uint256"
        },
        {
          "indexed": true,
          "internalType": "address",
          "name": "lender",
          "type": "address"
        },
        {
          "indexed": false,
          "internalType": "uint256",
          "name": "loanAmount",
          "type": "uint256"
        }
      ],
      "name": "LoanLiquidated",
      "type": "event"
    },
    {
      "anonymous": false,
      "inputs": [
        {
          "indexed": true,
          "internalType": "uint256",
          "name": "loanId",
          "type": "uint256"
        },
        {
          "indexed": true,
          "internalType": "address",
          "name": "borrower",
          "type": "address"
        },
        {
          "indexed": false,
          "internalType": "uint256",
          "name": "amount",
          "type": "uint256"
        }
      ],
      "name": "LoanRepaid",
      "type": "event"
    },
    {
      "anonymous": false,
      "inputs": [
        {
          "indexed": true,
          "internalType": "uint256",
          "name": "loanId",
          "type": "uint256"
        },
        {
          "indexed": true,
          "internalType": "address",
          "name": "borrower",
          "type": "address"
        },
        {
          "indexed": false,
          "internalType": "uint256",
          "name": "amount",
          "type": "uint256"
        },
        {
          "indexed": false,
          "internalType": "uint256",
          "name": "collateral",
          "type": "uint256"
        }
      ],
      "name": "LoanRequested",
      "type": "event"
    },
    {
      "anonymous": false,
      "inputs": [
        {
          "indexed": true,
          "internalType": "uint256",
          "name": "loanId",
          "type": "uint256"
        },
        {
          "indexed": true,
          "internalType": "address",
          "name": "borrower",
          "type": "address"
        },
        {
          "indexed": false,
          "internalType": "uint256",
          "name": "amount",
          "type": "uint256"
        }
      ],
      "name": "PartialRepayment",
      "type": "event"
    },
    {
      "anonymous": false,
      "inputs": [
        {
          "indexed": false,
          "internalType": "address",
          "name": "account",
          "type": "address"
        }
      ],
      "name": "Paused",
      "type": "event"
    },
    {
      "anonymous": false,
      "inputs": [
        {
          "indexed": true,
          "internalType": "uint256",
          "name": "loanId",
          "type": "uint256"
        },
        {
          "indexed": false,
          "internalType": "uint256",
          "name": "reward",
          "type": "uint256"
        }
      ],
      "name": "RewardCollected",
      "type": "event"
    },
    {
      "anonymous": false,
      "inputs": [
        {
          "indexed": false,
          "internalType": "address",
          "name": "owner",
          "type": "address"
        },
        {
          "indexed": false,
          "internalType": "uint256",
          "name": "contractBalance",
          "type": "uint256"
        }
      ],
      "name": "RewardsWithdrawn",
      "type": "event"
    },
    {
      "anonymous": false,
      "inputs": [
        {
          "indexed": false,
          "internalType": "address",
          "name": "account",
          "type": "address"
        }
      ],
      "name": "Unpaused",
      "type": "event"
    },
    {
      "inputs": [],
      "name": "allowanceCaller",
      "outputs": [
        {
          "internalType": "uint256",
          "name": "",
          "type": "uint256"
        }
      ],
      "stateMutability": "view",
      "type": "function"
    },
    {
      "inputs": [
        {
          "internalType": "address",
          "name": "",
          "type": "address"
        },
        {
          "internalType": "uint256",
          "name": "",
          "type": "uint256"
        }
      ],
      "name": "borrowerLoans",
      "outputs": [
        {
          "internalType": "uint256",
          "name": "",
          "type": "uint256"
        }
      ],
      "stateMutability": "view",
      "type": "function"
    },
    {
      "inputs": [],
      "name": "collateralizationRatio",
      "outputs": [
        {
          "internalType": "uint256",
          "name": "",
          "type": "uint256"
        }
      ],
      "stateMutability": "view",
      "type": "function"
    },
    {
      "inputs": [
        {
          "internalType": "uint256",
          "name": "loanId",
          "type": "uint256"
        }
      ],
      "name": "fundLoan",
      "outputs": [],
      "stateMutability": "nonpayable",
      "type": "function"
    },
    {
      "inputs": [],
      "name": "getAllLoanRequests",
      "outputs": [
        {
          "components": [
            {
              "internalType": "uint256",
              "name": "loanId",
              "type": "uint256"
            },
            {
              "internalType": "address",
              "name": "borrower",
              "type": "address"
            },
            {
              "internalType": "uint256",
              "name": "amount",
              "type": "uint256"
            },
            {
              "internalType": "uint256",
              "name": "maxInterestRate",
              "type": "uint256"
            },
            {
              "internalType": "uint256",
              "name": "dueDate",
              "type": "uint256"
            },
            {
              "internalType": "uint256",
              "name": "duration",
              "type": "uint256"
            },
            {
              "internalType": "bool",
              "name": "matched",
              "type": "bool"
            },
            {
              "internalType": "uint256",
              "name": "collateralAmount",
              "type": "uint256"
            },
            {
              "internalType": "bool",
              "name": "isActive",
              "type": "bool"
            }
          ],
          "internalType": "struct LoanStorage.LoanRequestDetail[]",
          "name": "",
          "type": "tuple[]"
        }
      ],
      "stateMutability": "view",
      "type": "function"
    },
    {
      "inputs": [],
      "name": "getETHPrice",
      "outputs": [
        {
          "internalType": "uint256",
          "name": "",
          "type": "uint256"
        }
      ],
      "stateMutability": "view",
      "type": "function"
    },
    {
      "inputs": [
        {
          "internalType": "address",
          "name": "user",
          "type": "address"
        }
      ],
      "name": "getUserLoanRequests",
      "outputs": [
        {
          "components": [
            {
              "internalType": "uint256",
              "name": "loanId",
              "type": "uint256"
            },
            {
              "internalType": "address",
              "name": "borrower",
              "type": "address"
            },
            {
              "internalType": "uint256",
              "name": "amount",
              "type": "uint256"
            },
            {
              "internalType": "uint256",
              "name": "maxInterestRate",
              "type": "uint256"
            },
            {
              "internalType": "uint256",
              "name": "dueDate",
              "type": "uint256"
            },
            {
              "internalType": "uint256",
              "name": "duration",
              "type": "uint256"
            },
            {
              "internalType": "bool",
              "name": "matched",
              "type": "bool"
            },
            {
              "internalType": "uint256",
              "name": "collateralAmount",
              "type": "uint256"
            },
            {
              "internalType": "bool",
              "name": "isActive",
              "type": "bool"
            }
          ],
          "internalType": "struct LoanStorage.LoanRequestDetail[]",
          "name": "",
          "type": "tuple[]"
        }
      ],
      "stateMutability": "view",
      "type": "function"
    },
    {
      "inputs": [
        {
          "internalType": "uint256",
          "name": "loanAmount",
          "type": "uint256"
        }
      ],
      "name": "getrequiredCollateralAmount",
      "outputs": [
        {
          "internalType": "uint256",
          "name": "",
          "type": "uint256"
        }
      ],
      "stateMutability": "view",
      "type": "function"
    },
    {
      "inputs": [
        {
          "internalType": "address",
          "name": "",
          "type": "address"
        }
      ],
      "name": "lenderAvailableFunds",
      "outputs": [
        {
          "internalType": "uint256",
          "name": "",
          "type": "uint256"
        }
      ],
      "stateMutability": "view",
      "type": "function"
    },
    {
      "inputs": [
        {
          "internalType": "address",
          "name": "",
          "type": "address"
        },
        {
          "internalType": "uint256",
          "name": "",
          "type": "uint256"
        }
      ],
      "name": "lenderLoans",
      "outputs": [
        {
          "internalType": "uint256",
          "name": "",
          "type": "uint256"
        }
      ],
      "stateMutability": "view",
      "type": "function"
    },
    {
      "inputs": [],
      "name": "linkToken",
      "outputs": [
        {
          "internalType": "contract IERC20",
          "name": "",
          "type": "address"
        }
      ],
      "stateMutability": "view",
      "type": "function"
    },
    {
      "inputs": [
        {
          "internalType": "uint256",
          "name": "loanId",
          "type": "uint256"
        }
      ],
      "name": "liquidateOverdueLoan",
      "outputs": [],
      "stateMutability": "nonpayable",
      "type": "function"
    },
    {
      "inputs": [],
      "name": "liquidationThreshold",
      "outputs": [
        {
          "internalType": "uint256",
          "name": "",
          "type": "uint256"
        }
      ],
      "stateMutability": "view",
      "type": "function"
    },
    {
      "inputs": [],
      "name": "loanCounter",
      "outputs": [
        {
          "internalType": "uint256",
          "name": "",
          "type": "uint256"
        }
      ],
      "stateMutability": "view",
      "type": "function"
    },
    {
      "inputs": [
        {
          "internalType": "uint256",
          "name": "",
          "type": "uint256"
        }
      ],
      "name": "loanRequests",
      "outputs": [
        {
          "internalType": "uint256",
          "name": "amount",
          "type": "uint256"
        },
        {
          "internalType": "uint256",
          "name": "maxInterestRate",
          "type": "uint256"
        },
        {
          "internalType": "uint256",
          "name": "dueDate",
          "type": "uint256"
        },
        {
          "internalType": "uint256",
          "name": "duration",
          "type": "uint256"
        },
        {
          "internalType": "bool",
          "name": "matched",
          "type": "bool"
        }
      ],
      "stateMutability": "view",
      "type": "function"
    },
    {
      "inputs": [
        {
          "internalType": "uint256",
          "name": "",
          "type": "uint256"
        },
        {
          "internalType": "address",
          "name": "",
          "type": "address"
        }
      ],
      "name": "loansCollateral",
      "outputs": [
        {
          "internalType": "uint256",
          "name": "",
          "type": "uint256"
        }
      ],
      "stateMutability": "view",
      "type": "function"
    },
    {
      "inputs": [
        {
          "internalType": "uint256",
          "name": "",
          "type": "uint256"
        }
      ],
      "name": "loansCore",
      "outputs": [
        {
          "internalType": "address",
          "name": "borrower",
          "type": "address"
        },
        {
          "internalType": "address",
          "name": "lender",
          "type": "address"
        },
        {
          "internalType": "uint256",
          "name": "amount",
          "type": "uint256"
        },
        {
          "internalType": "uint256",
          "name": "collateral",
          "type": "uint256"
        },
        {
          "internalType": "uint256",
          "name": "interestRate",
          "type": "uint256"
        },
        {
          "internalType": "enum ILoanManager.InterestRateType",
          "name": "rateType",
          "type": "uint8"
        },
        {
          "internalType": "uint256",
          "name": "duration",
          "type": "uint256"
        }
      ],
      "stateMutability": "view",
      "type": "function"
    },
    {
      "inputs": [
        {
          "internalType": "uint256",
          "name": "",
          "type": "uint256"
        }
      ],
      "name": "loansInterest",
      "outputs": [
        {
          "internalType": "uint256",
          "name": "lastInterestAccrualTimestamp",
          "type": "uint256"
        },
        {
          "internalType": "uint256",
          "name": "accruedInterest",
          "type": "uint256"
        }
      ],
      "stateMutability": "view",
      "type": "function"
    },
    {
      "inputs": [
        {
          "internalType": "uint256",
          "name": "",
          "type": "uint256"
        }
      ],
      "name": "loansStatus",
      "outputs": [
        {
          "internalType": "uint256",
          "name": "startTime",
          "type": "uint256"
        },
        {
          "internalType": "bool",
          "name": "active",
          "type": "bool"
        },
        {
          "internalType": "bool",
          "name": "repaid",
          "type": "bool"
        },
        {
          "internalType": "bool",
          "name": "defaulted",
          "type": "bool"
        },
        {
          "internalType": "uint256",
          "name": "repaidAmount",
          "type": "uint256"
        }
      ],
      "stateMutability": "view",
      "type": "function"
    },
    {
      "inputs": [
        {
          "internalType": "uint256",
          "name": "loanId",
          "type": "uint256"
        },
        {
          "internalType": "uint256",
          "name": "amount",
          "type": "uint256"
        }
      ],
      "name": "makePartialRepayment",
      "outputs": [],
      "stateMutability": "nonpayable",
      "type": "function"
    },
    {
      "inputs": [],
      "name": "maxLoanAmount",
      "outputs": [
        {
          "internalType": "uint256",
          "name": "",
          "type": "uint256"
        }
      ],
      "stateMutability": "view",
      "type": "function"
    },
    {
      "inputs": [],
      "name": "minLoanAmount",
      "outputs": [
        {
          "internalType": "uint256",
          "name": "",
          "type": "uint256"
        }
      ],
      "stateMutability": "view",
      "type": "function"
    },
    {
      "inputs": [],
      "name": "owner",
      "outputs": [
        {
          "internalType": "address",
          "name": "",
          "type": "address"
        }
      ],
      "stateMutability": "view",
      "type": "function"
    },
    {
      "inputs": [],
      "name": "paused",
      "outputs": [
        {
          "internalType": "bool",
          "name": "",
          "type": "bool"
        }
      ],
      "stateMutability": "view",
      "type": "function"
    },
    {
      "inputs": [],
      "name": "priceFeed",
      "outputs": [
        {
          "internalType": "contract AggregatorV3Interface",
          "name": "",
          "type": "address"
        }
      ],
      "stateMutability": "view",
      "type": "function"
    },
    {
      "inputs": [
        {
          "internalType": "uint256",
          "name": "loanId",
          "type": "uint256"
        }
      ],
      "name": "repayLoanWithReward",
      "outputs": [],
      "stateMutability": "nonpayable",
      "type": "function"
    },
    {
      "inputs": [
        {
          "internalType": "uint256",
          "name": "amount",
          "type": "uint256"
        },
        {
          "internalType": "uint256",
          "name": "maxInterestRate",
          "type": "uint256"
        },
        {
          "internalType": "uint256",
          "name": "duration",
          "type": "uint256"
        }
      ],
      "name": "requestLoan",
      "outputs": [],
      "stateMutability": "payable",
      "type": "function"
    },
    {
      "inputs": [
        {
          "internalType": "uint256",
          "name": "_minLoanAmount",
          "type": "uint256"
        },
        {
          "internalType": "uint256",
          "name": "_maxLoanAmount",
          "type": "uint256"
        }
      ],
      "name": "setLoanLimits",
      "outputs": [],
      "stateMutability": "nonpayable",
      "type": "function"
    },
    {
      "inputs": [
        {
          "internalType": "address",
          "name": "",
          "type": "address"
        }
      ],
      "name": "supportedCollaterals",
      "outputs": [
        {
          "internalType": "address",
          "name": "priceOracle",
          "type": "address"
        },
        {
          "internalType": "uint256",
          "name": "maxLTV",
          "type": "uint256"
        },
        {
          "internalType": "bool",
          "name": "isActive",
          "type": "bool"
        }
      ],
      "stateMutability": "view",
      "type": "function"
    },
    {
      "inputs": [
        {
          "internalType": "uint256",
          "name": "newRatio",
          "type": "uint256"
        }
      ],
      "name": "updateCollateralizationRatio",
      "outputs": [],
      "stateMutability": "nonpayable",
      "type": "function"
    },
    {
      "inputs": [
        {
          "internalType": "uint256",
          "name": "newThreshold",
          "type": "uint256"
        }
      ],
      "name": "updateLiquidationThreshold",
      "outputs": [],
      "stateMutability": "nonpayable",
      "type": "function"
    },
    {
      "inputs": [
        {
          "internalType": "address",
          "name": "_owner",
          "type": "address"
        }
      ],
      "name": "withdrawRewards",
      "outputs": [],
      "stateMutability": "nonpayable",
      "type": "function"
    }
  ],
  "bytecode": "0x60806040526078600e55606e600f55670de0b6b3a764000060115569152d02c7e14af68000006012553480156200003557600080fd5b506040516200595b3803806200595b83398181016040528101906200005b91906200020c565b6001600a819055506000600b60006101000a81548160ff02191690831515021790555081600b60016101000a81548173ffffffffffffffffffffffffffffffffffffffff021916908373ffffffffffffffffffffffffffffffffffffffff16021790555080600c60006101000a81548173ffffffffffffffffffffffffffffffffffffffff021916908373ffffffffffffffffffffffffffffffffffffffff16021790555033600d60006101000a81548173ffffffffffffffffffffffffffffffffffffffff021916908373ffffffffffffffffffffffffffffffffffffffff160217905550505062000253565b600080fd5b600073ffffffffffffffffffffffffffffffffffffffff82169050919050565b60006200017b826200014e565b9050919050565b60006200018f826200016e565b9050919050565b620001a18162000182565b8114620001ad57600080fd5b50565b600081519050620001c18162000196565b92915050565b6000620001d4826200016e565b9050919050565b620001e681620001c7565b8114620001f257600080fd5b50565b6000815190506200020681620001db565b92915050565b6000806040838503121562000226576200022562000149565b5b60006200023685828601620001b0565b92505060206200024985828601620001f5565b9150509250929050565b6156f880620002636000396000f3fe6080604052600436106101e35760003560e01c806388ae545c11610102578063d1b332f411610095578063e16ffcdc11610064578063e16ffcdc14610739578063e3ed190214610764578063e91349d7146107a1578063edadbbfe146107e4576101e3565b8063d1b332f414610679578063d3b5be1a146106ba578063dcaf9c44146106e3578063e06a91381461070e576101e3565b8063aaea7009116100d1578063aaea700914610592578063b29504e9146105d1578063b4580a66146105fa578063cc8266461461063b576101e3565b806388ae545c146104d65780638da5cb5b1461051357806397a146c01461053e578063a607a8d914610567576101e3565b806357970e931161017a57806372f943651161014957806372f943651461042e578063741bef1a146104595780637c6fe27014610484578063846b909a146104ad576101e3565b806357970e93146103725780635c975abb1461039d57806361851d65146103c857806369549fdc146103f1576101e3565b806334d9289e116101b657806334d9289e146102b65780633cdb72f1146102e15780634031234c1461031e57806342d8669314610349576101e3565b80630607ec70146101e85780630c9babc31461021157806317d960e01461023c578063197428bf14610279575b600080fd5b3480156101f457600080fd5b5061020f600480360381019061020a9190613b14565b610800565b005b34801561021d57600080fd5b506102266108de565b6040516102339190613d13565b60405180910390f35b34801561024857600080fd5b50610263600480360381019061025e9190613d61565b610ce0565b6040516102709190613db0565b60405180910390f35b34801561028557600080fd5b506102a0600480360381019061029b9190613dcb565b610d05565b6040516102ad9190613db0565b60405180910390f35b3480156102c257600080fd5b506102cb610d1d565b6040516102d89190613db0565b60405180910390f35b3480156102ed57600080fd5b5061030860048036038101906103039190613df8565b610d23565b6040516103159190613db0565b60405180910390f35b34801561032a57600080fd5b50610333610d54565b6040516103409190613db0565b60405180910390f35b34801561035557600080fd5b50610370600480360381019061036b9190613dcb565b610d5a565b005b34801561037e57600080fd5b50610387610ff9565b6040516103949190613e97565b60405180910390f35b3480156103a957600080fd5b506103b261101f565b6040516103bf9190613ec1565b60405180910390f35b3480156103d457600080fd5b506103ef60048036038101906103ea9190613b14565b611036565b005b3480156103fd57600080fd5b5061041860048036038101906104139190613b14565b611223565b6040516104259190613db0565b60405180910390f35b34801561043a57600080fd5b506104436112e4565b6040516104509190613db0565b60405180910390f35b34801561046557600080fd5b5061046e6112ea565b60405161047b9190613efd565b60405180910390f35b34801561049057600080fd5b506104ab60048036038101906104a69190613b14565b611310565b005b3480156104b957600080fd5b506104d460048036038101906104cf9190613b14565b61188b565b005b3480156104e257600080fd5b506104fd60048036038101906104f89190613dcb565b611ec7565b60405161050a9190613d13565b60405180910390f35b34801561051f57600080fd5b5061052861238a565b6040516105359190613f27565b60405180910390f35b34801561054a57600080fd5b5061056560048036038101906105609190613f42565b6123b0565b005b34801561057357600080fd5b5061057c6124d7565b6040516105899190613db0565b60405180910390f35b34801561059e57600080fd5b506105b960048036038101906105b49190613dcb565b6125bb565b6040516105c893929190613f82565b60405180910390f35b3480156105dd57600080fd5b506105f860048036038101906105f39190613f42565b612612565b005b34801561060657600080fd5b50610621600480360381019061061c9190613b14565b612990565b604051610632959493929190613fb9565b60405180910390f35b34801561064757600080fd5b50610662600480360381019061065d9190613b14565b6129ed565b60405161067092919061400c565b60405180910390f35b34801561068557600080fd5b506106a0600480360381019061069b9190613b14565b612a11565b6040516106b1959493929190614035565b60405180910390f35b3480156106c657600080fd5b506106e160048036038101906106dc9190613b14565b612a54565b005b3480156106ef57600080fd5b506106f8612b32565b6040516107059190613db0565b60405180910390f35b34801561071a57600080fd5b50610723612b38565b6040516107309190613db0565b60405180910390f35b34801561074557600080fd5b5061074e612b3e565b60405161075b9190613db0565b60405180910390f35b34801561077057600080fd5b5061078b60048036038101906107869190613df8565b612be8565b6040516107989190613db0565b60405180910390f35b3480156107ad57600080fd5b506107c860048036038101906107c39190613b14565b612c19565b6040516107db97969594939291906140ff565b60405180910390f35b6107fe60048036038101906107f9919061416e565b612ca8565b005b600d60009054906101000a900473ffffffffffffffffffffffffffffffffffffffff1673ffffffffffffffffffffffffffffffffffffffff163373ffffffffffffffffffffffffffffffffffffffff1614610890576040517f08c379a00000000000000000000000000000000000000000000000000000000081526004016108879061421e565b60405180910390fd5b60648110156108d4576040517f08c379a00000000000000000000000000000000000000000000000000000000081526004016108cb9061428a565b60405180910390fd5b80600e8190555050565b6060600080600190505b6010548111610986576000600660008381526020019081526020016000206040518060a0016040529081600082015481526020016001820154815260200160028201548152602001600382015481526020016004820160009054906101000a900460ff161515151581525050905060008160000151111561097257828061096e906142d9565b9350505b50808061097e906142d9565b9150506108e8565b5060008167ffffffffffffffff8111156109a3576109a2614321565b5b6040519080825280602002602001820160405280156109dc57816020015b6109c9613a73565b8152602001906001900390816109c15790505b509050600080600190505b6010548111610cd6576000600660008381526020019081526020016000206040518060a0016040529081600082015481526020016001820154815260200160028201548152602001600382015481526020016004820160009054906101000a900460ff16151515158152505090506000600160008481526020019081526020016000206040518060a0016040529081600082015481526020016001820160009054906101000a900460ff161515151581526020016001820160019054906101000a900460ff161515151581526020016001820160029054906101000a900460ff16151515158152602001600282015481525050905060008060008581526020019081526020016000206040518060e00160405290816000820160009054906101000a900473ffffffffffffffffffffffffffffffffffffffff1673ffffffffffffffffffffffffffffffffffffffff1673ffffffffffffffffffffffffffffffffffffffff1681526020016001820160009054906101000a900473ffffffffffffffffffffffffffffffffffffffff1673ffffffffffffffffffffffffffffffffffffffff1673ffffffffffffffffffffffffffffffffffffffff1681526020016002820154815260200160038201548152602001600482015481526020016005820160009054906101000a900460ff166001811115610bea57610be9614088565b5b6001811115610bfc57610bfb614088565b5b81526020016006820154815250509050600083600001511115610cc057604051806101200160405280858152602001826000015173ffffffffffffffffffffffffffffffffffffffff168152602001846000015181526020018460200151815260200184604001518152602001846060015181526020018460800151151581526020018260600151815260200183602001511515815250868681518110610ca657610ca5614350565b5b60200260200101819052508480610cbc906142d9565b9550505b5050508080610cce906142d9565b9150506109e7565b5081935050505090565b6003602052816000526040600020602052806000526040600020600091509150505481565b60076020528060005260406000206000915090505481565b60105481565b60056020528160005260406000208181548110610d3f57600080fd5b90600052602060002001600091509150505481565b600f5481565b600d60009054906101000a900473ffffffffffffffffffffffffffffffffffffffff1673ffffffffffffffffffffffffffffffffffffffff163373ffffffffffffffffffffffffffffffffffffffff1614610dea576040517f08c379a0000000000000000000000000000000000000000000000000000000008152600401610de19061421e565b60405180910390fd5b610df26130e8565b6000600b60019054906101000a900473ffffffffffffffffffffffffffffffffffffffff1673ffffffffffffffffffffffffffffffffffffffff166370a08231306040518263ffffffff1660e01b8152600401610e4f9190613f27565b602060405180830381865afa158015610e6c573d6000803e3d6000fd5b505050506040513d601f19601f82011682018060405250810190610e909190614394565b905060008111610ed5576040517f08c379a0000000000000000000000000000000000000000000000000000000008152600401610ecc9061440d565b60405180910390fd5b600b60019054906101000a900473ffffffffffffffffffffffffffffffffffffffff1673ffffffffffffffffffffffffffffffffffffffff1663a9059cbb83836040518363ffffffff1660e01b8152600401610f3292919061442d565b6020604051808303816000875af1158015610f51573d6000803e3d6000fd5b505050506040513d601f19601f82011682018060405250810190610f759190614482565b610fb4576040517f08c379a0000000000000000000000000000000000000000000000000000000008152600401610fab906144fb565b60405180910390fd5b7f8a43c4352486ec339f487f64af78ca5cbf06cd47833f073d3baf3a193e5031618282604051610fe592919061442d565b60405180910390a150610ff661312e565b50565b600b60019054906101000a900473ffffffffffffffffffffffffffffffffffffffff1681565b6000600b60009054906101000a900460ff16905090565b61103e613138565b6110466130e8565b6000806000838152602001908152602001600020905060006001600084815260200190815260200160002090508060010160009054906101000a900460ff166110c4576040517f08c379a00000000000000000000000000000000000000000000000000000000081526004016110bb90614567565b60405180910390fd5b8160060154421161110a576040517f08c379a0000000000000000000000000000000000000000000000000000000008152600401611101906145d3565b60405180910390fd5b8060010160019054906101000a900460ff161561115c576040517f08c379a00000000000000000000000000000000000000000000000000000000081526004016111539061463f565b60405180910390fd5b61116583613179565b60008160010160006101000a81548160ff02191690831515021790555060018160010160026101000a81548160ff0219169083151502179055508160010160009054906101000a900473ffffffffffffffffffffffffffffffffffffffff1673ffffffffffffffffffffffffffffffffffffffff16837f0256bdf47e9aff5784070d6cab332d79f81fc6b8c8ed875565982a423a389e3a846002015460405161120e9190613db0565b60405180910390a3505061122061312e565b50565b60008061122e6124d7565b90506112dc81600e54600c60009054906101000a900473ffffffffffffffffffffffffffffffffffffffff1673ffffffffffffffffffffffffffffffffffffffff1663313ce5676040518163ffffffff1660e01b8152600401602060405180830381865afa1580156112a4573d6000803e3d6000fd5b505050506040513d601f19601f820116820180604052508101906112c89190614698565b60ff16866132b5909392919063ffffffff16565b915050919050565b60125481565b600c60009054906101000a900473ffffffffffffffffffffffffffffffffffffffff1681565b611318613138565b6113206130e8565b60008060008381526020019081526020016000209050600060016000848152602001908152602001600020905060006002600085815260200190815260200160002090508160010160009054906101000a900460ff166113b5576040517f08c379a00000000000000000000000000000000000000000000000000000000081526004016113ac90614567565b60405180910390fd5b8260000160009054906101000a900473ffffffffffffffffffffffffffffffffffffffff1673ffffffffffffffffffffffffffffffffffffffff163373ffffffffffffffffffffffffffffffffffffffff1614611447576040517f08c379a000000000000000000000000000000000000000000000000000000000815260040161143e90614711565b60405180910390fd5b611450846132fb565b6000816001015490506000811161149c576040517f08c379a00000000000000000000000000000000000000000000000000000000081526004016114939061477d565b60405180910390fd5b600060646014836114ad919061479d565b6114b7919061480e565b9050600081836114c7919061483f565b9050428460000181905550600085600201548488600201546114e99190614873565b6114f3919061483f565b90508660020154811161153b576040517f08c379a0000000000000000000000000000000000000000000000000000000008152600401611532906148f3565b60405180910390fd5b6000831161157e576040517f08c379a00000000000000000000000000000000000000000000000000000000081526004016115759061495f565b60405180910390fd5b600b60019054906101000a900473ffffffffffffffffffffffffffffffffffffffff1673ffffffffffffffffffffffffffffffffffffffff166323b872dd3330846040518463ffffffff1660e01b81526004016115dd9392919061497f565b6020604051808303816000875af11580156115fc573d6000803e3d6000fd5b505050506040513d601f19601f820116820180604052508101906116209190614482565b61165f576040517f08c379a000000000000000000000000000000000000000000000000000000000815260040161165690614a02565b60405180910390fd5b60008288600201546116719190614873565b9050600b60019054906101000a900473ffffffffffffffffffffffffffffffffffffffff1673ffffffffffffffffffffffffffffffffffffffff1663a9059cbb8960010160009054906101000a900473ffffffffffffffffffffffffffffffffffffffff16836040518363ffffffff1660e01b81526004016116f492919061442d565b6020604051808303816000875af1158015611713573d6000803e3d6000fd5b505050506040513d601f19601f820116820180604052508101906117379190614482565b611776576040517f08c379a000000000000000000000000000000000000000000000000000000000815260040161176d90614a6e565b60405180910390fd5b8187600201600082825461178a9190614873565b9250508190555060008760010160006101000a81548160ff02191690831515021790555060018760010160016101000a81548160ff02191690831515021790555060008760010160026101000a81548160ff0219169083151502179055506117f18961347a565b3373ffffffffffffffffffffffffffffffffffffffff16897f512d3e65b3e58c2187bb1872aa435dba5bd09c1c03823ba56ab70aac411e4a21846040516118389190613db0565b60405180910390a3887f04e1ead5246a36f9da4a7f8ba0922ebab097b2349377e0b60b228a5e9d8ee587856040516118709190613db0565b60405180910390a2505050505050505061188861312e565b50565b611893613138565b61189b6130e8565b6000806000838152602001908152602001600020905060006001600084815260200190815260200160002090508060010160009054906101000a900460ff161561191a576040517f08c379a000000000000000000000000000000000000000000000000000000000815260040161191190614ada565b60405180910390fd5b600073ffffffffffffffffffffffffffffffffffffffff168260010160009054906101000a900473ffffffffffffffffffffffffffffffffffffffff1673ffffffffffffffffffffffffffffffffffffffff16146119ad576040517f08c379a00000000000000000000000000000000000000000000000000000000081526004016119a490614b46565b60405180910390fd5b8160020154600b60019054906101000a900473ffffffffffffffffffffffffffffffffffffffff1673ffffffffffffffffffffffffffffffffffffffff1663dd62ed3e33306040518363ffffffff1660e01b8152600401611a0f929190614b66565b602060405180830381865afa158015611a2c573d6000803e3d6000fd5b505050506040513d601f19601f82011682018060405250810190611a509190614394565b1015611a91576040517f08c379a0000000000000000000000000000000000000000000000000000000008152600401611a8890614c01565b60405180910390fd5b600b60019054906101000a900473ffffffffffffffffffffffffffffffffffffffff1673ffffffffffffffffffffffffffffffffffffffff166323b872dd333085600201546040518463ffffffff1660e01b8152600401611af49392919061497f565b6020604051808303816000875af1158015611b13573d6000803e3d6000fd5b505050506040513d601f19601f82011682018060405250810190611b379190614482565b611b76576040517f08c379a0000000000000000000000000000000000000000000000000000000008152600401611b6d90614a02565b60405180910390fd5b338260010160006101000a81548173ffffffffffffffffffffffffffffffffffffffff021916908373ffffffffffffffffffffffffffffffffffffffff16021790555042816000018190555060018160010160006101000a81548160ff021916908315150217905550600b60019054906101000a900473ffffffffffffffffffffffffffffffffffffffff1673ffffffffffffffffffffffffffffffffffffffff1663a9059cbb8360000160009054906101000a900473ffffffffffffffffffffffffffffffffffffffff1684600201546040518363ffffffff1660e01b8152600401611c6492919061442d565b6020604051808303816000875af1158015611c83573d6000803e3d6000fd5b505050506040513d601f19601f82011682018060405250810190611ca79190614482565b611ce6576040517f08c379a0000000000000000000000000000000000000000000000000000000008152600401611cdd90614c6d565b60405180910390fd5b600560003373ffffffffffffffffffffffffffffffffffffffff1673ffffffffffffffffffffffffffffffffffffffff168152602001908152602001600020839080600181540180825580915050600190039060005260206000200160009091909190915055600460008360000160009054906101000a900473ffffffffffffffffffffffffffffffffffffffff1673ffffffffffffffffffffffffffffffffffffffff1673ffffffffffffffffffffffffffffffffffffffff16815260200190815260200160002083908060018154018082558091505060019003906000526020600020016000909190919091505560098390806001815401808255809150506001900390600052602060002001600090919091909150553373ffffffffffffffffffffffffffffffffffffffff16837f15feab5d3eb17171632762cf769709a315dd15f487a556c0dfb8a259c8f186cc60405160405180910390a38160000160009054906101000a900473ffffffffffffffffffffffffffffffffffffffff1673ffffffffffffffffffffffffffffffffffffffff16837f0ceeb4503a2fe0b51298a0af21358f3d89e7eab3f65ae2a7835859c3e2c516048460020154604051611eb29190613db0565b60405180910390a35050611ec461312e565b50565b60606000600460008473ffffffffffffffffffffffffffffffffffffffff1673ffffffffffffffffffffffffffffffffffffffff168152602001908152602001600020805480602002602001604051908101604052809291908181526020018280548015611f5457602002820191906000526020600020905b815481526020019060010190808311611f40575b505050505090506000805b8251811015612017576000838281518110611f7d57611f7c614350565b5b602002602001015190506000600660008381526020019081526020016000206040518060a0016040529081600082015481526020016001820154815260200160028201548152602001600382015481526020016004820160009054906101000a900460ff1615151515815250509050600081600001511115612008578380612004906142d9565b9450505b50508080600101915050611f5f565b5060008167ffffffffffffffff81111561203457612033614321565b5b60405190808252806020026020018201604052801561206d57816020015b61205a613a73565b8152602001906001900390816120525790505b5090506000805b845181101561237d57600085828151811061209257612091614350565b5b602002602001015190506000600660008381526020019081526020016000206040518060a0016040529081600082015481526020016001820154815260200160028201548152602001600382015481526020016004820160009054906101000a900460ff16151515158152505090506000600160008481526020019081526020016000206040518060a0016040529081600082015481526020016001820160009054906101000a900460ff161515151581526020016001820160019054906101000a900460ff161515151581526020016001820160029054906101000a900460ff16151515158152602001600282015481525050905060008060008581526020019081526020016000206040518060e00160405290816000820160009054906101000a900473ffffffffffffffffffffffffffffffffffffffff1673ffffffffffffffffffffffffffffffffffffffff1673ffffffffffffffffffffffffffffffffffffffff1681526020016001820160009054906101000a900473ffffffffffffffffffffffffffffffffffffffff1673ffffffffffffffffffffffffffffffffffffffff1673ffffffffffffffffffffffffffffffffffffffff1681526020016002820154815260200160038201548152602001600482015481526020016005820160009054906101000a900460ff16600181111561229657612295614088565b5b60018111156122a8576122a7614088565b5b8152602001600682015481525050905060008360000151111561236c57604051806101200160405280858152602001826000015173ffffffffffffffffffffffffffffffffffffffff16815260200184600001518152602001846020015181526020018460400151815260200184606001518152602001846080015115158152602001826060015181526020018360200151151581525087878151811061235257612351614350565b5b60200260200101819052508580612368906142d9565b9650505b505050508080600101915050612074565b5081945050505050919050565b600d60009054906101000a900473ffffffffffffffffffffffffffffffffffffffff1681565b600d60009054906101000a900473ffffffffffffffffffffffffffffffffffffffff1673ffffffffffffffffffffffffffffffffffffffff163373ffffffffffffffffffffffffffffffffffffffff1614612440576040517f08c379a00000000000000000000000000000000000000000000000000000000081526004016124379061421e565b60405180910390fd5b60008211612483576040517f08c379a000000000000000000000000000000000000000000000000000000000815260040161247a90614cff565b60405180910390fd5b8181116124c5576040517f08c379a00000000000000000000000000000000000000000000000000000000081526004016124bc90614d91565b60405180910390fd5b81601181905550806012819055505050565b600080600c60009054906101000a900473ffffffffffffffffffffffffffffffffffffffff1673ffffffffffffffffffffffffffffffffffffffff1663feaf968c6040518163ffffffff1660e01b815260040160a060405180830381865afa158015612547573d6000803e3d6000fd5b505050506040513d601f19601f8201168201806040525081019061256b9190614e29565b505050915050600081136125b4576040517f08c379a00000000000000000000000000000000000000000000000000000000081526004016125ab90614ef0565b60405180910390fd5b8091505090565b60086020528060005260406000206000915090508060000160009054906101000a900473ffffffffffffffffffffffffffffffffffffffff16908060010154908060020160009054906101000a900460ff16905083565b61261a613138565b6126226130e8565b60008060008481526020019081526020016000209050600060016000858152602001908152602001600020905060006002600086815260200190815260200160002090508160010160009054906101000a900460ff166126b7576040517f08c379a00000000000000000000000000000000000000000000000000000000081526004016126ae90614567565b60405180910390fd5b8260000160009054906101000a900473ffffffffffffffffffffffffffffffffffffffff1673ffffffffffffffffffffffffffffffffffffffff163373ffffffffffffffffffffffffffffffffffffffff1614612749576040517f08c379a000000000000000000000000000000000000000000000000000000000815260040161274090614711565b60405180910390fd5b612752856132fb565b600081600101549050600083600201548286600201546127729190614873565b61277c919061483f565b9050808611156127c1576040517f08c379a00000000000000000000000000000000000000000000000000000000081526004016127b890614f5c565b60405180910390fd5b600b60019054906101000a900473ffffffffffffffffffffffffffffffffffffffff1673ffffffffffffffffffffffffffffffffffffffff166323b872dd338760010160009054906101000a900473ffffffffffffffffffffffffffffffffffffffff16896040518463ffffffff1660e01b81526004016128449392919061497f565b6020604051808303816000875af1158015612863573d6000803e3d6000fd5b505050506040513d601f19601f820116820180604052508101906128879190614482565b6128c6576040517f08c379a00000000000000000000000000000000000000000000000000000000081526004016128bd90614fc8565b60405180910390fd5b858460020160008282546128da9190614873565b92505081905550808460020154106129305760018460010160016101000a81548160ff02191690831515021790555060008460010160006101000a81548160ff02191690831515021790555061292f8761347a565b5b3373ffffffffffffffffffffffffffffffffffffffff16877fb7b6ae626e0094aba4b69388b656d4b64f27860c5101c42c10a2e53fd6b0ce35886040516129779190613db0565b60405180910390a3505050505061298c61312e565b5050565b60016020528060005260406000206000915090508060000154908060010160009054906101000a900460ff16908060010160019054906101000a900460ff16908060010160029054906101000a900460ff16908060020154905085565b60026020528060005260406000206000915090508060000154908060010154905082565b60066020528060005260406000206000915090508060000154908060010154908060020154908060030154908060040160009054906101000a900460ff16905085565b600d60009054906101000a900473ffffffffffffffffffffffffffffffffffffffff1673ffffffffffffffffffffffffffffffffffffffff163373ffffffffffffffffffffffffffffffffffffffff1614612ae4576040517f08c379a0000000000000000000000000000000000000000000000000000000008152600401612adb9061421e565b60405180910390fd5b6064811015612b28576040517f08c379a0000000000000000000000000000000000000000000000000000000008152600401612b1f90615034565b60405180910390fd5b80600f8190555050565b600e5481565b60115481565b600080600b60019054906101000a900473ffffffffffffffffffffffffffffffffffffffff1673ffffffffffffffffffffffffffffffffffffffff1663dd62ed3e33306040518363ffffffff1660e01b8152600401612b9e929190614b66565b602060405180830381865afa158015612bbb573d6000803e3d6000fd5b505050506040513d601f19601f82011682018060405250810190612bdf9190614394565b90508091505090565b60046020528160005260406000208181548110612c0457600080fd5b90600052602060002001600091509150505481565b60006020528060005260406000206000915090508060000160009054906101000a900473ffffffffffffffffffffffffffffffffffffffff16908060010160009054906101000a900473ffffffffffffffffffffffffffffffffffffffff16908060020154908060030154908060040154908060050160009054906101000a900460ff16908060060154905087565b612cb0613138565b612cb86130e8565b6011548310158015612ccc57506012548311155b612d0b576040517f08c379a0000000000000000000000000000000000000000000000000000000008152600401612d02906150a0565b60405180910390fd5b60006064600e5485612d1d919061479d565b612d27919061480e565b90506000612d336124d7565b90506000612ddf82600c60009054906101000a900473ffffffffffffffffffffffffffffffffffffffff1673ffffffffffffffffffffffffffffffffffffffff1663313ce5676040518163ffffffff1660e01b8152600401602060405180830381865afa158015612da8573d6000803e3d6000fd5b505050506040513d601f19601f82011682018060405250810190612dcc9190614698565b60ff16346135839092919063ffffffff16565b905082811015612e24576040517f08c379a0000000000000000000000000000000000000000000000000000000008152600401612e1b9061510c565b60405180910390fd5b60106000815480929190612e37906142d9565b9190505550600060066000601054815260200190815260200160002090508681600001819055508581600101819055508481600301819055508442612e7c9190614873565b816002018190555060008160040160006101000a81548160ff0219169083151502179055506040518060e001604052803373ffffffffffffffffffffffffffffffffffffffff168152602001600073ffffffffffffffffffffffffffffffffffffffff16815260200188815260200134815260200187815260200160006001811115612f0b57612f0a614088565b5b815260200186815250600080601054815260200190815260200160002060008201518160000160006101000a81548173ffffffffffffffffffffffffffffffffffffffff021916908373ffffffffffffffffffffffffffffffffffffffff16021790555060208201518160010160006101000a81548173ffffffffffffffffffffffffffffffffffffffff021916908373ffffffffffffffffffffffffffffffffffffffff16021790555060408201518160020155606082015181600301556080820151816004015560a08201518160050160006101000a81548160ff02191690836001811115612fff57612ffe614088565b5b021790555060c08201518160060155905050600460003373ffffffffffffffffffffffffffffffffffffffff1673ffffffffffffffffffffffffffffffffffffffff16815260200190815260200160002060105490806001815401808255809150506001900390600052602060002001600090919091909150556130846010546135b1565b3373ffffffffffffffffffffffffffffffffffffffff166010547f68595dbe887ae7f496f2c88735019a8918919a1decfdee6bdb460480ab87decb89346040516130cf92919061400c565b60405180910390a3505050506130e361312e565b505050565b6002600a5403613124576040517f3ee5aeb500000000000000000000000000000000000000000000000000000000815260040160405180910390fd5b6002600a81905550565b6001600a81905550565b61314061101f565b15613177576040517fd93c066500000000000000000000000000000000000000000000000000000000815260040160405180910390fd5b565b6000806000838152602001908152602001600020905080600301544710156131d6576040517f08c379a00000000000000000000000000000000000000000000000000000000081526004016131cd90615178565b60405180910390fd5b60008160010160009054906101000a900473ffffffffffffffffffffffffffffffffffffffff16905060008173ffffffffffffffffffffffffffffffffffffffff168360030154604051613229906151c9565b60006040518083038185875af1925050503d8060008114613266576040519150601f19603f3d011682016040523d82523d6000602084013e61326b565b606091505b50509050806132af576040517f08c379a00000000000000000000000000000000000000000000000000000000081526004016132a69061522a565b60405180910390fd5b50505050565b600081600a6132c4919061537d565b60646132d0919061479d565b8385876132dd919061479d565b6132e7919061479d565b6132f1919061480e565b9050949350505050565b60008060008381526020019081526020016000209050600060026000848152602001908152602001600020905060006001600085815260200190815260200160002090508060010160009054906101000a900460ff16613390576040517f08c379a000000000000000000000000000000000000000000000000000000000815260040161338790614567565b60405180910390fd5b6000808360000154036133a957836006015490506133bc565b8260000154426133b9919061483f565b90505b600081116133ff576040517f08c379a00000000000000000000000000000000000000000000000000000000081526004016133f69061543a565b60405180910390fd5b600061341485600201548660040154846136f3565b90508084600101600082825461342a9190614873565b92505081905550428460000181905550857f3d8708181c6452c5711a2b4c6ed3f12149f6ea35f78549aba00a89d041e766ca8260405161346a9190613db0565b60405180910390a2505050505050565b60008060008381526020019081526020016000209050600081600301549050600081111561357e576000826003018190555060008260000160009054906101000a900473ffffffffffffffffffffffffffffffffffffffff1673ffffffffffffffffffffffffffffffffffffffff16826040516134f6906151c9565b60006040518083038185875af1925050503d8060008114613533576040519150601f19603f3d011682016040523d82523d6000602084013e613538565b606091505b505090508061357c576040517f08c379a00000000000000000000000000000000000000000000000000000000081526004016135739061522a565b60405180910390fd5b505b505050565b60008282600a613593919061537d565b8561359e919061479d565b6135a8919061480e565b90509392505050565b60006006600083815260200190815260200160002090506000807fffffffffffffffffffffffffffffffffffffffffffffffffffffffffffffffff905060005b6009805490508110156136ac5760006009828154811061361457613613614350565b5b906000526020600020015490508460000154600760008373ffffffffffffffffffffffffffffffffffffffff1673ffffffffffffffffffffffffffffffffffffffff168152602001908152602001600020541061369e57600061367b828760000154613861565b90508560010154811115801561369057508381105b1561369c578194508093505b505b5080806001019150506135f1565b50600073ffffffffffffffffffffffffffffffffffffffff168273ffffffffffffffffffffffffffffffffffffffff16146136ed576136ec84838361395d565b5b50505050565b6000808411613737576040517f08c379a000000000000000000000000000000000000000000000000000000000815260040161372e906154a6565b60405180910390fd5b6000831161377a576040517f08c379a000000000000000000000000000000000000000000000000000000000815260040161377190615538565b60405180910390fd5b600082116137bd576040517f08c379a00000000000000000000000000000000000000000000000000000000081526004016137b4906155ca565b60405180910390fd5b600063bbf81e00670de0b6b3a7640000856137d8919061479d565b6137e2919061480e565b905060008111613827576040517f08c379a000000000000000000000000000000000000000000000000000000000815260040161381e90615636565b60405180910390fd5b6000670de0b6b3a764000084838861383f919061479d565b613849919061479d565b613853919061480e565b905080925050509392505050565b600080600760008573ffffffffffffffffffffffffffffffffffffffff1673ffffffffffffffffffffffffffffffffffffffff168152602001908152602001600020549050828110156138e9576040517f08c379a00000000000000000000000000000000000000000000000000000000081526004016138e0906156a2565b60405180910390fd5b6000816064856138f9919061479d565b613903919061480e565b9050600060029050600060149050600060648383613921919061483f565b8561392c919061479d565b613936919061480e565b836139419190614873565b90508181111561394f578190505b809550505050505092915050565b60008060008581526020019081526020016000209050828160010160006101000a81548173ffffffffffffffffffffffffffffffffffffffff021916908373ffffffffffffffffffffffffffffffffffffffff16021790555081816004018190555060016006600086815260200190815260200160002060040160006101000a81548160ff0219169083151502179055508060000160009054906101000a900473ffffffffffffffffffffffffffffffffffffffff1673ffffffffffffffffffffffffffffffffffffffff168373ffffffffffffffffffffffffffffffffffffffff16857f132aeb8d030dcc11adfc3ead0730a22aa3c0bf449b3532210c732b9a25e83c2060405160405180910390a450505050565b60405180610120016040528060008152602001600073ffffffffffffffffffffffffffffffffffffffff16815260200160008152602001600081526020016000815260200160008152602001600015158152602001600081526020016000151581525090565b600080fd5b6000819050919050565b613af181613ade565b8114613afc57600080fd5b50565b600081359050613b0e81613ae8565b92915050565b600060208284031215613b2a57613b29613ad9565b5b6000613b3884828501613aff565b91505092915050565b600081519050919050565b600082825260208201905092915050565b6000819050602082019050919050565b613b7681613ade565b82525050565b600073ffffffffffffffffffffffffffffffffffffffff82169050919050565b6000613ba782613b7c565b9050919050565b613bb781613b9c565b82525050565b60008115159050919050565b613bd281613bbd565b82525050565b61012082016000820151613bef6000850182613b6d565b506020820151613c026020850182613bae565b506040820151613c156040850182613b6d565b506060820151613c286060850182613b6d565b506080820151613c3b6080850182613b6d565b5060a0820151613c4e60a0850182613b6d565b5060c0820151613c6160c0850182613bc9565b5060e0820151613c7460e0850182613b6d565b50610100820151613c89610100850182613bc9565b50505050565b6000613c9b8383613bd8565b6101208301905092915050565b6000602082019050919050565b6000613cc082613b41565b613cca8185613b4c565b9350613cd583613b5d565b8060005b83811015613d06578151613ced8882613c8f565b9750613cf883613ca8565b925050600181019050613cd9565b5085935050505092915050565b60006020820190508181036000830152613d2d8184613cb5565b905092915050565b613d3e81613b9c565b8114613d4957600080fd5b50565b600081359050613d5b81613d35565b92915050565b60008060408385031215613d7857613d77613ad9565b5b6000613d8685828601613aff565b9250506020613d9785828601613d4c565b9150509250929050565b613daa81613ade565b82525050565b6000602082019050613dc56000830184613da1565b92915050565b600060208284031215613de157613de0613ad9565b5b6000613def84828501613d4c565b91505092915050565b60008060408385031215613e0f57613e0e613ad9565b5b6000613e1d85828601613d4c565b9250506020613e2e85828601613aff565b9150509250929050565b6000819050919050565b6000613e5d613e58613e5384613b7c565b613e38565b613b7c565b9050919050565b6000613e6f82613e42565b9050919050565b6000613e8182613e64565b9050919050565b613e9181613e76565b82525050565b6000602082019050613eac6000830184613e88565b92915050565b613ebb81613bbd565b82525050565b6000602082019050613ed66000830184613eb2565b92915050565b6000613ee782613e64565b9050919050565b613ef781613edc565b82525050565b6000602082019050613f126000830184613eee565b92915050565b613f2181613b9c565b82525050565b6000602082019050613f3c6000830184613f18565b92915050565b60008060408385031215613f5957613f58613ad9565b5b6000613f6785828601613aff565b9250506020613f7885828601613aff565b9150509250929050565b6000606082019050613f976000830186613f18565b613fa46020830185613da1565b613fb16040830184613eb2565b949350505050565b600060a082019050613fce6000830188613da1565b613fdb6020830187613eb2565b613fe86040830186613eb2565b613ff56060830185613eb2565b6140026080830184613da1565b9695505050505050565b60006040820190506140216000830185613da1565b61402e6020830184613da1565b9392505050565b600060a08201905061404a6000830188613da1565b6140576020830187613da1565b6140646040830186613da1565b6140716060830185613da1565b61407e6080830184613eb2565b9695505050505050565b7f4e487b7100000000000000000000000000000000000000000000000000000000600052602160045260246000fd5b600281106140c8576140c7614088565b5b50565b60008190506140d9826140b7565b919050565b60006140e9826140cb565b9050919050565b6140f9816140de565b82525050565b600060e082019050614114600083018a613f18565b6141216020830189613f18565b61412e6040830188613da1565b61413b6060830187613da1565b6141486080830186613da1565b61415560a08301856140f0565b61416260c0830184613da1565b98975050505050505050565b60008060006060848603121561418757614186613ad9565b5b600061419586828701613aff565b93505060206141a686828701613aff565b92505060406141b786828701613aff565b9150509250925092565b600082825260208201905092915050565b7f4f6e6c79206f776e657200000000000000000000000000000000000000000000600082015250565b6000614208600a836141c1565b9150614213826141d2565b602082019050919050565b60006020820190508181036000830152614237816141fb565b9050919050565b7f526174696f20746f6f206c6f7700000000000000000000000000000000000000600082015250565b6000614274600d836141c1565b915061427f8261423e565b602082019050919050565b600060208201905081810360008301526142a381614267565b9050919050565b7f4e487b7100000000000000000000000000000000000000000000000000000000600052601160045260246000fd5b60006142e482613ade565b91507fffffffffffffffffffffffffffffffffffffffffffffffffffffffffffffffff8203614316576143156142aa565b5b600182019050919050565b7f4e487b7100000000000000000000000000000000000000000000000000000000600052604160045260246000fd5b7f4e487b7100000000000000000000000000000000000000000000000000000000600052603260045260246000fd5b60008151905061438e81613ae8565b92915050565b6000602082840312156143aa576143a9613ad9565b5b60006143b88482850161437f565b91505092915050565b7f4e6f207265776172647320746f20776974686472617700000000000000000000600082015250565b60006143f76016836141c1565b9150614402826143c1565b602082019050919050565b60006020820190508181036000830152614426816143ea565b9050919050565b60006040820190506144426000830185613f18565b61444f6020830184613da1565b9392505050565b61445f81613bbd565b811461446a57600080fd5b50565b60008151905061447c81614456565b92915050565b60006020828403121561449857614497613ad9565b5b60006144a68482850161446d565b91505092915050565b7f526577617264207769746864726177616c206661696c65640000000000000000600082015250565b60006144e56018836141c1565b91506144f0826144af565b602082019050919050565b60006020820190508181036000830152614514816144d8565b9050919050565b7f4c6f616e206e6f74206163746976650000000000000000000000000000000000600082015250565b6000614551600f836141c1565b915061455c8261451b565b602082019050919050565b6000602082019050818103600083015261458081614544565b9050919050565b7f4c6f616e206e6f74206f76657264756500000000000000000000000000000000600082015250565b60006145bd6010836141c1565b91506145c882614587565b602082019050919050565b600060208201905081810360008301526145ec816145b0565b9050919050565b7f4c6f616e20616c72656164792072657061696400000000000000000000000000600082015250565b60006146296013836141c1565b9150614634826145f3565b602082019050919050565b600060208201905081810360008301526146588161461c565b9050919050565b600060ff82169050919050565b6146758161465f565b811461468057600080fd5b50565b6000815190506146928161466c565b92915050565b6000602082840312156146ae576146ad613ad9565b5b60006146bc84828501614683565b91505092915050565b7f4e6f7420626f72726f7765720000000000000000000000000000000000000000600082015250565b60006146fb600c836141c1565b9150614706826146c5565b602082019050919050565b6000602082019050818103600083015261472a816146ee565b9050919050565b7f6e6f20696e746572657374206163637275656421000000000000000000000000600082015250565b60006147676014836141c1565b915061477282614731565b602082019050919050565b600060208201905081810360008301526147968161475a565b9050919050565b60006147a882613ade565b91506147b383613ade565b92508282026147c181613ade565b915082820484148315176147d8576147d76142aa565b5b5092915050565b7f4e487b7100000000000000000000000000000000000000000000000000000000600052601260045260246000fd5b600061481982613ade565b915061482483613ade565b925082614834576148336147df565b5b828204905092915050565b600061484a82613ade565b915061485583613ade565b925082820390508181111561486d5761486c6142aa565b5b92915050565b600061487e82613ade565b915061488983613ade565b92508282019050808211156148a1576148a06142aa565b5b92915050565b7f496e746572657374206e6f742063616c63756c61746564000000000000000000600082015250565b60006148dd6017836141c1565b91506148e8826148a7565b602082019050919050565b6000602082019050818103600083015261490c816148d0565b9050919050565b7f4e6f207265776172642063616c63756c61746564000000000000000000000000600082015250565b60006149496014836141c1565b915061495482614913565b602082019050919050565b600060208201905081810360008301526149788161493c565b9050919050565b60006060820190506149946000830186613f18565b6149a16020830185613f18565b6149ae6040830184613da1565b949350505050565b7f5472616e73666572206661696c65640000000000000000000000000000000000600082015250565b60006149ec600f836141c1565b91506149f7826149b6565b602082019050919050565b60006020820190508181036000830152614a1b816149df565b9050919050565b7f5472616e7366657220746f206c656e646572206661696c656400000000000000600082015250565b6000614a586019836141c1565b9150614a6382614a22565b602082019050919050565b60006020820190508181036000830152614a8781614a4b565b9050919050565b7f4c6f616e20616c72656164792061637469766500000000000000000000000000600082015250565b6000614ac46013836141c1565b9150614acf82614a8e565b602082019050919050565b60006020820190508181036000830152614af381614ab7565b9050919050565b7f4c6f616e20616c72656164792066756e64656400000000000000000000000000600082015250565b6000614b306013836141c1565b9150614b3b82614afa565b602082019050919050565b60006020820190508181036000830152614b5f81614b23565b9050919050565b6000604082019050614b7b6000830185613f18565b614b886020830184613f18565b9392505050565b7f496e73756666696369656e7420616c6c6f77616e636520666f7220746869732060008201527f7573657200000000000000000000000000000000000000000000000000000000602082015250565b6000614beb6024836141c1565b9150614bf682614b8f565b604082019050919050565b60006020820190508181036000830152614c1a81614bde565b9050919050565b7f4c6f616e2064697362757273656d656e74206661696c65640000000000000000600082015250565b6000614c576018836141c1565b9150614c6282614c21565b602082019050919050565b60006020820190508181036000830152614c8681614c4a565b9050919050565b7f4d696e696d756d206c6f616e20616d6f756e74206d757374206265206772656160008201527f746572207468616e203000000000000000000000000000000000000000000000602082015250565b6000614ce9602a836141c1565b9150614cf482614c8d565b604082019050919050565b60006020820190508181036000830152614d1881614cdc565b9050919050565b7f4d6178696d756d206c6f616e20616d6f756e74206d757374206265206772656160008201527f746572207468616e206d696e696d756d206c6f616e20616d6f756e7400000000602082015250565b6000614d7b603c836141c1565b9150614d8682614d1f565b604082019050919050565b60006020820190508181036000830152614daa81614d6e565b9050919050565b600069ffffffffffffffffffff82169050919050565b614dd081614db1565b8114614ddb57600080fd5b50565b600081519050614ded81614dc7565b92915050565b6000819050919050565b614e0681614df3565b8114614e1157600080fd5b50565b600081519050614e2381614dfd565b92915050565b600080600080600060a08688031215614e4557614e44613ad9565b5b6000614e5388828901614dde565b9550506020614e6488828901614e14565b9450506040614e758882890161437f565b9350506060614e868882890161437f565b9250506080614e9788828901614dde565b9150509295509295909350565b7f496e76616c696420707269636500000000000000000000000000000000000000600082015250565b6000614eda600d836141c1565b9150614ee582614ea4565b602082019050919050565b60006020820190508181036000830152614f0981614ecd565b9050919050565b7f52657061796d656e742065786365656473206f77656420616d6f756e74000000600082015250565b6000614f46601d836141c1565b9150614f5182614f10565b602082019050919050565b60006020820190508181036000830152614f7581614f39565b9050919050565b7f5061727469616c2072657061796d656e74206661696c65640000000000000000600082015250565b6000614fb26018836141c1565b9150614fbd82614f7c565b602082019050919050565b60006020820190508181036000830152614fe181614fa5565b9050919050565b7f5468726573686f6c6420746f6f206c6f77000000000000000000000000000000600082015250565b600061501e6011836141c1565b915061502982614fe8565b602082019050919050565b6000602082019050818103600083015261504d81615011565b9050919050565b7f496e76616c6964206c6f616e20616d6f756e7400000000000000000000000000600082015250565b600061508a6013836141c1565b915061509582615054565b602082019050919050565b600060208201905081810360008301526150b98161507d565b9050919050565b7f496e73756666696369656e7420636f6c6c61746572616c000000000000000000600082015250565b60006150f66017836141c1565b9150615101826150c0565b602082019050919050565b60006020820190508181036000830152615125816150e9565b9050919050565b7f496e73756666696369656e7420636f6c6c61746572616c2062616c616e636500600082015250565b6000615162601f836141c1565b915061516d8261512c565b602082019050919050565b6000602082019050818103600083015261519181615155565b9050919050565b600081905092915050565b50565b60006151b3600083615198565b91506151be826151a3565b600082019050919050565b60006151d4826151a6565b9150819050919050565b7f436f6c6c61746572616c207472616e73666572206661696c6564000000000000600082015250565b6000615214601a836141c1565b915061521f826151de565b602082019050919050565b6000602082019050818103600083015261524381615207565b9050919050565b60008160011c9050919050565b6000808291508390505b60018511156152a15780860481111561527d5761527c6142aa565b5b600185161561528c5780820291505b808102905061529a8561524a565b9450615261565b94509492505050565b6000826152ba5760019050615376565b816152c85760009050615376565b81600181146152de57600281146152e857615317565b6001915050615376565b60ff8411156152fa576152f96142aa565b5b8360020a915084821115615311576153106142aa565b5b50615376565b5060208310610133831016604e8410600b841016171561534c5782820a905083811115615347576153466142aa565b5b615376565b6153598484846001615257565b925090508184048111156153705761536f6142aa565b5b81810290505b9392505050565b600061538882613ade565b915061539383613ade565b92506153c07fffffffffffffffffffffffffffffffffffffffffffffffffffffffffffffffff84846152aa565b905092915050565b7f4e6f2074696d6520656c617073656420666f7220696e7465726573742061636360008201527f7275616c00000000000000000000000000000000000000000000000000000000602082015250565b60006154246024836141c1565b915061542f826153c8565b604082019050919050565b6000602082019050818103600083015261545381615417565b9050919050565b7f5072696e636970616c206d7573742062652067726561746572207468616e2030600082015250565b60006154906020836141c1565b915061549b8261545a565b602082019050919050565b600060208201905081810360008301526154bf81615483565b9050919050565b7f416e6e75616c2072617465206d7573742062652067726561746572207468616e60008201527f2030000000000000000000000000000000000000000000000000000000000000602082015250565b60006155226022836141c1565b915061552d826154c6565b604082019050919050565b6000602082019050818103600083015261555181615515565b9050919050565b7f54696d6520656c6170736564206d75737420626520677265617465722074686160008201527f6e20300000000000000000000000000000000000000000000000000000000000602082015250565b60006155b46023836141c1565b91506155bf82615558565b604082019050919050565b600060208201905081810360008301526155e3816155a7565b9050919050565b7f5261746520706572207365636f6e6420697320696e76616c6964000000000000600082015250565b6000615620601a836141c1565b915061562b826155ea565b602082019050919050565b6000602082019050818103600083015261564f81615613565b9050919050565b7f496e73756666696369656e74206c656e6465722066756e647300000000000000600082015250565b600061568c6019836141c1565b915061569782615656565b602082019050919050565b600060208201905081810360008301526156bb8161567f565b905091905056fea26469706673582212205f51fc6cd028ed542369aca781bf8305c9935f31f26f3bba1456ea31182d3a6764736f6c63430008180033",
  "linkReferences": {},
  "deployedLinkReferences": {}
}